{
  "_format": "hh-sol-artifact-1",
  "contractName": "Domeland",
  "sourceName": "contracts/domelandNFT.sol",
  "abi": [
    {
      "inputs": [],
      "stateMutability": "nonpayable",
      "type": "constructor"
    },
    {
      "anonymous": false,
      "inputs": [
        {
          "indexed": true,
          "internalType": "address",
          "name": "owner",
          "type": "address"
        },
        {
          "indexed": true,
          "internalType": "address",
          "name": "approved",
          "type": "address"
        },
        {
          "indexed": true,
          "internalType": "uint256",
          "name": "tokenId",
          "type": "uint256"
        }
      ],
      "name": "Approval",
      "type": "event"
    },
    {
      "anonymous": false,
      "inputs": [
        {
          "indexed": true,
          "internalType": "address",
          "name": "owner",
          "type": "address"
        },
        {
          "indexed": true,
          "internalType": "address",
          "name": "operator",
          "type": "address"
        },
        {
          "indexed": false,
          "internalType": "bool",
          "name": "approved",
          "type": "bool"
        }
      ],
      "name": "ApprovalForAll",
      "type": "event"
    },
    {
      "anonymous": false,
      "inputs": [
        {
          "indexed": false,
          "internalType": "uint256",
          "name": "_fromTokenId",
          "type": "uint256"
        },
        {
          "indexed": false,
          "internalType": "uint256",
          "name": "_toTokenId",
          "type": "uint256"
        }
      ],
      "name": "BatchMetadataUpdate",
      "type": "event"
    },
    {
      "anonymous": false,
      "inputs": [
        {
          "indexed": true,
          "internalType": "address",
          "name": "to",
          "type": "address"
        },
        {
          "indexed": false,
          "internalType": "uint256",
          "name": "amount",
          "type": "uint256"
        }
      ],
      "name": "GiftSent",
      "type": "event"
    },
    {
      "anonymous": false,
      "inputs": [
        {
          "indexed": false,
          "internalType": "uint256",
          "name": "_tokenId",
          "type": "uint256"
        }
      ],
      "name": "MetadataUpdate",
      "type": "event"
    },
    {
      "anonymous": false,
      "inputs": [
        {
          "indexed": true,
          "internalType": "address",
          "name": "to",
          "type": "address"
        },
        {
          "indexed": true,
          "internalType": "uint256",
          "name": "tokenId",
          "type": "uint256"
        }
      ],
      "name": "Minted",
      "type": "event"
    },
    {
      "anonymous": false,
      "inputs": [
        {
          "indexed": true,
          "internalType": "address",
          "name": "previousOwner",
          "type": "address"
        },
        {
          "indexed": true,
          "internalType": "address",
          "name": "newOwner",
          "type": "address"
        }
      ],
      "name": "OwnershipTransferred",
      "type": "event"
    },
    {
      "anonymous": false,
      "inputs": [
        {
          "indexed": true,
          "internalType": "address",
          "name": "from",
          "type": "address"
        },
        {
          "indexed": true,
          "internalType": "address",
          "name": "to",
          "type": "address"
        },
        {
          "indexed": true,
          "internalType": "uint256",
          "name": "tokenId",
          "type": "uint256"
        }
      ],
      "name": "Transfer",
      "type": "event"
    },
    {
      "inputs": [],
      "name": "MAX_AMOUNT",
      "outputs": [
        {
          "internalType": "uint256",
          "name": "",
          "type": "uint256"
        }
      ],
      "stateMutability": "view",
      "type": "function"
    },
    {
      "inputs": [],
      "name": "MAX_TOKENS",
      "outputs": [
        {
          "internalType": "uint256",
          "name": "",
          "type": "uint256"
        }
      ],
      "stateMutability": "view",
      "type": "function"
    },
    {
      "inputs": [],
      "name": "_mintPrice",
      "outputs": [
        {
          "internalType": "uint256",
          "name": "",
          "type": "uint256"
        }
      ],
      "stateMutability": "view",
      "type": "function"
    },
    {
      "inputs": [],
      "name": "animation_ext",
      "outputs": [
        {
          "internalType": "string",
          "name": "",
          "type": "string"
        }
      ],
      "stateMutability": "view",
      "type": "function"
    },
    {
      "inputs": [],
      "name": "animation_url",
      "outputs": [
        {
          "internalType": "string",
          "name": "",
          "type": "string"
        }
      ],
      "stateMutability": "view",
      "type": "function"
    },
    {
      "inputs": [
        {
          "internalType": "address",
          "name": "to",
          "type": "address"
        },
        {
          "internalType": "uint256",
          "name": "tokenId",
          "type": "uint256"
        }
      ],
      "name": "approve",
      "outputs": [],
      "stateMutability": "nonpayable",
      "type": "function"
    },
    {
      "inputs": [
        {
          "internalType": "address",
          "name": "owner",
          "type": "address"
        }
      ],
      "name": "balanceOf",
      "outputs": [
        {
          "internalType": "uint256",
          "name": "",
          "type": "uint256"
        }
      ],
      "stateMutability": "view",
      "type": "function"
    },
    {
      "inputs": [
        {
          "internalType": "uint256",
          "name": "tokenId",
          "type": "uint256"
        }
      ],
      "name": "getApproved",
      "outputs": [
        {
          "internalType": "address",
          "name": "",
          "type": "address"
        }
      ],
      "stateMutability": "view",
      "type": "function"
    },
    {
      "inputs": [
        {
          "internalType": "address",
          "name": "to",
          "type": "address"
        },
        {
          "internalType": "uint256",
          "name": "amount",
          "type": "uint256"
        }
      ],
      "name": "gift",
      "outputs": [],
      "stateMutability": "nonpayable",
      "type": "function"
    },
    {
      "inputs": [
        {
          "internalType": "address",
          "name": "owner",
          "type": "address"
        },
        {
          "internalType": "address",
          "name": "operator",
          "type": "address"
        }
      ],
      "name": "isApprovedForAll",
      "outputs": [
        {
          "internalType": "bool",
          "name": "",
          "type": "bool"
        }
      ],
      "stateMutability": "view",
      "type": "function"
    },
    {
      "inputs": [
        {
          "internalType": "uint256",
          "name": "amount",
          "type": "uint256"
        }
      ],
      "name": "mint",
      "outputs": [],
      "stateMutability": "payable",
      "type": "function"
    },
    {
      "inputs": [
        {
          "internalType": "address",
          "name": "to",
          "type": "address"
        },
        {
          "internalType": "string",
          "name": "uri",
          "type": "string"
        }
      ],
      "name": "mintTo",
      "outputs": [],
      "stateMutability": "nonpayable",
      "type": "function"
    },
    {
      "inputs": [],
      "name": "name",
      "outputs": [
        {
          "internalType": "string",
          "name": "",
          "type": "string"
        }
      ],
      "stateMutability": "view",
      "type": "function"
    },
    {
      "inputs": [],
      "name": "owner",
      "outputs": [
        {
          "internalType": "address",
          "name": "",
          "type": "address"
        }
      ],
      "stateMutability": "view",
      "type": "function"
    },
    {
      "inputs": [
        {
          "internalType": "uint256",
          "name": "tokenId",
          "type": "uint256"
        }
      ],
      "name": "ownerOf",
      "outputs": [
        {
          "internalType": "address",
          "name": "",
          "type": "address"
        }
      ],
      "stateMutability": "view",
      "type": "function"
    },
    {
      "inputs": [],
      "name": "renounceOwnership",
      "outputs": [],
      "stateMutability": "nonpayable",
      "type": "function"
    },
    {
      "inputs": [
        {
          "internalType": "address",
          "name": "from",
          "type": "address"
        },
        {
          "internalType": "address",
          "name": "to",
          "type": "address"
        },
        {
          "internalType": "uint256",
          "name": "tokenId",
          "type": "uint256"
        }
      ],
      "name": "safeTransferFrom",
      "outputs": [],
      "stateMutability": "nonpayable",
      "type": "function"
    },
    {
      "inputs": [
        {
          "internalType": "address",
          "name": "from",
          "type": "address"
        },
        {
          "internalType": "address",
          "name": "to",
          "type": "address"
        },
        {
          "internalType": "uint256",
          "name": "tokenId",
          "type": "uint256"
        },
        {
          "internalType": "bytes",
          "name": "data",
          "type": "bytes"
        }
      ],
      "name": "safeTransferFrom",
      "outputs": [],
      "stateMutability": "nonpayable",
      "type": "function"
    },
    {
      "inputs": [
        {
          "internalType": "string",
          "name": "newExt",
          "type": "string"
        }
      ],
      "name": "setAnimationExt",
      "outputs": [],
      "stateMutability": "nonpayable",
      "type": "function"
    },
    {
      "inputs": [
        {
          "internalType": "string",
          "name": "newUrl",
          "type": "string"
        }
      ],
      "name": "setAnimationUrl",
      "outputs": [],
      "stateMutability": "nonpayable",
      "type": "function"
    },
    {
      "inputs": [
        {
          "internalType": "address",
          "name": "operator",
          "type": "address"
        },
        {
          "internalType": "bool",
          "name": "approved",
          "type": "bool"
        }
      ],
      "name": "setApprovalForAll",
      "outputs": [],
      "stateMutability": "nonpayable",
      "type": "function"
    },
    {
      "inputs": [
        {
          "internalType": "uint256",
          "name": "newMintPrice",
          "type": "uint256"
        }
      ],
      "name": "setMintPrice",
      "outputs": [],
      "stateMutability": "nonpayable",
      "type": "function"
    },
    {
      "inputs": [
        {
          "internalType": "bytes4",
          "name": "interfaceId",
          "type": "bytes4"
        }
      ],
      "name": "supportsInterface",
      "outputs": [
        {
          "internalType": "bool",
          "name": "",
          "type": "bool"
        }
      ],
      "stateMutability": "view",
      "type": "function"
    },
    {
      "inputs": [],
      "name": "symbol",
      "outputs": [
        {
          "internalType": "string",
          "name": "",
          "type": "string"
        }
      ],
      "stateMutability": "view",
      "type": "function"
    },
    {
      "inputs": [
        {
          "internalType": "uint256",
          "name": "index",
          "type": "uint256"
        }
      ],
      "name": "tokenByIndex",
      "outputs": [
        {
          "internalType": "uint256",
          "name": "",
          "type": "uint256"
        }
      ],
      "stateMutability": "view",
      "type": "function"
    },
    {
      "inputs": [
        {
          "internalType": "address",
          "name": "owner",
          "type": "address"
        },
        {
          "internalType": "uint256",
          "name": "index",
          "type": "uint256"
        }
      ],
      "name": "tokenOfOwnerByIndex",
      "outputs": [
        {
          "internalType": "uint256",
          "name": "",
          "type": "uint256"
        }
      ],
      "stateMutability": "view",
      "type": "function"
    },
    {
      "inputs": [
        {
          "internalType": "uint256",
          "name": "tokenId",
          "type": "uint256"
        }
      ],
      "name": "tokenURI",
      "outputs": [
        {
          "internalType": "string",
          "name": "",
          "type": "string"
        }
      ],
      "stateMutability": "view",
      "type": "function"
    },
    {
      "inputs": [],
      "name": "totalSupply",
      "outputs": [
        {
          "internalType": "uint256",
          "name": "",
          "type": "uint256"
        }
      ],
      "stateMutability": "view",
      "type": "function"
    },
    {
      "inputs": [
        {
          "internalType": "address",
          "name": "from",
          "type": "address"
        },
        {
          "internalType": "address",
          "name": "to",
          "type": "address"
        },
        {
          "internalType": "uint256",
          "name": "tokenId",
          "type": "uint256"
        }
      ],
      "name": "transferFrom",
      "outputs": [],
      "stateMutability": "nonpayable",
      "type": "function"
    },
    {
      "inputs": [
        {
          "internalType": "address",
          "name": "newOwner",
          "type": "address"
        }
      ],
      "name": "transferOwnership",
      "outputs": [],
      "stateMutability": "nonpayable",
      "type": "function"
    },
    {
      "inputs": [],
      "name": "withdraw",
      "outputs": [],
      "stateMutability": "nonpayable",
      "type": "function"
    }
  ],
  "bytecode": "0x608060405266038d7ea4c68000600f553480156200001c57600080fd5b506040518060400160405280600881526020017f446f6d656c616e640000000000000000000000000000000000000000000000008152506040518060400160405280600481526020017f444c4e440000000000000000000000000000000000000000000000000000000081525060016000819055508160019081620000a29190620004e1565b508060029081620000b49190620004e1565b505050620000d7620000cb6200018b60201b60201c565b6200019360201b60201c565b604051620000e59062000259565b604051809103906000f08015801562000102573d6000803e3d6000fd5b50600d60006101000a81548173ffffffffffffffffffffffffffffffffffffffff021916908373ffffffffffffffffffffffffffffffffffffffff1602179055506040518060200160405280600081525060119081620001639190620004e1565b506040518060200160405280600081525060129081620001849190620004e1565b50620005c8565b600033905090565b6000600c60009054906101000a900473ffffffffffffffffffffffffffffffffffffffff16905081600c60006101000a81548173ffffffffffffffffffffffffffffffffffffffff021916908373ffffffffffffffffffffffffffffffffffffffff1602179055508173ffffffffffffffffffffffffffffffffffffffff168173ffffffffffffffffffffffffffffffffffffffff167f8be0079c531659141344cd1fd0a4f28419497f9722a3daafe3b4186f6b6457e060405160405180910390a35050565b613155806200522083390190565b600081519050919050565b7f4e487b7100000000000000000000000000000000000000000000000000000000600052604160045260246000fd5b7f4e487b7100000000000000000000000000000000000000000000000000000000600052602260045260246000fd5b60006002820490506001821680620002e957607f821691505b602082108103620002ff57620002fe620002a1565b5b50919050565b60008190508160005260206000209050919050565b60006020601f8301049050919050565b600082821b905092915050565b600060088302620003697fffffffffffffffffffffffffffffffffffffffffffffffffffffffffffffffff826200032a565b6200037586836200032a565b95508019841693508086168417925050509392505050565b6000819050919050565b6000819050919050565b6000620003c2620003bc620003b6846200038d565b62000397565b6200038d565b9050919050565b6000819050919050565b620003de83620003a1565b620003f6620003ed82620003c9565b84845462000337565b825550505050565b600090565b6200040d620003fe565b6200041a818484620003d3565b505050565b5b8181101562000442576200043660008262000403565b60018101905062000420565b5050565b601f82111562000491576200045b8162000305565b62000466846200031a565b8101602085101562000476578190505b6200048e62000485856200031a565b8301826200041f565b50505b505050565b600082821c905092915050565b6000620004b66000198460080262000496565b1980831691505092915050565b6000620004d18383620004a3565b9150826002028217905092915050565b620004ec8262000267565b67ffffffffffffffff81111562000508576200050762000272565b5b620005148254620002d0565b6200052182828562000446565b600060209050601f83116001811462000559576000841562000544578287015190505b620005508582620004c3565b865550620005c0565b601f198416620005698662000305565b60005b8281101562000593578489015182556001820191506020850194506020810190506200056c565b86831015620005b35784890151620005af601f891682620004a3565b8355505b6001600288020188555050505b505050505050565b614c4880620005d86000396000f3fe6080604052600436106101d75760003560e01c80636352211e11610102578063b88d4fde11610095578063e985e9c511610064578063e985e9c51461069a578063f2fde38b146106d7578063f47c84c514610700578063f4a0a5281461072b576101d7565b8063b88d4fde146105e0578063c87b56dd14610609578063cbce4c9714610646578063d40dc8701461066f576101d7565b806395d89b41116100d157806395d89b4114610545578063a0712d6814610570578063a22cb4651461058c578063a7796d03146105b5576101d7565b80636352211e1461048957806370a08231146104c6578063715018a6146105035780638da5cb5b1461051a576101d7565b806318160ddd1161017a5780633ccfd60b116101495780633ccfd60b146103e357806342842e0e146103fa5780634f6ccce7146104235780635cbfedc914610460576101d7565b806318160ddd1461032957806323b872dd1461035457806328e56c5e1461037d5780632f745c59146103a6576101d7565b80630387da42116101b65780630387da421461026d57806306fdde0314610298578063081812fc146102c3578063095ea7b314610300576101d7565b806275a317146101dc578063012f17381461020557806301ffc9a714610230575b600080fd5b3480156101e857600080fd5b5061020360048036038101906101fe9190613107565b610754565b005b34801561021157600080fd5b5061021a6107e5565b60405161022791906131e2565b60405180910390f35b34801561023c57600080fd5b506102576004803603810190610252919061325c565b610873565b60405161026491906132a4565b60405180910390f35b34801561027957600080fd5b50610282610885565b60405161028f91906132d8565b60405180910390f35b3480156102a457600080fd5b506102ad61088b565b6040516102ba91906131e2565b60405180910390f35b3480156102cf57600080fd5b506102ea60048036038101906102e5919061331f565b61091d565b6040516102f7919061335b565b60405180910390f35b34801561030c57600080fd5b5061032760048036038101906103229190613376565b610963565b005b34801561033557600080fd5b5061033e610a7a565b60405161034b91906132d8565b60405180910390f35b34801561036057600080fd5b5061037b600480360381019061037691906133b6565b610a87565b005b34801561038957600080fd5b506103a4600480360381019061039f9190613409565b610ae7565b005b3480156103b257600080fd5b506103cd60048036038101906103c89190613376565b610b02565b6040516103da91906132d8565b60405180910390f35b3480156103ef57600080fd5b506103f8610ba7565b005b34801561040657600080fd5b50610421600480360381019061041c91906133b6565b610ca7565b005b34801561042f57600080fd5b5061044a6004803603810190610445919061331f565b610cc7565b60405161045791906132d8565b60405180910390f35b34801561046c57600080fd5b5061048760048036038101906104829190613409565b610d38565b005b34801561049557600080fd5b506104b060048036038101906104ab919061331f565b610d53565b6040516104bd919061335b565b60405180910390f35b3480156104d257600080fd5b506104ed60048036038101906104e89190613452565b610dd9565b6040516104fa91906132d8565b60405180910390f35b34801561050f57600080fd5b50610518610e90565b005b34801561052657600080fd5b5061052f610ea4565b60405161053c919061335b565b60405180910390f35b34801561055157600080fd5b5061055a610ece565b60405161056791906131e2565b60405180910390f35b61058a6004803603810190610585919061331f565b610f60565b005b34801561059857600080fd5b506105b360048036038101906105ae91906134ab565b61128b565b005b3480156105c157600080fd5b506105ca6112a1565b6040516105d791906131e2565b60405180910390f35b3480156105ec57600080fd5b506106076004803603810190610602919061358c565b61132f565b005b34801561061557600080fd5b50610630600480360381019061062b919061331f565b611391565b60405161063d91906131e2565b60405180910390f35b34801561065257600080fd5b5061066d60048036038101906106689190613376565b6116c5565b005b34801561067b57600080fd5b5061068461188a565b60405161069191906132d8565b60405180910390f35b3480156106a657600080fd5b506106c160048036038101906106bc919061360f565b61188f565b6040516106ce91906132a4565b60405180910390f35b3480156106e357600080fd5b506106fe60048036038101906106f99190613452565b611923565b005b34801561070c57600080fd5b506107156119a6565b60405161072291906132d8565b60405180910390f35b34801561073757600080fd5b50610752600480360381019061074d919061331f565b6119ac565b005b61075c6119be565b6107666010611a3c565b60006107726010611a52565b905061077e8382611a60565b6107888183611a7e565b6001600e60008573ffffffffffffffffffffffffffffffffffffffff1673ffffffffffffffffffffffffffffffffffffffff16815260200190815260200160002060006101000a81548160ff021916908315150217905550505050565b601280546107f29061367e565b80601f016020809104026020016040519081016040528092919081815260200182805461081e9061367e565b801561086b5780601f106108405761010080835404028352916020019161086b565b820191906000526020600020905b81548152906001019060200180831161084e57829003601f168201915b505050505081565b600061087e82611b22565b9050919050565b600f5481565b60606001805461089a9061367e565b80601f01602080910402602001604051908101604052809291908181526020018280546108c69061367e565b80156109135780601f106108e857610100808354040283529160200191610913565b820191906000526020600020905b8154815290600101906020018083116108f657829003601f168201915b5050505050905090565b600061092882611b83565b6005600083815260200190815260200160002060009054906101000a900473ffffffffffffffffffffffffffffffffffffffff169050919050565b600061096e82610d53565b90508073ffffffffffffffffffffffffffffffffffffffff168373ffffffffffffffffffffffffffffffffffffffff16036109de576040517f08c379a00000000000000000000000000000000000000000000000000000000081526004016109d590613721565b60405180910390fd5b8073ffffffffffffffffffffffffffffffffffffffff166109fd611bce565b73ffffffffffffffffffffffffffffffffffffffff161480610a2c5750610a2b81610a26611bce565b61188f565b5b610a6b576040517f08c379a0000000000000000000000000000000000000000000000000000000008152600401610a62906137b3565b60405180910390fd5b610a758383611bd6565b505050565b6000600980549050905090565b610a98610a92611bce565b82611c8f565b610ad7576040517f08c379a0000000000000000000000000000000000000000000000000000000008152600401610ace90613845565b60405180910390fd5b610ae2838383611d24565b505050565b610aef6119be565b8060119081610afe9190613a11565b5050565b6000610b0d83610dd9565b8210610b4e576040517f08c379a0000000000000000000000000000000000000000000000000000000008152600401610b4590613b55565b60405180910390fd5b600760008473ffffffffffffffffffffffffffffffffffffffff1673ffffffffffffffffffffffffffffffffffffffff168152602001908152602001600020600083815260200190815260200160002054905092915050565b610baf6119be565b600047905060008111610bf7576040517f08c379a0000000000000000000000000000000000000000000000000000000008152600401610bee90613bc1565b60405180910390fd5b60003373ffffffffffffffffffffffffffffffffffffffff1682604051610c1d90613c12565b60006040518083038185875af1925050503d8060008114610c5a576040519150601f19603f3d011682016040523d82523d6000602084013e610c5f565b606091505b5050905080610ca3576040517f08c379a0000000000000000000000000000000000000000000000000000000008152600401610c9a90613c73565b60405180910390fd5b5050565b610cc28383836040518060200160405280600081525061132f565b505050565b6000610cd1610a7a565b8210610d12576040517f08c379a0000000000000000000000000000000000000000000000000000000008152600401610d0990613d05565b60405180910390fd5b60098281548110610d2657610d25613d25565b5b90600052602060002001549050919050565b610d406119be565b8060129081610d4f9190613a11565b5050565b600080610d5f8361201d565b9050600073ffffffffffffffffffffffffffffffffffffffff168173ffffffffffffffffffffffffffffffffffffffff1603610dd0576040517f08c379a0000000000000000000000000000000000000000000000000000000008152600401610dc790613da0565b60405180910390fd5b80915050919050565b60008073ffffffffffffffffffffffffffffffffffffffff168273ffffffffffffffffffffffffffffffffffffffff1603610e49576040517f08c379a0000000000000000000000000000000000000000000000000000000008152600401610e4090613e32565b60405180910390fd5b600460008373ffffffffffffffffffffffffffffffffffffffff1673ffffffffffffffffffffffffffffffffffffffff168152602001908152602001600020549050919050565b610e986119be565b610ea2600061205a565b565b6000600c60009054906101000a900473ffffffffffffffffffffffffffffffffffffffff16905090565b606060028054610edd9061367e565b80601f0160208091040260200160405190810160405280929190818152602001828054610f099061367e565b8015610f565780601f10610f2b57610100808354040283529160200191610f56565b820191906000526020600020905b815481529060010190602001808311610f3957829003601f168201915b5050505050905090565b610f68612120565b60008111610fab576040517f08c379a0000000000000000000000000000000000000000000000000000000008152600401610fa290613e9e565b60405180910390fd5b6014811115610fef576040517f08c379a0000000000000000000000000000000000000000000000000000000008152600401610fe690613f0a565b60405180910390fd5b80600f54610ffd9190613f59565b34101561103f576040517f08c379a000000000000000000000000000000000000000000000000000000000815260040161103690613fe7565b60405180910390fd5b60005b81811015611152576110546010611a3c565b60006110606010611a52565b90506127108111156110a7576040517f08c379a000000000000000000000000000000000000000000000000000000000815260040161109e90614053565b60405180910390fd5b6110b08161216f565b156110f0576040517f08c379a00000000000000000000000000000000000000000000000000000000081526004016110e7906140bf565b60405180910390fd5b6110fa3382611a60565b803373ffffffffffffffffffffffffffffffffffffffff167f30385c845b448a36257a6a1716e6ad2e1bc2cbe333cde1e69fe849ad6511adfe60405160405180910390a350808061114a906140df565b915050611042565b50600081600f546111639190613f59565b3461116e9190614127565b905060008111156112275760003373ffffffffffffffffffffffffffffffffffffffff168260405161119f90613c12565b60006040518083038185875af1925050503d80600081146111dc576040519150601f19603f3d011682016040523d82523d6000602084013e6111e1565b606091505b5050905080611225576040517f08c379a000000000000000000000000000000000000000000000000000000000815260040161121c906141a7565b60405180910390fd5b505b6001600e60003373ffffffffffffffffffffffffffffffffffffffff1673ffffffffffffffffffffffffffffffffffffffff16815260200190815260200160002060006101000a81548160ff021916908315150217905550506112886121b0565b50565b61129d611296611bce565b83836121ba565b5050565b601180546112ae9061367e565b80601f01602080910402602001604051908101604052809291908181526020018280546112da9061367e565b80156113275780601f106112fc57610100808354040283529160200191611327565b820191906000526020600020905b81548152906001019060200180831161130a57829003601f168201915b505050505081565b61134061133a611bce565b83611c8f565b61137f576040517f08c379a000000000000000000000000000000000000000000000000000000000815260040161137690613845565b60405180910390fd5b61138b84848484612326565b50505050565b606061139c8261216f565b6113db576040517f08c379a00000000000000000000000000000000000000000000000000000000081526004016113d290614213565b60405180910390fd5b6000600d60009054906101000a900473ffffffffffffffffffffffffffffffffffffffff1673ffffffffffffffffffffffffffffffffffffffff16636dcee4ca846040518263ffffffff1660e01b815260040161143891906132d8565b600060405180830381865afa158015611455573d6000803e3d6000fd5b505050506040513d6000823e3d601f19601f8201168201806040525081019061147e91906142a3565b90506000600d60009054906101000a900473ffffffffffffffffffffffffffffffffffffffff1673ffffffffffffffffffffffffffffffffffffffff1663691a3ca085846040518363ffffffff1660e01b81526004016114df9291906142ec565b600060405180830381865afa1580156114fc573d6000803e3d6000fd5b505050506040513d6000823e3d601f19601f8201168201806040525081019061152591906142a3565b90506000601180546115369061367e565b905011156115ee57600d60009054906101000a900473ffffffffffffffffffffffffffffffffffffffff1673ffffffffffffffffffffffffffffffffffffffff16637b5d473b8584601160126040518563ffffffff1660e01b81526004016115a194939291906143a0565b600060405180830381865afa1580156115be573d6000803e3d6000fd5b505050506040513d6000823e3d601f19601f820116820180604052508101906115e791906142a3565b9050611694565b600d60009054906101000a900473ffffffffffffffffffffffffffffffffffffffff1673ffffffffffffffffffffffffffffffffffffffff1663691a3ca085846040518363ffffffff1660e01b815260040161164b9291906142ec565b600060405180830381865afa158015611668573d6000803e3d6000fd5b505050506040513d6000823e3d601f19601f8201168201806040525081019061169191906142a3565b90505b61169d81612382565b6040516020016116ad9190614482565b60405160208183030381529060405292505050919050565b6116cd6119be565b60008111611710576040517f08c379a000000000000000000000000000000000000000000000000000000000815260040161170790613e9e565b60405180910390fd5b60005b818110156117df576117256010611a3c565b60006117316010611a52565b9050612710811115611778576040517f08c379a000000000000000000000000000000000000000000000000000000000815260040161176f90614053565b60405180910390fd5b6117818161216f565b156117c1576040517f08c379a00000000000000000000000000000000000000000000000000000000081526004016117b8906140bf565b60405180910390fd5b6117cb8482611a60565b5080806117d7906140df565b915050611713565b508173ffffffffffffffffffffffffffffffffffffffff167ff60843e7f75836e6a5aacf05ea1783d1a137a7c2980eea169f8bf57c87fca1ff8260405161182691906132d8565b60405180910390a26001600e60008473ffffffffffffffffffffffffffffffffffffffff1673ffffffffffffffffffffffffffffffffffffffff16815260200190815260200160002060006101000a81548160ff0219169083151502179055505050565b601481565b6000600660008473ffffffffffffffffffffffffffffffffffffffff1673ffffffffffffffffffffffffffffffffffffffff16815260200190815260200160002060008373ffffffffffffffffffffffffffffffffffffffff1673ffffffffffffffffffffffffffffffffffffffff16815260200190815260200160002060009054906101000a900460ff16905092915050565b61192b6119be565b600073ffffffffffffffffffffffffffffffffffffffff168173ffffffffffffffffffffffffffffffffffffffff160361199a576040517f08c379a000000000000000000000000000000000000000000000000000000000815260040161199190614516565b60405180910390fd5b6119a38161205a565b50565b61271081565b6119b46119be565b80600f8190555050565b6119c6611bce565b73ffffffffffffffffffffffffffffffffffffffff166119e4610ea4565b73ffffffffffffffffffffffffffffffffffffffff1614611a3a576040517f08c379a0000000000000000000000000000000000000000000000000000000008152600401611a3190614582565b60405180910390fd5b565b6001816000016000828254019250508190555050565b600081600001549050919050565b611a7a8282604051806020016040528060008152506124e5565b5050565b611a878261216f565b611ac6576040517f08c379a0000000000000000000000000000000000000000000000000000000008152600401611abd90614614565b60405180910390fd5b80600b60008481526020019081526020016000209081611ae69190613a11565b507ff8e1a15aba9398e019f0b49df1a4fde98ee17ae345cb5f6b5e2c27f5033e8ce782604051611b1691906132d8565b60405180910390a15050565b6000634906490660e01b7bffffffffffffffffffffffffffffffffffffffffffffffffffffffff1916827bffffffffffffffffffffffffffffffffffffffffffffffffffffffff19161480611b7c5750611b7b82612540565b5b9050919050565b611b8c8161216f565b611bcb576040517f08c379a0000000000000000000000000000000000000000000000000000000008152600401611bc290613da0565b60405180910390fd5b50565b600033905090565b816005600083815260200190815260200160002060006101000a81548173ffffffffffffffffffffffffffffffffffffffff021916908373ffffffffffffffffffffffffffffffffffffffff160217905550808273ffffffffffffffffffffffffffffffffffffffff16611c4983610d53565b73ffffffffffffffffffffffffffffffffffffffff167f8c5be1e5ebec7d5bd14f71427d1e84f3dd0314c0f7b2291e5b200ac8c7c3b92560405160405180910390a45050565b600080611c9b83610d53565b90508073ffffffffffffffffffffffffffffffffffffffff168473ffffffffffffffffffffffffffffffffffffffff161480611cdd5750611cdc818561188f565b5b80611d1b57508373ffffffffffffffffffffffffffffffffffffffff16611d038461091d565b73ffffffffffffffffffffffffffffffffffffffff16145b91505092915050565b8273ffffffffffffffffffffffffffffffffffffffff16611d4482610d53565b73ffffffffffffffffffffffffffffffffffffffff1614611d9a576040517f08c379a0000000000000000000000000000000000000000000000000000000008152600401611d91906146a6565b60405180910390fd5b600073ffffffffffffffffffffffffffffffffffffffff168273ffffffffffffffffffffffffffffffffffffffff1603611e09576040517f08c379a0000000000000000000000000000000000000000000000000000000008152600401611e0090614738565b60405180910390fd5b611e1683838360016125ba565b8273ffffffffffffffffffffffffffffffffffffffff16611e3682610d53565b73ffffffffffffffffffffffffffffffffffffffff1614611e8c576040517f08c379a0000000000000000000000000000000000000000000000000000000008152600401611e83906146a6565b60405180910390fd5b6005600082815260200190815260200160002060006101000a81549073ffffffffffffffffffffffffffffffffffffffff02191690556001600460008573ffffffffffffffffffffffffffffffffffffffff1673ffffffffffffffffffffffffffffffffffffffff168152602001908152602001600020600082825403925050819055506001600460008473ffffffffffffffffffffffffffffffffffffffff1673ffffffffffffffffffffffffffffffffffffffff16815260200190815260200160002060008282540192505081905550816003600083815260200190815260200160002060006101000a81548173ffffffffffffffffffffffffffffffffffffffff021916908373ffffffffffffffffffffffffffffffffffffffff160217905550808273ffffffffffffffffffffffffffffffffffffffff168473ffffffffffffffffffffffffffffffffffffffff167fddf252ad1be2c89b69c2b068fc378daa952ba7f163c4a11628f55a4df523b3ef60405160405180910390a461201883838360016125cc565b505050565b60006003600083815260200190815260200160002060009054906101000a900473ffffffffffffffffffffffffffffffffffffffff169050919050565b6000600c60009054906101000a900473ffffffffffffffffffffffffffffffffffffffff16905081600c60006101000a81548173ffffffffffffffffffffffffffffffffffffffff021916908373ffffffffffffffffffffffffffffffffffffffff1602179055508173ffffffffffffffffffffffffffffffffffffffff168173ffffffffffffffffffffffffffffffffffffffff167f8be0079c531659141344cd1fd0a4f28419497f9722a3daafe3b4186f6b6457e060405160405180910390a35050565b600260005403612165576040517f08c379a000000000000000000000000000000000000000000000000000000000815260040161215c906147a4565b60405180910390fd5b6002600081905550565b60008073ffffffffffffffffffffffffffffffffffffffff166121918361201d565b73ffffffffffffffffffffffffffffffffffffffff1614159050919050565b6001600081905550565b8173ffffffffffffffffffffffffffffffffffffffff168373ffffffffffffffffffffffffffffffffffffffff1603612228576040517f08c379a000000000000000000000000000000000000000000000000000000000815260040161221f90614810565b60405180910390fd5b80600660008573ffffffffffffffffffffffffffffffffffffffff1673ffffffffffffffffffffffffffffffffffffffff16815260200190815260200160002060008473ffffffffffffffffffffffffffffffffffffffff1673ffffffffffffffffffffffffffffffffffffffff16815260200190815260200160002060006101000a81548160ff0219169083151502179055508173ffffffffffffffffffffffffffffffffffffffff168373ffffffffffffffffffffffffffffffffffffffff167f17307eab39ab6107e8899845ad3d59bd9653f200f220920489ca2b5937696c318360405161231991906132a4565b60405180910390a3505050565b612331848484611d24565b61233d848484846125d2565b61237c576040517f08c379a0000000000000000000000000000000000000000000000000000000008152600401612373906148a2565b60405180910390fd5b50505050565b606060008251036123a4576040518060200160405280600081525090506124e0565b6000604051806060016040528060408152602001614bd360409139905060006003600285516123d391906148c2565b6123dd9190614925565b60046123e99190613f59565b67ffffffffffffffff81111561240257612401612fdc565b5b6040519080825280601f01601f1916602001820160405280156124345781602001600182028036833780820191505090505b509050600182016020820185865187015b808210156124a0576003820191508151603f8160121c168501518453600184019350603f81600c1c168501518453600184019350603f8160061c168501518453600184019350603f8116850151845360018401935050612445565b50506003865106600181146124bc57600281146124cf576124d7565b603d6001830353603d60028303536124d7565b603d60018303535b50505080925050505b919050565b6124ef8383612759565b6124fc60008484846125d2565b61253b576040517f08c379a0000000000000000000000000000000000000000000000000000000008152600401612532906148a2565b60405180910390fd5b505050565b60007f780e9d63000000000000000000000000000000000000000000000000000000007bffffffffffffffffffffffffffffffffffffffffffffffffffffffff1916827bffffffffffffffffffffffffffffffffffffffffffffffffffffffff191614806125b357506125b282612976565b5b9050919050565b6125c684848484612a58565b50505050565b50505050565b60006125f38473ffffffffffffffffffffffffffffffffffffffff16612bb6565b1561274c578373ffffffffffffffffffffffffffffffffffffffff1663150b7a0261261c611bce565b8786866040518563ffffffff1660e01b815260040161263e94939291906149ab565b6020604051808303816000875af192505050801561267a57506040513d601f19601f820116820180604052508101906126779190614a0c565b60015b6126fc573d80600081146126aa576040519150601f19603f3d011682016040523d82523d6000602084013e6126af565b606091505b5060008151036126f4576040517f08c379a00000000000000000000000000000000000000000000000000000000081526004016126eb906148a2565b60405180910390fd5b805181602001fd5b63150b7a0260e01b7bffffffffffffffffffffffffffffffffffffffffffffffffffffffff1916817bffffffffffffffffffffffffffffffffffffffffffffffffffffffff191614915050612751565b600190505b949350505050565b600073ffffffffffffffffffffffffffffffffffffffff168273ffffffffffffffffffffffffffffffffffffffff16036127c8576040517f08c379a00000000000000000000000000000000000000000000000000000000081526004016127bf90614a85565b60405180910390fd5b6127d18161216f565b15612811576040517f08c379a000000000000000000000000000000000000000000000000000000000815260040161280890614af1565b60405180910390fd5b61281f6000838360016125ba565b6128288161216f565b15612868576040517f08c379a000000000000000000000000000000000000000000000000000000000815260040161285f90614af1565b60405180910390fd5b6001600460008473ffffffffffffffffffffffffffffffffffffffff1673ffffffffffffffffffffffffffffffffffffffff16815260200190815260200160002060008282540192505081905550816003600083815260200190815260200160002060006101000a81548173ffffffffffffffffffffffffffffffffffffffff021916908373ffffffffffffffffffffffffffffffffffffffff160217905550808273ffffffffffffffffffffffffffffffffffffffff16600073ffffffffffffffffffffffffffffffffffffffff167fddf252ad1be2c89b69c2b068fc378daa952ba7f163c4a11628f55a4df523b3ef60405160405180910390a46129726000838360016125cc565b5050565b60007f80ac58cd000000000000000000000000000000000000000000000000000000007bffffffffffffffffffffffffffffffffffffffffffffffffffffffff1916827bffffffffffffffffffffffffffffffffffffffffffffffffffffffff19161480612a4157507f5b5e139f000000000000000000000000000000000000000000000000000000007bffffffffffffffffffffffffffffffffffffffffffffffffffffffff1916827bffffffffffffffffffffffffffffffffffffffffffffffffffffffff1916145b80612a515750612a5082612bd9565b5b9050919050565b612a6484848484612c43565b6001811115612aa8576040517f08c379a0000000000000000000000000000000000000000000000000000000008152600401612a9f90614b83565b60405180910390fd5b6000829050600073ffffffffffffffffffffffffffffffffffffffff168573ffffffffffffffffffffffffffffffffffffffff1603612aef57612aea81612c49565b612b2e565b8373ffffffffffffffffffffffffffffffffffffffff168573ffffffffffffffffffffffffffffffffffffffff1614612b2d57612b2c8582612c92565b5b5b600073ffffffffffffffffffffffffffffffffffffffff168473ffffffffffffffffffffffffffffffffffffffff1603612b7057612b6b81612dff565b612baf565b8473ffffffffffffffffffffffffffffffffffffffff168473ffffffffffffffffffffffffffffffffffffffff1614612bae57612bad8482612ed0565b5b5b5050505050565b6000808273ffffffffffffffffffffffffffffffffffffffff163b119050919050565b60007f01ffc9a7000000000000000000000000000000000000000000000000000000007bffffffffffffffffffffffffffffffffffffffffffffffffffffffff1916827bffffffffffffffffffffffffffffffffffffffffffffffffffffffff1916149050919050565b50505050565b600980549050600a600083815260200190815260200160002081905550600981908060018154018082558091505060019003906000526020600020016000909190919091505550565b60006001612c9f84610dd9565b612ca99190614127565b9050600060086000848152602001908152602001600020549050818114612d8e576000600760008673ffffffffffffffffffffffffffffffffffffffff1673ffffffffffffffffffffffffffffffffffffffff168152602001908152602001600020600084815260200190815260200160002054905080600760008773ffffffffffffffffffffffffffffffffffffffff1673ffffffffffffffffffffffffffffffffffffffff168152602001908152602001600020600084815260200190815260200160002081905550816008600083815260200190815260200160002081905550505b6008600084815260200190815260200160002060009055600760008573ffffffffffffffffffffffffffffffffffffffff1673ffffffffffffffffffffffffffffffffffffffff16815260200190815260200160002060008381526020019081526020016000206000905550505050565b60006001600980549050612e139190614127565b90506000600a6000848152602001908152602001600020549050600060098381548110612e4357612e42613d25565b5b906000526020600020015490508060098381548110612e6557612e64613d25565b5b906000526020600020018190555081600a600083815260200190815260200160002081905550600a6000858152602001908152602001600020600090556009805480612eb457612eb3614ba3565b5b6001900381819060005260206000200160009055905550505050565b6000612edb83610dd9565b905081600760008573ffffffffffffffffffffffffffffffffffffffff1673ffffffffffffffffffffffffffffffffffffffff168152602001908152602001600020600083815260200190815260200160002081905550806008600084815260200190815260200160002081905550505050565b6000604051905090565b600080fd5b600080fd5b600073ffffffffffffffffffffffffffffffffffffffff82169050919050565b6000612f8e82612f63565b9050919050565b612f9e81612f83565b8114612fa957600080fd5b50565b600081359050612fbb81612f95565b92915050565b600080fd5b600080fd5b6000601f19601f8301169050919050565b7f4e487b7100000000000000000000000000000000000000000000000000000000600052604160045260246000fd5b61301482612fcb565b810181811067ffffffffffffffff8211171561303357613032612fdc565b5b80604052505050565b6000613046612f4f565b9050613052828261300b565b919050565b600067ffffffffffffffff82111561307257613071612fdc565b5b61307b82612fcb565b9050602081019050919050565b82818337600083830152505050565b60006130aa6130a584613057565b61303c565b9050828152602081018484840111156130c6576130c5612fc6565b5b6130d1848285613088565b509392505050565b600082601f8301126130ee576130ed612fc1565b5b81356130fe848260208601613097565b91505092915050565b6000806040838503121561311e5761311d612f59565b5b600061312c85828601612fac565b925050602083013567ffffffffffffffff81111561314d5761314c612f5e565b5b613159858286016130d9565b9150509250929050565b600081519050919050565b600082825260208201905092915050565b60005b8381101561319d578082015181840152602081019050613182565b60008484015250505050565b60006131b482613163565b6131be818561316e565b93506131ce81856020860161317f565b6131d781612fcb565b840191505092915050565b600060208201905081810360008301526131fc81846131a9565b905092915050565b60007fffffffff0000000000000000000000000000000000000000000000000000000082169050919050565b61323981613204565b811461324457600080fd5b50565b60008135905061325681613230565b92915050565b60006020828403121561327257613271612f59565b5b600061328084828501613247565b91505092915050565b60008115159050919050565b61329e81613289565b82525050565b60006020820190506132b96000830184613295565b92915050565b6000819050919050565b6132d2816132bf565b82525050565b60006020820190506132ed60008301846132c9565b92915050565b6132fc816132bf565b811461330757600080fd5b50565b600081359050613319816132f3565b92915050565b60006020828403121561333557613334612f59565b5b60006133438482850161330a565b91505092915050565b61335581612f83565b82525050565b6000602082019050613370600083018461334c565b92915050565b6000806040838503121561338d5761338c612f59565b5b600061339b85828601612fac565b92505060206133ac8582860161330a565b9150509250929050565b6000806000606084860312156133cf576133ce612f59565b5b60006133dd86828701612fac565b93505060206133ee86828701612fac565b92505060406133ff8682870161330a565b9150509250925092565b60006020828403121561341f5761341e612f59565b5b600082013567ffffffffffffffff81111561343d5761343c612f5e565b5b613449848285016130d9565b91505092915050565b60006020828403121561346857613467612f59565b5b600061347684828501612fac565b91505092915050565b61348881613289565b811461349357600080fd5b50565b6000813590506134a58161347f565b92915050565b600080604083850312156134c2576134c1612f59565b5b60006134d085828601612fac565b92505060206134e185828601613496565b9150509250929050565b600067ffffffffffffffff82111561350657613505612fdc565b5b61350f82612fcb565b9050602081019050919050565b600061352f61352a846134eb565b61303c565b90508281526020810184848401111561354b5761354a612fc6565b5b613556848285613088565b509392505050565b600082601f83011261357357613572612fc1565b5b813561358384826020860161351c565b91505092915050565b600080600080608085870312156135a6576135a5612f59565b5b60006135b487828801612fac565b94505060206135c587828801612fac565b93505060406135d68782880161330a565b925050606085013567ffffffffffffffff8111156135f7576135f6612f5e565b5b6136038782880161355e565b91505092959194509250565b6000806040838503121561362657613625612f59565b5b600061363485828601612fac565b925050602061364585828601612fac565b9150509250929050565b7f4e487b7100000000000000000000000000000000000000000000000000000000600052602260045260246000fd5b6000600282049050600182168061369657607f821691505b6020821081036136a9576136a861364f565b5b50919050565b7f4552433732313a20617070726f76616c20746f2063757272656e74206f776e6560008201527f7200000000000000000000000000000000000000000000000000000000000000602082015250565b600061370b60218361316e565b9150613716826136af565b604082019050919050565b6000602082019050818103600083015261373a816136fe565b9050919050565b7f4552433732313a20617070726f76652063616c6c6572206973206e6f7420746f60008201527f6b656e206f776e6572206f7220617070726f76656420666f7220616c6c000000602082015250565b600061379d603d8361316e565b91506137a882613741565b604082019050919050565b600060208201905081810360008301526137cc81613790565b9050919050565b7f4552433732313a2063616c6c6572206973206e6f7420746f6b656e206f776e6560008201527f72206f7220617070726f76656400000000000000000000000000000000000000602082015250565b600061382f602d8361316e565b915061383a826137d3565b604082019050919050565b6000602082019050818103600083015261385e81613822565b9050919050565b60008190508160005260206000209050919050565b60006020601f8301049050919050565b600082821b905092915050565b6000600883026138c77fffffffffffffffffffffffffffffffffffffffffffffffffffffffffffffffff8261388a565b6138d1868361388a565b95508019841693508086168417925050509392505050565b6000819050919050565b600061390e613909613904846132bf565b6138e9565b6132bf565b9050919050565b6000819050919050565b613928836138f3565b61393c61393482613915565b848454613897565b825550505050565b600090565b613951613944565b61395c81848461391f565b505050565b5b8181101561398057613975600082613949565b600181019050613962565b5050565b601f8211156139c55761399681613865565b61399f8461387a565b810160208510156139ae578190505b6139c26139ba8561387a565b830182613961565b50505b505050565b600082821c905092915050565b60006139e8600019846008026139ca565b1980831691505092915050565b6000613a0183836139d7565b9150826002028217905092915050565b613a1a82613163565b67ffffffffffffffff811115613a3357613a32612fdc565b5b613a3d825461367e565b613a48828285613984565b600060209050601f831160018114613a7b5760008415613a69578287015190505b613a7385826139f5565b865550613adb565b601f198416613a8986613865565b60005b82811015613ab157848901518255600182019150602085019450602081019050613a8c565b86831015613ace5784890151613aca601f8916826139d7565b8355505b6001600288020188555050505b505050505050565b7f455243373231456e756d657261626c653a206f776e657220696e646578206f7560008201527f74206f6620626f756e6473000000000000000000000000000000000000000000602082015250565b6000613b3f602b8361316e565b9150613b4a82613ae3565b604082019050919050565b60006020820190508181036000830152613b6e81613b32565b9050919050565b7f4e6f2062616c616e636520746f20776974686472617700000000000000000000600082015250565b6000613bab60168361316e565b9150613bb682613b75565b602082019050919050565b60006020820190508181036000830152613bda81613b9e565b9050919050565b600081905092915050565b50565b6000613bfc600083613be1565b9150613c0782613bec565b600082019050919050565b6000613c1d82613bef565b9150819050919050565b7f5769746864726177206661696c65640000000000000000000000000000000000600082015250565b6000613c5d600f8361316e565b9150613c6882613c27565b602082019050919050565b60006020820190508181036000830152613c8c81613c50565b9050919050565b7f455243373231456e756d657261626c653a20676c6f62616c20696e646578206f60008201527f7574206f6620626f756e64730000000000000000000000000000000000000000602082015250565b6000613cef602c8361316e565b9150613cfa82613c93565b604082019050919050565b60006020820190508181036000830152613d1e81613ce2565b9050919050565b7f4e487b7100000000000000000000000000000000000000000000000000000000600052603260045260246000fd5b7f4552433732313a20696e76616c696420746f6b656e2049440000000000000000600082015250565b6000613d8a60188361316e565b9150613d9582613d54565b602082019050919050565b60006020820190508181036000830152613db981613d7d565b9050919050565b7f4552433732313a2061646472657373207a65726f206973206e6f74206120766160008201527f6c6964206f776e65720000000000000000000000000000000000000000000000602082015250565b6000613e1c60298361316e565b9150613e2782613dc0565b604082019050919050565b60006020820190508181036000830152613e4b81613e0f565b9050919050565b7f416d6f756e74206d7573742062652067726561746572207468616e2030000000600082015250565b6000613e88601d8361316e565b9150613e9382613e52565b602082019050919050565b60006020820190508181036000830152613eb781613e7b565b9050919050565b7f416d6f756e742065786365656473206d6178696d756d206c696d697400000000600082015250565b6000613ef4601c8361316e565b9150613eff82613ebe565b602082019050919050565b60006020820190508181036000830152613f2381613ee7565b9050919050565b7f4e487b7100000000000000000000000000000000000000000000000000000000600052601160045260246000fd5b6000613f64826132bf565b9150613f6f836132bf565b9250828202613f7d816132bf565b91508282048414831517613f9457613f93613f2a565b5b5092915050565b7f496e73756666696369656e74207061796d656e74000000000000000000000000600082015250565b6000613fd160148361316e565b9150613fdc82613f9b565b602082019050919050565b6000602082019050818103600083015261400081613fc4565b9050919050565b7f546f6b656e2049442065786365656473206c696d697400000000000000000000600082015250565b600061403d60168361316e565b915061404882614007565b602082019050919050565b6000602082019050818103600083015261406c81614030565b9050919050565b7f546f6b656e20616c7265616479206d696e746564000000000000000000000000600082015250565b60006140a960148361316e565b91506140b482614073565b602082019050919050565b600060208201905081810360008301526140d88161409c565b9050919050565b60006140ea826132bf565b91507fffffffffffffffffffffffffffffffffffffffffffffffffffffffffffffffff820361411c5761411b613f2a565b5b600182019050919050565b6000614132826132bf565b915061413d836132bf565b925082820390508181111561415557614154613f2a565b5b92915050565b7f526566756e64206661696c656400000000000000000000000000000000000000600082015250565b6000614191600d8361316e565b915061419c8261415b565b602082019050919050565b600060208201905081810360008301526141c081614184565b9050919050565b7f546f6b656e20646f6573206e6f74206578697374000000000000000000000000600082015250565b60006141fd60148361316e565b9150614208826141c7565b602082019050919050565b6000602082019050818103600083015261422c816141f0565b9050919050565b600061424661424184613057565b61303c565b90508281526020810184848401111561426257614261612fc6565b5b61426d84828561317f565b509392505050565b600082601f83011261428a57614289612fc1565b5b815161429a848260208601614233565b91505092915050565b6000602082840312156142b9576142b8612f59565b5b600082015167ffffffffffffffff8111156142d7576142d6612f5e565b5b6142e384828501614275565b91505092915050565b600060408201905061430160008301856132c9565b818103602083015261431381846131a9565b90509392505050565b600081546143298161367e565b614333818661316e565b9450600182166000811461434e576001811461436457614397565b60ff198316865281151560200286019350614397565b61436d85613865565b60005b8381101561438f57815481890152600182019150602081019050614370565b808801955050505b50505092915050565b60006080820190506143b560008301876132c9565b81810360208301526143c781866131a9565b905081810360408301526143db818561431c565b905081810360608301526143ef818461431c565b905095945050505050565b600081905092915050565b7f646174613a6170706c69636174696f6e2f6a736f6e3b6261736536342c000000600082015250565b600061443b601d836143fa565b915061444682614405565b601d82019050919050565b600061445c82613163565b61446681856143fa565b935061447681856020860161317f565b80840191505092915050565b600061448d8261442e565b91506144998284614451565b915081905092915050565b7f4f776e61626c653a206e6577206f776e657220697320746865207a65726f206160008201527f6464726573730000000000000000000000000000000000000000000000000000602082015250565b600061450060268361316e565b915061450b826144a4565b604082019050919050565b6000602082019050818103600083015261452f816144f3565b9050919050565b7f4f776e61626c653a2063616c6c6572206973206e6f7420746865206f776e6572600082015250565b600061456c60208361316e565b915061457782614536565b602082019050919050565b6000602082019050818103600083015261459b8161455f565b9050919050565b7f45524337323155524953746f726167653a2055524920736574206f66206e6f6e60008201527f6578697374656e7420746f6b656e000000000000000000000000000000000000602082015250565b60006145fe602e8361316e565b9150614609826145a2565b604082019050919050565b6000602082019050818103600083015261462d816145f1565b9050919050565b7f4552433732313a207472616e736665722066726f6d20696e636f72726563742060008201527f6f776e6572000000000000000000000000000000000000000000000000000000602082015250565b600061469060258361316e565b915061469b82614634565b604082019050919050565b600060208201905081810360008301526146bf81614683565b9050919050565b7f4552433732313a207472616e7366657220746f20746865207a65726f2061646460008201527f7265737300000000000000000000000000000000000000000000000000000000602082015250565b600061472260248361316e565b915061472d826146c6565b604082019050919050565b6000602082019050818103600083015261475181614715565b9050919050565b7f5265656e7472616e637947756172643a207265656e7472616e742063616c6c00600082015250565b600061478e601f8361316e565b915061479982614758565b602082019050919050565b600060208201905081810360008301526147bd81614781565b9050919050565b7f4552433732313a20617070726f766520746f2063616c6c657200000000000000600082015250565b60006147fa60198361316e565b9150614805826147c4565b602082019050919050565b60006020820190508181036000830152614829816147ed565b9050919050565b7f4552433732313a207472616e7366657220746f206e6f6e20455243373231526560008201527f63656976657220696d706c656d656e7465720000000000000000000000000000602082015250565b600061488c60328361316e565b915061489782614830565b604082019050919050565b600060208201905081810360008301526148bb8161487f565b9050919050565b60006148cd826132bf565b91506148d8836132bf565b92508282019050808211156148f0576148ef613f2a565b5b92915050565b7f4e487b7100000000000000000000000000000000000000000000000000000000600052601260045260246000fd5b6000614930826132bf565b915061493b836132bf565b92508261494b5761494a6148f6565b5b828204905092915050565b600081519050919050565b600082825260208201905092915050565b600061497d82614956565b6149878185614961565b935061499781856020860161317f565b6149a081612fcb565b840191505092915050565b60006080820190506149c0600083018761334c565b6149cd602083018661334c565b6149da60408301856132c9565b81810360608301526149ec8184614972565b905095945050505050565b600081519050614a0681613230565b92915050565b600060208284031215614a2257614a21612f59565b5b6000614a30848285016149f7565b91505092915050565b7f4552433732313a206d696e7420746f20746865207a65726f2061646472657373600082015250565b6000614a6f60208361316e565b9150614a7a82614a39565b602082019050919050565b60006020820190508181036000830152614a9e81614a62565b9050919050565b7f4552433732313a20746f6b656e20616c7265616479206d696e74656400000000600082015250565b6000614adb601c8361316e565b9150614ae682614aa5565b602082019050919050565b60006020820190508181036000830152614b0a81614ace565b9050919050565b7f455243373231456e756d657261626c653a20636f6e736563757469766520747260008201527f616e7366657273206e6f7420737570706f727465640000000000000000000000602082015250565b6000614b6d60358361316e565b9150614b7882614b11565b604082019050919050565b60006020820190508181036000830152614b9c81614b60565b9050919050565b7f4e487b7100000000000000000000000000000000000000000000000000000000600052603160045260246000fdfe4142434445464748494a4b4c4d4e4f505152535455565758595a6162636465666768696a6b6c6d6e6f707172737475767778797a303132333435363738392b2fa2646970667358221220631db7bc9026ab644e73b1e25069cc2076296395e7711003a52a7f953873b6b964736f6c63430008120033608060405234801561001057600080fd5b50613135806100206000396000f3fe608060405234801561001057600080fd5b50600436106100415760003560e01c8063691a3ca0146100465780636dcee4ca146100765780637b5d473b146100a6575b600080fd5b610060600480360381019061005b91906107a9565b6100d6565b60405161006d9190610884565b60405180910390f35b610090600480360381019061008b91906108a6565b61012c565b60405161009d9190610884565b60405180910390f35b6100c060048036038101906100bb91906108d3565b6101fd565b6040516100cd9190610884565b60405180910390f35b6060600082905060006100e882610295565b905060006100f5866103f8565b9050600082828360405160200161010e93929190610f22565b60405160208183030381529060405290508094505050505092915050565b606060006101366103e5846101419190611006565b61014b9190611077565b90506000610136602d8361015f91906110a8565b6101699190611077565b90506000605090506000603c90506000605a90506000610188866103f8565b610191856103f8565b61019a856103f8565b6101a3886103f8565b6101ac886103f8565b6101b5876103f8565b6101be8e6103f8565b6101c78f6103f8565b6040516020016101de989796959493929190612b3f565b6040516020818303038152906040529050809650505050505050919050565b60606000849050600061020f82610295565b9050600061021c886103f8565b905060606000865111156102555786828760405160200161023f93929190612df6565b6040516020818303038152906040529050610259565b8690505b60008382848585604051602001610274959493929190612f93565b60405160208183030381529060405290508095505050505050949350505050565b606060008251036102b7576040518060200160405280600081525090506103f3565b60006040518060600160405280604081526020016130c060409139905060006003600285516102e691906110a8565b6102f0919061308e565b60046102fc9190611006565b67ffffffffffffffff8111156103155761031461067e565b5b6040519080825280601f01601f1916602001820160405280156103475781602001600182028036833780820191505090505b509050600182016020820185865187015b808210156103b3576003820191508151603f8160121c168501518453600184019350603f81600c1c168501518453600184019350603f8160061c168501518453600184019350603f8116850151845360018401935050610358565b50506003865106600181146103cf57600281146103e2576103ea565b603d6001830353603d60028303536103ea565b603d60018303535b50505080925050505b919050565b606060006001610407846104c6565b01905060008167ffffffffffffffff8111156104265761042561067e565b5b6040519080825280601f01601f1916602001820160405280156104585781602001600182028036833780820191505090505b509050600082602001820190505b6001156104bb578080600190039150507f3031323334353637383961626364656600000000000000000000000000000000600a86061a8153600a85816104af576104ae611048565b5b04945060008503610466575b819350505050919050565b600080600090507a184f03e93ff9f4daa797ed6e38ed64bf6a1f0100000000000000008310610524577a184f03e93ff9f4daa797ed6e38ed64bf6a1f010000000000000000838161051a57610519611048565b5b0492506040810190505b6d04ee2d6d415b85acef81000000008310610561576d04ee2d6d415b85acef8100000000838161055757610556611048565b5b0492506020810190505b662386f26fc10000831061059057662386f26fc10000838161058657610585611048565b5b0492506010810190505b6305f5e10083106105b9576305f5e10083816105af576105ae611048565b5b0492506008810190505b61271083106105de5761271083816105d4576105d3611048565b5b0492506004810190505b6064831061060157606483816105f7576105f6611048565b5b0492506002810190505b600a8310610610576001810190505b80915050919050565b6000604051905090565b600080fd5b600080fd5b6000819050919050565b6106408161062d565b811461064b57600080fd5b50565b60008135905061065d81610637565b92915050565b600080fd5b600080fd5b6000601f19601f8301169050919050565b7f4e487b7100000000000000000000000000000000000000000000000000000000600052604160045260246000fd5b6106b68261066d565b810181811067ffffffffffffffff821117156106d5576106d461067e565b5b80604052505050565b60006106e8610619565b90506106f482826106ad565b919050565b600067ffffffffffffffff8211156107145761071361067e565b5b61071d8261066d565b9050602081019050919050565b82818337600083830152505050565b600061074c610747846106f9565b6106de565b90508281526020810184848401111561076857610767610668565b5b61077384828561072a565b509392505050565b600082601f8301126107905761078f610663565b5b81356107a0848260208601610739565b91505092915050565b600080604083850312156107c0576107bf610623565b5b60006107ce8582860161064e565b925050602083013567ffffffffffffffff8111156107ef576107ee610628565b5b6107fb8582860161077b565b9150509250929050565b600081519050919050565b600082825260208201905092915050565b60005b8381101561083f578082015181840152602081019050610824565b60008484015250505050565b600061085682610805565b6108608185610810565b9350610870818560208601610821565b6108798161066d565b840191505092915050565b6000602082019050818103600083015261089e818461084b565b905092915050565b6000602082840312156108bc576108bb610623565b5b60006108ca8482850161064e565b91505092915050565b600080600080608085870312156108ed576108ec610623565b5b60006108fb8782880161064e565b945050602085013567ffffffffffffffff81111561091c5761091b610628565b5b6109288782880161077b565b935050604085013567ffffffffffffffff81111561094957610948610628565b5b6109558782880161077b565b925050606085013567ffffffffffffffff81111561097657610975610628565b5b6109828782880161077b565b91505092959194509250565b600081905092915050565b7f7b226e616d65223a22446f6d656c616e64222c00000000000000000000000000600082015250565b60006109cf60138361098e565b91506109da82610999565b601382019050919050565b7f22696d616765223a22646174613a696d6167652f7376672b786d6c3b6261736560008201527f36342c0000000000000000000000000000000000000000000000000000000000602082015250565b6000610a4160238361098e565b9150610a4c826109e5565b602382019050919050565b6000610a6282610805565b610a6c818561098e565b9350610a7c818560208601610821565b80840191505092915050565b7f222c000000000000000000000000000000000000000000000000000000000000600082015250565b6000610abe60028361098e565b9150610ac982610a88565b600282019050919050565b7f2261747472696275746573223a5b000000000000000000000000000000000000600082015250565b6000610b0a600e8361098e565b9150610b1582610ad4565b600e82019050919050565b7f7b2274726169745f74797065223a22444323222c2276616c7565223a22000000600082015250565b6000610b56601d8361098e565b9150610b6182610b20565b601d82019050919050565b7f227d2c0000000000000000000000000000000000000000000000000000000000600082015250565b6000610ba260038361098e565b9150610bad82610b6c565b600382019050919050565b7f7b2274726169745f74797065223a22554e495423222c2276616c7565223a223060008201527f227d2c0000000000000000000000000000000000000000000000000000000000602082015250565b6000610c1460238361098e565b9150610c1f82610bb8565b602382019050919050565b7f7b2274726169745f74797065223a224a554d502d50415448222c2276616c756560008201527f223a224f627365727661626c6520556e697665727365202e2e2e20506973636560208201527f732c204365747573205375706572636c757374657220436f6d706c6578202e2e60408201527f2e204c616e69616b6561205375706572636c7573746572202e2e2e205669726760608201527f6f205375706572636c7573746572202e2e2e204c6f63616c2047726f7570206f60808201527f662047616c6178696573202e2e2e204d696c6b7920576179202e2e2e20536f6c60a08201527f61722053797374656d202e2e2e204561727468227d2c0000000000000000000060c082015250565b6000610d4460d68361098e565b9150610d4f82610c2a565b60d682019050919050565b7f7b2274726169745f74797065223a22564f4c222c2276616c7565223a2239583960008201527f5839227d2c000000000000000000000000000000000000000000000000000000602082015250565b6000610db660258361098e565b9150610dc182610d5a565b602582019050919050565b7f7b2274726169745f74797065223a22535243222c2276616c7565223a2268747460008201527f70733a2f2f697066732e696f2f697066732f62616679626569616568796b796160208201527f6c337163776836736b6872707664756c7765346a367a68647a776975786c337a60408201527f7776357667656a6b6761616e792f000000000000000000000000000000000000606082015250565b6000610e74606e8361098e565b9150610e7f82610dcc565b606e82019050919050565b7f2e6a736f6e227d00000000000000000000000000000000000000000000000000600082015250565b6000610ec060078361098e565b9150610ecb82610e8a565b600782019050919050565b7f5d7d000000000000000000000000000000000000000000000000000000000000600082015250565b6000610f0c60028361098e565b9150610f1782610ed6565b600282019050919050565b6000610f2d826109c2565b9150610f3882610a34565b9150610f448286610a57565b9150610f4f82610ab1565b9150610f5a82610afd565b9150610f6582610b49565b9150610f718285610a57565b9150610f7c82610b95565b9150610f8782610c07565b9150610f9282610d37565b9150610f9d82610da9565b9150610fa882610e67565b9150610fb48284610a57565b9150610fbf82610eb3565b9150610fca82610eff565b9150819050949350505050565b7f4e487b7100000000000000000000000000000000000000000000000000000000600052601160045260246000fd5b60006110118261062d565b915061101c8361062d565b925082820261102a8161062d565b9150828204841483151761104157611040610fd7565b5b5092915050565b7f4e487b7100000000000000000000000000000000000000000000000000000000600052601260045260246000fd5b60006110828261062d565b915061108d8361062d565b92508261109d5761109c611048565b5b828206905092915050565b60006110b38261062d565b91506110be8361062d565b92508282019050808211156110d6576110d5610fd7565b5b92915050565b7f3c73766720786d6c6e733d22687474703a2f2f7777772e77332e6f72672f323060008201527f30302f737667222076696577426f783d223020302033303020343830223e0000602082015250565b6000611138603e8361098e565b9150611143826110dc565b603e82019050919050565b7f3c7374796c653e00000000000000000000000000000000000000000000000000600082015250565b600061118460078361098e565b915061118f8261114e565b600782019050919050565b7f2e746f6b656e73207b20666f6e743a20626f6c6420323470782073616e732d7360008201527f657269663b207d00000000000000000000000000000000000000000000000000602082015250565b60006111f660278361098e565b91506112018261119a565b602782019050919050565b7f2e666565207b20666f6e743a206e6f726d616c20313270782073616e732d736560008201527f7269663b207d0000000000000000000000000000000000000000000000000000602082015250565b600061126860268361098e565b91506112738261120c565b602682019050919050565b7f2e7469636b207b20666f6e743a206e6f726d616c203870782073616e732d736560008201527f7269663b207d0000000000000000000000000000000000000000000000000000602082015250565b60006112da60268361098e565b91506112e58261127e565b602682019050919050565b7f3c2f7374796c653e000000000000000000000000000000000000000000000000600082015250565b600061132660088361098e565b9150611331826112f0565b600882019050919050565b7f3c646566733e0000000000000000000000000000000000000000000000000000600082015250565b600061137260068361098e565b915061137d8261133c565b600682019050919050565b7f3c6c696e6561724772616469656e742069643d2267726164222078313d22302260008201527f2079313d2230222078323d2231222079323d2231223e00000000000000000000602082015250565b60006113e460368361098e565b91506113ef82611388565b603682019050919050565b7f3c73746f70206f66667365743d223025222073746f702d636f6c6f723d22687360008201527f6c28000000000000000000000000000000000000000000000000000000000000602082015250565b600061145660228361098e565b9150611461826113fa565b602282019050919050565b7f2c20000000000000000000000000000000000000000000000000000000000000600082015250565b60006114a260028361098e565b91506114ad8261146c565b600282019050919050565b7f252c200000000000000000000000000000000000000000000000000000000000600082015250565b60006114ee60038361098e565b91506114f9826114b8565b600382019050919050565b7f2529222f3e000000000000000000000000000000000000000000000000000000600082015250565b600061153a60058361098e565b915061154582611504565b600582019050919050565b7f3c73746f70206f66667365743d2231303025222073746f702d636f6c6f723d2260008201527f68736c2800000000000000000000000000000000000000000000000000000000602082015250565b60006115ac60248361098e565b91506115b782611550565b602482019050919050565b7f3c2f6c696e6561724772616469656e743e000000000000000000000000000000600082015250565b60006115f860118361098e565b9150611603826115c2565b601182019050919050565b7f3c2f646566733e00000000000000000000000000000000000000000000000000600082015250565b600061164460078361098e565b915061164f8261160e565b600782019050919050565b7f3c726563742077696474683d2233303022206865696768743d2234383022206660008201527f696c6c3d2275726c2823677261642922202f3e00000000000000000000000000602082015250565b60006116b660338361098e565b91506116c18261165a565b603382019050919050565b7f3c7265637420783d2233302220793d223330222077696474683d22323430222060008201527f6865696768743d22343230222072783d223135222072793d223135222066696c60208201527f6c3d2268736c28302c30252c30252922207374726f6b653d222330303022206960408201527f643d226d617022202f3e00000000000000000000000000000000000000000000606082015250565b6000611774606a8361098e565b915061177f826116cc565b606a82019050919050565b7f3c7465787420783d2233392220793d2239302220636c6173733d22746f6b656e60008201527f73222066696c6c3d2223666666222069643d226e616d65223e20444f4d454c4160208201527f4e44203c2f746578743e00000000000000000000000000000000000000000000604082015250565b600061180c604a8361098e565b91506118178261178a565b604a82019050919050565b7f3c7465787420783d2233392220793d22313130222064793d2231352220636c6160008201527f73733d22746f6b656e73222066696c6c3d2223666666222069643d224443232260208201527f3e44432023000000000000000000000000000000000000000000000000000000604082015250565b60006118a460458361098e565b91506118af82611822565b604582019050919050565b7f3c2f746578743e00000000000000000000000000000000000000000000000000600082015250565b60006118f060078361098e565b91506118fb826118ba565b600782019050919050565b7f3c7465787420783d2233392220793d22313330222064793d2231352220636c6160008201527f73733d22666565222066696c6c3d2223666666222069643d22554e495423223e60208201527f554e4954202330203c2f746578743e0000000000000000000000000000000000604082015250565b6000611988604f8361098e565b915061199382611906565b604f82019050919050565b7f3c7465787420783d2233392220793d223138352220636c6173733d227469636b60008201527f222066696c6c3d2223666666222069643d224a554d502d50415448223e000000602082015250565b60006119fa603d8361098e565b9150611a058261199e565b603d82019050919050565b7f3c747370616e20783d223339222064793d22312e32656d223e43757276652d5060008201527f617468203a204f627365727661626c6520556e697665727365202d20203c2f7460208201527f7370616e3e000000000000000000000000000000000000000000000000000000604082015250565b6000611a9260458361098e565b9150611a9d82611a10565b604582019050919050565b7f3c747370616e20783d223339222064793d22312e32656d223e5069736365732c60008201527f204365747573205375706572636c757374657220436f6d706c6578202d203c2f60208201527f747370616e3e0000000000000000000000000000000000000000000000000000604082015250565b6000611b2a60468361098e565b9150611b3582611aa8565b604682019050919050565b7f3c747370616e20783d223339222064793d22312e32656d223e4c616e69616b6560008201527f61205375706572636c7573746572202d20566972676f205375706572636c757360208201527f746572202d203c2f747370616e3e000000000000000000000000000000000000604082015250565b6000611bc2604e8361098e565b9150611bcd82611b40565b604e82019050919050565b7f3c747370616e20783d223339222064793d22312e32656d223e4c6f63616c204760008201527f726f7570206f662047616c6178696573202d204d696c6b7920576179202d203c60208201527f2f747370616e3e00000000000000000000000000000000000000000000000000604082015250565b6000611c5a60478361098e565b9150611c6582611bd8565b604782019050919050565b7f3c747370616e20783d223339222064793d22312e32656d223e536f6c6172205360008201527f797374656d20202d204561727468203c2f747370616e3e000000000000000000602082015250565b6000611ccc60378361098e565b9150611cd782611c70565b603782019050919050565b7f3c7465787420783d2233392220793d22323530222064793d2233302220636c6160008201527f73733d227469636b222066696c6c3d2223666666222069643d22564f4c223e5660208201527f6f6c756d65203a20392a392a393c2f746578743e000000000000000000000000604082015250565b6000611d6460548361098e565b9150611d6f82611ce2565b605482019050919050565b7f3c7465787420783d2233392220793d22323830222064793d2233302220636c6160008201527f73733d227469636b222066696c6c3d2223666666222069643d2255534147452260208201527f3e5573616765203a20636f70696c6f742063617073756c653c2f746578743e00604082015250565b6000611dfc605f8361098e565b9150611e0782611d7a565b605f82019050919050565b7f3c7465787420783d223234302220793d223630222064793d22312e32656d222060008201527f636c6173733d227469636b222066696c6c3d2223666666222069643d2253524360208201527f222077726974696e672d6d6f64653d2274622d726c2220676c7970682d6f726960408201527f656e746174696f6e2d766572746963616c3d2230223e00000000000000000000606082015250565b6000611eba60768361098e565b9150611ec582611e12565b607682019050919050565b7f535243203a2068747470733a2f2f697066732e696f2f697066732f626166796260008201527f6569616568796b79616c337163776836736b6872707664756c7765346a367a6860208201527f647a776975786c337a7776357667656a6b6761616e792f000000000000000000604082015250565b6000611f5260578361098e565b9150611f5d82611ed0565b605782019050919050565b7f2e6a736f6e000000000000000000000000000000000000000000000000000000600082015250565b6000611f9e60058361098e565b9150611fa982611f68565b600582019050919050565b7f3c67207472616e73666f726d3d227472616e736c6174652833392c343335292060008201527f7363616c6528302e30362c2d302e303629222066696c6c3d227267626128323560208201527f352c203235352c203235352c20302e352922207374726f6b653d226e6f6e652260408201527f2069643d22746f7022203e3c7061746820643d224d343930203132343520632d60608201527f313731202d3437202d333332202d313738202d343034202d333237202d38382060808201527f2d313833202d3837202d3337322033202d353533203337202d3734203132312060a08201527f2d31383520313431202d3138352035203020313020313520313220333320332060c08201527f323920392033342035382035332037392033312031303020333720313030203260e08201527f362030202d35202d3233202d3139202d3532202d3331206c2d3532202d3232206101008201527f3239202d313720633137202d3130203933202d353120313730202d3932206c316101208201527f3430202d373320393020343720633439203235203132362036362031363920396101408201527f30206c3830203434202d353220323220632d3239203132202d3532203236202d6101608201527f353220333120302038203735202d313220313330202d3335206c3333202d31336101808201527f202d313934202d31303420632d323036202d313131202d323139202d313237206101a08201527f2d3733202d3934203131322032352032323420383520333034203136342033326101c08201527f31203331382031393720383637202d3233302031303138202d3934203333202d6101e08201527f323633203432202d3335302031387a206d2d36202d31343220633134202d35366102008201527f203233202d313039203139202d313139202d34202d3132202d33202d313520356102208201527f202d313020382035203130202d332037202d3236202d34202d3234202d33202d6102408201527f32372033202d313420382031392039203139203134202d322035202d313620306102608201527f202d3233202d3231202d3331202d3231202d38202d3232202d3130202d36202d6102808201527f31302031312030203338203520353920313320343020313420343620323220376102a08201527f312031303620362032322035203233202d362039202d3230202d3234202d39356102c08201527f202d3334202d313033202d3134202d34203132203720323120343120333620326102e08201527f35203131203535203231203636203233203136203220323620313820343020366103008201527f302031312033322032332035342032372034392038202d39203435202d3138316103208201527f203535202d3235332033202d32352038202d3534203131202d36362034202d316103408201527f34202d31202d3234202d3138202d3332202d3439202d32332035202d313120376103608201527f392031392039332033372031313820353620313031203736202d38203130202d6103808201527f3330203133202d3737203131206c2d3635202d33202d313820343820632d31306103a08201527f203236202d3136203437202d313520343720322030203633202d3234203133376103c08201527f202d3534206c313334202d3534202d3634202d323920632d3336202d3137202d6103e08201527f313231202d3536202d313839202d3838202d3639202d3332202d313330202d356104008201527f38202d313335202d3538202d382030202d3130202d3836202d38202d323734206104208201527f6c33202d323733202d31383820393620632d313033203533202d3139342031306104408201527f31202d32303120313037202d392037202d3133203331202d31322037312034206104608201527f313037203020313633202d313020313431202d35202d3132202d39202d3134206104808201527f2d39202d36202d312038202d3133203330202d3238203439202d3135203230206104a08201527f2d3233203337202d3137203339203335203132203337203230203230203638206104c08201527f2d38203236202d3234203534202d3333203631202d3136203132202d313120316104e08201527f33203335203134206c35342030202d3420333620632d332034322039203534206105008201527f38322038302034362031372034372031382037302038382033312039362036316105208201527f20313738203635203137342032202d32203135202d3439203239202d3130357a6105408201527f206d353238202d34343120633332202d3131203732202d3331203930202d34346105608201527f203330202d3231203331202d3233203132202d3236202d3132202d32202d35306105808201527f202d3238202d3835202d3539202d3730202d3631202d313239202d3932202d316105a08201527f3733202d3933202d32372030202d32382031202d3134203232203820313220326105c08201527f37203235203433203330203135203420343120323020353820333520313720316105e08201527f35203237203233203234203136202d35202d38202d31202d38203137203020316106008201527f352037203230203134203133203139202d3620332035203820323420313120316106208201527f39203220362034202d33312035202d35342031202d3734202d34202d313230206106408201527f2d3238202d3738202d3432202d3930202d3430202d39302031342030203533206106608201527f3134203936203338203131342032332031382031323020313020313934202d316106808201527f367a206d2d3837202d31333220632d3130202d3131202d3233202d3230202d326106a08201527f39202d3230202d362030203020392031342032302033322032352033382032356106c08201527f20313520307a222f3e3c7061746820643d224d3332302038373020633139202d6106e08201527f3131203430202d3139203435202d313920362030202d362038202d32352031396107008201527f202d3139203131202d3339203139202d3435203139202d3520302036202d38206107208201527f3235202d31397a222f3e3c7061746820643d224d3435302038313020633139206107408201527f2d3131203430202d3139203435202d313920362030202d362038202d323520316107608201527f39202d3139203131202d3339203139202d3435203139202d3520302036202d386107808201527f203235202d31397a222f3e3c7061746820643d224d3239302037353920632d316107a08201527f32202d38202d3130202d392038202d34203731203230203931202d31323320326107c08201527f34202d313736202d3231202d3136202d3233202d3230202d38202d31382035386107e08201527f2031312038322031333520333520313835202d3235203236202d3336203239206108008201527f2d35392031337a222f3e3c7061746820643d224d3537302037353520633134206108208201527f2d38203330202d3134203335202d313420362030202d312036202d31352031346108408201527f202d31342038202d3239203134202d3335203134202d3520302031202d3620316108608201527f35202d31347a222f3e3c7061746820643d224d3532352036363020632d3137206108808201527f2d37202d3134202d39203132202d39203638202d32203835202d3132312032376108a08201527f202d313833202d3235202d3236202d3236202d3239202d37202d3139203636206108c08201527f333420373120313637203820323036202d31322038202d3238203130202d34306108e08201527f20357a222f3e3c2f673e0000000000000000000000000000000000000000000061090082015250565b6000612adc61090a8361098e565b9150612ae782611fb4565b61090a82019050919050565b7f3c2f7376673e0000000000000000000000000000000000000000000000000000600082015250565b6000612b2960068361098e565b9150612b3482612af3565b600682019050919050565b6000612b4a8261112b565b9150612b5582611177565b9150612b60826111e9565b9150612b6b8261125b565b9150612b76826112cd565b9150612b8182611319565b9150612b8c82611365565b9150612b97826113d7565b9150612ba282611449565b9150612bae828b610a57565b9150612bb982611495565b9150612bc5828a610a57565b9150612bd0826114e1565b9150612bdc8289610a57565b9150612be78261152d565b9150612bf28261159f565b9150612bfe8288610a57565b9150612c0982611495565b9150612c158287610a57565b9150612c20826114e1565b9150612c2c8286610a57565b9150612c378261152d565b9150612c42826115eb565b9150612c4d82611637565b9150612c58826116a9565b9150612c6382611767565b9150612c6e826117ff565b9150612c7982611897565b9150612c858285610a57565b9150612c90826118e3565b9150612c9b8261197b565b9150612ca6826119ed565b9150612cb182611a85565b9150612cbc82611b1d565b9150612cc782611bb5565b9150612cd282611c4d565b9150612cdd82611cbf565b9150612ce8826118e3565b9150612cf382611d57565b9150612cfe82611def565b9150612d0982611ead565b9150612d1482611f45565b9150612d208284610a57565b9150612d2b82611f91565b9150612d36826118e3565b9150612d4182612ace565b9150612d4c82612b1c565b91508190509998505050505050505050565b7f2f00000000000000000000000000000000000000000000000000000000000000600082015250565b6000612d9460018361098e565b9150612d9f82612d5e565b600182019050919050565b7f2e00000000000000000000000000000000000000000000000000000000000000600082015250565b6000612de060018361098e565b9150612deb82612daa565b600182019050919050565b6000612e028286610a57565b9150612e0d82612d87565b9150612e198285610a57565b9150612e2482612dd3565b9150612e308284610a57565b9150819050949350505050565b7f22616e696d6174696f6e5f75726c223a22000000000000000000000000000000600082015250565b6000612e7360118361098e565b9150612e7e82612e3d565b601182019050919050565b7f2e6a736f6e227d2c000000000000000000000000000000000000000000000000600082015250565b6000612ebf60088361098e565b9150612eca82612e89565b600882019050919050565b7f7b2274726169745f74797065223a22416e696d6174696f6e222c2276616c756560008201527f223a220000000000000000000000000000000000000000000000000000000000602082015250565b6000612f3160238361098e565b9150612f3c82612ed5565b602382019050919050565b7f227d000000000000000000000000000000000000000000000000000000000000600082015250565b6000612f7d60028361098e565b9150612f8882612f47565b600282019050919050565b6000612f9e826109c2565b9150612fa982610a34565b9150612fb58288610a57565b9150612fc082610ab1565b9150612fcb82612e66565b9150612fd78287610a57565b9150612fe282610ab1565b9150612fed82610afd565b9150612ff882610b49565b91506130048286610a57565b915061300f82610b95565b915061301a82610c07565b915061302582610d37565b915061303082610da9565b915061303b82610e67565b91506130478285610a57565b915061305282612eb2565b915061305d82612f24565b91506130698284610a57565b915061307482612f70565b915061307f82610eff565b91508190509695505050505050565b60006130998261062d565b91506130a48361062d565b9250826130b4576130b3611048565b5b82820490509291505056fe4142434445464748494a4b4c4d4e4f505152535455565758595a6162636465666768696a6b6c6d6e6f707172737475767778797a303132333435363738392b2fa2646970667358221220ef74a2f5019785817a5c09098a5d5553285b86537d0231fd50babf62250e8d1c64736f6c63430008120033",
  "linkReferences": {},
  "deployedLinkReferences": {}
}