{"contracts/genTool.sol":{"GenTool":{"abi":[{"inputs":[{"internalType":"uint256","name":"tokenId","type":"uint256"},{"internalType":"string","name":"svg","type":"string"}],"name":"generateMetadata","outputs":[{"internalType":"string","name":"","type":"string"}],"stateMutability":"pure","type":"function"},{"inputs":[{"internalType":"uint256","name":"tokenId","type":"uint256"},{"internalType":"string","name":"svg","type":"string"},{"internalType":"string","name":"animationUrl","type":"string"},{"internalType":"string","name":"animationExt","type":"string"}],"name":"generateMetadata","outputs":[{"internalType":"string","name":"","type":"string"}],"stateMutability":"pure","type":"function"},{"inputs":[{"internalType":"uint256","name":"tokenId","type":"uint256"}],"name":"generateSVG","outputs":[{"internalType":"string","name":"","type":"string"}],"stateMutability":"pure","type":"function"}],"evm":{"bytecode":{"linkReferences":{},"object":"608060405234801561001057600080fd5b50613135806100206000396000f3fe608060405234801561001057600080fd5b50600436106100415760003560e01c8063691a3ca0146100465780636dcee4ca146100765780637b5d473b146100a6575b600080fd5b610060600480360381019061005b91906107a9565b6100d6565b60405161006d9190610884565b60405180910390f35b610090600480360381019061008b91906108a6565b61012c565b60405161009d9190610884565b60405180910390f35b6100c060048036038101906100bb91906108d3565b6101fd565b6040516100cd9190610884565b60405180910390f35b6060600082905060006100e882610295565b905060006100f5866103f8565b9050600082828360405160200161010e93929190610f22565b60405160208183030381529060405290508094505050505092915050565b606060006101366103e5846101419190611006565b61014b9190611077565b90506000610136602d8361015f91906110a8565b6101699190611077565b90506000605090506000603c90506000605a90506000610188866103f8565b610191856103f8565b61019a856103f8565b6101a3886103f8565b6101ac886103f8565b6101b5876103f8565b6101be8e6103f8565b6101c78f6103f8565b6040516020016101de989796959493929190612b3f565b6040516020818303038152906040529050809650505050505050919050565b60606000849050600061020f82610295565b9050600061021c886103f8565b905060606000865111156102555786828760405160200161023f93929190612df6565b6040516020818303038152906040529050610259565b8690505b60008382848585604051602001610274959493929190612f93565b60405160208183030381529060405290508095505050505050949350505050565b606060008251036102b7576040518060200160405280600081525090506103f3565b60006040518060600160405280604081526020016130c060409139905060006003600285516102e691906110a8565b6102f0919061308e565b60046102fc9190611006565b67ffffffffffffffff8111156103155761031461067e565b5b6040519080825280601f01601f1916602001820160405280156103475781602001600182028036833780820191505090505b509050600182016020820185865187015b808210156103b3576003820191508151603f8160121c168501518453600184019350603f81600c1c168501518453600184019350603f8160061c168501518453600184019350603f8116850151845360018401935050610358565b50506003865106600181146103cf57600281146103e2576103ea565b603d6001830353603d60028303536103ea565b603d60018303535b50505080925050505b919050565b606060006001610407846104c6565b01905060008167ffffffffffffffff8111156104265761042561067e565b5b6040519080825280601f01601f1916602001820160405280156104585781602001600182028036833780820191505090505b509050600082602001820190505b6001156104bb578080600190039150507f3031323334353637383961626364656600000000000000000000000000000000600a86061a8153600a85816104af576104ae611048565b5b04945060008503610466575b819350505050919050565b600080600090507a184f03e93ff9f4daa797ed6e38ed64bf6a1f0100000000000000008310610524577a184f03e93ff9f4daa797ed6e38ed64bf6a1f010000000000000000838161051a57610519611048565b5b0492506040810190505b6d04ee2d6d415b85acef81000000008310610561576d04ee2d6d415b85acef8100000000838161055757610556611048565b5b0492506020810190505b662386f26fc10000831061059057662386f26fc10000838161058657610585611048565b5b0492506010810190505b6305f5e10083106105b9576305f5e10083816105af576105ae611048565b5b0492506008810190505b61271083106105de5761271083816105d4576105d3611048565b5b0492506004810190505b6064831061060157606483816105f7576105f6611048565b5b0492506002810190505b600a8310610610576001810190505b80915050919050565b6000604051905090565b600080fd5b600080fd5b6000819050919050565b6106408161062d565b811461064b57600080fd5b50565b60008135905061065d81610637565b92915050565b600080fd5b600080fd5b6000601f19601f8301169050919050565b7f4e487b7100000000000000000000000000000000000000000000000000000000600052604160045260246000fd5b6106b68261066d565b810181811067ffffffffffffffff821117156106d5576106d461067e565b5b80604052505050565b60006106e8610619565b90506106f482826106ad565b919050565b600067ffffffffffffffff8211156107145761071361067e565b5b61071d8261066d565b9050602081019050919050565b82818337600083830152505050565b600061074c610747846106f9565b6106de565b90508281526020810184848401111561076857610767610668565b5b61077384828561072a565b509392505050565b600082601f8301126107905761078f610663565b5b81356107a0848260208601610739565b91505092915050565b600080604083850312156107c0576107bf610623565b5b60006107ce8582860161064e565b925050602083013567ffffffffffffffff8111156107ef576107ee610628565b5b6107fb8582860161077b565b9150509250929050565b600081519050919050565b600082825260208201905092915050565b60005b8381101561083f578082015181840152602081019050610824565b60008484015250505050565b600061085682610805565b6108608185610810565b9350610870818560208601610821565b6108798161066d565b840191505092915050565b6000602082019050818103600083015261089e818461084b565b905092915050565b6000602082840312156108bc576108bb610623565b5b60006108ca8482850161064e565b91505092915050565b600080600080608085870312156108ed576108ec610623565b5b60006108fb8782880161064e565b945050602085013567ffffffffffffffff81111561091c5761091b610628565b5b6109288782880161077b565b935050604085013567ffffffffffffffff81111561094957610948610628565b5b6109558782880161077b565b925050606085013567ffffffffffffffff81111561097657610975610628565b5b6109828782880161077b565b91505092959194509250565b600081905092915050565b7f7b226e616d65223a22446f6d656c616e64222c00000000000000000000000000600082015250565b60006109cf60138361098e565b91506109da82610999565b601382019050919050565b7f22696d616765223a22646174613a696d6167652f7376672b786d6c3b6261736560008201527f36342c0000000000000000000000000000000000000000000000000000000000602082015250565b6000610a4160238361098e565b9150610a4c826109e5565b602382019050919050565b6000610a6282610805565b610a6c818561098e565b9350610a7c818560208601610821565b80840191505092915050565b7f222c000000000000000000000000000000000000000000000000000000000000600082015250565b6000610abe60028361098e565b9150610ac982610a88565b600282019050919050565b7f2261747472696275746573223a5b000000000000000000000000000000000000600082015250565b6000610b0a600e8361098e565b9150610b1582610ad4565b600e82019050919050565b7f7b2274726169745f74797065223a22444323222c2276616c7565223a22000000600082015250565b6000610b56601d8361098e565b9150610b6182610b20565b601d82019050919050565b7f227d2c0000000000000000000000000000000000000000000000000000000000600082015250565b6000610ba260038361098e565b9150610bad82610b6c565b600382019050919050565b7f7b2274726169745f74797065223a22554e495423222c2276616c7565223a223060008201527f227d2c0000000000000000000000000000000000000000000000000000000000602082015250565b6000610c1460238361098e565b9150610c1f82610bb8565b602382019050919050565b7f7b2274726169745f74797065223a224a554d502d50415448222c2276616c756560008201527f223a224f627365727661626c6520556e697665727365202e2e2e20506973636560208201527f732c204365747573205375706572636c757374657220436f6d706c6578202e2e60408201527f2e204c616e69616b6561205375706572636c7573746572202e2e2e205669726760608201527f6f205375706572636c7573746572202e2e2e204c6f63616c2047726f7570206f60808201527f662047616c6178696573202e2e2e204d696c6b7920576179202e2e2e20536f6c60a08201527f61722053797374656d202e2e2e204561727468227d2c0000000000000000000060c082015250565b6000610d4460d68361098e565b9150610d4f82610c2a565b60d682019050919050565b7f7b2274726169745f74797065223a22564f4c222c2276616c7565223a2239583960008201527f5839227d2c000000000000000000000000000000000000000000000000000000602082015250565b6000610db660258361098e565b9150610dc182610d5a565b602582019050919050565b7f7b2274726169745f74797065223a22535243222c2276616c7565223a2268747460008201527f70733a2f2f697066732e696f2f697066732f62616679626569616568796b796160208201527f6c337163776836736b6872707664756c7765346a367a68647a776975786c337a60408201527f7776357667656a6b6761616e792f000000000000000000000000000000000000606082015250565b6000610e74606e8361098e565b9150610e7f82610dcc565b606e82019050919050565b7f2e6a736f6e227d00000000000000000000000000000000000000000000000000600082015250565b6000610ec060078361098e565b9150610ecb82610e8a565b600782019050919050565b7f5d7d000000000000000000000000000000000000000000000000000000000000600082015250565b6000610f0c60028361098e565b9150610f1782610ed6565b600282019050919050565b6000610f2d826109c2565b9150610f3882610a34565b9150610f448286610a57565b9150610f4f82610ab1565b9150610f5a82610afd565b9150610f6582610b49565b9150610f718285610a57565b9150610f7c82610b95565b9150610f8782610c07565b9150610f9282610d37565b9150610f9d82610da9565b9150610fa882610e67565b9150610fb48284610a57565b9150610fbf82610eb3565b9150610fca82610eff565b9150819050949350505050565b7f4e487b7100000000000000000000000000000000000000000000000000000000600052601160045260246000fd5b60006110118261062d565b915061101c8361062d565b925082820261102a8161062d565b9150828204841483151761104157611040610fd7565b5b5092915050565b7f4e487b7100000000000000000000000000000000000000000000000000000000600052601260045260246000fd5b60006110828261062d565b915061108d8361062d565b92508261109d5761109c611048565b5b828206905092915050565b60006110b38261062d565b91506110be8361062d565b92508282019050808211156110d6576110d5610fd7565b5b92915050565b7f3c73766720786d6c6e733d22687474703a2f2f7777772e77332e6f72672f323060008201527f30302f737667222076696577426f783d223020302033303020343830223e0000602082015250565b6000611138603e8361098e565b9150611143826110dc565b603e82019050919050565b7f3c7374796c653e00000000000000000000000000000000000000000000000000600082015250565b600061118460078361098e565b915061118f8261114e565b600782019050919050565b7f2e746f6b656e73207b20666f6e743a20626f6c6420323470782073616e732d7360008201527f657269663b207d00000000000000000000000000000000000000000000000000602082015250565b60006111f660278361098e565b91506112018261119a565b602782019050919050565b7f2e666565207b20666f6e743a206e6f726d616c20313270782073616e732d736560008201527f7269663b207d0000000000000000000000000000000000000000000000000000602082015250565b600061126860268361098e565b91506112738261120c565b602682019050919050565b7f2e7469636b207b20666f6e743a206e6f726d616c203870782073616e732d736560008201527f7269663b207d0000000000000000000000000000000000000000000000000000602082015250565b60006112da60268361098e565b91506112e58261127e565b602682019050919050565b7f3c2f7374796c653e000000000000000000000000000000000000000000000000600082015250565b600061132660088361098e565b9150611331826112f0565b600882019050919050565b7f3c646566733e0000000000000000000000000000000000000000000000000000600082015250565b600061137260068361098e565b915061137d8261133c565b600682019050919050565b7f3c6c696e6561724772616469656e742069643d2267726164222078313d22302260008201527f2079313d2230222078323d2231222079323d2231223e00000000000000000000602082015250565b60006113e460368361098e565b91506113ef82611388565b603682019050919050565b7f3c73746f70206f66667365743d223025222073746f702d636f6c6f723d22687360008201527f6c28000000000000000000000000000000000000000000000000000000000000602082015250565b600061145660228361098e565b9150611461826113fa565b602282019050919050565b7f2c20000000000000000000000000000000000000000000000000000000000000600082015250565b60006114a260028361098e565b91506114ad8261146c565b600282019050919050565b7f252c200000000000000000000000000000000000000000000000000000000000600082015250565b60006114ee60038361098e565b91506114f9826114b8565b600382019050919050565b7f2529222f3e000000000000000000000000000000000000000000000000000000600082015250565b600061153a60058361098e565b915061154582611504565b600582019050919050565b7f3c73746f70206f66667365743d2231303025222073746f702d636f6c6f723d2260008201527f68736c2800000000000000000000000000000000000000000000000000000000602082015250565b60006115ac60248361098e565b91506115b782611550565b602482019050919050565b7f3c2f6c696e6561724772616469656e743e000000000000000000000000000000600082015250565b60006115f860118361098e565b9150611603826115c2565b601182019050919050565b7f3c2f646566733e00000000000000000000000000000000000000000000000000600082015250565b600061164460078361098e565b915061164f8261160e565b600782019050919050565b7f3c726563742077696474683d2233303022206865696768743d2234383022206660008201527f696c6c3d2275726c2823677261642922202f3e00000000000000000000000000602082015250565b60006116b660338361098e565b91506116c18261165a565b603382019050919050565b7f3c7265637420783d2233302220793d223330222077696474683d22323430222060008201527f6865696768743d22343230222072783d223135222072793d223135222066696c60208201527f6c3d2268736c28302c30252c30252922207374726f6b653d222330303022206960408201527f643d226d617022202f3e00000000000000000000000000000000000000000000606082015250565b6000611774606a8361098e565b915061177f826116cc565b606a82019050919050565b7f3c7465787420783d2233392220793d2239302220636c6173733d22746f6b656e60008201527f73222066696c6c3d2223666666222069643d226e616d65223e20444f4d454c4160208201527f4e44203c2f746578743e00000000000000000000000000000000000000000000604082015250565b600061180c604a8361098e565b91506118178261178a565b604a82019050919050565b7f3c7465787420783d2233392220793d22313130222064793d2231352220636c6160008201527f73733d22746f6b656e73222066696c6c3d2223666666222069643d224443232260208201527f3e44432023000000000000000000000000000000000000000000000000000000604082015250565b60006118a460458361098e565b91506118af82611822565b604582019050919050565b7f3c2f746578743e00000000000000000000000000000000000000000000000000600082015250565b60006118f060078361098e565b91506118fb826118ba565b600782019050919050565b7f3c7465787420783d2233392220793d22313330222064793d2231352220636c6160008201527f73733d22666565222066696c6c3d2223666666222069643d22554e495423223e60208201527f554e4954202330203c2f746578743e0000000000000000000000000000000000604082015250565b6000611988604f8361098e565b915061199382611906565b604f82019050919050565b7f3c7465787420783d2233392220793d223138352220636c6173733d227469636b60008201527f222066696c6c3d2223666666222069643d224a554d502d50415448223e000000602082015250565b60006119fa603d8361098e565b9150611a058261199e565b603d82019050919050565b7f3c747370616e20783d223339222064793d22312e32656d223e43757276652d5060008201527f617468203a204f627365727661626c6520556e697665727365202d20203c2f7460208201527f7370616e3e000000000000000000000000000000000000000000000000000000604082015250565b6000611a9260458361098e565b9150611a9d82611a10565b604582019050919050565b7f3c747370616e20783d223339222064793d22312e32656d223e5069736365732c60008201527f204365747573205375706572636c757374657220436f6d706c6578202d203c2f60208201527f747370616e3e0000000000000000000000000000000000000000000000000000604082015250565b6000611b2a60468361098e565b9150611b3582611aa8565b604682019050919050565b7f3c747370616e20783d223339222064793d22312e32656d223e4c616e69616b6560008201527f61205375706572636c7573746572202d20566972676f205375706572636c757360208201527f746572202d203c2f747370616e3e000000000000000000000000000000000000604082015250565b6000611bc2604e8361098e565b9150611bcd82611b40565b604e82019050919050565b7f3c747370616e20783d223339222064793d22312e32656d223e4c6f63616c204760008201527f726f7570206f662047616c6178696573202d204d696c6b7920576179202d203c60208201527f2f747370616e3e00000000000000000000000000000000000000000000000000604082015250565b6000611c5a60478361098e565b9150611c6582611bd8565b604782019050919050565b7f3c747370616e20783d223339222064793d22312e32656d223e536f6c6172205360008201527f797374656d20202d204561727468203c2f747370616e3e000000000000000000602082015250565b6000611ccc60378361098e565b9150611cd782611c70565b603782019050919050565b7f3c7465787420783d2233392220793d22323530222064793d2233302220636c6160008201527f73733d227469636b222066696c6c3d2223666666222069643d22564f4c223e5660208201527f6f6c756d65203a20392a392a393c2f746578743e000000000000000000000000604082015250565b6000611d6460548361098e565b9150611d6f82611ce2565b605482019050919050565b7f3c7465787420783d2233392220793d22323830222064793d2233302220636c6160008201527f73733d227469636b222066696c6c3d2223666666222069643d2255534147452260208201527f3e5573616765203a20636f70696c6f742063617073756c653c2f746578743e00604082015250565b6000611dfc605f8361098e565b9150611e0782611d7a565b605f82019050919050565b7f3c7465787420783d223234302220793d223630222064793d22312e32656d222060008201527f636c6173733d227469636b222066696c6c3d2223666666222069643d2253524360208201527f222077726974696e672d6d6f64653d2274622d726c2220676c7970682d6f726960408201527f656e746174696f6e2d766572746963616c3d2230223e00000000000000000000606082015250565b6000611eba60768361098e565b9150611ec582611e12565b607682019050919050565b7f535243203a2068747470733a2f2f697066732e696f2f697066732f626166796260008201527f6569616568796b79616c337163776836736b6872707664756c7765346a367a6860208201527f647a776975786c337a7776357667656a6b6761616e792f000000000000000000604082015250565b6000611f5260578361098e565b9150611f5d82611ed0565b605782019050919050565b7f2e6a736f6e000000000000000000000000000000000000000000000000000000600082015250565b6000611f9e60058361098e565b9150611fa982611f68565b600582019050919050565b7f3c67207472616e73666f726d3d227472616e736c6174652833392c343335292060008201527f7363616c6528302e30362c2d302e303629222066696c6c3d227267626128323560208201527f352c203235352c203235352c20302e352922207374726f6b653d226e6f6e652260408201527f2069643d22746f7022203e3c7061746820643d224d343930203132343520632d60608201527f313731202d3437202d333332202d313738202d343034202d333237202d38382060808201527f2d313833202d3837202d3337322033202d353533203337202d3734203132312060a08201527f2d31383520313431202d3138352035203020313020313520313220333320332060c08201527f323920392033342035382035332037392033312031303020333720313030203260e08201527f362030202d35202d3233202d3139202d3532202d3331206c2d3532202d3232206101008201527f3239202d313720633137202d3130203933202d353120313730202d3932206c316101208201527f3430202d373320393020343720633439203235203132362036362031363920396101408201527f30206c3830203434202d353220323220632d3239203132202d3532203236202d6101608201527f353220333120302038203735202d313220313330202d3335206c3333202d31336101808201527f202d313934202d31303420632d323036202d313131202d323139202d313237206101a08201527f2d3733202d3934203131322032352032323420383520333034203136342033326101c08201527f31203331382031393720383637202d3233302031303138202d3934203333202d6101e08201527f323633203432202d3335302031387a206d2d36202d31343220633134202d35366102008201527f203233202d313039203139202d313139202d34202d3132202d33202d313520356102208201527f202d313020382035203130202d332037202d3236202d34202d3234202d33202d6102408201527f32372033202d313420382031392039203139203134202d322035202d313620306102608201527f202d3233202d3231202d3331202d3231202d38202d3232202d3130202d36202d6102808201527f31302031312030203338203520353920313320343020313420343620323220376102a08201527f312031303620362032322035203233202d362039202d3230202d3234202d39356102c08201527f202d3334202d313033202d3134202d34203132203720323120343120333620326102e08201527f35203131203535203231203636203233203136203220323620313820343020366103008201527f302031312033322032332035342032372034392038202d39203435202d3138316103208201527f203535202d3235332033202d32352038202d3534203131202d36362034202d316103408201527f34202d31202d3234202d3138202d3332202d3439202d32332035202d313120376103608201527f392031392039332033372031313820353620313031203736202d38203130202d6103808201527f3330203133202d3737203131206c2d3635202d33202d313820343820632d31306103a08201527f203236202d3136203437202d313520343720322030203633202d3234203133376103c08201527f202d3534206c313334202d3534202d3634202d323920632d3336202d3137202d6103e08201527f313231202d3536202d313839202d3838202d3639202d3332202d313330202d356104008201527f38202d313335202d3538202d382030202d3130202d3836202d38202d323734206104208201527f6c33202d323733202d31383820393620632d313033203533202d3139342031306104408201527f31202d32303120313037202d392037202d3133203331202d31322037312034206104608201527f313037203020313633202d313020313431202d35202d3132202d39202d3134206104808201527f2d39202d36202d312038202d3133203330202d3238203439202d3135203230206104a08201527f2d3233203337202d3137203339203335203132203337203230203230203638206104c08201527f2d38203236202d3234203534202d3333203631202d3136203132202d313120316104e08201527f33203335203134206c35342030202d3420333620632d332034322039203534206105008201527f38322038302034362031372034372031382037302038382033312039362036316105208201527f20313738203635203137342032202d32203135202d3439203239202d3130357a6105408201527f206d353238202d34343120633332202d3131203732202d3331203930202d34346105608201527f203330202d3231203331202d3233203132202d3236202d3132202d32202d35306105808201527f202d3238202d3835202d3539202d3730202d3631202d313239202d3932202d316105a08201527f3733202d3933202d32372030202d32382031202d3134203232203820313220326105c08201527f37203235203433203330203135203420343120323020353820333520313720316105e08201527f35203237203233203234203136202d35202d38202d31202d38203137203020316106008201527f352037203230203134203133203139202d3620332035203820323420313120316106208201527f39203220362034202d33312035202d35342031202d3734202d34202d313230206106408201527f2d3238202d3738202d3432202d3930202d3430202d39302031342030203533206106608201527f3134203936203338203131342032332031382031323020313020313934202d316106808201527f367a206d2d3837202d31333220632d3130202d3131202d3233202d3230202d326106a08201527f39202d3230202d362030203020392031342032302033322032352033382032356106c08201527f20313520307a222f3e3c7061746820643d224d3332302038373020633139202d6106e08201527f3131203430202d3139203435202d313920362030202d362038202d32352031396107008201527f202d3139203131202d3339203139202d3435203139202d3520302036202d38206107208201527f3235202d31397a222f3e3c7061746820643d224d3435302038313020633139206107408201527f2d3131203430202d3139203435202d313920362030202d362038202d323520316107608201527f39202d3139203131202d3339203139202d3435203139202d3520302036202d386107808201527f203235202d31397a222f3e3c7061746820643d224d3239302037353920632d316107a08201527f32202d38202d3130202d392038202d34203731203230203931202d31323320326107c08201527f34202d313736202d3231202d3136202d3233202d3230202d38202d31382035386107e08201527f2031312038322031333520333520313835202d3235203236202d3336203239206108008201527f2d35392031337a222f3e3c7061746820643d224d3537302037353520633134206108208201527f2d38203330202d3134203335202d313420362030202d312036202d31352031346108408201527f202d31342038202d3239203134202d3335203134202d3520302031202d3620316108608201527f35202d31347a222f3e3c7061746820643d224d3532352036363020632d3137206108808201527f2d37202d3134202d39203132202d39203638202d32203835202d3132312032376108a08201527f202d313833202d3235202d3236202d3236202d3239202d37202d3139203636206108c08201527f333420373120313637203820323036202d31322038202d3238203130202d34306108e08201527f20357a222f3e3c2f673e0000000000000000000000000000000000000000000061090082015250565b6000612adc61090a8361098e565b9150612ae782611fb4565b61090a82019050919050565b7f3c2f7376673e0000000000000000000000000000000000000000000000000000600082015250565b6000612b2960068361098e565b9150612b3482612af3565b600682019050919050565b6000612b4a8261112b565b9150612b5582611177565b9150612b60826111e9565b9150612b6b8261125b565b9150612b76826112cd565b9150612b8182611319565b9150612b8c82611365565b9150612b97826113d7565b9150612ba282611449565b9150612bae828b610a57565b9150612bb982611495565b9150612bc5828a610a57565b9150612bd0826114e1565b9150612bdc8289610a57565b9150612be78261152d565b9150612bf28261159f565b9150612bfe8288610a57565b9150612c0982611495565b9150612c158287610a57565b9150612c20826114e1565b9150612c2c8286610a57565b9150612c378261152d565b9150612c42826115eb565b9150612c4d82611637565b9150612c58826116a9565b9150612c6382611767565b9150612c6e826117ff565b9150612c7982611897565b9150612c858285610a57565b9150612c90826118e3565b9150612c9b8261197b565b9150612ca6826119ed565b9150612cb182611a85565b9150612cbc82611b1d565b9150612cc782611bb5565b9150612cd282611c4d565b9150612cdd82611cbf565b9150612ce8826118e3565b9150612cf382611d57565b9150612cfe82611def565b9150612d0982611ead565b9150612d1482611f45565b9150612d208284610a57565b9150612d2b82611f91565b9150612d36826118e3565b9150612d4182612ace565b9150612d4c82612b1c565b91508190509998505050505050505050565b7f2f00000000000000000000000000000000000000000000000000000000000000600082015250565b6000612d9460018361098e565b9150612d9f82612d5e565b600182019050919050565b7f2e00000000000000000000000000000000000000000000000000000000000000600082015250565b6000612de060018361098e565b9150612deb82612daa565b600182019050919050565b6000612e028286610a57565b9150612e0d82612d87565b9150612e198285610a57565b9150612e2482612dd3565b9150612e308284610a57565b9150819050949350505050565b7f22616e696d6174696f6e5f75726c223a22000000000000000000000000000000600082015250565b6000612e7360118361098e565b9150612e7e82612e3d565b601182019050919050565b7f2e6a736f6e227d2c000000000000000000000000000000000000000000000000600082015250565b6000612ebf60088361098e565b9150612eca82612e89565b600882019050919050565b7f7b2274726169745f74797065223a22416e696d6174696f6e222c2276616c756560008201527f223a220000000000000000000000000000000000000000000000000000000000602082015250565b6000612f3160238361098e565b9150612f3c82612ed5565b602382019050919050565b7f227d000000000000000000000000000000000000000000000000000000000000600082015250565b6000612f7d60028361098e565b9150612f8882612f47565b600282019050919050565b6000612f9e826109c2565b9150612fa982610a34565b9150612fb58288610a57565b9150612fc082610ab1565b9150612fcb82612e66565b9150612fd78287610a57565b9150612fe282610ab1565b9150612fed82610afd565b9150612ff882610b49565b91506130048286610a57565b915061300f82610b95565b915061301a82610c07565b915061302582610d37565b915061303082610da9565b915061303b82610e67565b91506130478285610a57565b915061305282612eb2565b915061305d82612f24565b91506130698284610a57565b915061307482612f70565b915061307f82610eff565b91508190509695505050505050565b60006130998261062d565b91506130a48361062d565b9250826130b4576130b3611048565b5b82820490509291505056fe4142434445464748494a4b4c4d4e4f505152535455565758595a6162636465666768696a6b6c6d6e6f707172737475767778797a303132333435363738392b2fa2646970667358221220ef74a2f5019785817a5c09098a5d5553285b86537d0231fd50babf62250e8d1c64736f6c63430008120033","opcodes":"PUSH1 0x80 PUSH1 0x40 MSTORE CALLVALUE DUP1 ISZERO PUSH2 0x10 JUMPI PUSH1 0x0 DUP1 REVERT JUMPDEST POP PUSH2 0x3135 DUP1 PUSH2 0x20 PUSH1 0x0 CODECOPY PUSH1 0x0 RETURN INVALID PUSH1 0x80 PUSH1 0x40 MSTORE CALLVALUE DUP1 ISZERO PUSH2 0x10 JUMPI PUSH1 0x0 DUP1 REVERT JUMPDEST POP PUSH1 0x4 CALLDATASIZE LT PUSH2 0x41 JUMPI PUSH1 0x0 CALLDATALOAD PUSH1 0xE0 SHR DUP1 PUSH4 0x691A3CA0 EQ PUSH2 0x46 JUMPI DUP1 PUSH4 0x6DCEE4CA EQ PUSH2 0x76 JUMPI DUP1 PUSH4 0x7B5D473B EQ PUSH2 0xA6 JUMPI JUMPDEST PUSH1 0x0 DUP1 REVERT JUMPDEST PUSH2 0x60 PUSH1 0x4 DUP1 CALLDATASIZE SUB DUP2 ADD SWAP1 PUSH2 0x5B SWAP2 SWAP1 PUSH2 0x7A9 JUMP JUMPDEST PUSH2 0xD6 JUMP JUMPDEST PUSH1 0x40 MLOAD PUSH2 0x6D SWAP2 SWAP1 PUSH2 0x884 JUMP JUMPDEST PUSH1 0x40 MLOAD DUP1 SWAP2 SUB SWAP1 RETURN JUMPDEST PUSH2 0x90 PUSH1 0x4 DUP1 CALLDATASIZE SUB DUP2 ADD SWAP1 PUSH2 0x8B SWAP2 SWAP1 PUSH2 0x8A6 JUMP JUMPDEST PUSH2 0x12C JUMP JUMPDEST PUSH1 0x40 MLOAD PUSH2 0x9D SWAP2 SWAP1 PUSH2 0x884 JUMP JUMPDEST PUSH1 0x40 MLOAD DUP1 SWAP2 SUB SWAP1 RETURN JUMPDEST PUSH2 0xC0 PUSH1 0x4 DUP1 CALLDATASIZE SUB DUP2 ADD SWAP1 PUSH2 0xBB SWAP2 SWAP1 PUSH2 0x8D3 JUMP JUMPDEST PUSH2 0x1FD JUMP JUMPDEST PUSH1 0x40 MLOAD PUSH2 0xCD SWAP2 SWAP1 PUSH2 0x884 JUMP JUMPDEST PUSH1 0x40 MLOAD DUP1 SWAP2 SUB SWAP1 RETURN JUMPDEST PUSH1 0x60 PUSH1 0x0 DUP3 SWAP1 POP PUSH1 0x0 PUSH2 0xE8 DUP3 PUSH2 0x295 JUMP JUMPDEST SWAP1 POP PUSH1 0x0 PUSH2 0xF5 DUP7 PUSH2 0x3F8 JUMP JUMPDEST SWAP1 POP PUSH1 0x0 DUP3 DUP3 DUP4 PUSH1 0x40 MLOAD PUSH1 0x20 ADD PUSH2 0x10E SWAP4 SWAP3 SWAP2 SWAP1 PUSH2 0xF22 JUMP JUMPDEST PUSH1 0x40 MLOAD PUSH1 0x20 DUP2 DUP4 SUB SUB DUP2 MSTORE SWAP1 PUSH1 0x40 MSTORE SWAP1 POP DUP1 SWAP5 POP POP POP POP POP SWAP3 SWAP2 POP POP JUMP JUMPDEST PUSH1 0x60 PUSH1 0x0 PUSH2 0x136 PUSH2 0x3E5 DUP5 PUSH2 0x141 SWAP2 SWAP1 PUSH2 0x1006 JUMP JUMPDEST PUSH2 0x14B SWAP2 SWAP1 PUSH2 0x1077 JUMP JUMPDEST SWAP1 POP PUSH1 0x0 PUSH2 0x136 PUSH1 0x2D DUP4 PUSH2 0x15F SWAP2 SWAP1 PUSH2 0x10A8 JUMP JUMPDEST PUSH2 0x169 SWAP2 SWAP1 PUSH2 0x1077 JUMP JUMPDEST SWAP1 POP PUSH1 0x0 PUSH1 0x50 SWAP1 POP PUSH1 0x0 PUSH1 0x3C SWAP1 POP PUSH1 0x0 PUSH1 0x5A SWAP1 POP PUSH1 0x0 PUSH2 0x188 DUP7 PUSH2 0x3F8 JUMP JUMPDEST PUSH2 0x191 DUP6 PUSH2 0x3F8 JUMP JUMPDEST PUSH2 0x19A DUP6 PUSH2 0x3F8 JUMP JUMPDEST PUSH2 0x1A3 DUP9 PUSH2 0x3F8 JUMP JUMPDEST PUSH2 0x1AC DUP9 PUSH2 0x3F8 JUMP JUMPDEST PUSH2 0x1B5 DUP8 PUSH2 0x3F8 JUMP JUMPDEST PUSH2 0x1BE DUP15 PUSH2 0x3F8 JUMP JUMPDEST PUSH2 0x1C7 DUP16 PUSH2 0x3F8 JUMP JUMPDEST PUSH1 0x40 MLOAD PUSH1 0x20 ADD PUSH2 0x1DE SWAP9 SWAP8 SWAP7 SWAP6 SWAP5 SWAP4 SWAP3 SWAP2 SWAP1 PUSH2 0x2B3F JUMP JUMPDEST PUSH1 0x40 MLOAD PUSH1 0x20 DUP2 DUP4 SUB SUB DUP2 MSTORE SWAP1 PUSH1 0x40 MSTORE SWAP1 POP DUP1 SWAP7 POP POP POP POP POP POP POP SWAP2 SWAP1 POP JUMP JUMPDEST PUSH1 0x60 PUSH1 0x0 DUP5 SWAP1 POP PUSH1 0x0 PUSH2 0x20F DUP3 PUSH2 0x295 JUMP JUMPDEST SWAP1 POP PUSH1 0x0 PUSH2 0x21C DUP9 PUSH2 0x3F8 JUMP JUMPDEST SWAP1 POP PUSH1 0x60 PUSH1 0x0 DUP7 MLOAD GT ISZERO PUSH2 0x255 JUMPI DUP7 DUP3 DUP8 PUSH1 0x40 MLOAD PUSH1 0x20 ADD PUSH2 0x23F SWAP4 SWAP3 SWAP2 SWAP1 PUSH2 0x2DF6 JUMP JUMPDEST PUSH1 0x40 MLOAD PUSH1 0x20 DUP2 DUP4 SUB SUB DUP2 MSTORE SWAP1 PUSH1 0x40 MSTORE SWAP1 POP PUSH2 0x259 JUMP JUMPDEST DUP7 SWAP1 POP JUMPDEST PUSH1 0x0 DUP4 DUP3 DUP5 DUP6 DUP6 PUSH1 0x40 MLOAD PUSH1 0x20 ADD PUSH2 0x274 SWAP6 SWAP5 SWAP4 SWAP3 SWAP2 SWAP1 PUSH2 0x2F93 JUMP JUMPDEST PUSH1 0x40 MLOAD PUSH1 0x20 DUP2 DUP4 SUB SUB DUP2 MSTORE SWAP1 PUSH1 0x40 MSTORE SWAP1 POP DUP1 SWAP6 POP POP POP POP POP POP SWAP5 SWAP4 POP POP POP POP JUMP JUMPDEST PUSH1 0x60 PUSH1 0x0 DUP3 MLOAD SUB PUSH2 0x2B7 JUMPI PUSH1 0x40 MLOAD DUP1 PUSH1 0x20 ADD PUSH1 0x40 MSTORE DUP1 PUSH1 0x0 DUP2 MSTORE POP SWAP1 POP PUSH2 0x3F3 JUMP JUMPDEST PUSH1 0x0 PUSH1 0x40 MLOAD DUP1 PUSH1 0x60 ADD PUSH1 0x40 MSTORE DUP1 PUSH1 0x40 DUP2 MSTORE PUSH1 0x20 ADD PUSH2 0x30C0 PUSH1 0x40 SWAP2 CODECOPY SWAP1 POP PUSH1 0x0 PUSH1 0x3 PUSH1 0x2 DUP6 MLOAD PUSH2 0x2E6 SWAP2 SWAP1 PUSH2 0x10A8 JUMP JUMPDEST PUSH2 0x2F0 SWAP2 SWAP1 PUSH2 0x308E JUMP JUMPDEST PUSH1 0x4 PUSH2 0x2FC SWAP2 SWAP1 PUSH2 0x1006 JUMP JUMPDEST PUSH8 0xFFFFFFFFFFFFFFFF DUP2 GT ISZERO PUSH2 0x315 JUMPI PUSH2 0x314 PUSH2 0x67E JUMP JUMPDEST JUMPDEST PUSH1 0x40 MLOAD SWAP1 DUP1 DUP3 MSTORE DUP1 PUSH1 0x1F ADD PUSH1 0x1F NOT AND PUSH1 0x20 ADD DUP3 ADD PUSH1 0x40 MSTORE DUP1 ISZERO PUSH2 0x347 JUMPI DUP2 PUSH1 0x20 ADD PUSH1 0x1 DUP3 MUL DUP1 CALLDATASIZE DUP4 CALLDATACOPY DUP1 DUP3 ADD SWAP2 POP POP SWAP1 POP JUMPDEST POP SWAP1 POP PUSH1 0x1 DUP3 ADD PUSH1 0x20 DUP3 ADD DUP6 DUP7 MLOAD DUP8 ADD JUMPDEST DUP1 DUP3 LT ISZERO PUSH2 0x3B3 JUMPI PUSH1 0x3 DUP3 ADD SWAP2 POP DUP2 MLOAD PUSH1 0x3F DUP2 PUSH1 0x12 SHR AND DUP6 ADD MLOAD DUP5 MSTORE8 PUSH1 0x1 DUP5 ADD SWAP4 POP PUSH1 0x3F DUP2 PUSH1 0xC SHR AND DUP6 ADD MLOAD DUP5 MSTORE8 PUSH1 0x1 DUP5 ADD SWAP4 POP PUSH1 0x3F DUP2 PUSH1 0x6 SHR AND DUP6 ADD MLOAD DUP5 MSTORE8 PUSH1 0x1 DUP5 ADD SWAP4 POP PUSH1 0x3F DUP2 AND DUP6 ADD MLOAD DUP5 MSTORE8 PUSH1 0x1 DUP5 ADD SWAP4 POP POP PUSH2 0x358 JUMP JUMPDEST POP POP PUSH1 0x3 DUP7 MLOAD MOD PUSH1 0x1 DUP2 EQ PUSH2 0x3CF JUMPI PUSH1 0x2 DUP2 EQ PUSH2 0x3E2 JUMPI PUSH2 0x3EA JUMP JUMPDEST PUSH1 0x3D PUSH1 0x1 DUP4 SUB MSTORE8 PUSH1 0x3D PUSH1 0x2 DUP4 SUB MSTORE8 PUSH2 0x3EA JUMP JUMPDEST PUSH1 0x3D PUSH1 0x1 DUP4 SUB MSTORE8 JUMPDEST POP POP POP DUP1 SWAP3 POP POP POP JUMPDEST SWAP2 SWAP1 POP JUMP JUMPDEST PUSH1 0x60 PUSH1 0x0 PUSH1 0x1 PUSH2 0x407 DUP5 PUSH2 0x4C6 JUMP JUMPDEST ADD SWAP1 POP PUSH1 0x0 DUP2 PUSH8 0xFFFFFFFFFFFFFFFF DUP2 GT ISZERO PUSH2 0x426 JUMPI PUSH2 0x425 PUSH2 0x67E JUMP JUMPDEST JUMPDEST PUSH1 0x40 MLOAD SWAP1 DUP1 DUP3 MSTORE DUP1 PUSH1 0x1F ADD PUSH1 0x1F NOT AND PUSH1 0x20 ADD DUP3 ADD PUSH1 0x40 MSTORE DUP1 ISZERO PUSH2 0x458 JUMPI DUP2 PUSH1 0x20 ADD PUSH1 0x1 DUP3 MUL DUP1 CALLDATASIZE DUP4 CALLDATACOPY DUP1 DUP3 ADD SWAP2 POP POP SWAP1 POP JUMPDEST POP SWAP1 POP PUSH1 0x0 DUP3 PUSH1 0x20 ADD DUP3 ADD SWAP1 POP JUMPDEST PUSH1 0x1 ISZERO PUSH2 0x4BB JUMPI DUP1 DUP1 PUSH1 0x1 SWAP1 SUB SWAP2 POP POP PUSH32 0x3031323334353637383961626364656600000000000000000000000000000000 PUSH1 0xA DUP7 MOD BYTE DUP2 MSTORE8 PUSH1 0xA DUP6 DUP2 PUSH2 0x4AF JUMPI PUSH2 0x4AE PUSH2 0x1048 JUMP JUMPDEST JUMPDEST DIV SWAP5 POP PUSH1 0x0 DUP6 SUB PUSH2 0x466 JUMPI JUMPDEST DUP2 SWAP4 POP POP POP POP SWAP2 SWAP1 POP JUMP JUMPDEST PUSH1 0x0 DUP1 PUSH1 0x0 SWAP1 POP PUSH27 0x184F03E93FF9F4DAA797ED6E38ED64BF6A1F010000000000000000 DUP4 LT PUSH2 0x524 JUMPI PUSH27 0x184F03E93FF9F4DAA797ED6E38ED64BF6A1F010000000000000000 DUP4 DUP2 PUSH2 0x51A JUMPI PUSH2 0x519 PUSH2 0x1048 JUMP JUMPDEST JUMPDEST DIV SWAP3 POP PUSH1 0x40 DUP2 ADD SWAP1 POP JUMPDEST PUSH14 0x4EE2D6D415B85ACEF8100000000 DUP4 LT PUSH2 0x561 JUMPI PUSH14 0x4EE2D6D415B85ACEF8100000000 DUP4 DUP2 PUSH2 0x557 JUMPI PUSH2 0x556 PUSH2 0x1048 JUMP JUMPDEST JUMPDEST DIV SWAP3 POP PUSH1 0x20 DUP2 ADD SWAP1 POP JUMPDEST PUSH7 0x2386F26FC10000 DUP4 LT PUSH2 0x590 JUMPI PUSH7 0x2386F26FC10000 DUP4 DUP2 PUSH2 0x586 JUMPI PUSH2 0x585 PUSH2 0x1048 JUMP JUMPDEST JUMPDEST DIV SWAP3 POP PUSH1 0x10 DUP2 ADD SWAP1 POP JUMPDEST PUSH4 0x5F5E100 DUP4 LT PUSH2 0x5B9 JUMPI PUSH4 0x5F5E100 DUP4 DUP2 PUSH2 0x5AF JUMPI PUSH2 0x5AE PUSH2 0x1048 JUMP JUMPDEST JUMPDEST DIV SWAP3 POP PUSH1 0x8 DUP2 ADD SWAP1 POP JUMPDEST PUSH2 0x2710 DUP4 LT PUSH2 0x5DE JUMPI PUSH2 0x2710 DUP4 DUP2 PUSH2 0x5D4 JUMPI PUSH2 0x5D3 PUSH2 0x1048 JUMP JUMPDEST JUMPDEST DIV SWAP3 POP PUSH1 0x4 DUP2 ADD SWAP1 POP JUMPDEST PUSH1 0x64 DUP4 LT PUSH2 0x601 JUMPI PUSH1 0x64 DUP4 DUP2 PUSH2 0x5F7 JUMPI PUSH2 0x5F6 PUSH2 0x1048 JUMP JUMPDEST JUMPDEST DIV SWAP3 POP PUSH1 0x2 DUP2 ADD SWAP1 POP JUMPDEST PUSH1 0xA DUP4 LT PUSH2 0x610 JUMPI PUSH1 0x1 DUP2 ADD SWAP1 POP JUMPDEST DUP1 SWAP2 POP POP SWAP2 SWAP1 POP JUMP JUMPDEST PUSH1 0x0 PUSH1 0x40 MLOAD SWAP1 POP SWAP1 JUMP JUMPDEST PUSH1 0x0 DUP1 REVERT JUMPDEST PUSH1 0x0 DUP1 REVERT JUMPDEST PUSH1 0x0 DUP2 SWAP1 POP SWAP2 SWAP1 POP JUMP JUMPDEST PUSH2 0x640 DUP2 PUSH2 0x62D JUMP JUMPDEST DUP2 EQ PUSH2 0x64B JUMPI PUSH1 0x0 DUP1 REVERT JUMPDEST POP JUMP JUMPDEST PUSH1 0x0 DUP2 CALLDATALOAD SWAP1 POP PUSH2 0x65D DUP2 PUSH2 0x637 JUMP JUMPDEST SWAP3 SWAP2 POP POP JUMP JUMPDEST PUSH1 0x0 DUP1 REVERT JUMPDEST PUSH1 0x0 DUP1 REVERT JUMPDEST PUSH1 0x0 PUSH1 0x1F NOT PUSH1 0x1F DUP4 ADD AND SWAP1 POP SWAP2 SWAP1 POP JUMP JUMPDEST PUSH32 0x4E487B7100000000000000000000000000000000000000000000000000000000 PUSH1 0x0 MSTORE PUSH1 0x41 PUSH1 0x4 MSTORE PUSH1 0x24 PUSH1 0x0 REVERT JUMPDEST PUSH2 0x6B6 DUP3 PUSH2 0x66D JUMP JUMPDEST DUP2 ADD DUP2 DUP2 LT PUSH8 0xFFFFFFFFFFFFFFFF DUP3 GT OR ISZERO PUSH2 0x6D5 JUMPI PUSH2 0x6D4 PUSH2 0x67E JUMP JUMPDEST JUMPDEST DUP1 PUSH1 0x40 MSTORE POP POP POP JUMP JUMPDEST PUSH1 0x0 PUSH2 0x6E8 PUSH2 0x619 JUMP JUMPDEST SWAP1 POP PUSH2 0x6F4 DUP3 DUP3 PUSH2 0x6AD JUMP JUMPDEST SWAP2 SWAP1 POP JUMP JUMPDEST PUSH1 0x0 PUSH8 0xFFFFFFFFFFFFFFFF DUP3 GT ISZERO PUSH2 0x714 JUMPI PUSH2 0x713 PUSH2 0x67E JUMP JUMPDEST JUMPDEST PUSH2 0x71D DUP3 PUSH2 0x66D JUMP JUMPDEST SWAP1 POP PUSH1 0x20 DUP2 ADD SWAP1 POP SWAP2 SWAP1 POP JUMP JUMPDEST DUP3 DUP2 DUP4 CALLDATACOPY PUSH1 0x0 DUP4 DUP4 ADD MSTORE POP POP POP JUMP JUMPDEST PUSH1 0x0 PUSH2 0x74C PUSH2 0x747 DUP5 PUSH2 0x6F9 JUMP JUMPDEST PUSH2 0x6DE JUMP JUMPDEST SWAP1 POP DUP3 DUP2 MSTORE PUSH1 0x20 DUP2 ADD DUP5 DUP5 DUP5 ADD GT ISZERO PUSH2 0x768 JUMPI PUSH2 0x767 PUSH2 0x668 JUMP JUMPDEST JUMPDEST PUSH2 0x773 DUP5 DUP3 DUP6 PUSH2 0x72A JUMP JUMPDEST POP SWAP4 SWAP3 POP POP POP JUMP JUMPDEST PUSH1 0x0 DUP3 PUSH1 0x1F DUP4 ADD SLT PUSH2 0x790 JUMPI PUSH2 0x78F PUSH2 0x663 JUMP JUMPDEST JUMPDEST DUP2 CALLDATALOAD PUSH2 0x7A0 DUP5 DUP3 PUSH1 0x20 DUP7 ADD PUSH2 0x739 JUMP JUMPDEST SWAP2 POP POP SWAP3 SWAP2 POP POP JUMP JUMPDEST PUSH1 0x0 DUP1 PUSH1 0x40 DUP4 DUP6 SUB SLT ISZERO PUSH2 0x7C0 JUMPI PUSH2 0x7BF PUSH2 0x623 JUMP JUMPDEST JUMPDEST PUSH1 0x0 PUSH2 0x7CE DUP6 DUP3 DUP7 ADD PUSH2 0x64E JUMP JUMPDEST SWAP3 POP POP PUSH1 0x20 DUP4 ADD CALLDATALOAD PUSH8 0xFFFFFFFFFFFFFFFF DUP2 GT ISZERO PUSH2 0x7EF JUMPI PUSH2 0x7EE PUSH2 0x628 JUMP JUMPDEST JUMPDEST PUSH2 0x7FB DUP6 DUP3 DUP7 ADD PUSH2 0x77B JUMP JUMPDEST SWAP2 POP POP SWAP3 POP SWAP3 SWAP1 POP JUMP JUMPDEST PUSH1 0x0 DUP2 MLOAD SWAP1 POP SWAP2 SWAP1 POP JUMP JUMPDEST PUSH1 0x0 DUP3 DUP3 MSTORE PUSH1 0x20 DUP3 ADD SWAP1 POP SWAP3 SWAP2 POP POP JUMP JUMPDEST PUSH1 0x0 JUMPDEST DUP4 DUP2 LT ISZERO PUSH2 0x83F JUMPI DUP1 DUP3 ADD MLOAD DUP2 DUP5 ADD MSTORE PUSH1 0x20 DUP2 ADD SWAP1 POP PUSH2 0x824 JUMP JUMPDEST PUSH1 0x0 DUP5 DUP5 ADD MSTORE POP POP POP POP JUMP JUMPDEST PUSH1 0x0 PUSH2 0x856 DUP3 PUSH2 0x805 JUMP JUMPDEST PUSH2 0x860 DUP2 DUP6 PUSH2 0x810 JUMP JUMPDEST SWAP4 POP PUSH2 0x870 DUP2 DUP6 PUSH1 0x20 DUP7 ADD PUSH2 0x821 JUMP JUMPDEST PUSH2 0x879 DUP2 PUSH2 0x66D JUMP JUMPDEST DUP5 ADD SWAP2 POP POP SWAP3 SWAP2 POP POP JUMP JUMPDEST PUSH1 0x0 PUSH1 0x20 DUP3 ADD SWAP1 POP DUP2 DUP2 SUB PUSH1 0x0 DUP4 ADD MSTORE PUSH2 0x89E DUP2 DUP5 PUSH2 0x84B JUMP JUMPDEST SWAP1 POP SWAP3 SWAP2 POP POP JUMP JUMPDEST PUSH1 0x0 PUSH1 0x20 DUP3 DUP5 SUB SLT ISZERO PUSH2 0x8BC JUMPI PUSH2 0x8BB PUSH2 0x623 JUMP JUMPDEST JUMPDEST PUSH1 0x0 PUSH2 0x8CA DUP5 DUP3 DUP6 ADD PUSH2 0x64E JUMP JUMPDEST SWAP2 POP POP SWAP3 SWAP2 POP POP JUMP JUMPDEST PUSH1 0x0 DUP1 PUSH1 0x0 DUP1 PUSH1 0x80 DUP6 DUP8 SUB SLT ISZERO PUSH2 0x8ED JUMPI PUSH2 0x8EC PUSH2 0x623 JUMP JUMPDEST JUMPDEST PUSH1 0x0 PUSH2 0x8FB DUP8 DUP3 DUP9 ADD PUSH2 0x64E JUMP JUMPDEST SWAP5 POP POP PUSH1 0x20 DUP6 ADD CALLDATALOAD PUSH8 0xFFFFFFFFFFFFFFFF DUP2 GT ISZERO PUSH2 0x91C JUMPI PUSH2 0x91B PUSH2 0x628 JUMP JUMPDEST JUMPDEST PUSH2 0x928 DUP8 DUP3 DUP9 ADD PUSH2 0x77B JUMP JUMPDEST SWAP4 POP POP PUSH1 0x40 DUP6 ADD CALLDATALOAD PUSH8 0xFFFFFFFFFFFFFFFF DUP2 GT ISZERO PUSH2 0x949 JUMPI PUSH2 0x948 PUSH2 0x628 JUMP JUMPDEST JUMPDEST PUSH2 0x955 DUP8 DUP3 DUP9 ADD PUSH2 0x77B JUMP JUMPDEST SWAP3 POP POP PUSH1 0x60 DUP6 ADD CALLDATALOAD PUSH8 0xFFFFFFFFFFFFFFFF DUP2 GT ISZERO PUSH2 0x976 JUMPI PUSH2 0x975 PUSH2 0x628 JUMP JUMPDEST JUMPDEST PUSH2 0x982 DUP8 DUP3 DUP9 ADD PUSH2 0x77B JUMP JUMPDEST SWAP2 POP POP SWAP3 SWAP6 SWAP2 SWAP5 POP SWAP3 POP JUMP JUMPDEST PUSH1 0x0 DUP2 SWAP1 POP SWAP3 SWAP2 POP POP JUMP JUMPDEST PUSH32 0x7B226E616D65223A22446F6D656C616E64222C00000000000000000000000000 PUSH1 0x0 DUP3 ADD MSTORE POP JUMP JUMPDEST PUSH1 0x0 PUSH2 0x9CF PUSH1 0x13 DUP4 PUSH2 0x98E JUMP JUMPDEST SWAP2 POP PUSH2 0x9DA DUP3 PUSH2 0x999 JUMP JUMPDEST PUSH1 0x13 DUP3 ADD SWAP1 POP SWAP2 SWAP1 POP JUMP JUMPDEST PUSH32 0x22696D616765223A22646174613A696D6167652F7376672B786D6C3B62617365 PUSH1 0x0 DUP3 ADD MSTORE PUSH32 0x36342C0000000000000000000000000000000000000000000000000000000000 PUSH1 0x20 DUP3 ADD MSTORE POP JUMP JUMPDEST PUSH1 0x0 PUSH2 0xA41 PUSH1 0x23 DUP4 PUSH2 0x98E JUMP JUMPDEST SWAP2 POP PUSH2 0xA4C DUP3 PUSH2 0x9E5 JUMP JUMPDEST PUSH1 0x23 DUP3 ADD SWAP1 POP SWAP2 SWAP1 POP JUMP JUMPDEST PUSH1 0x0 PUSH2 0xA62 DUP3 PUSH2 0x805 JUMP JUMPDEST PUSH2 0xA6C DUP2 DUP6 PUSH2 0x98E JUMP JUMPDEST SWAP4 POP PUSH2 0xA7C DUP2 DUP6 PUSH1 0x20 DUP7 ADD PUSH2 0x821 JUMP JUMPDEST DUP1 DUP5 ADD SWAP2 POP POP SWAP3 SWAP2 POP POP JUMP JUMPDEST PUSH32 0x222C000000000000000000000000000000000000000000000000000000000000 PUSH1 0x0 DUP3 ADD MSTORE POP JUMP JUMPDEST PUSH1 0x0 PUSH2 0xABE PUSH1 0x2 DUP4 PUSH2 0x98E JUMP JUMPDEST SWAP2 POP PUSH2 0xAC9 DUP3 PUSH2 0xA88 JUMP JUMPDEST PUSH1 0x2 DUP3 ADD SWAP1 POP SWAP2 SWAP1 POP JUMP JUMPDEST PUSH32 0x2261747472696275746573223A5B000000000000000000000000000000000000 PUSH1 0x0 DUP3 ADD MSTORE POP JUMP JUMPDEST PUSH1 0x0 PUSH2 0xB0A PUSH1 0xE DUP4 PUSH2 0x98E JUMP JUMPDEST SWAP2 POP PUSH2 0xB15 DUP3 PUSH2 0xAD4 JUMP JUMPDEST PUSH1 0xE DUP3 ADD SWAP1 POP SWAP2 SWAP1 POP JUMP JUMPDEST PUSH32 0x7B2274726169745F74797065223A22444323222C2276616C7565223A22000000 PUSH1 0x0 DUP3 ADD MSTORE POP JUMP JUMPDEST PUSH1 0x0 PUSH2 0xB56 PUSH1 0x1D DUP4 PUSH2 0x98E JUMP JUMPDEST SWAP2 POP PUSH2 0xB61 DUP3 PUSH2 0xB20 JUMP JUMPDEST PUSH1 0x1D DUP3 ADD SWAP1 POP SWAP2 SWAP1 POP JUMP JUMPDEST PUSH32 0x227D2C0000000000000000000000000000000000000000000000000000000000 PUSH1 0x0 DUP3 ADD MSTORE POP JUMP JUMPDEST PUSH1 0x0 PUSH2 0xBA2 PUSH1 0x3 DUP4 PUSH2 0x98E JUMP JUMPDEST SWAP2 POP PUSH2 0xBAD DUP3 PUSH2 0xB6C JUMP JUMPDEST PUSH1 0x3 DUP3 ADD SWAP1 POP SWAP2 SWAP1 POP JUMP JUMPDEST PUSH32 0x7B2274726169745F74797065223A22554E495423222C2276616C7565223A2230 PUSH1 0x0 DUP3 ADD MSTORE PUSH32 0x227D2C0000000000000000000000000000000000000000000000000000000000 PUSH1 0x20 DUP3 ADD MSTORE POP JUMP JUMPDEST PUSH1 0x0 PUSH2 0xC14 PUSH1 0x23 DUP4 PUSH2 0x98E JUMP JUMPDEST SWAP2 POP PUSH2 0xC1F DUP3 PUSH2 0xBB8 JUMP JUMPDEST PUSH1 0x23 DUP3 ADD SWAP1 POP SWAP2 SWAP1 POP JUMP JUMPDEST PUSH32 0x7B2274726169745F74797065223A224A554D502D50415448222C2276616C7565 PUSH1 0x0 DUP3 ADD MSTORE PUSH32 0x223A224F627365727661626C6520556E697665727365202E2E2E205069736365 PUSH1 0x20 DUP3 ADD MSTORE PUSH32 0x732C204365747573205375706572636C757374657220436F6D706C6578202E2E PUSH1 0x40 DUP3 ADD MSTORE PUSH32 0x2E204C616E69616B6561205375706572636C7573746572202E2E2E2056697267 PUSH1 0x60 DUP3 ADD MSTORE PUSH32 0x6F205375706572636C7573746572202E2E2E204C6F63616C2047726F7570206F PUSH1 0x80 DUP3 ADD MSTORE PUSH32 0x662047616C6178696573202E2E2E204D696C6B7920576179202E2E2E20536F6C PUSH1 0xA0 DUP3 ADD MSTORE PUSH32 0x61722053797374656D202E2E2E204561727468227D2C00000000000000000000 PUSH1 0xC0 DUP3 ADD MSTORE POP JUMP JUMPDEST PUSH1 0x0 PUSH2 0xD44 PUSH1 0xD6 DUP4 PUSH2 0x98E JUMP JUMPDEST SWAP2 POP PUSH2 0xD4F DUP3 PUSH2 0xC2A JUMP JUMPDEST PUSH1 0xD6 DUP3 ADD SWAP1 POP SWAP2 SWAP1 POP JUMP JUMPDEST PUSH32 0x7B2274726169745F74797065223A22564F4C222C2276616C7565223A22395839 PUSH1 0x0 DUP3 ADD MSTORE PUSH32 0x5839227D2C000000000000000000000000000000000000000000000000000000 PUSH1 0x20 DUP3 ADD MSTORE POP JUMP JUMPDEST PUSH1 0x0 PUSH2 0xDB6 PUSH1 0x25 DUP4 PUSH2 0x98E JUMP JUMPDEST SWAP2 POP PUSH2 0xDC1 DUP3 PUSH2 0xD5A JUMP JUMPDEST PUSH1 0x25 DUP3 ADD SWAP1 POP SWAP2 SWAP1 POP JUMP JUMPDEST PUSH32 0x7B2274726169745F74797065223A22535243222C2276616C7565223A22687474 PUSH1 0x0 DUP3 ADD MSTORE PUSH32 0x70733A2F2F697066732E696F2F697066732F62616679626569616568796B7961 PUSH1 0x20 DUP3 ADD MSTORE PUSH32 0x6C337163776836736B6872707664756C7765346A367A68647A776975786C337A PUSH1 0x40 DUP3 ADD MSTORE PUSH32 0x7776357667656A6B6761616E792F000000000000000000000000000000000000 PUSH1 0x60 DUP3 ADD MSTORE POP JUMP JUMPDEST PUSH1 0x0 PUSH2 0xE74 PUSH1 0x6E DUP4 PUSH2 0x98E JUMP JUMPDEST SWAP2 POP PUSH2 0xE7F DUP3 PUSH2 0xDCC JUMP JUMPDEST PUSH1 0x6E DUP3 ADD SWAP1 POP SWAP2 SWAP1 POP JUMP JUMPDEST PUSH32 0x2E6A736F6E227D00000000000000000000000000000000000000000000000000 PUSH1 0x0 DUP3 ADD MSTORE POP JUMP JUMPDEST PUSH1 0x0 PUSH2 0xEC0 PUSH1 0x7 DUP4 PUSH2 0x98E JUMP JUMPDEST SWAP2 POP PUSH2 0xECB DUP3 PUSH2 0xE8A JUMP JUMPDEST PUSH1 0x7 DUP3 ADD SWAP1 POP SWAP2 SWAP1 POP JUMP JUMPDEST PUSH32 0x5D7D000000000000000000000000000000000000000000000000000000000000 PUSH1 0x0 DUP3 ADD MSTORE POP JUMP JUMPDEST PUSH1 0x0 PUSH2 0xF0C PUSH1 0x2 DUP4 PUSH2 0x98E JUMP JUMPDEST SWAP2 POP PUSH2 0xF17 DUP3 PUSH2 0xED6 JUMP JUMPDEST PUSH1 0x2 DUP3 ADD SWAP1 POP SWAP2 SWAP1 POP JUMP JUMPDEST PUSH1 0x0 PUSH2 0xF2D DUP3 PUSH2 0x9C2 JUMP JUMPDEST SWAP2 POP PUSH2 0xF38 DUP3 PUSH2 0xA34 JUMP JUMPDEST SWAP2 POP PUSH2 0xF44 DUP3 DUP7 PUSH2 0xA57 JUMP JUMPDEST SWAP2 POP PUSH2 0xF4F DUP3 PUSH2 0xAB1 JUMP JUMPDEST SWAP2 POP PUSH2 0xF5A DUP3 PUSH2 0xAFD JUMP JUMPDEST SWAP2 POP PUSH2 0xF65 DUP3 PUSH2 0xB49 JUMP JUMPDEST SWAP2 POP PUSH2 0xF71 DUP3 DUP6 PUSH2 0xA57 JUMP JUMPDEST SWAP2 POP PUSH2 0xF7C DUP3 PUSH2 0xB95 JUMP JUMPDEST SWAP2 POP PUSH2 0xF87 DUP3 PUSH2 0xC07 JUMP JUMPDEST SWAP2 POP PUSH2 0xF92 DUP3 PUSH2 0xD37 JUMP JUMPDEST SWAP2 POP PUSH2 0xF9D DUP3 PUSH2 0xDA9 JUMP JUMPDEST SWAP2 POP PUSH2 0xFA8 DUP3 PUSH2 0xE67 JUMP JUMPDEST SWAP2 POP PUSH2 0xFB4 DUP3 DUP5 PUSH2 0xA57 JUMP JUMPDEST SWAP2 POP PUSH2 0xFBF DUP3 PUSH2 0xEB3 JUMP JUMPDEST SWAP2 POP PUSH2 0xFCA DUP3 PUSH2 0xEFF JUMP JUMPDEST SWAP2 POP DUP2 SWAP1 POP SWAP5 SWAP4 POP POP POP POP JUMP JUMPDEST PUSH32 0x4E487B7100000000000000000000000000000000000000000000000000000000 PUSH1 0x0 MSTORE PUSH1 0x11 PUSH1 0x4 MSTORE PUSH1 0x24 PUSH1 0x0 REVERT JUMPDEST PUSH1 0x0 PUSH2 0x1011 DUP3 PUSH2 0x62D JUMP JUMPDEST SWAP2 POP PUSH2 0x101C DUP4 PUSH2 0x62D JUMP JUMPDEST SWAP3 POP DUP3 DUP3 MUL PUSH2 0x102A DUP2 PUSH2 0x62D JUMP JUMPDEST SWAP2 POP DUP3 DUP3 DIV DUP5 EQ DUP4 ISZERO OR PUSH2 0x1041 JUMPI PUSH2 0x1040 PUSH2 0xFD7 JUMP JUMPDEST JUMPDEST POP SWAP3 SWAP2 POP POP JUMP JUMPDEST PUSH32 0x4E487B7100000000000000000000000000000000000000000000000000000000 PUSH1 0x0 MSTORE PUSH1 0x12 PUSH1 0x4 MSTORE PUSH1 0x24 PUSH1 0x0 REVERT JUMPDEST PUSH1 0x0 PUSH2 0x1082 DUP3 PUSH2 0x62D JUMP JUMPDEST SWAP2 POP PUSH2 0x108D DUP4 PUSH2 0x62D JUMP JUMPDEST SWAP3 POP DUP3 PUSH2 0x109D JUMPI PUSH2 0x109C PUSH2 0x1048 JUMP JUMPDEST JUMPDEST DUP3 DUP3 MOD SWAP1 POP SWAP3 SWAP2 POP POP JUMP JUMPDEST PUSH1 0x0 PUSH2 0x10B3 DUP3 PUSH2 0x62D JUMP JUMPDEST SWAP2 POP PUSH2 0x10BE DUP4 PUSH2 0x62D JUMP JUMPDEST SWAP3 POP DUP3 DUP3 ADD SWAP1 POP DUP1 DUP3 GT ISZERO PUSH2 0x10D6 JUMPI PUSH2 0x10D5 PUSH2 0xFD7 JUMP JUMPDEST JUMPDEST SWAP3 SWAP2 POP POP JUMP JUMPDEST PUSH32 0x3C73766720786D6C6E733D22687474703A2F2F7777772E77332E6F72672F3230 PUSH1 0x0 DUP3 ADD MSTORE PUSH32 0x30302F737667222076696577426F783D223020302033303020343830223E0000 PUSH1 0x20 DUP3 ADD MSTORE POP JUMP JUMPDEST PUSH1 0x0 PUSH2 0x1138 PUSH1 0x3E DUP4 PUSH2 0x98E JUMP JUMPDEST SWAP2 POP PUSH2 0x1143 DUP3 PUSH2 0x10DC JUMP JUMPDEST PUSH1 0x3E DUP3 ADD SWAP1 POP SWAP2 SWAP1 POP JUMP JUMPDEST PUSH32 0x3C7374796C653E00000000000000000000000000000000000000000000000000 PUSH1 0x0 DUP3 ADD MSTORE POP JUMP JUMPDEST PUSH1 0x0 PUSH2 0x1184 PUSH1 0x7 DUP4 PUSH2 0x98E JUMP JUMPDEST SWAP2 POP PUSH2 0x118F DUP3 PUSH2 0x114E JUMP JUMPDEST PUSH1 0x7 DUP3 ADD SWAP1 POP SWAP2 SWAP1 POP JUMP JUMPDEST PUSH32 0x2E746F6B656E73207B20666F6E743A20626F6C6420323470782073616E732D73 PUSH1 0x0 DUP3 ADD MSTORE PUSH32 0x657269663B207D00000000000000000000000000000000000000000000000000 PUSH1 0x20 DUP3 ADD MSTORE POP JUMP JUMPDEST PUSH1 0x0 PUSH2 0x11F6 PUSH1 0x27 DUP4 PUSH2 0x98E JUMP JUMPDEST SWAP2 POP PUSH2 0x1201 DUP3 PUSH2 0x119A JUMP JUMPDEST PUSH1 0x27 DUP3 ADD SWAP1 POP SWAP2 SWAP1 POP JUMP JUMPDEST PUSH32 0x2E666565207B20666F6E743A206E6F726D616C20313270782073616E732D7365 PUSH1 0x0 DUP3 ADD MSTORE PUSH32 0x7269663B207D0000000000000000000000000000000000000000000000000000 PUSH1 0x20 DUP3 ADD MSTORE POP JUMP JUMPDEST PUSH1 0x0 PUSH2 0x1268 PUSH1 0x26 DUP4 PUSH2 0x98E JUMP JUMPDEST SWAP2 POP PUSH2 0x1273 DUP3 PUSH2 0x120C JUMP JUMPDEST PUSH1 0x26 DUP3 ADD SWAP1 POP SWAP2 SWAP1 POP JUMP JUMPDEST PUSH32 0x2E7469636B207B20666F6E743A206E6F726D616C203870782073616E732D7365 PUSH1 0x0 DUP3 ADD MSTORE PUSH32 0x7269663B207D0000000000000000000000000000000000000000000000000000 PUSH1 0x20 DUP3 ADD MSTORE POP JUMP JUMPDEST PUSH1 0x0 PUSH2 0x12DA PUSH1 0x26 DUP4 PUSH2 0x98E JUMP JUMPDEST SWAP2 POP PUSH2 0x12E5 DUP3 PUSH2 0x127E JUMP JUMPDEST PUSH1 0x26 DUP3 ADD SWAP1 POP SWAP2 SWAP1 POP JUMP JUMPDEST PUSH32 0x3C2F7374796C653E000000000000000000000000000000000000000000000000 PUSH1 0x0 DUP3 ADD MSTORE POP JUMP JUMPDEST PUSH1 0x0 PUSH2 0x1326 PUSH1 0x8 DUP4 PUSH2 0x98E JUMP JUMPDEST SWAP2 POP PUSH2 0x1331 DUP3 PUSH2 0x12F0 JUMP JUMPDEST PUSH1 0x8 DUP3 ADD SWAP1 POP SWAP2 SWAP1 POP JUMP JUMPDEST PUSH32 0x3C646566733E0000000000000000000000000000000000000000000000000000 PUSH1 0x0 DUP3 ADD MSTORE POP JUMP JUMPDEST PUSH1 0x0 PUSH2 0x1372 PUSH1 0x6 DUP4 PUSH2 0x98E JUMP JUMPDEST SWAP2 POP PUSH2 0x137D DUP3 PUSH2 0x133C JUMP JUMPDEST PUSH1 0x6 DUP3 ADD SWAP1 POP SWAP2 SWAP1 POP JUMP JUMPDEST PUSH32 0x3C6C696E6561724772616469656E742069643D2267726164222078313D223022 PUSH1 0x0 DUP3 ADD MSTORE PUSH32 0x2079313D2230222078323D2231222079323D2231223E00000000000000000000 PUSH1 0x20 DUP3 ADD MSTORE POP JUMP JUMPDEST PUSH1 0x0 PUSH2 0x13E4 PUSH1 0x36 DUP4 PUSH2 0x98E JUMP JUMPDEST SWAP2 POP PUSH2 0x13EF DUP3 PUSH2 0x1388 JUMP JUMPDEST PUSH1 0x36 DUP3 ADD SWAP1 POP SWAP2 SWAP1 POP JUMP JUMPDEST PUSH32 0x3C73746F70206F66667365743D223025222073746F702D636F6C6F723D226873 PUSH1 0x0 DUP3 ADD MSTORE PUSH32 0x6C28000000000000000000000000000000000000000000000000000000000000 PUSH1 0x20 DUP3 ADD MSTORE POP JUMP JUMPDEST PUSH1 0x0 PUSH2 0x1456 PUSH1 0x22 DUP4 PUSH2 0x98E JUMP JUMPDEST SWAP2 POP PUSH2 0x1461 DUP3 PUSH2 0x13FA JUMP JUMPDEST PUSH1 0x22 DUP3 ADD SWAP1 POP SWAP2 SWAP1 POP JUMP JUMPDEST PUSH32 0x2C20000000000000000000000000000000000000000000000000000000000000 PUSH1 0x0 DUP3 ADD MSTORE POP JUMP JUMPDEST PUSH1 0x0 PUSH2 0x14A2 PUSH1 0x2 DUP4 PUSH2 0x98E JUMP JUMPDEST SWAP2 POP PUSH2 0x14AD DUP3 PUSH2 0x146C JUMP JUMPDEST PUSH1 0x2 DUP3 ADD SWAP1 POP SWAP2 SWAP1 POP JUMP JUMPDEST PUSH32 0x252C200000000000000000000000000000000000000000000000000000000000 PUSH1 0x0 DUP3 ADD MSTORE POP JUMP JUMPDEST PUSH1 0x0 PUSH2 0x14EE PUSH1 0x3 DUP4 PUSH2 0x98E JUMP JUMPDEST SWAP2 POP PUSH2 0x14F9 DUP3 PUSH2 0x14B8 JUMP JUMPDEST PUSH1 0x3 DUP3 ADD SWAP1 POP SWAP2 SWAP1 POP JUMP JUMPDEST PUSH32 0x2529222F3E000000000000000000000000000000000000000000000000000000 PUSH1 0x0 DUP3 ADD MSTORE POP JUMP JUMPDEST PUSH1 0x0 PUSH2 0x153A PUSH1 0x5 DUP4 PUSH2 0x98E JUMP JUMPDEST SWAP2 POP PUSH2 0x1545 DUP3 PUSH2 0x1504 JUMP JUMPDEST PUSH1 0x5 DUP3 ADD SWAP1 POP SWAP2 SWAP1 POP JUMP JUMPDEST PUSH32 0x3C73746F70206F66667365743D2231303025222073746F702D636F6C6F723D22 PUSH1 0x0 DUP3 ADD MSTORE PUSH32 0x68736C2800000000000000000000000000000000000000000000000000000000 PUSH1 0x20 DUP3 ADD MSTORE POP JUMP JUMPDEST PUSH1 0x0 PUSH2 0x15AC PUSH1 0x24 DUP4 PUSH2 0x98E JUMP JUMPDEST SWAP2 POP PUSH2 0x15B7 DUP3 PUSH2 0x1550 JUMP JUMPDEST PUSH1 0x24 DUP3 ADD SWAP1 POP SWAP2 SWAP1 POP JUMP JUMPDEST PUSH32 0x3C2F6C696E6561724772616469656E743E000000000000000000000000000000 PUSH1 0x0 DUP3 ADD MSTORE POP JUMP JUMPDEST PUSH1 0x0 PUSH2 0x15F8 PUSH1 0x11 DUP4 PUSH2 0x98E JUMP JUMPDEST SWAP2 POP PUSH2 0x1603 DUP3 PUSH2 0x15C2 JUMP JUMPDEST PUSH1 0x11 DUP3 ADD SWAP1 POP SWAP2 SWAP1 POP JUMP JUMPDEST PUSH32 0x3C2F646566733E00000000000000000000000000000000000000000000000000 PUSH1 0x0 DUP3 ADD MSTORE POP JUMP JUMPDEST PUSH1 0x0 PUSH2 0x1644 PUSH1 0x7 DUP4 PUSH2 0x98E JUMP JUMPDEST SWAP2 POP PUSH2 0x164F DUP3 PUSH2 0x160E JUMP JUMPDEST PUSH1 0x7 DUP3 ADD SWAP1 POP SWAP2 SWAP1 POP JUMP JUMPDEST PUSH32 0x3C726563742077696474683D2233303022206865696768743D22343830222066 PUSH1 0x0 DUP3 ADD MSTORE PUSH32 0x696C6C3D2275726C2823677261642922202F3E00000000000000000000000000 PUSH1 0x20 DUP3 ADD MSTORE POP JUMP JUMPDEST PUSH1 0x0 PUSH2 0x16B6 PUSH1 0x33 DUP4 PUSH2 0x98E JUMP JUMPDEST SWAP2 POP PUSH2 0x16C1 DUP3 PUSH2 0x165A JUMP JUMPDEST PUSH1 0x33 DUP3 ADD SWAP1 POP SWAP2 SWAP1 POP JUMP JUMPDEST PUSH32 0x3C7265637420783D2233302220793D223330222077696474683D223234302220 PUSH1 0x0 DUP3 ADD MSTORE PUSH32 0x6865696768743D22343230222072783D223135222072793D223135222066696C PUSH1 0x20 DUP3 ADD MSTORE PUSH32 0x6C3D2268736C28302C30252C30252922207374726F6B653D2223303030222069 PUSH1 0x40 DUP3 ADD MSTORE PUSH32 0x643D226D617022202F3E00000000000000000000000000000000000000000000 PUSH1 0x60 DUP3 ADD MSTORE POP JUMP JUMPDEST PUSH1 0x0 PUSH2 0x1774 PUSH1 0x6A DUP4 PUSH2 0x98E JUMP JUMPDEST SWAP2 POP PUSH2 0x177F DUP3 PUSH2 0x16CC JUMP JUMPDEST PUSH1 0x6A DUP3 ADD SWAP1 POP SWAP2 SWAP1 POP JUMP JUMPDEST PUSH32 0x3C7465787420783D2233392220793D2239302220636C6173733D22746F6B656E PUSH1 0x0 DUP3 ADD MSTORE PUSH32 0x73222066696C6C3D2223666666222069643D226E616D65223E20444F4D454C41 PUSH1 0x20 DUP3 ADD MSTORE PUSH32 0x4E44203C2F746578743E00000000000000000000000000000000000000000000 PUSH1 0x40 DUP3 ADD MSTORE POP JUMP JUMPDEST PUSH1 0x0 PUSH2 0x180C PUSH1 0x4A DUP4 PUSH2 0x98E JUMP JUMPDEST SWAP2 POP PUSH2 0x1817 DUP3 PUSH2 0x178A JUMP JUMPDEST PUSH1 0x4A DUP3 ADD SWAP1 POP SWAP2 SWAP1 POP JUMP JUMPDEST PUSH32 0x3C7465787420783D2233392220793D22313130222064793D2231352220636C61 PUSH1 0x0 DUP3 ADD MSTORE PUSH32 0x73733D22746F6B656E73222066696C6C3D2223666666222069643D2244432322 PUSH1 0x20 DUP3 ADD MSTORE PUSH32 0x3E44432023000000000000000000000000000000000000000000000000000000 PUSH1 0x40 DUP3 ADD MSTORE POP JUMP JUMPDEST PUSH1 0x0 PUSH2 0x18A4 PUSH1 0x45 DUP4 PUSH2 0x98E JUMP JUMPDEST SWAP2 POP PUSH2 0x18AF DUP3 PUSH2 0x1822 JUMP JUMPDEST PUSH1 0x45 DUP3 ADD SWAP1 POP SWAP2 SWAP1 POP JUMP JUMPDEST PUSH32 0x3C2F746578743E00000000000000000000000000000000000000000000000000 PUSH1 0x0 DUP3 ADD MSTORE POP JUMP JUMPDEST PUSH1 0x0 PUSH2 0x18F0 PUSH1 0x7 DUP4 PUSH2 0x98E JUMP JUMPDEST SWAP2 POP PUSH2 0x18FB DUP3 PUSH2 0x18BA JUMP JUMPDEST PUSH1 0x7 DUP3 ADD SWAP1 POP SWAP2 SWAP1 POP JUMP JUMPDEST PUSH32 0x3C7465787420783D2233392220793D22313330222064793D2231352220636C61 PUSH1 0x0 DUP3 ADD MSTORE PUSH32 0x73733D22666565222066696C6C3D2223666666222069643D22554E495423223E PUSH1 0x20 DUP3 ADD MSTORE PUSH32 0x554E4954202330203C2F746578743E0000000000000000000000000000000000 PUSH1 0x40 DUP3 ADD MSTORE POP JUMP JUMPDEST PUSH1 0x0 PUSH2 0x1988 PUSH1 0x4F DUP4 PUSH2 0x98E JUMP JUMPDEST SWAP2 POP PUSH2 0x1993 DUP3 PUSH2 0x1906 JUMP JUMPDEST PUSH1 0x4F DUP3 ADD SWAP1 POP SWAP2 SWAP1 POP JUMP JUMPDEST PUSH32 0x3C7465787420783D2233392220793D223138352220636C6173733D227469636B PUSH1 0x0 DUP3 ADD MSTORE PUSH32 0x222066696C6C3D2223666666222069643D224A554D502D50415448223E000000 PUSH1 0x20 DUP3 ADD MSTORE POP JUMP JUMPDEST PUSH1 0x0 PUSH2 0x19FA PUSH1 0x3D DUP4 PUSH2 0x98E JUMP JUMPDEST SWAP2 POP PUSH2 0x1A05 DUP3 PUSH2 0x199E JUMP JUMPDEST PUSH1 0x3D DUP3 ADD SWAP1 POP SWAP2 SWAP1 POP JUMP JUMPDEST PUSH32 0x3C747370616E20783D223339222064793D22312E32656D223E43757276652D50 PUSH1 0x0 DUP3 ADD MSTORE PUSH32 0x617468203A204F627365727661626C6520556E697665727365202D20203C2F74 PUSH1 0x20 DUP3 ADD MSTORE PUSH32 0x7370616E3E000000000000000000000000000000000000000000000000000000 PUSH1 0x40 DUP3 ADD MSTORE POP JUMP JUMPDEST PUSH1 0x0 PUSH2 0x1A92 PUSH1 0x45 DUP4 PUSH2 0x98E JUMP JUMPDEST SWAP2 POP PUSH2 0x1A9D DUP3 PUSH2 0x1A10 JUMP JUMPDEST PUSH1 0x45 DUP3 ADD SWAP1 POP SWAP2 SWAP1 POP JUMP JUMPDEST PUSH32 0x3C747370616E20783D223339222064793D22312E32656D223E5069736365732C PUSH1 0x0 DUP3 ADD MSTORE PUSH32 0x204365747573205375706572636C757374657220436F6D706C6578202D203C2F PUSH1 0x20 DUP3 ADD MSTORE PUSH32 0x747370616E3E0000000000000000000000000000000000000000000000000000 PUSH1 0x40 DUP3 ADD MSTORE POP JUMP JUMPDEST PUSH1 0x0 PUSH2 0x1B2A PUSH1 0x46 DUP4 PUSH2 0x98E JUMP JUMPDEST SWAP2 POP PUSH2 0x1B35 DUP3 PUSH2 0x1AA8 JUMP JUMPDEST PUSH1 0x46 DUP3 ADD SWAP1 POP SWAP2 SWAP1 POP JUMP JUMPDEST PUSH32 0x3C747370616E20783D223339222064793D22312E32656D223E4C616E69616B65 PUSH1 0x0 DUP3 ADD MSTORE PUSH32 0x61205375706572636C7573746572202D20566972676F205375706572636C7573 PUSH1 0x20 DUP3 ADD MSTORE PUSH32 0x746572202D203C2F747370616E3E000000000000000000000000000000000000 PUSH1 0x40 DUP3 ADD MSTORE POP JUMP JUMPDEST PUSH1 0x0 PUSH2 0x1BC2 PUSH1 0x4E DUP4 PUSH2 0x98E JUMP JUMPDEST SWAP2 POP PUSH2 0x1BCD DUP3 PUSH2 0x1B40 JUMP JUMPDEST PUSH1 0x4E DUP3 ADD SWAP1 POP SWAP2 SWAP1 POP JUMP JUMPDEST PUSH32 0x3C747370616E20783D223339222064793D22312E32656D223E4C6F63616C2047 PUSH1 0x0 DUP3 ADD MSTORE PUSH32 0x726F7570206F662047616C6178696573202D204D696C6B7920576179202D203C PUSH1 0x20 DUP3 ADD MSTORE PUSH32 0x2F747370616E3E00000000000000000000000000000000000000000000000000 PUSH1 0x40 DUP3 ADD MSTORE POP JUMP JUMPDEST PUSH1 0x0 PUSH2 0x1C5A PUSH1 0x47 DUP4 PUSH2 0x98E JUMP JUMPDEST SWAP2 POP PUSH2 0x1C65 DUP3 PUSH2 0x1BD8 JUMP JUMPDEST PUSH1 0x47 DUP3 ADD SWAP1 POP SWAP2 SWAP1 POP JUMP JUMPDEST PUSH32 0x3C747370616E20783D223339222064793D22312E32656D223E536F6C61722053 PUSH1 0x0 DUP3 ADD MSTORE PUSH32 0x797374656D20202D204561727468203C2F747370616E3E000000000000000000 PUSH1 0x20 DUP3 ADD MSTORE POP JUMP JUMPDEST PUSH1 0x0 PUSH2 0x1CCC PUSH1 0x37 DUP4 PUSH2 0x98E JUMP JUMPDEST SWAP2 POP PUSH2 0x1CD7 DUP3 PUSH2 0x1C70 JUMP JUMPDEST PUSH1 0x37 DUP3 ADD SWAP1 POP SWAP2 SWAP1 POP JUMP JUMPDEST PUSH32 0x3C7465787420783D2233392220793D22323530222064793D2233302220636C61 PUSH1 0x0 DUP3 ADD MSTORE PUSH32 0x73733D227469636B222066696C6C3D2223666666222069643D22564F4C223E56 PUSH1 0x20 DUP3 ADD MSTORE PUSH32 0x6F6C756D65203A20392A392A393C2F746578743E000000000000000000000000 PUSH1 0x40 DUP3 ADD MSTORE POP JUMP JUMPDEST PUSH1 0x0 PUSH2 0x1D64 PUSH1 0x54 DUP4 PUSH2 0x98E JUMP JUMPDEST SWAP2 POP PUSH2 0x1D6F DUP3 PUSH2 0x1CE2 JUMP JUMPDEST PUSH1 0x54 DUP3 ADD SWAP1 POP SWAP2 SWAP1 POP JUMP JUMPDEST PUSH32 0x3C7465787420783D2233392220793D22323830222064793D2233302220636C61 PUSH1 0x0 DUP3 ADD MSTORE PUSH32 0x73733D227469636B222066696C6C3D2223666666222069643D22555341474522 PUSH1 0x20 DUP3 ADD MSTORE PUSH32 0x3E5573616765203A20636F70696C6F742063617073756C653C2F746578743E00 PUSH1 0x40 DUP3 ADD MSTORE POP JUMP JUMPDEST PUSH1 0x0 PUSH2 0x1DFC PUSH1 0x5F DUP4 PUSH2 0x98E JUMP JUMPDEST SWAP2 POP PUSH2 0x1E07 DUP3 PUSH2 0x1D7A JUMP JUMPDEST PUSH1 0x5F DUP3 ADD SWAP1 POP SWAP2 SWAP1 POP JUMP JUMPDEST PUSH32 0x3C7465787420783D223234302220793D223630222064793D22312E32656D2220 PUSH1 0x0 DUP3 ADD MSTORE PUSH32 0x636C6173733D227469636B222066696C6C3D2223666666222069643D22535243 PUSH1 0x20 DUP3 ADD MSTORE PUSH32 0x222077726974696E672D6D6F64653D2274622D726C2220676C7970682D6F7269 PUSH1 0x40 DUP3 ADD MSTORE PUSH32 0x656E746174696F6E2D766572746963616C3D2230223E00000000000000000000 PUSH1 0x60 DUP3 ADD MSTORE POP JUMP JUMPDEST PUSH1 0x0 PUSH2 0x1EBA PUSH1 0x76 DUP4 PUSH2 0x98E JUMP JUMPDEST SWAP2 POP PUSH2 0x1EC5 DUP3 PUSH2 0x1E12 JUMP JUMPDEST PUSH1 0x76 DUP3 ADD SWAP1 POP SWAP2 SWAP1 POP JUMP JUMPDEST PUSH32 0x535243203A2068747470733A2F2F697066732E696F2F697066732F6261667962 PUSH1 0x0 DUP3 ADD MSTORE PUSH32 0x6569616568796B79616C337163776836736B6872707664756C7765346A367A68 PUSH1 0x20 DUP3 ADD MSTORE PUSH32 0x647A776975786C337A7776357667656A6B6761616E792F000000000000000000 PUSH1 0x40 DUP3 ADD MSTORE POP JUMP JUMPDEST PUSH1 0x0 PUSH2 0x1F52 PUSH1 0x57 DUP4 PUSH2 0x98E JUMP JUMPDEST SWAP2 POP PUSH2 0x1F5D DUP3 PUSH2 0x1ED0 JUMP JUMPDEST PUSH1 0x57 DUP3 ADD SWAP1 POP SWAP2 SWAP1 POP JUMP JUMPDEST PUSH32 0x2E6A736F6E000000000000000000000000000000000000000000000000000000 PUSH1 0x0 DUP3 ADD MSTORE POP JUMP JUMPDEST PUSH1 0x0 PUSH2 0x1F9E PUSH1 0x5 DUP4 PUSH2 0x98E JUMP JUMPDEST SWAP2 POP PUSH2 0x1FA9 DUP3 PUSH2 0x1F68 JUMP JUMPDEST PUSH1 0x5 DUP3 ADD SWAP1 POP SWAP2 SWAP1 POP JUMP JUMPDEST PUSH32 0x3C67207472616E73666F726D3D227472616E736C6174652833392C3433352920 PUSH1 0x0 DUP3 ADD MSTORE PUSH32 0x7363616C6528302E30362C2D302E303629222066696C6C3D2272676261283235 PUSH1 0x20 DUP3 ADD MSTORE PUSH32 0x352C203235352C203235352C20302E352922207374726F6B653D226E6F6E6522 PUSH1 0x40 DUP3 ADD MSTORE PUSH32 0x2069643D22746F7022203E3C7061746820643D224D343930203132343520632D PUSH1 0x60 DUP3 ADD MSTORE PUSH32 0x313731202D3437202D333332202D313738202D343034202D333237202D383820 PUSH1 0x80 DUP3 ADD MSTORE PUSH32 0x2D313833202D3837202D3337322033202D353533203337202D37342031323120 PUSH1 0xA0 DUP3 ADD MSTORE PUSH32 0x2D31383520313431202D31383520352030203130203135203132203333203320 PUSH1 0xC0 DUP3 ADD MSTORE PUSH32 0x3239203920333420353820353320373920333120313030203337203130302032 PUSH1 0xE0 DUP3 ADD MSTORE PUSH32 0x362030202D35202D3233202D3139202D3532202D3331206C2D3532202D323220 PUSH2 0x100 DUP3 ADD MSTORE PUSH32 0x3239202D313720633137202D3130203933202D353120313730202D3932206C31 PUSH2 0x120 DUP3 ADD MSTORE PUSH32 0x3430202D37332039302034372063343920323520313236203636203136392039 PUSH2 0x140 DUP3 ADD MSTORE PUSH32 0x30206C3830203434202D353220323220632D3239203132202D3532203236202D PUSH2 0x160 DUP3 ADD MSTORE PUSH32 0x353220333120302038203735202D313220313330202D3335206C3333202D3133 PUSH2 0x180 DUP3 ADD MSTORE PUSH32 0x202D313934202D31303420632D323036202D313131202D323139202D31323720 PUSH2 0x1A0 DUP3 ADD MSTORE PUSH32 0x2D3733202D393420313132203235203232342038352033303420313634203332 PUSH2 0x1C0 DUP3 ADD MSTORE PUSH32 0x31203331382031393720383637202D3233302031303138202D3934203333202D PUSH2 0x1E0 DUP3 ADD MSTORE PUSH32 0x323633203432202D3335302031387A206D2D36202D31343220633134202D3536 PUSH2 0x200 DUP3 ADD MSTORE PUSH32 0x203233202D313039203139202D313139202D34202D3132202D33202D31352035 PUSH2 0x220 DUP3 ADD MSTORE PUSH32 0x202D313020382035203130202D332037202D3236202D34202D3234202D33202D PUSH2 0x240 DUP3 ADD MSTORE PUSH32 0x32372033202D313420382031392039203139203134202D322035202D31362030 PUSH2 0x260 DUP3 ADD MSTORE PUSH32 0x202D3233202D3231202D3331202D3231202D38202D3232202D3130202D36202D PUSH2 0x280 DUP3 ADD MSTORE PUSH32 0x3130203131203020333820352035392031332034302031342034362032322037 PUSH2 0x2A0 DUP3 ADD MSTORE PUSH32 0x312031303620362032322035203233202D362039202D3230202D3234202D3935 PUSH2 0x2C0 DUP3 ADD MSTORE PUSH32 0x202D3334202D313033202D3134202D3420313220372032312034312033362032 PUSH2 0x2E0 DUP3 ADD MSTORE PUSH32 0x3520313120353520323120363620323320313620322032362031382034302036 PUSH2 0x300 DUP3 ADD MSTORE PUSH32 0x302031312033322032332035342032372034392038202D39203435202D313831 PUSH2 0x320 DUP3 ADD MSTORE PUSH32 0x203535202D3235332033202D32352038202D3534203131202D36362034202D31 PUSH2 0x340 DUP3 ADD MSTORE PUSH32 0x34202D31202D3234202D3138202D3332202D3439202D32332035202D31312037 PUSH2 0x360 DUP3 ADD MSTORE PUSH32 0x392031392039332033372031313820353620313031203736202D38203130202D PUSH2 0x380 DUP3 ADD MSTORE PUSH32 0x3330203133202D3737203131206C2D3635202D33202D313820343820632D3130 PUSH2 0x3A0 DUP3 ADD MSTORE PUSH32 0x203236202D3136203437202D313520343720322030203633202D323420313337 PUSH2 0x3C0 DUP3 ADD MSTORE PUSH32 0x202D3534206C313334202D3534202D3634202D323920632D3336202D3137202D PUSH2 0x3E0 DUP3 ADD MSTORE PUSH32 0x313231202D3536202D313839202D3838202D3639202D3332202D313330202D35 PUSH2 0x400 DUP3 ADD MSTORE PUSH32 0x38202D313335202D3538202D382030202D3130202D3836202D38202D32373420 PUSH2 0x420 DUP3 ADD MSTORE PUSH32 0x6C33202D323733202D31383820393620632D313033203533202D313934203130 PUSH2 0x440 DUP3 ADD MSTORE PUSH32 0x31202D32303120313037202D392037202D3133203331202D3132203731203420 PUSH2 0x460 DUP3 ADD MSTORE PUSH32 0x313037203020313633202D313020313431202D35202D3132202D39202D313420 PUSH2 0x480 DUP3 ADD MSTORE PUSH32 0x2D39202D36202D312038202D3133203330202D3238203439202D313520323020 PUSH2 0x4A0 DUP3 ADD MSTORE PUSH32 0x2D3233203337202D313720333920333520313220333720323020323020363820 PUSH2 0x4C0 DUP3 ADD MSTORE PUSH32 0x2D38203236202D3234203534202D3333203631202D3136203132202D31312031 PUSH2 0x4E0 DUP3 ADD MSTORE PUSH32 0x33203335203134206C35342030202D3420333620632D33203432203920353420 PUSH2 0x500 DUP3 ADD MSTORE PUSH32 0x3832203830203436203137203437203138203730203838203331203936203631 PUSH2 0x520 DUP3 ADD MSTORE PUSH32 0x20313738203635203137342032202D32203135202D3439203239202D3130357A PUSH2 0x540 DUP3 ADD MSTORE PUSH32 0x206D353238202D34343120633332202D3131203732202D3331203930202D3434 PUSH2 0x560 DUP3 ADD MSTORE PUSH32 0x203330202D3231203331202D3233203132202D3236202D3132202D32202D3530 PUSH2 0x580 DUP3 ADD MSTORE PUSH32 0x202D3238202D3835202D3539202D3730202D3631202D313239202D3932202D31 PUSH2 0x5A0 DUP3 ADD MSTORE PUSH32 0x3733202D3933202D32372030202D32382031202D313420323220382031322032 PUSH2 0x5C0 DUP3 ADD MSTORE PUSH32 0x3720323520343320333020313520342034312032302035382033352031372031 PUSH2 0x5E0 DUP3 ADD MSTORE PUSH32 0x35203237203233203234203136202D35202D38202D31202D3820313720302031 PUSH2 0x600 DUP3 ADD MSTORE PUSH32 0x352037203230203134203133203139202D362033203520382032342031312031 PUSH2 0x620 DUP3 ADD MSTORE PUSH32 0x39203220362034202D33312035202D35342031202D3734202D34202D31323020 PUSH2 0x640 DUP3 ADD MSTORE PUSH32 0x2D3238202D3738202D3432202D3930202D3430202D3930203134203020353320 PUSH2 0x660 DUP3 ADD MSTORE PUSH32 0x3134203936203338203131342032332031382031323020313020313934202D31 PUSH2 0x680 DUP3 ADD MSTORE PUSH32 0x367A206D2D3837202D31333220632D3130202D3131202D3233202D3230202D32 PUSH2 0x6A0 DUP3 ADD MSTORE PUSH32 0x39202D3230202D36203020302039203134203230203332203235203338203235 PUSH2 0x6C0 DUP3 ADD MSTORE PUSH32 0x20313520307A222F3E3C7061746820643D224D3332302038373020633139202D PUSH2 0x6E0 DUP3 ADD MSTORE PUSH32 0x3131203430202D3139203435202D313920362030202D362038202D3235203139 PUSH2 0x700 DUP3 ADD MSTORE PUSH32 0x202D3139203131202D3339203139202D3435203139202D3520302036202D3820 PUSH2 0x720 DUP3 ADD MSTORE PUSH32 0x3235202D31397A222F3E3C7061746820643D224D343530203831302063313920 PUSH2 0x740 DUP3 ADD MSTORE PUSH32 0x2D3131203430202D3139203435202D313920362030202D362038202D32352031 PUSH2 0x760 DUP3 ADD MSTORE PUSH32 0x39202D3139203131202D3339203139202D3435203139202D3520302036202D38 PUSH2 0x780 DUP3 ADD MSTORE PUSH32 0x203235202D31397A222F3E3C7061746820643D224D3239302037353920632D31 PUSH2 0x7A0 DUP3 ADD MSTORE PUSH32 0x32202D38202D3130202D392038202D34203731203230203931202D3132332032 PUSH2 0x7C0 DUP3 ADD MSTORE PUSH32 0x34202D313736202D3231202D3136202D3233202D3230202D38202D3138203538 PUSH2 0x7E0 DUP3 ADD MSTORE PUSH32 0x2031312038322031333520333520313835202D3235203236202D333620323920 PUSH2 0x800 DUP3 ADD MSTORE PUSH32 0x2D35392031337A222F3E3C7061746820643D224D353730203735352063313420 PUSH2 0x820 DUP3 ADD MSTORE PUSH32 0x2D38203330202D3134203335202D313420362030202D312036202D3135203134 PUSH2 0x840 DUP3 ADD MSTORE PUSH32 0x202D31342038202D3239203134202D3335203134202D3520302031202D362031 PUSH2 0x860 DUP3 ADD MSTORE PUSH32 0x35202D31347A222F3E3C7061746820643D224D3532352036363020632D313720 PUSH2 0x880 DUP3 ADD MSTORE PUSH32 0x2D37202D3134202D39203132202D39203638202D32203835202D313231203237 PUSH2 0x8A0 DUP3 ADD MSTORE PUSH32 0x202D313833202D3235202D3236202D3236202D3239202D37202D313920363620 PUSH2 0x8C0 DUP3 ADD MSTORE PUSH32 0x333420373120313637203820323036202D31322038202D3238203130202D3430 PUSH2 0x8E0 DUP3 ADD MSTORE PUSH32 0x20357A222F3E3C2F673E00000000000000000000000000000000000000000000 PUSH2 0x900 DUP3 ADD MSTORE POP JUMP JUMPDEST PUSH1 0x0 PUSH2 0x2ADC PUSH2 0x90A DUP4 PUSH2 0x98E JUMP JUMPDEST SWAP2 POP PUSH2 0x2AE7 DUP3 PUSH2 0x1FB4 JUMP JUMPDEST PUSH2 0x90A DUP3 ADD SWAP1 POP SWAP2 SWAP1 POP JUMP JUMPDEST PUSH32 0x3C2F7376673E0000000000000000000000000000000000000000000000000000 PUSH1 0x0 DUP3 ADD MSTORE POP JUMP JUMPDEST PUSH1 0x0 PUSH2 0x2B29 PUSH1 0x6 DUP4 PUSH2 0x98E JUMP JUMPDEST SWAP2 POP PUSH2 0x2B34 DUP3 PUSH2 0x2AF3 JUMP JUMPDEST PUSH1 0x6 DUP3 ADD SWAP1 POP SWAP2 SWAP1 POP JUMP JUMPDEST PUSH1 0x0 PUSH2 0x2B4A DUP3 PUSH2 0x112B JUMP JUMPDEST SWAP2 POP PUSH2 0x2B55 DUP3 PUSH2 0x1177 JUMP JUMPDEST SWAP2 POP PUSH2 0x2B60 DUP3 PUSH2 0x11E9 JUMP JUMPDEST SWAP2 POP PUSH2 0x2B6B DUP3 PUSH2 0x125B JUMP JUMPDEST SWAP2 POP PUSH2 0x2B76 DUP3 PUSH2 0x12CD JUMP JUMPDEST SWAP2 POP PUSH2 0x2B81 DUP3 PUSH2 0x1319 JUMP JUMPDEST SWAP2 POP PUSH2 0x2B8C DUP3 PUSH2 0x1365 JUMP JUMPDEST SWAP2 POP PUSH2 0x2B97 DUP3 PUSH2 0x13D7 JUMP JUMPDEST SWAP2 POP PUSH2 0x2BA2 DUP3 PUSH2 0x1449 JUMP JUMPDEST SWAP2 POP PUSH2 0x2BAE DUP3 DUP12 PUSH2 0xA57 JUMP JUMPDEST SWAP2 POP PUSH2 0x2BB9 DUP3 PUSH2 0x1495 JUMP JUMPDEST SWAP2 POP PUSH2 0x2BC5 DUP3 DUP11 PUSH2 0xA57 JUMP JUMPDEST SWAP2 POP PUSH2 0x2BD0 DUP3 PUSH2 0x14E1 JUMP JUMPDEST SWAP2 POP PUSH2 0x2BDC DUP3 DUP10 PUSH2 0xA57 JUMP JUMPDEST SWAP2 POP PUSH2 0x2BE7 DUP3 PUSH2 0x152D JUMP JUMPDEST SWAP2 POP PUSH2 0x2BF2 DUP3 PUSH2 0x159F JUMP JUMPDEST SWAP2 POP PUSH2 0x2BFE DUP3 DUP9 PUSH2 0xA57 JUMP JUMPDEST SWAP2 POP PUSH2 0x2C09 DUP3 PUSH2 0x1495 JUMP JUMPDEST SWAP2 POP PUSH2 0x2C15 DUP3 DUP8 PUSH2 0xA57 JUMP JUMPDEST SWAP2 POP PUSH2 0x2C20 DUP3 PUSH2 0x14E1 JUMP JUMPDEST SWAP2 POP PUSH2 0x2C2C DUP3 DUP7 PUSH2 0xA57 JUMP JUMPDEST SWAP2 POP PUSH2 0x2C37 DUP3 PUSH2 0x152D JUMP JUMPDEST SWAP2 POP PUSH2 0x2C42 DUP3 PUSH2 0x15EB JUMP JUMPDEST SWAP2 POP PUSH2 0x2C4D DUP3 PUSH2 0x1637 JUMP JUMPDEST SWAP2 POP PUSH2 0x2C58 DUP3 PUSH2 0x16A9 JUMP JUMPDEST SWAP2 POP PUSH2 0x2C63 DUP3 PUSH2 0x1767 JUMP JUMPDEST SWAP2 POP PUSH2 0x2C6E DUP3 PUSH2 0x17FF JUMP JUMPDEST SWAP2 POP PUSH2 0x2C79 DUP3 PUSH2 0x1897 JUMP JUMPDEST SWAP2 POP PUSH2 0x2C85 DUP3 DUP6 PUSH2 0xA57 JUMP JUMPDEST SWAP2 POP PUSH2 0x2C90 DUP3 PUSH2 0x18E3 JUMP JUMPDEST SWAP2 POP PUSH2 0x2C9B DUP3 PUSH2 0x197B JUMP JUMPDEST SWAP2 POP PUSH2 0x2CA6 DUP3 PUSH2 0x19ED JUMP JUMPDEST SWAP2 POP PUSH2 0x2CB1 DUP3 PUSH2 0x1A85 JUMP JUMPDEST SWAP2 POP PUSH2 0x2CBC DUP3 PUSH2 0x1B1D JUMP JUMPDEST SWAP2 POP PUSH2 0x2CC7 DUP3 PUSH2 0x1BB5 JUMP JUMPDEST SWAP2 POP PUSH2 0x2CD2 DUP3 PUSH2 0x1C4D JUMP JUMPDEST SWAP2 POP PUSH2 0x2CDD DUP3 PUSH2 0x1CBF JUMP JUMPDEST SWAP2 POP PUSH2 0x2CE8 DUP3 PUSH2 0x18E3 JUMP JUMPDEST SWAP2 POP PUSH2 0x2CF3 DUP3 PUSH2 0x1D57 JUMP JUMPDEST SWAP2 POP PUSH2 0x2CFE DUP3 PUSH2 0x1DEF JUMP JUMPDEST SWAP2 POP PUSH2 0x2D09 DUP3 PUSH2 0x1EAD JUMP JUMPDEST SWAP2 POP PUSH2 0x2D14 DUP3 PUSH2 0x1F45 JUMP JUMPDEST SWAP2 POP PUSH2 0x2D20 DUP3 DUP5 PUSH2 0xA57 JUMP JUMPDEST SWAP2 POP PUSH2 0x2D2B DUP3 PUSH2 0x1F91 JUMP JUMPDEST SWAP2 POP PUSH2 0x2D36 DUP3 PUSH2 0x18E3 JUMP JUMPDEST SWAP2 POP PUSH2 0x2D41 DUP3 PUSH2 0x2ACE JUMP JUMPDEST SWAP2 POP PUSH2 0x2D4C DUP3 PUSH2 0x2B1C JUMP JUMPDEST SWAP2 POP DUP2 SWAP1 POP SWAP10 SWAP9 POP POP POP POP POP POP POP POP POP JUMP JUMPDEST PUSH32 0x2F00000000000000000000000000000000000000000000000000000000000000 PUSH1 0x0 DUP3 ADD MSTORE POP JUMP JUMPDEST PUSH1 0x0 PUSH2 0x2D94 PUSH1 0x1 DUP4 PUSH2 0x98E JUMP JUMPDEST SWAP2 POP PUSH2 0x2D9F DUP3 PUSH2 0x2D5E JUMP JUMPDEST PUSH1 0x1 DUP3 ADD SWAP1 POP SWAP2 SWAP1 POP JUMP JUMPDEST PUSH32 0x2E00000000000000000000000000000000000000000000000000000000000000 PUSH1 0x0 DUP3 ADD MSTORE POP JUMP JUMPDEST PUSH1 0x0 PUSH2 0x2DE0 PUSH1 0x1 DUP4 PUSH2 0x98E JUMP JUMPDEST SWAP2 POP PUSH2 0x2DEB DUP3 PUSH2 0x2DAA JUMP JUMPDEST PUSH1 0x1 DUP3 ADD SWAP1 POP SWAP2 SWAP1 POP JUMP JUMPDEST PUSH1 0x0 PUSH2 0x2E02 DUP3 DUP7 PUSH2 0xA57 JUMP JUMPDEST SWAP2 POP PUSH2 0x2E0D DUP3 PUSH2 0x2D87 JUMP JUMPDEST SWAP2 POP PUSH2 0x2E19 DUP3 DUP6 PUSH2 0xA57 JUMP JUMPDEST SWAP2 POP PUSH2 0x2E24 DUP3 PUSH2 0x2DD3 JUMP JUMPDEST SWAP2 POP PUSH2 0x2E30 DUP3 DUP5 PUSH2 0xA57 JUMP JUMPDEST SWAP2 POP DUP2 SWAP1 POP SWAP5 SWAP4 POP POP POP POP JUMP JUMPDEST PUSH32 0x22616E696D6174696F6E5F75726C223A22000000000000000000000000000000 PUSH1 0x0 DUP3 ADD MSTORE POP JUMP JUMPDEST PUSH1 0x0 PUSH2 0x2E73 PUSH1 0x11 DUP4 PUSH2 0x98E JUMP JUMPDEST SWAP2 POP PUSH2 0x2E7E DUP3 PUSH2 0x2E3D JUMP JUMPDEST PUSH1 0x11 DUP3 ADD SWAP1 POP SWAP2 SWAP1 POP JUMP JUMPDEST PUSH32 0x2E6A736F6E227D2C000000000000000000000000000000000000000000000000 PUSH1 0x0 DUP3 ADD MSTORE POP JUMP JUMPDEST PUSH1 0x0 PUSH2 0x2EBF PUSH1 0x8 DUP4 PUSH2 0x98E JUMP JUMPDEST SWAP2 POP PUSH2 0x2ECA DUP3 PUSH2 0x2E89 JUMP JUMPDEST PUSH1 0x8 DUP3 ADD SWAP1 POP SWAP2 SWAP1 POP JUMP JUMPDEST PUSH32 0x7B2274726169745F74797065223A22416E696D6174696F6E222C2276616C7565 PUSH1 0x0 DUP3 ADD MSTORE PUSH32 0x223A220000000000000000000000000000000000000000000000000000000000 PUSH1 0x20 DUP3 ADD MSTORE POP JUMP JUMPDEST PUSH1 0x0 PUSH2 0x2F31 PUSH1 0x23 DUP4 PUSH2 0x98E JUMP JUMPDEST SWAP2 POP PUSH2 0x2F3C DUP3 PUSH2 0x2ED5 JUMP JUMPDEST PUSH1 0x23 DUP3 ADD SWAP1 POP SWAP2 SWAP1 POP JUMP JUMPDEST PUSH32 0x227D000000000000000000000000000000000000000000000000000000000000 PUSH1 0x0 DUP3 ADD MSTORE POP JUMP JUMPDEST PUSH1 0x0 PUSH2 0x2F7D PUSH1 0x2 DUP4 PUSH2 0x98E JUMP JUMPDEST SWAP2 POP PUSH2 0x2F88 DUP3 PUSH2 0x2F47 JUMP JUMPDEST PUSH1 0x2 DUP3 ADD SWAP1 POP SWAP2 SWAP1 POP JUMP JUMPDEST PUSH1 0x0 PUSH2 0x2F9E DUP3 PUSH2 0x9C2 JUMP JUMPDEST SWAP2 POP PUSH2 0x2FA9 DUP3 PUSH2 0xA34 JUMP JUMPDEST SWAP2 POP PUSH2 0x2FB5 DUP3 DUP9 PUSH2 0xA57 JUMP JUMPDEST SWAP2 POP PUSH2 0x2FC0 DUP3 PUSH2 0xAB1 JUMP JUMPDEST SWAP2 POP PUSH2 0x2FCB DUP3 PUSH2 0x2E66 JUMP JUMPDEST SWAP2 POP PUSH2 0x2FD7 DUP3 DUP8 PUSH2 0xA57 JUMP JUMPDEST SWAP2 POP PUSH2 0x2FE2 DUP3 PUSH2 0xAB1 JUMP JUMPDEST SWAP2 POP PUSH2 0x2FED DUP3 PUSH2 0xAFD JUMP JUMPDEST SWAP2 POP PUSH2 0x2FF8 DUP3 PUSH2 0xB49 JUMP JUMPDEST SWAP2 POP PUSH2 0x3004 DUP3 DUP7 PUSH2 0xA57 JUMP JUMPDEST SWAP2 POP PUSH2 0x300F DUP3 PUSH2 0xB95 JUMP JUMPDEST SWAP2 POP PUSH2 0x301A DUP3 PUSH2 0xC07 JUMP JUMPDEST SWAP2 POP PUSH2 0x3025 DUP3 PUSH2 0xD37 JUMP JUMPDEST SWAP2 POP PUSH2 0x3030 DUP3 PUSH2 0xDA9 JUMP JUMPDEST SWAP2 POP PUSH2 0x303B DUP3 PUSH2 0xE67 JUMP JUMPDEST SWAP2 POP PUSH2 0x3047 DUP3 DUP6 PUSH2 0xA57 JUMP JUMPDEST SWAP2 POP PUSH2 0x3052 DUP3 PUSH2 0x2EB2 JUMP JUMPDEST SWAP2 POP PUSH2 0x305D DUP3 PUSH2 0x2F24 JUMP JUMPDEST SWAP2 POP PUSH2 0x3069 DUP3 DUP5 PUSH2 0xA57 JUMP JUMPDEST SWAP2 POP PUSH2 0x3074 DUP3 PUSH2 0x2F70 JUMP JUMPDEST SWAP2 POP PUSH2 0x307F DUP3 PUSH2 0xEFF JUMP JUMPDEST SWAP2 POP DUP2 SWAP1 POP SWAP7 SWAP6 POP POP POP POP POP POP JUMP JUMPDEST PUSH1 0x0 PUSH2 0x3099 DUP3 PUSH2 0x62D JUMP JUMPDEST SWAP2 POP PUSH2 0x30A4 DUP4 PUSH2 0x62D JUMP JUMPDEST SWAP3 POP DUP3 PUSH2 0x30B4 JUMPI PUSH2 0x30B3 PUSH2 0x1048 JUMP JUMPDEST JUMPDEST DUP3 DUP3 DIV SWAP1 POP SWAP3 SWAP2 POP POP JUMP INVALID COINBASE TIMESTAMP NUMBER PREVRANDAO GASLIMIT CHAINID SELFBALANCE BASEFEE 0x49 0x4A 0x4B 0x4C 0x4D 0x4E 0x4F POP MLOAD MSTORE MSTORE8 SLOAD SSTORE JUMP JUMPI PC MSIZE GAS PUSH2 0x6263 PUSH5 0x6566676869 PUSH11 0x6B6C6D6E6F707172737475 PUSH23 0x7778797A303132333435363738392B2FA2646970667358 0x22 SLT KECCAK256 0xEF PUSH21 0xA2F5019785817A5C09098A5D5553285B86537D0231 REVERT POP 0xBA 0xBF PUSH3 0x250E8D SHR PUSH5 0x736F6C6343 STOP ADDMOD SLT STOP CALLER "},"methodIdentifiers":{"generateMetadata(uint256,string)":"691a3ca0","generateMetadata(uint256,string,string,string)":"7b5d473b","generateSVG(uint256)":"6dcee4ca"}}}}}