{"contracts/domelandNFT.sol":{"Domeland":{"abi":[{"inputs":[],"stateMutability":"nonpayable","type":"constructor"},{"anonymous":false,"inputs":[{"indexed":true,"internalType":"address","name":"owner","type":"address"},{"indexed":true,"internalType":"address","name":"approved","type":"address"},{"indexed":true,"internalType":"uint256","name":"tokenId","type":"uint256"}],"name":"Approval","type":"event"},{"anonymous":false,"inputs":[{"indexed":true,"internalType":"address","name":"owner","type":"address"},{"indexed":true,"internalType":"address","name":"operator","type":"address"},{"indexed":false,"internalType":"bool","name":"approved","type":"bool"}],"name":"ApprovalForAll","type":"event"},{"anonymous":false,"inputs":[{"indexed":false,"internalType":"uint256","name":"_fromTokenId","type":"uint256"},{"indexed":false,"internalType":"uint256","name":"_toTokenId","type":"uint256"}],"name":"BatchMetadataUpdate","type":"event"},{"anonymous":false,"inputs":[{"indexed":true,"internalType":"address","name":"to","type":"address"},{"indexed":false,"internalType":"uint256","name":"amount","type":"uint256"}],"name":"GiftSent","type":"event"},{"anonymous":false,"inputs":[{"indexed":false,"internalType":"uint256","name":"_tokenId","type":"uint256"}],"name":"MetadataUpdate","type":"event"},{"anonymous":false,"inputs":[{"indexed":true,"internalType":"address","name":"to","type":"address"},{"indexed":true,"internalType":"uint256","name":"tokenId","type":"uint256"}],"name":"Minted","type":"event"},{"anonymous":false,"inputs":[{"indexed":true,"internalType":"address","name":"previousOwner","type":"address"},{"indexed":true,"internalType":"address","name":"newOwner","type":"address"}],"name":"OwnershipTransferred","type":"event"},{"anonymous":false,"inputs":[{"indexed":true,"internalType":"address","name":"from","type":"address"},{"indexed":true,"internalType":"address","name":"to","type":"address"},{"indexed":true,"internalType":"uint256","name":"tokenId","type":"uint256"}],"name":"Transfer","type":"event"},{"inputs":[],"name":"MAX_AMOUNT","outputs":[{"internalType":"uint256","name":"","type":"uint256"}],"stateMutability":"view","type":"function"},{"inputs":[],"name":"MAX_TOKENS","outputs":[{"internalType":"uint256","name":"","type":"uint256"}],"stateMutability":"view","type":"function"},{"inputs":[],"name":"_mintPrice","outputs":[{"internalType":"uint256","name":"","type":"uint256"}],"stateMutability":"view","type":"function"},{"inputs":[],"name":"animation_ext","outputs":[{"internalType":"string","name":"","type":"string"}],"stateMutability":"view","type":"function"},{"inputs":[],"name":"animation_url","outputs":[{"internalType":"string","name":"","type":"string"}],"stateMutability":"view","type":"function"},{"inputs":[{"internalType":"address","name":"to","type":"address"},{"internalType":"uint256","name":"tokenId","type":"uint256"}],"name":"approve","outputs":[],"stateMutability":"nonpayable","type":"function"},{"inputs":[{"internalType":"address","name":"owner","type":"address"}],"name":"balanceOf","outputs":[{"internalType":"uint256","name":"","type":"uint256"}],"stateMutability":"view","type":"function"},{"inputs":[{"internalType":"uint256","name":"tokenId","type":"uint256"}],"name":"getApproved","outputs":[{"internalType":"address","name":"","type":"address"}],"stateMutability":"view","type":"function"},{"inputs":[{"internalType":"address","name":"to","type":"address"},{"internalType":"uint256","name":"amount","type":"uint256"}],"name":"gift","outputs":[],"stateMutability":"nonpayable","type":"function"},{"inputs":[{"internalType":"address","name":"owner","type":"address"},{"internalType":"address","name":"operator","type":"address"}],"name":"isApprovedForAll","outputs":[{"internalType":"bool","name":"","type":"bool"}],"stateMutability":"view","type":"function"},{"inputs":[{"internalType":"uint256","name":"amount","type":"uint256"}],"name":"mint","outputs":[],"stateMutability":"payable","type":"function"},{"inputs":[{"internalType":"address","name":"to","type":"address"},{"internalType":"string","name":"uri","type":"string"}],"name":"mintTo","outputs":[],"stateMutability":"nonpayable","type":"function"},{"inputs":[],"name":"name","outputs":[{"internalType":"string","name":"","type":"string"}],"stateMutability":"view","type":"function"},{"inputs":[],"name":"owner","outputs":[{"internalType":"address","name":"","type":"address"}],"stateMutability":"view","type":"function"},{"inputs":[{"internalType":"uint256","name":"tokenId","type":"uint256"}],"name":"ownerOf","outputs":[{"internalType":"address","name":"","type":"address"}],"stateMutability":"view","type":"function"},{"inputs":[],"name":"renounceOwnership","outputs":[],"stateMutability":"nonpayable","type":"function"},{"inputs":[{"internalType":"address","name":"from","type":"address"},{"internalType":"address","name":"to","type":"address"},{"internalType":"uint256","name":"tokenId","type":"uint256"}],"name":"safeTransferFrom","outputs":[],"stateMutability":"nonpayable","type":"function"},{"inputs":[{"internalType":"address","name":"from","type":"address"},{"internalType":"address","name":"to","type":"address"},{"internalType":"uint256","name":"tokenId","type":"uint256"},{"internalType":"bytes","name":"data","type":"bytes"}],"name":"safeTransferFrom","outputs":[],"stateMutability":"nonpayable","type":"function"},{"inputs":[{"internalType":"string","name":"newExt","type":"string"}],"name":"setAnimationExt","outputs":[],"stateMutability":"nonpayable","type":"function"},{"inputs":[{"internalType":"string","name":"newUrl","type":"string"}],"name":"setAnimationUrl","outputs":[],"stateMutability":"nonpayable","type":"function"},{"inputs":[{"internalType":"address","name":"operator","type":"address"},{"internalType":"bool","name":"approved","type":"bool"}],"name":"setApprovalForAll","outputs":[],"stateMutability":"nonpayable","type":"function"},{"inputs":[{"internalType":"uint256","name":"newMintPrice","type":"uint256"}],"name":"setMintPrice","outputs":[],"stateMutability":"nonpayable","type":"function"},{"inputs":[{"internalType":"bytes4","name":"interfaceId","type":"bytes4"}],"name":"supportsInterface","outputs":[{"internalType":"bool","name":"","type":"bool"}],"stateMutability":"view","type":"function"},{"inputs":[],"name":"symbol","outputs":[{"internalType":"string","name":"","type":"string"}],"stateMutability":"view","type":"function"},{"inputs":[{"internalType":"uint256","name":"index","type":"uint256"}],"name":"tokenByIndex","outputs":[{"internalType":"uint256","name":"","type":"uint256"}],"stateMutability":"view","type":"function"},{"inputs":[{"internalType":"address","name":"owner","type":"address"},{"internalType":"uint256","name":"index","type":"uint256"}],"name":"tokenOfOwnerByIndex","outputs":[{"internalType":"uint256","name":"","type":"uint256"}],"stateMutability":"view","type":"function"},{"inputs":[{"internalType":"uint256","name":"tokenId","type":"uint256"}],"name":"tokenURI","outputs":[{"internalType":"string","name":"","type":"string"}],"stateMutability":"view","type":"function"},{"inputs":[],"name":"totalSupply","outputs":[{"internalType":"uint256","name":"","type":"uint256"}],"stateMutability":"view","type":"function"},{"inputs":[{"internalType":"address","name":"from","type":"address"},{"internalType":"address","name":"to","type":"address"},{"internalType":"uint256","name":"tokenId","type":"uint256"}],"name":"transferFrom","outputs":[],"stateMutability":"nonpayable","type":"function"},{"inputs":[{"internalType":"address","name":"newOwner","type":"address"}],"name":"transferOwnership","outputs":[],"stateMutability":"nonpayable","type":"function"},{"inputs":[],"name":"withdraw","outputs":[],"stateMutability":"nonpayable","type":"function"}],"evm":{"bytecode":{"linkReferences":{},"object":"608060405266038d7ea4c68000600f553480156200001c57600080fd5b506040518060400160405280600881526020017f446f6d656c616e640000000000000000000000000000000000000000000000008152506040518060400160405280600481526020017f444c4e440000000000000000000000000000000000000000000000000000000081525060016000819055508160019081620000a29190620004e1565b508060029081620000b49190620004e1565b505050620000d7620000cb6200018b60201b60201c565b6200019360201b60201c565b604051620000e59062000259565b604051809103906000f08015801562000102573d6000803e3d6000fd5b50600d60006101000a81548173ffffffffffffffffffffffffffffffffffffffff021916908373ffffffffffffffffffffffffffffffffffffffff1602179055506040518060200160405280600081525060119081620001639190620004e1565b506040518060200160405280600081525060129081620001849190620004e1565b50620005c8565b600033905090565b6000600c60009054906101000a900473ffffffffffffffffffffffffffffffffffffffff16905081600c60006101000a81548173ffffffffffffffffffffffffffffffffffffffff021916908373ffffffffffffffffffffffffffffffffffffffff1602179055508173ffffffffffffffffffffffffffffffffffffffff168173ffffffffffffffffffffffffffffffffffffffff167f8be0079c531659141344cd1fd0a4f28419497f9722a3daafe3b4186f6b6457e060405160405180910390a35050565b613155806200522083390190565b600081519050919050565b7f4e487b7100000000000000000000000000000000000000000000000000000000600052604160045260246000fd5b7f4e487b7100000000000000000000000000000000000000000000000000000000600052602260045260246000fd5b60006002820490506001821680620002e957607f821691505b602082108103620002ff57620002fe620002a1565b5b50919050565b60008190508160005260206000209050919050565b60006020601f8301049050919050565b600082821b905092915050565b600060088302620003697fffffffffffffffffffffffffffffffffffffffffffffffffffffffffffffffff826200032a565b6200037586836200032a565b95508019841693508086168417925050509392505050565b6000819050919050565b6000819050919050565b6000620003c2620003bc620003b6846200038d565b62000397565b6200038d565b9050919050565b6000819050919050565b620003de83620003a1565b620003f6620003ed82620003c9565b84845462000337565b825550505050565b600090565b6200040d620003fe565b6200041a818484620003d3565b505050565b5b8181101562000442576200043660008262000403565b60018101905062000420565b5050565b601f82111562000491576200045b8162000305565b62000466846200031a565b8101602085101562000476578190505b6200048e62000485856200031a565b8301826200041f565b50505b505050565b600082821c905092915050565b6000620004b66000198460080262000496565b1980831691505092915050565b6000620004d18383620004a3565b9150826002028217905092915050565b620004ec8262000267565b67ffffffffffffffff81111562000508576200050762000272565b5b620005148254620002d0565b6200052182828562000446565b600060209050601f83116001811462000559576000841562000544578287015190505b620005508582620004c3565b865550620005c0565b601f198416620005698662000305565b60005b8281101562000593578489015182556001820191506020850194506020810190506200056c565b86831015620005b35784890151620005af601f891682620004a3565b8355505b6001600288020188555050505b505050505050565b614c4880620005d86000396000f3fe6080604052600436106101d75760003560e01c80636352211e11610102578063b88d4fde11610095578063e985e9c511610064578063e985e9c51461069a578063f2fde38b146106d7578063f47c84c514610700578063f4a0a5281461072b576101d7565b8063b88d4fde146105e0578063c87b56dd14610609578063cbce4c9714610646578063d40dc8701461066f576101d7565b806395d89b41116100d157806395d89b4114610545578063a0712d6814610570578063a22cb4651461058c578063a7796d03146105b5576101d7565b80636352211e1461048957806370a08231146104c6578063715018a6146105035780638da5cb5b1461051a576101d7565b806318160ddd1161017a5780633ccfd60b116101495780633ccfd60b146103e357806342842e0e146103fa5780634f6ccce7146104235780635cbfedc914610460576101d7565b806318160ddd1461032957806323b872dd1461035457806328e56c5e1461037d5780632f745c59146103a6576101d7565b80630387da42116101b65780630387da421461026d57806306fdde0314610298578063081812fc146102c3578063095ea7b314610300576101d7565b806275a317146101dc578063012f17381461020557806301ffc9a714610230575b600080fd5b3480156101e857600080fd5b5061020360048036038101906101fe9190613107565b610754565b005b34801561021157600080fd5b5061021a6107e5565b60405161022791906131e2565b60405180910390f35b34801561023c57600080fd5b506102576004803603810190610252919061325c565b610873565b60405161026491906132a4565b60405180910390f35b34801561027957600080fd5b50610282610885565b60405161028f91906132d8565b60405180910390f35b3480156102a457600080fd5b506102ad61088b565b6040516102ba91906131e2565b60405180910390f35b3480156102cf57600080fd5b506102ea60048036038101906102e5919061331f565b61091d565b6040516102f7919061335b565b60405180910390f35b34801561030c57600080fd5b5061032760048036038101906103229190613376565b610963565b005b34801561033557600080fd5b5061033e610a7a565b60405161034b91906132d8565b60405180910390f35b34801561036057600080fd5b5061037b600480360381019061037691906133b6565b610a87565b005b34801561038957600080fd5b506103a4600480360381019061039f9190613409565b610ae7565b005b3480156103b257600080fd5b506103cd60048036038101906103c89190613376565b610b02565b6040516103da91906132d8565b60405180910390f35b3480156103ef57600080fd5b506103f8610ba7565b005b34801561040657600080fd5b50610421600480360381019061041c91906133b6565b610ca7565b005b34801561042f57600080fd5b5061044a6004803603810190610445919061331f565b610cc7565b60405161045791906132d8565b60405180910390f35b34801561046c57600080fd5b5061048760048036038101906104829190613409565b610d38565b005b34801561049557600080fd5b506104b060048036038101906104ab919061331f565b610d53565b6040516104bd919061335b565b60405180910390f35b3480156104d257600080fd5b506104ed60048036038101906104e89190613452565b610dd9565b6040516104fa91906132d8565b60405180910390f35b34801561050f57600080fd5b50610518610e90565b005b34801561052657600080fd5b5061052f610ea4565b60405161053c919061335b565b60405180910390f35b34801561055157600080fd5b5061055a610ece565b60405161056791906131e2565b60405180910390f35b61058a6004803603810190610585919061331f565b610f60565b005b34801561059857600080fd5b506105b360048036038101906105ae91906134ab565b61128b565b005b3480156105c157600080fd5b506105ca6112a1565b6040516105d791906131e2565b60405180910390f35b3480156105ec57600080fd5b506106076004803603810190610602919061358c565b61132f565b005b34801561061557600080fd5b50610630600480360381019061062b919061331f565b611391565b60405161063d91906131e2565b60405180910390f35b34801561065257600080fd5b5061066d60048036038101906106689190613376565b6116c5565b005b34801561067b57600080fd5b5061068461188a565b60405161069191906132d8565b60405180910390f35b3480156106a657600080fd5b506106c160048036038101906106bc919061360f565b61188f565b6040516106ce91906132a4565b60405180910390f35b3480156106e357600080fd5b506106fe60048036038101906106f99190613452565b611923565b005b34801561070c57600080fd5b506107156119a6565b60405161072291906132d8565b60405180910390f35b34801561073757600080fd5b50610752600480360381019061074d919061331f565b6119ac565b005b61075c6119be565b6107666010611a3c565b60006107726010611a52565b905061077e8382611a60565b6107888183611a7e565b6001600e60008573ffffffffffffffffffffffffffffffffffffffff1673ffffffffffffffffffffffffffffffffffffffff16815260200190815260200160002060006101000a81548160ff021916908315150217905550505050565b601280546107f29061367e565b80601f016020809104026020016040519081016040528092919081815260200182805461081e9061367e565b801561086b5780601f106108405761010080835404028352916020019161086b565b820191906000526020600020905b81548152906001019060200180831161084e57829003601f168201915b505050505081565b600061087e82611b22565b9050919050565b600f5481565b60606001805461089a9061367e565b80601f01602080910402602001604051908101604052809291908181526020018280546108c69061367e565b80156109135780601f106108e857610100808354040283529160200191610913565b820191906000526020600020905b8154815290600101906020018083116108f657829003601f168201915b5050505050905090565b600061092882611b83565b6005600083815260200190815260200160002060009054906101000a900473ffffffffffffffffffffffffffffffffffffffff169050919050565b600061096e82610d53565b90508073ffffffffffffffffffffffffffffffffffffffff168373ffffffffffffffffffffffffffffffffffffffff16036109de576040517f08c379a00000000000000000000000000000000000000000000000000000000081526004016109d590613721565b60405180910390fd5b8073ffffffffffffffffffffffffffffffffffffffff166109fd611bce565b73ffffffffffffffffffffffffffffffffffffffff161480610a2c5750610a2b81610a26611bce565b61188f565b5b610a6b576040517f08c379a0000000000000000000000000000000000000000000000000000000008152600401610a62906137b3565b60405180910390fd5b610a758383611bd6565b505050565b6000600980549050905090565b610a98610a92611bce565b82611c8f565b610ad7576040517f08c379a0000000000000000000000000000000000000000000000000000000008152600401610ace90613845565b60405180910390fd5b610ae2838383611d24565b505050565b610aef6119be565b8060119081610afe9190613a11565b5050565b6000610b0d83610dd9565b8210610b4e576040517f08c379a0000000000000000000000000000000000000000000000000000000008152600401610b4590613b55565b60405180910390fd5b600760008473ffffffffffffffffffffffffffffffffffffffff1673ffffffffffffffffffffffffffffffffffffffff168152602001908152602001600020600083815260200190815260200160002054905092915050565b610baf6119be565b600047905060008111610bf7576040517f08c379a0000000000000000000000000000000000000000000000000000000008152600401610bee90613bc1565b60405180910390fd5b60003373ffffffffffffffffffffffffffffffffffffffff1682604051610c1d90613c12565b60006040518083038185875af1925050503d8060008114610c5a576040519150601f19603f3d011682016040523d82523d6000602084013e610c5f565b606091505b5050905080610ca3576040517f08c379a0000000000000000000000000000000000000000000000000000000008152600401610c9a90613c73565b60405180910390fd5b5050565b610cc28383836040518060200160405280600081525061132f565b505050565b6000610cd1610a7a565b8210610d12576040517f08c379a0000000000000000000000000000000000000000000000000000000008152600401610d0990613d05565b60405180910390fd5b60098281548110610d2657610d25613d25565b5b90600052602060002001549050919050565b610d406119be565b8060129081610d4f9190613a11565b5050565b600080610d5f8361201d565b9050600073ffffffffffffffffffffffffffffffffffffffff168173ffffffffffffffffffffffffffffffffffffffff1603610dd0576040517f08c379a0000000000000000000000000000000000000000000000000000000008152600401610dc790613da0565b60405180910390fd5b80915050919050565b60008073ffffffffffffffffffffffffffffffffffffffff168273ffffffffffffffffffffffffffffffffffffffff1603610e49576040517f08c379a0000000000000000000000000000000000000000000000000000000008152600401610e4090613e32565b60405180910390fd5b600460008373ffffffffffffffffffffffffffffffffffffffff1673ffffffffffffffffffffffffffffffffffffffff168152602001908152602001600020549050919050565b610e986119be565b610ea2600061205a565b565b6000600c60009054906101000a900473ffffffffffffffffffffffffffffffffffffffff16905090565b606060028054610edd9061367e565b80601f0160208091040260200160405190810160405280929190818152602001828054610f099061367e565b8015610f565780601f10610f2b57610100808354040283529160200191610f56565b820191906000526020600020905b815481529060010190602001808311610f3957829003601f168201915b5050505050905090565b610f68612120565b60008111610fab576040517f08c379a0000000000000000000000000000000000000000000000000000000008152600401610fa290613e9e565b60405180910390fd5b6014811115610fef576040517f08c379a0000000000000000000000000000000000000000000000000000000008152600401610fe690613f0a565b60405180910390fd5b80600f54610ffd9190613f59565b34101561103f576040517f08c379a000000000000000000000000000000000000000000000000000000000815260040161103690613fe7565b60405180910390fd5b60005b81811015611152576110546010611a3c565b60006110606010611a52565b90506127108111156110a7576040517f08c379a000000000000000000000000000000000000000000000000000000000815260040161109e90614053565b60405180910390fd5b6110b08161216f565b156110f0576040517f08c379a00000000000000000000000000000000000000000000000000000000081526004016110e7906140bf565b60405180910390fd5b6110fa3382611a60565b803373ffffffffffffffffffffffffffffffffffffffff167f30385c845b448a36257a6a1716e6ad2e1bc2cbe333cde1e69fe849ad6511adfe60405160405180910390a350808061114a906140df565b915050611042565b50600081600f546111639190613f59565b3461116e9190614127565b905060008111156112275760003373ffffffffffffffffffffffffffffffffffffffff168260405161119f90613c12565b60006040518083038185875af1925050503d80600081146111dc576040519150601f19603f3d011682016040523d82523d6000602084013e6111e1565b606091505b5050905080611225576040517f08c379a000000000000000000000000000000000000000000000000000000000815260040161121c906141a7565b60405180910390fd5b505b6001600e60003373ffffffffffffffffffffffffffffffffffffffff1673ffffffffffffffffffffffffffffffffffffffff16815260200190815260200160002060006101000a81548160ff021916908315150217905550506112886121b0565b50565b61129d611296611bce565b83836121ba565b5050565b601180546112ae9061367e565b80601f01602080910402602001604051908101604052809291908181526020018280546112da9061367e565b80156113275780601f106112fc57610100808354040283529160200191611327565b820191906000526020600020905b81548152906001019060200180831161130a57829003601f168201915b505050505081565b61134061133a611bce565b83611c8f565b61137f576040517f08c379a000000000000000000000000000000000000000000000000000000000815260040161137690613845565b60405180910390fd5b61138b84848484612326565b50505050565b606061139c8261216f565b6113db576040517f08c379a00000000000000000000000000000000000000000000000000000000081526004016113d290614213565b60405180910390fd5b6000600d60009054906101000a900473ffffffffffffffffffffffffffffffffffffffff1673ffffffffffffffffffffffffffffffffffffffff16636dcee4ca846040518263ffffffff1660e01b815260040161143891906132d8565b600060405180830381865afa158015611455573d6000803e3d6000fd5b505050506040513d6000823e3d601f19601f8201168201806040525081019061147e91906142a3565b90506000600d60009054906101000a900473ffffffffffffffffffffffffffffffffffffffff1673ffffffffffffffffffffffffffffffffffffffff1663691a3ca085846040518363ffffffff1660e01b81526004016114df9291906142ec565b600060405180830381865afa1580156114fc573d6000803e3d6000fd5b505050506040513d6000823e3d601f19601f8201168201806040525081019061152591906142a3565b90506000601180546115369061367e565b905011156115ee57600d60009054906101000a900473ffffffffffffffffffffffffffffffffffffffff1673ffffffffffffffffffffffffffffffffffffffff16637b5d473b8584601160126040518563ffffffff1660e01b81526004016115a194939291906143a0565b600060405180830381865afa1580156115be573d6000803e3d6000fd5b505050506040513d6000823e3d601f19601f820116820180604052508101906115e791906142a3565b9050611694565b600d60009054906101000a900473ffffffffffffffffffffffffffffffffffffffff1673ffffffffffffffffffffffffffffffffffffffff1663691a3ca085846040518363ffffffff1660e01b815260040161164b9291906142ec565b600060405180830381865afa158015611668573d6000803e3d6000fd5b505050506040513d6000823e3d601f19601f8201168201806040525081019061169191906142a3565b90505b61169d81612382565b6040516020016116ad9190614482565b60405160208183030381529060405292505050919050565b6116cd6119be565b60008111611710576040517f08c379a000000000000000000000000000000000000000000000000000000000815260040161170790613e9e565b60405180910390fd5b60005b818110156117df576117256010611a3c565b60006117316010611a52565b9050612710811115611778576040517f08c379a000000000000000000000000000000000000000000000000000000000815260040161176f90614053565b60405180910390fd5b6117818161216f565b156117c1576040517f08c379a00000000000000000000000000000000000000000000000000000000081526004016117b8906140bf565b60405180910390fd5b6117cb8482611a60565b5080806117d7906140df565b915050611713565b508173ffffffffffffffffffffffffffffffffffffffff167ff60843e7f75836e6a5aacf05ea1783d1a137a7c2980eea169f8bf57c87fca1ff8260405161182691906132d8565b60405180910390a26001600e60008473ffffffffffffffffffffffffffffffffffffffff1673ffffffffffffffffffffffffffffffffffffffff16815260200190815260200160002060006101000a81548160ff0219169083151502179055505050565b601481565b6000600660008473ffffffffffffffffffffffffffffffffffffffff1673ffffffffffffffffffffffffffffffffffffffff16815260200190815260200160002060008373ffffffffffffffffffffffffffffffffffffffff1673ffffffffffffffffffffffffffffffffffffffff16815260200190815260200160002060009054906101000a900460ff16905092915050565b61192b6119be565b600073ffffffffffffffffffffffffffffffffffffffff168173ffffffffffffffffffffffffffffffffffffffff160361199a576040517f08c379a000000000000000000000000000000000000000000000000000000000815260040161199190614516565b60405180910390fd5b6119a38161205a565b50565b61271081565b6119b46119be565b80600f8190555050565b6119c6611bce565b73ffffffffffffffffffffffffffffffffffffffff166119e4610ea4565b73ffffffffffffffffffffffffffffffffffffffff1614611a3a576040517f08c379a0000000000000000000000000000000000000000000000000000000008152600401611a3190614582565b60405180910390fd5b565b6001816000016000828254019250508190555050565b600081600001549050919050565b611a7a8282604051806020016040528060008152506124e5565b5050565b611a878261216f565b611ac6576040517f08c379a0000000000000000000000000000000000000000000000000000000008152600401611abd90614614565b60405180910390fd5b80600b60008481526020019081526020016000209081611ae69190613a11565b507ff8e1a15aba9398e019f0b49df1a4fde98ee17ae345cb5f6b5e2c27f5033e8ce782604051611b1691906132d8565b60405180910390a15050565b6000634906490660e01b7bffffffffffffffffffffffffffffffffffffffffffffffffffffffff1916827bffffffffffffffffffffffffffffffffffffffffffffffffffffffff19161480611b7c5750611b7b82612540565b5b9050919050565b611b8c8161216f565b611bcb576040517f08c379a0000000000000000000000000000000000000000000000000000000008152600401611bc290613da0565b60405180910390fd5b50565b600033905090565b816005600083815260200190815260200160002060006101000a81548173ffffffffffffffffffffffffffffffffffffffff021916908373ffffffffffffffffffffffffffffffffffffffff160217905550808273ffffffffffffffffffffffffffffffffffffffff16611c4983610d53565b73ffffffffffffffffffffffffffffffffffffffff167f8c5be1e5ebec7d5bd14f71427d1e84f3dd0314c0f7b2291e5b200ac8c7c3b92560405160405180910390a45050565b600080611c9b83610d53565b90508073ffffffffffffffffffffffffffffffffffffffff168473ffffffffffffffffffffffffffffffffffffffff161480611cdd5750611cdc818561188f565b5b80611d1b57508373ffffffffffffffffffffffffffffffffffffffff16611d038461091d565b73ffffffffffffffffffffffffffffffffffffffff16145b91505092915050565b8273ffffffffffffffffffffffffffffffffffffffff16611d4482610d53565b73ffffffffffffffffffffffffffffffffffffffff1614611d9a576040517f08c379a0000000000000000000000000000000000000000000000000000000008152600401611d91906146a6565b60405180910390fd5b600073ffffffffffffffffffffffffffffffffffffffff168273ffffffffffffffffffffffffffffffffffffffff1603611e09576040517f08c379a0000000000000000000000000000000000000000000000000000000008152600401611e0090614738565b60405180910390fd5b611e1683838360016125ba565b8273ffffffffffffffffffffffffffffffffffffffff16611e3682610d53565b73ffffffffffffffffffffffffffffffffffffffff1614611e8c576040517f08c379a0000000000000000000000000000000000000000000000000000000008152600401611e83906146a6565b60405180910390fd5b6005600082815260200190815260200160002060006101000a81549073ffffffffffffffffffffffffffffffffffffffff02191690556001600460008573ffffffffffffffffffffffffffffffffffffffff1673ffffffffffffffffffffffffffffffffffffffff168152602001908152602001600020600082825403925050819055506001600460008473ffffffffffffffffffffffffffffffffffffffff1673ffffffffffffffffffffffffffffffffffffffff16815260200190815260200160002060008282540192505081905550816003600083815260200190815260200160002060006101000a81548173ffffffffffffffffffffffffffffffffffffffff021916908373ffffffffffffffffffffffffffffffffffffffff160217905550808273ffffffffffffffffffffffffffffffffffffffff168473ffffffffffffffffffffffffffffffffffffffff167fddf252ad1be2c89b69c2b068fc378daa952ba7f163c4a11628f55a4df523b3ef60405160405180910390a461201883838360016125cc565b505050565b60006003600083815260200190815260200160002060009054906101000a900473ffffffffffffffffffffffffffffffffffffffff169050919050565b6000600c60009054906101000a900473ffffffffffffffffffffffffffffffffffffffff16905081600c60006101000a81548173ffffffffffffffffffffffffffffffffffffffff021916908373ffffffffffffffffffffffffffffffffffffffff1602179055508173ffffffffffffffffffffffffffffffffffffffff168173ffffffffffffffffffffffffffffffffffffffff167f8be0079c531659141344cd1fd0a4f28419497f9722a3daafe3b4186f6b6457e060405160405180910390a35050565b600260005403612165576040517f08c379a000000000000000000000000000000000000000000000000000000000815260040161215c906147a4565b60405180910390fd5b6002600081905550565b60008073ffffffffffffffffffffffffffffffffffffffff166121918361201d565b73ffffffffffffffffffffffffffffffffffffffff1614159050919050565b6001600081905550565b8173ffffffffffffffffffffffffffffffffffffffff168373ffffffffffffffffffffffffffffffffffffffff1603612228576040517f08c379a000000000000000000000000000000000000000000000000000000000815260040161221f90614810565b60405180910390fd5b80600660008573ffffffffffffffffffffffffffffffffffffffff1673ffffffffffffffffffffffffffffffffffffffff16815260200190815260200160002060008473ffffffffffffffffffffffffffffffffffffffff1673ffffffffffffffffffffffffffffffffffffffff16815260200190815260200160002060006101000a81548160ff0219169083151502179055508173ffffffffffffffffffffffffffffffffffffffff168373ffffffffffffffffffffffffffffffffffffffff167f17307eab39ab6107e8899845ad3d59bd9653f200f220920489ca2b5937696c318360405161231991906132a4565b60405180910390a3505050565b612331848484611d24565b61233d848484846125d2565b61237c576040517f08c379a0000000000000000000000000000000000000000000000000000000008152600401612373906148a2565b60405180910390fd5b50505050565b606060008251036123a4576040518060200160405280600081525090506124e0565b6000604051806060016040528060408152602001614bd360409139905060006003600285516123d391906148c2565b6123dd9190614925565b60046123e99190613f59565b67ffffffffffffffff81111561240257612401612fdc565b5b6040519080825280601f01601f1916602001820160405280156124345781602001600182028036833780820191505090505b509050600182016020820185865187015b808210156124a0576003820191508151603f8160121c168501518453600184019350603f81600c1c168501518453600184019350603f8160061c168501518453600184019350603f8116850151845360018401935050612445565b50506003865106600181146124bc57600281146124cf576124d7565b603d6001830353603d60028303536124d7565b603d60018303535b50505080925050505b919050565b6124ef8383612759565b6124fc60008484846125d2565b61253b576040517f08c379a0000000000000000000000000000000000000000000000000000000008152600401612532906148a2565b60405180910390fd5b505050565b60007f780e9d63000000000000000000000000000000000000000000000000000000007bffffffffffffffffffffffffffffffffffffffffffffffffffffffff1916827bffffffffffffffffffffffffffffffffffffffffffffffffffffffff191614806125b357506125b282612976565b5b9050919050565b6125c684848484612a58565b50505050565b50505050565b60006125f38473ffffffffffffffffffffffffffffffffffffffff16612bb6565b1561274c578373ffffffffffffffffffffffffffffffffffffffff1663150b7a0261261c611bce565b8786866040518563ffffffff1660e01b815260040161263e94939291906149ab565b6020604051808303816000875af192505050801561267a57506040513d601f19601f820116820180604052508101906126779190614a0c565b60015b6126fc573d80600081146126aa576040519150601f19603f3d011682016040523d82523d6000602084013e6126af565b606091505b5060008151036126f4576040517f08c379a00000000000000000000000000000000000000000000000000000000081526004016126eb906148a2565b60405180910390fd5b805181602001fd5b63150b7a0260e01b7bffffffffffffffffffffffffffffffffffffffffffffffffffffffff1916817bffffffffffffffffffffffffffffffffffffffffffffffffffffffff191614915050612751565b600190505b949350505050565b600073ffffffffffffffffffffffffffffffffffffffff168273ffffffffffffffffffffffffffffffffffffffff16036127c8576040517f08c379a00000000000000000000000000000000000000000000000000000000081526004016127bf90614a85565b60405180910390fd5b6127d18161216f565b15612811576040517f08c379a000000000000000000000000000000000000000000000000000000000815260040161280890614af1565b60405180910390fd5b61281f6000838360016125ba565b6128288161216f565b15612868576040517f08c379a000000000000000000000000000000000000000000000000000000000815260040161285f90614af1565b60405180910390fd5b6001600460008473ffffffffffffffffffffffffffffffffffffffff1673ffffffffffffffffffffffffffffffffffffffff16815260200190815260200160002060008282540192505081905550816003600083815260200190815260200160002060006101000a81548173ffffffffffffffffffffffffffffffffffffffff021916908373ffffffffffffffffffffffffffffffffffffffff160217905550808273ffffffffffffffffffffffffffffffffffffffff16600073ffffffffffffffffffffffffffffffffffffffff167fddf252ad1be2c89b69c2b068fc378daa952ba7f163c4a11628f55a4df523b3ef60405160405180910390a46129726000838360016125cc565b5050565b60007f80ac58cd000000000000000000000000000000000000000000000000000000007bffffffffffffffffffffffffffffffffffffffffffffffffffffffff1916827bffffffffffffffffffffffffffffffffffffffffffffffffffffffff19161480612a4157507f5b5e139f000000000000000000000000000000000000000000000000000000007bffffffffffffffffffffffffffffffffffffffffffffffffffffffff1916827bffffffffffffffffffffffffffffffffffffffffffffffffffffffff1916145b80612a515750612a5082612bd9565b5b9050919050565b612a6484848484612c43565b6001811115612aa8576040517f08c379a0000000000000000000000000000000000000000000000000000000008152600401612a9f90614b83565b60405180910390fd5b6000829050600073ffffffffffffffffffffffffffffffffffffffff168573ffffffffffffffffffffffffffffffffffffffff1603612aef57612aea81612c49565b612b2e565b8373ffffffffffffffffffffffffffffffffffffffff168573ffffffffffffffffffffffffffffffffffffffff1614612b2d57612b2c8582612c92565b5b5b600073ffffffffffffffffffffffffffffffffffffffff168473ffffffffffffffffffffffffffffffffffffffff1603612b7057612b6b81612dff565b612baf565b8473ffffffffffffffffffffffffffffffffffffffff168473ffffffffffffffffffffffffffffffffffffffff1614612bae57612bad8482612ed0565b5b5b5050505050565b6000808273ffffffffffffffffffffffffffffffffffffffff163b119050919050565b60007f01ffc9a7000000000000000000000000000000000000000000000000000000007bffffffffffffffffffffffffffffffffffffffffffffffffffffffff1916827bffffffffffffffffffffffffffffffffffffffffffffffffffffffff1916149050919050565b50505050565b600980549050600a600083815260200190815260200160002081905550600981908060018154018082558091505060019003906000526020600020016000909190919091505550565b60006001612c9f84610dd9565b612ca99190614127565b9050600060086000848152602001908152602001600020549050818114612d8e576000600760008673ffffffffffffffffffffffffffffffffffffffff1673ffffffffffffffffffffffffffffffffffffffff168152602001908152602001600020600084815260200190815260200160002054905080600760008773ffffffffffffffffffffffffffffffffffffffff1673ffffffffffffffffffffffffffffffffffffffff168152602001908152602001600020600084815260200190815260200160002081905550816008600083815260200190815260200160002081905550505b6008600084815260200190815260200160002060009055600760008573ffffffffffffffffffffffffffffffffffffffff1673ffffffffffffffffffffffffffffffffffffffff16815260200190815260200160002060008381526020019081526020016000206000905550505050565b60006001600980549050612e139190614127565b90506000600a6000848152602001908152602001600020549050600060098381548110612e4357612e42613d25565b5b906000526020600020015490508060098381548110612e6557612e64613d25565b5b906000526020600020018190555081600a600083815260200190815260200160002081905550600a6000858152602001908152602001600020600090556009805480612eb457612eb3614ba3565b5b6001900381819060005260206000200160009055905550505050565b6000612edb83610dd9565b905081600760008573ffffffffffffffffffffffffffffffffffffffff1673ffffffffffffffffffffffffffffffffffffffff168152602001908152602001600020600083815260200190815260200160002081905550806008600084815260200190815260200160002081905550505050565b6000604051905090565b600080fd5b600080fd5b600073ffffffffffffffffffffffffffffffffffffffff82169050919050565b6000612f8e82612f63565b9050919050565b612f9e81612f83565b8114612fa957600080fd5b50565b600081359050612fbb81612f95565b92915050565b600080fd5b600080fd5b6000601f19601f8301169050919050565b7f4e487b7100000000000000000000000000000000000000000000000000000000600052604160045260246000fd5b61301482612fcb565b810181811067ffffffffffffffff8211171561303357613032612fdc565b5b80604052505050565b6000613046612f4f565b9050613052828261300b565b919050565b600067ffffffffffffffff82111561307257613071612fdc565b5b61307b82612fcb565b9050602081019050919050565b82818337600083830152505050565b60006130aa6130a584613057565b61303c565b9050828152602081018484840111156130c6576130c5612fc6565b5b6130d1848285613088565b509392505050565b600082601f8301126130ee576130ed612fc1565b5b81356130fe848260208601613097565b91505092915050565b6000806040838503121561311e5761311d612f59565b5b600061312c85828601612fac565b925050602083013567ffffffffffffffff81111561314d5761314c612f5e565b5b613159858286016130d9565b9150509250929050565b600081519050919050565b600082825260208201905092915050565b60005b8381101561319d578082015181840152602081019050613182565b60008484015250505050565b60006131b482613163565b6131be818561316e565b93506131ce81856020860161317f565b6131d781612fcb565b840191505092915050565b600060208201905081810360008301526131fc81846131a9565b905092915050565b60007fffffffff0000000000000000000000000000000000000000000000000000000082169050919050565b61323981613204565b811461324457600080fd5b50565b60008135905061325681613230565b92915050565b60006020828403121561327257613271612f59565b5b600061328084828501613247565b91505092915050565b60008115159050919050565b61329e81613289565b82525050565b60006020820190506132b96000830184613295565b92915050565b6000819050919050565b6132d2816132bf565b82525050565b60006020820190506132ed60008301846132c9565b92915050565b6132fc816132bf565b811461330757600080fd5b50565b600081359050613319816132f3565b92915050565b60006020828403121561333557613334612f59565b5b60006133438482850161330a565b91505092915050565b61335581612f83565b82525050565b6000602082019050613370600083018461334c565b92915050565b6000806040838503121561338d5761338c612f59565b5b600061339b85828601612fac565b92505060206133ac8582860161330a565b9150509250929050565b6000806000606084860312156133cf576133ce612f59565b5b60006133dd86828701612fac565b93505060206133ee86828701612fac565b92505060406133ff8682870161330a565b9150509250925092565b60006020828403121561341f5761341e612f59565b5b600082013567ffffffffffffffff81111561343d5761343c612f5e565b5b613449848285016130d9565b91505092915050565b60006020828403121561346857613467612f59565b5b600061347684828501612fac565b91505092915050565b61348881613289565b811461349357600080fd5b50565b6000813590506134a58161347f565b92915050565b600080604083850312156134c2576134c1612f59565b5b60006134d085828601612fac565b92505060206134e185828601613496565b9150509250929050565b600067ffffffffffffffff82111561350657613505612fdc565b5b61350f82612fcb565b9050602081019050919050565b600061352f61352a846134eb565b61303c565b90508281526020810184848401111561354b5761354a612fc6565b5b613556848285613088565b509392505050565b600082601f83011261357357613572612fc1565b5b813561358384826020860161351c565b91505092915050565b600080600080608085870312156135a6576135a5612f59565b5b60006135b487828801612fac565b94505060206135c587828801612fac565b93505060406135d68782880161330a565b925050606085013567ffffffffffffffff8111156135f7576135f6612f5e565b5b6136038782880161355e565b91505092959194509250565b6000806040838503121561362657613625612f59565b5b600061363485828601612fac565b925050602061364585828601612fac565b9150509250929050565b7f4e487b7100000000000000000000000000000000000000000000000000000000600052602260045260246000fd5b6000600282049050600182168061369657607f821691505b6020821081036136a9576136a861364f565b5b50919050565b7f4552433732313a20617070726f76616c20746f2063757272656e74206f776e6560008201527f7200000000000000000000000000000000000000000000000000000000000000602082015250565b600061370b60218361316e565b9150613716826136af565b604082019050919050565b6000602082019050818103600083015261373a816136fe565b9050919050565b7f4552433732313a20617070726f76652063616c6c6572206973206e6f7420746f60008201527f6b656e206f776e6572206f7220617070726f76656420666f7220616c6c000000602082015250565b600061379d603d8361316e565b91506137a882613741565b604082019050919050565b600060208201905081810360008301526137cc81613790565b9050919050565b7f4552433732313a2063616c6c6572206973206e6f7420746f6b656e206f776e6560008201527f72206f7220617070726f76656400000000000000000000000000000000000000602082015250565b600061382f602d8361316e565b915061383a826137d3565b604082019050919050565b6000602082019050818103600083015261385e81613822565b9050919050565b60008190508160005260206000209050919050565b60006020601f8301049050919050565b600082821b905092915050565b6000600883026138c77fffffffffffffffffffffffffffffffffffffffffffffffffffffffffffffffff8261388a565b6138d1868361388a565b95508019841693508086168417925050509392505050565b6000819050919050565b600061390e613909613904846132bf565b6138e9565b6132bf565b9050919050565b6000819050919050565b613928836138f3565b61393c61393482613915565b848454613897565b825550505050565b600090565b613951613944565b61395c81848461391f565b505050565b5b8181101561398057613975600082613949565b600181019050613962565b5050565b601f8211156139c55761399681613865565b61399f8461387a565b810160208510156139ae578190505b6139c26139ba8561387a565b830182613961565b50505b505050565b600082821c905092915050565b60006139e8600019846008026139ca565b1980831691505092915050565b6000613a0183836139d7565b9150826002028217905092915050565b613a1a82613163565b67ffffffffffffffff811115613a3357613a32612fdc565b5b613a3d825461367e565b613a48828285613984565b600060209050601f831160018114613a7b5760008415613a69578287015190505b613a7385826139f5565b865550613adb565b601f198416613a8986613865565b60005b82811015613ab157848901518255600182019150602085019450602081019050613a8c565b86831015613ace5784890151613aca601f8916826139d7565b8355505b6001600288020188555050505b505050505050565b7f455243373231456e756d657261626c653a206f776e657220696e646578206f7560008201527f74206f6620626f756e6473000000000000000000000000000000000000000000602082015250565b6000613b3f602b8361316e565b9150613b4a82613ae3565b604082019050919050565b60006020820190508181036000830152613b6e81613b32565b9050919050565b7f4e6f2062616c616e636520746f20776974686472617700000000000000000000600082015250565b6000613bab60168361316e565b9150613bb682613b75565b602082019050919050565b60006020820190508181036000830152613bda81613b9e565b9050919050565b600081905092915050565b50565b6000613bfc600083613be1565b9150613c0782613bec565b600082019050919050565b6000613c1d82613bef565b9150819050919050565b7f5769746864726177206661696c65640000000000000000000000000000000000600082015250565b6000613c5d600f8361316e565b9150613c6882613c27565b602082019050919050565b60006020820190508181036000830152613c8c81613c50565b9050919050565b7f455243373231456e756d657261626c653a20676c6f62616c20696e646578206f60008201527f7574206f6620626f756e64730000000000000000000000000000000000000000602082015250565b6000613cef602c8361316e565b9150613cfa82613c93565b604082019050919050565b60006020820190508181036000830152613d1e81613ce2565b9050919050565b7f4e487b7100000000000000000000000000000000000000000000000000000000600052603260045260246000fd5b7f4552433732313a20696e76616c696420746f6b656e2049440000000000000000600082015250565b6000613d8a60188361316e565b9150613d9582613d54565b602082019050919050565b60006020820190508181036000830152613db981613d7d565b9050919050565b7f4552433732313a2061646472657373207a65726f206973206e6f74206120766160008201527f6c6964206f776e65720000000000000000000000000000000000000000000000602082015250565b6000613e1c60298361316e565b9150613e2782613dc0565b604082019050919050565b60006020820190508181036000830152613e4b81613e0f565b9050919050565b7f416d6f756e74206d7573742062652067726561746572207468616e2030000000600082015250565b6000613e88601d8361316e565b9150613e9382613e52565b602082019050919050565b60006020820190508181036000830152613eb781613e7b565b9050919050565b7f416d6f756e742065786365656473206d6178696d756d206c696d697400000000600082015250565b6000613ef4601c8361316e565b9150613eff82613ebe565b602082019050919050565b60006020820190508181036000830152613f2381613ee7565b9050919050565b7f4e487b7100000000000000000000000000000000000000000000000000000000600052601160045260246000fd5b6000613f64826132bf565b9150613f6f836132bf565b9250828202613f7d816132bf565b91508282048414831517613f9457613f93613f2a565b5b5092915050565b7f496e73756666696369656e74207061796d656e74000000000000000000000000600082015250565b6000613fd160148361316e565b9150613fdc82613f9b565b602082019050919050565b6000602082019050818103600083015261400081613fc4565b9050919050565b7f546f6b656e2049442065786365656473206c696d697400000000000000000000600082015250565b600061403d60168361316e565b915061404882614007565b602082019050919050565b6000602082019050818103600083015261406c81614030565b9050919050565b7f546f6b656e20616c7265616479206d696e746564000000000000000000000000600082015250565b60006140a960148361316e565b91506140b482614073565b602082019050919050565b600060208201905081810360008301526140d88161409c565b9050919050565b60006140ea826132bf565b91507fffffffffffffffffffffffffffffffffffffffffffffffffffffffffffffffff820361411c5761411b613f2a565b5b600182019050919050565b6000614132826132bf565b915061413d836132bf565b925082820390508181111561415557614154613f2a565b5b92915050565b7f526566756e64206661696c656400000000000000000000000000000000000000600082015250565b6000614191600d8361316e565b915061419c8261415b565b602082019050919050565b600060208201905081810360008301526141c081614184565b9050919050565b7f546f6b656e20646f6573206e6f74206578697374000000000000000000000000600082015250565b60006141fd60148361316e565b9150614208826141c7565b602082019050919050565b6000602082019050818103600083015261422c816141f0565b9050919050565b600061424661424184613057565b61303c565b90508281526020810184848401111561426257614261612fc6565b5b61426d84828561317f565b509392505050565b600082601f83011261428a57614289612fc1565b5b815161429a848260208601614233565b91505092915050565b6000602082840312156142b9576142b8612f59565b5b600082015167ffffffffffffffff8111156142d7576142d6612f5e565b5b6142e384828501614275565b91505092915050565b600060408201905061430160008301856132c9565b818103602083015261431381846131a9565b90509392505050565b600081546143298161367e565b614333818661316e565b9450600182166000811461434e576001811461436457614397565b60ff198316865281151560200286019350614397565b61436d85613865565b60005b8381101561438f57815481890152600182019150602081019050614370565b808801955050505b50505092915050565b60006080820190506143b560008301876132c9565b81810360208301526143c781866131a9565b905081810360408301526143db818561431c565b905081810360608301526143ef818461431c565b905095945050505050565b600081905092915050565b7f646174613a6170706c69636174696f6e2f6a736f6e3b6261736536342c000000600082015250565b600061443b601d836143fa565b915061444682614405565b601d82019050919050565b600061445c82613163565b61446681856143fa565b935061447681856020860161317f565b80840191505092915050565b600061448d8261442e565b91506144998284614451565b915081905092915050565b7f4f776e61626c653a206e6577206f776e657220697320746865207a65726f206160008201527f6464726573730000000000000000000000000000000000000000000000000000602082015250565b600061450060268361316e565b915061450b826144a4565b604082019050919050565b6000602082019050818103600083015261452f816144f3565b9050919050565b7f4f776e61626c653a2063616c6c6572206973206e6f7420746865206f776e6572600082015250565b600061456c60208361316e565b915061457782614536565b602082019050919050565b6000602082019050818103600083015261459b8161455f565b9050919050565b7f45524337323155524953746f726167653a2055524920736574206f66206e6f6e60008201527f6578697374656e7420746f6b656e000000000000000000000000000000000000602082015250565b60006145fe602e8361316e565b9150614609826145a2565b604082019050919050565b6000602082019050818103600083015261462d816145f1565b9050919050565b7f4552433732313a207472616e736665722066726f6d20696e636f72726563742060008201527f6f776e6572000000000000000000000000000000000000000000000000000000602082015250565b600061469060258361316e565b915061469b82614634565b604082019050919050565b600060208201905081810360008301526146bf81614683565b9050919050565b7f4552433732313a207472616e7366657220746f20746865207a65726f2061646460008201527f7265737300000000000000000000000000000000000000000000000000000000602082015250565b600061472260248361316e565b915061472d826146c6565b604082019050919050565b6000602082019050818103600083015261475181614715565b9050919050565b7f5265656e7472616e637947756172643a207265656e7472616e742063616c6c00600082015250565b600061478e601f8361316e565b915061479982614758565b602082019050919050565b600060208201905081810360008301526147bd81614781565b9050919050565b7f4552433732313a20617070726f766520746f2063616c6c657200000000000000600082015250565b60006147fa60198361316e565b9150614805826147c4565b602082019050919050565b60006020820190508181036000830152614829816147ed565b9050919050565b7f4552433732313a207472616e7366657220746f206e6f6e20455243373231526560008201527f63656976657220696d706c656d656e7465720000000000000000000000000000602082015250565b600061488c60328361316e565b915061489782614830565b604082019050919050565b600060208201905081810360008301526148bb8161487f565b9050919050565b60006148cd826132bf565b91506148d8836132bf565b92508282019050808211156148f0576148ef613f2a565b5b92915050565b7f4e487b7100000000000000000000000000000000000000000000000000000000600052601260045260246000fd5b6000614930826132bf565b915061493b836132bf565b92508261494b5761494a6148f6565b5b828204905092915050565b600081519050919050565b600082825260208201905092915050565b600061497d82614956565b6149878185614961565b935061499781856020860161317f565b6149a081612fcb565b840191505092915050565b60006080820190506149c0600083018761334c565b6149cd602083018661334c565b6149da60408301856132c9565b81810360608301526149ec8184614972565b905095945050505050565b600081519050614a0681613230565b92915050565b600060208284031215614a2257614a21612f59565b5b6000614a30848285016149f7565b91505092915050565b7f4552433732313a206d696e7420746f20746865207a65726f2061646472657373600082015250565b6000614a6f60208361316e565b9150614a7a82614a39565b602082019050919050565b60006020820190508181036000830152614a9e81614a62565b9050919050565b7f4552433732313a20746f6b656e20616c7265616479206d696e74656400000000600082015250565b6000614adb601c8361316e565b9150614ae682614aa5565b602082019050919050565b60006020820190508181036000830152614b0a81614ace565b9050919050565b7f455243373231456e756d657261626c653a20636f6e736563757469766520747260008201527f616e7366657273206e6f7420737570706f727465640000000000000000000000602082015250565b6000614b6d60358361316e565b9150614b7882614b11565b604082019050919050565b60006020820190508181036000830152614b9c81614b60565b9050919050565b7f4e487b7100000000000000000000000000000000000000000000000000000000600052603160045260246000fdfe4142434445464748494a4b4c4d4e4f505152535455565758595a6162636465666768696a6b6c6d6e6f707172737475767778797a303132333435363738392b2fa2646970667358221220631db7bc9026ab644e73b1e25069cc2076296395e7711003a52a7f953873b6b964736f6c63430008120033608060405234801561001057600080fd5b50613135806100206000396000f3fe608060405234801561001057600080fd5b50600436106100415760003560e01c8063691a3ca0146100465780636dcee4ca146100765780637b5d473b146100a6575b600080fd5b610060600480360381019061005b91906107a9565b6100d6565b60405161006d9190610884565b60405180910390f35b610090600480360381019061008b91906108a6565b61012c565b60405161009d9190610884565b60405180910390f35b6100c060048036038101906100bb91906108d3565b6101fd565b6040516100cd9190610884565b60405180910390f35b6060600082905060006100e882610295565b905060006100f5866103f8565b9050600082828360405160200161010e93929190610f22565b60405160208183030381529060405290508094505050505092915050565b606060006101366103e5846101419190611006565b61014b9190611077565b90506000610136602d8361015f91906110a8565b6101699190611077565b90506000605090506000603c90506000605a90506000610188866103f8565b610191856103f8565b61019a856103f8565b6101a3886103f8565b6101ac886103f8565b6101b5876103f8565b6101be8e6103f8565b6101c78f6103f8565b6040516020016101de989796959493929190612b3f565b6040516020818303038152906040529050809650505050505050919050565b60606000849050600061020f82610295565b9050600061021c886103f8565b905060606000865111156102555786828760405160200161023f93929190612df6565b6040516020818303038152906040529050610259565b8690505b60008382848585604051602001610274959493929190612f93565b60405160208183030381529060405290508095505050505050949350505050565b606060008251036102b7576040518060200160405280600081525090506103f3565b60006040518060600160405280604081526020016130c060409139905060006003600285516102e691906110a8565b6102f0919061308e565b60046102fc9190611006565b67ffffffffffffffff8111156103155761031461067e565b5b6040519080825280601f01601f1916602001820160405280156103475781602001600182028036833780820191505090505b509050600182016020820185865187015b808210156103b3576003820191508151603f8160121c168501518453600184019350603f81600c1c168501518453600184019350603f8160061c168501518453600184019350603f8116850151845360018401935050610358565b50506003865106600181146103cf57600281146103e2576103ea565b603d6001830353603d60028303536103ea565b603d60018303535b50505080925050505b919050565b606060006001610407846104c6565b01905060008167ffffffffffffffff8111156104265761042561067e565b5b6040519080825280601f01601f1916602001820160405280156104585781602001600182028036833780820191505090505b509050600082602001820190505b6001156104bb578080600190039150507f3031323334353637383961626364656600000000000000000000000000000000600a86061a8153600a85816104af576104ae611048565b5b04945060008503610466575b819350505050919050565b600080600090507a184f03e93ff9f4daa797ed6e38ed64bf6a1f0100000000000000008310610524577a184f03e93ff9f4daa797ed6e38ed64bf6a1f010000000000000000838161051a57610519611048565b5b0492506040810190505b6d04ee2d6d415b85acef81000000008310610561576d04ee2d6d415b85acef8100000000838161055757610556611048565b5b0492506020810190505b662386f26fc10000831061059057662386f26fc10000838161058657610585611048565b5b0492506010810190505b6305f5e10083106105b9576305f5e10083816105af576105ae611048565b5b0492506008810190505b61271083106105de5761271083816105d4576105d3611048565b5b0492506004810190505b6064831061060157606483816105f7576105f6611048565b5b0492506002810190505b600a8310610610576001810190505b80915050919050565b6000604051905090565b600080fd5b600080fd5b6000819050919050565b6106408161062d565b811461064b57600080fd5b50565b60008135905061065d81610637565b92915050565b600080fd5b600080fd5b6000601f19601f8301169050919050565b7f4e487b7100000000000000000000000000000000000000000000000000000000600052604160045260246000fd5b6106b68261066d565b810181811067ffffffffffffffff821117156106d5576106d461067e565b5b80604052505050565b60006106e8610619565b90506106f482826106ad565b919050565b600067ffffffffffffffff8211156107145761071361067e565b5b61071d8261066d565b9050602081019050919050565b82818337600083830152505050565b600061074c610747846106f9565b6106de565b90508281526020810184848401111561076857610767610668565b5b61077384828561072a565b509392505050565b600082601f8301126107905761078f610663565b5b81356107a0848260208601610739565b91505092915050565b600080604083850312156107c0576107bf610623565b5b60006107ce8582860161064e565b925050602083013567ffffffffffffffff8111156107ef576107ee610628565b5b6107fb8582860161077b565b9150509250929050565b600081519050919050565b600082825260208201905092915050565b60005b8381101561083f578082015181840152602081019050610824565b60008484015250505050565b600061085682610805565b6108608185610810565b9350610870818560208601610821565b6108798161066d565b840191505092915050565b6000602082019050818103600083015261089e818461084b565b905092915050565b6000602082840312156108bc576108bb610623565b5b60006108ca8482850161064e565b91505092915050565b600080600080608085870312156108ed576108ec610623565b5b60006108fb8782880161064e565b945050602085013567ffffffffffffffff81111561091c5761091b610628565b5b6109288782880161077b565b935050604085013567ffffffffffffffff81111561094957610948610628565b5b6109558782880161077b565b925050606085013567ffffffffffffffff81111561097657610975610628565b5b6109828782880161077b565b91505092959194509250565b600081905092915050565b7f7b226e616d65223a22446f6d656c616e64222c00000000000000000000000000600082015250565b60006109cf60138361098e565b91506109da82610999565b601382019050919050565b7f22696d616765223a22646174613a696d6167652f7376672b786d6c3b6261736560008201527f36342c0000000000000000000000000000000000000000000000000000000000602082015250565b6000610a4160238361098e565b9150610a4c826109e5565b602382019050919050565b6000610a6282610805565b610a6c818561098e565b9350610a7c818560208601610821565b80840191505092915050565b7f222c000000000000000000000000000000000000000000000000000000000000600082015250565b6000610abe60028361098e565b9150610ac982610a88565b600282019050919050565b7f2261747472696275746573223a5b000000000000000000000000000000000000600082015250565b6000610b0a600e8361098e565b9150610b1582610ad4565b600e82019050919050565b7f7b2274726169745f74797065223a22444323222c2276616c7565223a22000000600082015250565b6000610b56601d8361098e565b9150610b6182610b20565b601d82019050919050565b7f227d2c0000000000000000000000000000000000000000000000000000000000600082015250565b6000610ba260038361098e565b9150610bad82610b6c565b600382019050919050565b7f7b2274726169745f74797065223a22554e495423222c2276616c7565223a223060008201527f227d2c0000000000000000000000000000000000000000000000000000000000602082015250565b6000610c1460238361098e565b9150610c1f82610bb8565b602382019050919050565b7f7b2274726169745f74797065223a224a554d502d50415448222c2276616c756560008201527f223a224f627365727661626c6520556e697665727365202e2e2e20506973636560208201527f732c204365747573205375706572636c757374657220436f6d706c6578202e2e60408201527f2e204c616e69616b6561205375706572636c7573746572202e2e2e205669726760608201527f6f205375706572636c7573746572202e2e2e204c6f63616c2047726f7570206f60808201527f662047616c6178696573202e2e2e204d696c6b7920576179202e2e2e20536f6c60a08201527f61722053797374656d202e2e2e204561727468227d2c0000000000000000000060c082015250565b6000610d4460d68361098e565b9150610d4f82610c2a565b60d682019050919050565b7f7b2274726169745f74797065223a22564f4c222c2276616c7565223a2239583960008201527f5839227d2c000000000000000000000000000000000000000000000000000000602082015250565b6000610db660258361098e565b9150610dc182610d5a565b602582019050919050565b7f7b2274726169745f74797065223a22535243222c2276616c7565223a2268747460008201527f70733a2f2f697066732e696f2f697066732f62616679626569616568796b796160208201527f6c337163776836736b6872707664756c7765346a367a68647a776975786c337a60408201527f7776357667656a6b6761616e792f000000000000000000000000000000000000606082015250565b6000610e74606e8361098e565b9150610e7f82610dcc565b606e82019050919050565b7f2e6a736f6e227d00000000000000000000000000000000000000000000000000600082015250565b6000610ec060078361098e565b9150610ecb82610e8a565b600782019050919050565b7f5d7d000000000000000000000000000000000000000000000000000000000000600082015250565b6000610f0c60028361098e565b9150610f1782610ed6565b600282019050919050565b6000610f2d826109c2565b9150610f3882610a34565b9150610f448286610a57565b9150610f4f82610ab1565b9150610f5a82610afd565b9150610f6582610b49565b9150610f718285610a57565b9150610f7c82610b95565b9150610f8782610c07565b9150610f9282610d37565b9150610f9d82610da9565b9150610fa882610e67565b9150610fb48284610a57565b9150610fbf82610eb3565b9150610fca82610eff565b9150819050949350505050565b7f4e487b7100000000000000000000000000000000000000000000000000000000600052601160045260246000fd5b60006110118261062d565b915061101c8361062d565b925082820261102a8161062d565b9150828204841483151761104157611040610fd7565b5b5092915050565b7f4e487b7100000000000000000000000000000000000000000000000000000000600052601260045260246000fd5b60006110828261062d565b915061108d8361062d565b92508261109d5761109c611048565b5b828206905092915050565b60006110b38261062d565b91506110be8361062d565b92508282019050808211156110d6576110d5610fd7565b5b92915050565b7f3c73766720786d6c6e733d22687474703a2f2f7777772e77332e6f72672f323060008201527f30302f737667222076696577426f783d223020302033303020343830223e0000602082015250565b6000611138603e8361098e565b9150611143826110dc565b603e82019050919050565b7f3c7374796c653e00000000000000000000000000000000000000000000000000600082015250565b600061118460078361098e565b915061118f8261114e565b600782019050919050565b7f2e746f6b656e73207b20666f6e743a20626f6c6420323470782073616e732d7360008201527f657269663b207d00000000000000000000000000000000000000000000000000602082015250565b60006111f660278361098e565b91506112018261119a565b602782019050919050565b7f2e666565207b20666f6e743a206e6f726d616c20313270782073616e732d736560008201527f7269663b207d0000000000000000000000000000000000000000000000000000602082015250565b600061126860268361098e565b91506112738261120c565b602682019050919050565b7f2e7469636b207b20666f6e743a206e6f726d616c203870782073616e732d736560008201527f7269663b207d0000000000000000000000000000000000000000000000000000602082015250565b60006112da60268361098e565b91506112e58261127e565b602682019050919050565b7f3c2f7374796c653e000000000000000000000000000000000000000000000000600082015250565b600061132660088361098e565b9150611331826112f0565b600882019050919050565b7f3c646566733e0000000000000000000000000000000000000000000000000000600082015250565b600061137260068361098e565b915061137d8261133c565b600682019050919050565b7f3c6c696e6561724772616469656e742069643d2267726164222078313d22302260008201527f2079313d2230222078323d2231222079323d2231223e00000000000000000000602082015250565b60006113e460368361098e565b91506113ef82611388565b603682019050919050565b7f3c73746f70206f66667365743d223025222073746f702d636f6c6f723d22687360008201527f6c28000000000000000000000000000000000000000000000000000000000000602082015250565b600061145660228361098e565b9150611461826113fa565b602282019050919050565b7f2c20000000000000000000000000000000000000000000000000000000000000600082015250565b60006114a260028361098e565b91506114ad8261146c565b600282019050919050565b7f252c200000000000000000000000000000000000000000000000000000000000600082015250565b60006114ee60038361098e565b91506114f9826114b8565b600382019050919050565b7f2529222f3e000000000000000000000000000000000000000000000000000000600082015250565b600061153a60058361098e565b915061154582611504565b600582019050919050565b7f3c73746f70206f66667365743d2231303025222073746f702d636f6c6f723d2260008201527f68736c2800000000000000000000000000000000000000000000000000000000602082015250565b60006115ac60248361098e565b91506115b782611550565b602482019050919050565b7f3c2f6c696e6561724772616469656e743e000000000000000000000000000000600082015250565b60006115f860118361098e565b9150611603826115c2565b601182019050919050565b7f3c2f646566733e00000000000000000000000000000000000000000000000000600082015250565b600061164460078361098e565b915061164f8261160e565b600782019050919050565b7f3c726563742077696474683d2233303022206865696768743d2234383022206660008201527f696c6c3d2275726c2823677261642922202f3e00000000000000000000000000602082015250565b60006116b660338361098e565b91506116c18261165a565b603382019050919050565b7f3c7265637420783d2233302220793d223330222077696474683d22323430222060008201527f6865696768743d22343230222072783d223135222072793d223135222066696c60208201527f6c3d2268736c28302c30252c30252922207374726f6b653d222330303022206960408201527f643d226d617022202f3e00000000000000000000000000000000000000000000606082015250565b6000611774606a8361098e565b915061177f826116cc565b606a82019050919050565b7f3c7465787420783d2233392220793d2239302220636c6173733d22746f6b656e60008201527f73222066696c6c3d2223666666222069643d226e616d65223e20444f4d454c4160208201527f4e44203c2f746578743e00000000000000000000000000000000000000000000604082015250565b600061180c604a8361098e565b91506118178261178a565b604a82019050919050565b7f3c7465787420783d2233392220793d22313130222064793d2231352220636c6160008201527f73733d22746f6b656e73222066696c6c3d2223666666222069643d224443232260208201527f3e44432023000000000000000000000000000000000000000000000000000000604082015250565b60006118a460458361098e565b91506118af82611822565b604582019050919050565b7f3c2f746578743e00000000000000000000000000000000000000000000000000600082015250565b60006118f060078361098e565b91506118fb826118ba565b600782019050919050565b7f3c7465787420783d2233392220793d22313330222064793d2231352220636c6160008201527f73733d22666565222066696c6c3d2223666666222069643d22554e495423223e60208201527f554e4954202330203c2f746578743e0000000000000000000000000000000000604082015250565b6000611988604f8361098e565b915061199382611906565b604f82019050919050565b7f3c7465787420783d2233392220793d223138352220636c6173733d227469636b60008201527f222066696c6c3d2223666666222069643d224a554d502d50415448223e000000602082015250565b60006119fa603d8361098e565b9150611a058261199e565b603d82019050919050565b7f3c747370616e20783d223339222064793d22312e32656d223e43757276652d5060008201527f617468203a204f627365727661626c6520556e697665727365202d20203c2f7460208201527f7370616e3e000000000000000000000000000000000000000000000000000000604082015250565b6000611a9260458361098e565b9150611a9d82611a10565b604582019050919050565b7f3c747370616e20783d223339222064793d22312e32656d223e5069736365732c60008201527f204365747573205375706572636c757374657220436f6d706c6578202d203c2f60208201527f747370616e3e0000000000000000000000000000000000000000000000000000604082015250565b6000611b2a60468361098e565b9150611b3582611aa8565b604682019050919050565b7f3c747370616e20783d223339222064793d22312e32656d223e4c616e69616b6560008201527f61205375706572636c7573746572202d20566972676f205375706572636c757360208201527f746572202d203c2f747370616e3e000000000000000000000000000000000000604082015250565b6000611bc2604e8361098e565b9150611bcd82611b40565b604e82019050919050565b7f3c747370616e20783d223339222064793d22312e32656d223e4c6f63616c204760008201527f726f7570206f662047616c6178696573202d204d696c6b7920576179202d203c60208201527f2f747370616e3e00000000000000000000000000000000000000000000000000604082015250565b6000611c5a60478361098e565b9150611c6582611bd8565b604782019050919050565b7f3c747370616e20783d223339222064793d22312e32656d223e536f6c6172205360008201527f797374656d20202d204561727468203c2f747370616e3e000000000000000000602082015250565b6000611ccc60378361098e565b9150611cd782611c70565b603782019050919050565b7f3c7465787420783d2233392220793d22323530222064793d2233302220636c6160008201527f73733d227469636b222066696c6c3d2223666666222069643d22564f4c223e5660208201527f6f6c756d65203a20392a392a393c2f746578743e000000000000000000000000604082015250565b6000611d6460548361098e565b9150611d6f82611ce2565b605482019050919050565b7f3c7465787420783d2233392220793d22323830222064793d2233302220636c6160008201527f73733d227469636b222066696c6c3d2223666666222069643d2255534147452260208201527f3e5573616765203a20636f70696c6f742063617073756c653c2f746578743e00604082015250565b6000611dfc605f8361098e565b9150611e0782611d7a565b605f82019050919050565b7f3c7465787420783d223234302220793d223630222064793d22312e32656d222060008201527f636c6173733d227469636b222066696c6c3d2223666666222069643d2253524360208201527f222077726974696e672d6d6f64653d2274622d726c2220676c7970682d6f726960408201527f656e746174696f6e2d766572746963616c3d2230223e00000000000000000000606082015250565b6000611eba60768361098e565b9150611ec582611e12565b607682019050919050565b7f535243203a2068747470733a2f2f697066732e696f2f697066732f626166796260008201527f6569616568796b79616c337163776836736b6872707664756c7765346a367a6860208201527f647a776975786c337a7776357667656a6b6761616e792f000000000000000000604082015250565b6000611f5260578361098e565b9150611f5d82611ed0565b605782019050919050565b7f2e6a736f6e000000000000000000000000000000000000000000000000000000600082015250565b6000611f9e60058361098e565b9150611fa982611f68565b600582019050919050565b7f3c67207472616e73666f726d3d227472616e736c6174652833392c343335292060008201527f7363616c6528302e30362c2d302e303629222066696c6c3d227267626128323560208201527f352c203235352c203235352c20302e352922207374726f6b653d226e6f6e652260408201527f2069643d22746f7022203e3c7061746820643d224d343930203132343520632d60608201527f313731202d3437202d333332202d313738202d343034202d333237202d38382060808201527f2d313833202d3837202d3337322033202d353533203337202d3734203132312060a08201527f2d31383520313431202d3138352035203020313020313520313220333320332060c08201527f323920392033342035382035332037392033312031303020333720313030203260e08201527f362030202d35202d3233202d3139202d3532202d3331206c2d3532202d3232206101008201527f3239202d313720633137202d3130203933202d353120313730202d3932206c316101208201527f3430202d373320393020343720633439203235203132362036362031363920396101408201527f30206c3830203434202d353220323220632d3239203132202d3532203236202d6101608201527f353220333120302038203735202d313220313330202d3335206c3333202d31336101808201527f202d313934202d31303420632d323036202d313131202d323139202d313237206101a08201527f2d3733202d3934203131322032352032323420383520333034203136342033326101c08201527f31203331382031393720383637202d3233302031303138202d3934203333202d6101e08201527f323633203432202d3335302031387a206d2d36202d31343220633134202d35366102008201527f203233202d313039203139202d313139202d34202d3132202d33202d313520356102208201527f202d313020382035203130202d332037202d3236202d34202d3234202d33202d6102408201527f32372033202d313420382031392039203139203134202d322035202d313620306102608201527f202d3233202d3231202d3331202d3231202d38202d3232202d3130202d36202d6102808201527f31302031312030203338203520353920313320343020313420343620323220376102a08201527f312031303620362032322035203233202d362039202d3230202d3234202d39356102c08201527f202d3334202d313033202d3134202d34203132203720323120343120333620326102e08201527f35203131203535203231203636203233203136203220323620313820343020366103008201527f302031312033322032332035342032372034392038202d39203435202d3138316103208201527f203535202d3235332033202d32352038202d3534203131202d36362034202d316103408201527f34202d31202d3234202d3138202d3332202d3439202d32332035202d313120376103608201527f392031392039332033372031313820353620313031203736202d38203130202d6103808201527f3330203133202d3737203131206c2d3635202d33202d313820343820632d31306103a08201527f203236202d3136203437202d313520343720322030203633202d3234203133376103c08201527f202d3534206c313334202d3534202d3634202d323920632d3336202d3137202d6103e08201527f313231202d3536202d313839202d3838202d3639202d3332202d313330202d356104008201527f38202d313335202d3538202d382030202d3130202d3836202d38202d323734206104208201527f6c33202d323733202d31383820393620632d313033203533202d3139342031306104408201527f31202d32303120313037202d392037202d3133203331202d31322037312034206104608201527f313037203020313633202d313020313431202d35202d3132202d39202d3134206104808201527f2d39202d36202d312038202d3133203330202d3238203439202d3135203230206104a08201527f2d3233203337202d3137203339203335203132203337203230203230203638206104c08201527f2d38203236202d3234203534202d3333203631202d3136203132202d313120316104e08201527f33203335203134206c35342030202d3420333620632d332034322039203534206105008201527f38322038302034362031372034372031382037302038382033312039362036316105208201527f20313738203635203137342032202d32203135202d3439203239202d3130357a6105408201527f206d353238202d34343120633332202d3131203732202d3331203930202d34346105608201527f203330202d3231203331202d3233203132202d3236202d3132202d32202d35306105808201527f202d3238202d3835202d3539202d3730202d3631202d313239202d3932202d316105a08201527f3733202d3933202d32372030202d32382031202d3134203232203820313220326105c08201527f37203235203433203330203135203420343120323020353820333520313720316105e08201527f35203237203233203234203136202d35202d38202d31202d38203137203020316106008201527f352037203230203134203133203139202d3620332035203820323420313120316106208201527f39203220362034202d33312035202d35342031202d3734202d34202d313230206106408201527f2d3238202d3738202d3432202d3930202d3430202d39302031342030203533206106608201527f3134203936203338203131342032332031382031323020313020313934202d316106808201527f367a206d2d3837202d31333220632d3130202d3131202d3233202d3230202d326106a08201527f39202d3230202d362030203020392031342032302033322032352033382032356106c08201527f20313520307a222f3e3c7061746820643d224d3332302038373020633139202d6106e08201527f3131203430202d3139203435202d313920362030202d362038202d32352031396107008201527f202d3139203131202d3339203139202d3435203139202d3520302036202d38206107208201527f3235202d31397a222f3e3c7061746820643d224d3435302038313020633139206107408201527f2d3131203430202d3139203435202d313920362030202d362038202d323520316107608201527f39202d3139203131202d3339203139202d3435203139202d3520302036202d386107808201527f203235202d31397a222f3e3c7061746820643d224d3239302037353920632d316107a08201527f32202d38202d3130202d392038202d34203731203230203931202d31323320326107c08201527f34202d313736202d3231202d3136202d3233202d3230202d38202d31382035386107e08201527f2031312038322031333520333520313835202d3235203236202d3336203239206108008201527f2d35392031337a222f3e3c7061746820643d224d3537302037353520633134206108208201527f2d38203330202d3134203335202d313420362030202d312036202d31352031346108408201527f202d31342038202d3239203134202d3335203134202d3520302031202d3620316108608201527f35202d31347a222f3e3c7061746820643d224d3532352036363020632d3137206108808201527f2d37202d3134202d39203132202d39203638202d32203835202d3132312032376108a08201527f202d313833202d3235202d3236202d3236202d3239202d37202d3139203636206108c08201527f333420373120313637203820323036202d31322038202d3238203130202d34306108e08201527f20357a222f3e3c2f673e0000000000000000000000000000000000000000000061090082015250565b6000612adc61090a8361098e565b9150612ae782611fb4565b61090a82019050919050565b7f3c2f7376673e0000000000000000000000000000000000000000000000000000600082015250565b6000612b2960068361098e565b9150612b3482612af3565b600682019050919050565b6000612b4a8261112b565b9150612b5582611177565b9150612b60826111e9565b9150612b6b8261125b565b9150612b76826112cd565b9150612b8182611319565b9150612b8c82611365565b9150612b97826113d7565b9150612ba282611449565b9150612bae828b610a57565b9150612bb982611495565b9150612bc5828a610a57565b9150612bd0826114e1565b9150612bdc8289610a57565b9150612be78261152d565b9150612bf28261159f565b9150612bfe8288610a57565b9150612c0982611495565b9150612c158287610a57565b9150612c20826114e1565b9150612c2c8286610a57565b9150612c378261152d565b9150612c42826115eb565b9150612c4d82611637565b9150612c58826116a9565b9150612c6382611767565b9150612c6e826117ff565b9150612c7982611897565b9150612c858285610a57565b9150612c90826118e3565b9150612c9b8261197b565b9150612ca6826119ed565b9150612cb182611a85565b9150612cbc82611b1d565b9150612cc782611bb5565b9150612cd282611c4d565b9150612cdd82611cbf565b9150612ce8826118e3565b9150612cf382611d57565b9150612cfe82611def565b9150612d0982611ead565b9150612d1482611f45565b9150612d208284610a57565b9150612d2b82611f91565b9150612d36826118e3565b9150612d4182612ace565b9150612d4c82612b1c565b91508190509998505050505050505050565b7f2f00000000000000000000000000000000000000000000000000000000000000600082015250565b6000612d9460018361098e565b9150612d9f82612d5e565b600182019050919050565b7f2e00000000000000000000000000000000000000000000000000000000000000600082015250565b6000612de060018361098e565b9150612deb82612daa565b600182019050919050565b6000612e028286610a57565b9150612e0d82612d87565b9150612e198285610a57565b9150612e2482612dd3565b9150612e308284610a57565b9150819050949350505050565b7f22616e696d6174696f6e5f75726c223a22000000000000000000000000000000600082015250565b6000612e7360118361098e565b9150612e7e82612e3d565b601182019050919050565b7f2e6a736f6e227d2c000000000000000000000000000000000000000000000000600082015250565b6000612ebf60088361098e565b9150612eca82612e89565b600882019050919050565b7f7b2274726169745f74797065223a22416e696d6174696f6e222c2276616c756560008201527f223a220000000000000000000000000000000000000000000000000000000000602082015250565b6000612f3160238361098e565b9150612f3c82612ed5565b602382019050919050565b7f227d000000000000000000000000000000000000000000000000000000000000600082015250565b6000612f7d60028361098e565b9150612f8882612f47565b600282019050919050565b6000612f9e826109c2565b9150612fa982610a34565b9150612fb58288610a57565b9150612fc082610ab1565b9150612fcb82612e66565b9150612fd78287610a57565b9150612fe282610ab1565b9150612fed82610afd565b9150612ff882610b49565b91506130048286610a57565b915061300f82610b95565b915061301a82610c07565b915061302582610d37565b915061303082610da9565b915061303b82610e67565b91506130478285610a57565b915061305282612eb2565b915061305d82612f24565b91506130698284610a57565b915061307482612f70565b915061307f82610eff565b91508190509695505050505050565b60006130998261062d565b91506130a48361062d565b9250826130b4576130b3611048565b5b82820490509291505056fe4142434445464748494a4b4c4d4e4f505152535455565758595a6162636465666768696a6b6c6d6e6f707172737475767778797a303132333435363738392b2fa2646970667358221220ef74a2f5019785817a5c09098a5d5553285b86537d0231fd50babf62250e8d1c64736f6c63430008120033","opcodes":"PUSH1 0x80 PUSH1 0x40 MSTORE PUSH7 0x38D7EA4C68000 PUSH1 0xF SSTORE CALLVALUE DUP1 ISZERO PUSH3 0x1C JUMPI PUSH1 0x0 DUP1 REVERT JUMPDEST POP PUSH1 0x40 MLOAD DUP1 PUSH1 0x40 ADD PUSH1 0x40 MSTORE DUP1 PUSH1 0x8 DUP2 MSTORE PUSH1 0x20 ADD PUSH32 0x446F6D656C616E64000000000000000000000000000000000000000000000000 DUP2 MSTORE POP PUSH1 0x40 MLOAD DUP1 PUSH1 0x40 ADD PUSH1 0x40 MSTORE DUP1 PUSH1 0x4 DUP2 MSTORE PUSH1 0x20 ADD PUSH32 0x444C4E4400000000000000000000000000000000000000000000000000000000 DUP2 MSTORE POP PUSH1 0x1 PUSH1 0x0 DUP2 SWAP1 SSTORE POP DUP2 PUSH1 0x1 SWAP1 DUP2 PUSH3 0xA2 SWAP2 SWAP1 PUSH3 0x4E1 JUMP JUMPDEST POP DUP1 PUSH1 0x2 SWAP1 DUP2 PUSH3 0xB4 SWAP2 SWAP1 PUSH3 0x4E1 JUMP JUMPDEST POP POP POP PUSH3 0xD7 PUSH3 0xCB PUSH3 0x18B PUSH1 0x20 SHL PUSH1 0x20 SHR JUMP JUMPDEST PUSH3 0x193 PUSH1 0x20 SHL PUSH1 0x20 SHR JUMP JUMPDEST PUSH1 0x40 MLOAD PUSH3 0xE5 SWAP1 PUSH3 0x259 JUMP JUMPDEST PUSH1 0x40 MLOAD DUP1 SWAP2 SUB SWAP1 PUSH1 0x0 CREATE DUP1 ISZERO DUP1 ISZERO PUSH3 0x102 JUMPI RETURNDATASIZE PUSH1 0x0 DUP1 RETURNDATACOPY RETURNDATASIZE PUSH1 0x0 REVERT JUMPDEST POP PUSH1 0xD PUSH1 0x0 PUSH2 0x100 EXP DUP2 SLOAD DUP2 PUSH20 0xFFFFFFFFFFFFFFFFFFFFFFFFFFFFFFFFFFFFFFFF MUL NOT AND SWAP1 DUP4 PUSH20 0xFFFFFFFFFFFFFFFFFFFFFFFFFFFFFFFFFFFFFFFF AND MUL OR SWAP1 SSTORE POP PUSH1 0x40 MLOAD DUP1 PUSH1 0x20 ADD PUSH1 0x40 MSTORE DUP1 PUSH1 0x0 DUP2 MSTORE POP PUSH1 0x11 SWAP1 DUP2 PUSH3 0x163 SWAP2 SWAP1 PUSH3 0x4E1 JUMP JUMPDEST POP PUSH1 0x40 MLOAD DUP1 PUSH1 0x20 ADD PUSH1 0x40 MSTORE DUP1 PUSH1 0x0 DUP2 MSTORE POP PUSH1 0x12 SWAP1 DUP2 PUSH3 0x184 SWAP2 SWAP1 PUSH3 0x4E1 JUMP JUMPDEST POP PUSH3 0x5C8 JUMP JUMPDEST PUSH1 0x0 CALLER SWAP1 POP SWAP1 JUMP JUMPDEST PUSH1 0x0 PUSH1 0xC PUSH1 0x0 SWAP1 SLOAD SWAP1 PUSH2 0x100 EXP SWAP1 DIV PUSH20 0xFFFFFFFFFFFFFFFFFFFFFFFFFFFFFFFFFFFFFFFF AND SWAP1 POP DUP2 PUSH1 0xC PUSH1 0x0 PUSH2 0x100 EXP DUP2 SLOAD DUP2 PUSH20 0xFFFFFFFFFFFFFFFFFFFFFFFFFFFFFFFFFFFFFFFF MUL NOT AND SWAP1 DUP4 PUSH20 0xFFFFFFFFFFFFFFFFFFFFFFFFFFFFFFFFFFFFFFFF AND MUL OR SWAP1 SSTORE POP DUP2 PUSH20 0xFFFFFFFFFFFFFFFFFFFFFFFFFFFFFFFFFFFFFFFF AND DUP2 PUSH20 0xFFFFFFFFFFFFFFFFFFFFFFFFFFFFFFFFFFFFFFFF AND PUSH32 0x8BE0079C531659141344CD1FD0A4F28419497F9722A3DAAFE3B4186F6B6457E0 PUSH1 0x40 MLOAD PUSH1 0x40 MLOAD DUP1 SWAP2 SUB SWAP1 LOG3 POP POP JUMP JUMPDEST PUSH2 0x3155 DUP1 PUSH3 0x5220 DUP4 CODECOPY ADD SWAP1 JUMP JUMPDEST PUSH1 0x0 DUP2 MLOAD SWAP1 POP SWAP2 SWAP1 POP JUMP JUMPDEST PUSH32 0x4E487B7100000000000000000000000000000000000000000000000000000000 PUSH1 0x0 MSTORE PUSH1 0x41 PUSH1 0x4 MSTORE PUSH1 0x24 PUSH1 0x0 REVERT JUMPDEST PUSH32 0x4E487B7100000000000000000000000000000000000000000000000000000000 PUSH1 0x0 MSTORE PUSH1 0x22 PUSH1 0x4 MSTORE PUSH1 0x24 PUSH1 0x0 REVERT JUMPDEST PUSH1 0x0 PUSH1 0x2 DUP3 DIV SWAP1 POP PUSH1 0x1 DUP3 AND DUP1 PUSH3 0x2E9 JUMPI PUSH1 0x7F DUP3 AND SWAP2 POP JUMPDEST PUSH1 0x20 DUP3 LT DUP2 SUB PUSH3 0x2FF JUMPI PUSH3 0x2FE PUSH3 0x2A1 JUMP JUMPDEST JUMPDEST POP SWAP2 SWAP1 POP JUMP JUMPDEST PUSH1 0x0 DUP2 SWAP1 POP DUP2 PUSH1 0x0 MSTORE PUSH1 0x20 PUSH1 0x0 KECCAK256 SWAP1 POP SWAP2 SWAP1 POP JUMP JUMPDEST PUSH1 0x0 PUSH1 0x20 PUSH1 0x1F DUP4 ADD DIV SWAP1 POP SWAP2 SWAP1 POP JUMP JUMPDEST PUSH1 0x0 DUP3 DUP3 SHL SWAP1 POP SWAP3 SWAP2 POP POP JUMP JUMPDEST PUSH1 0x0 PUSH1 0x8 DUP4 MUL PUSH3 0x369 PUSH32 0xFFFFFFFFFFFFFFFFFFFFFFFFFFFFFFFFFFFFFFFFFFFFFFFFFFFFFFFFFFFFFFFF DUP3 PUSH3 0x32A JUMP JUMPDEST PUSH3 0x375 DUP7 DUP4 PUSH3 0x32A JUMP JUMPDEST SWAP6 POP DUP1 NOT DUP5 AND SWAP4 POP DUP1 DUP7 AND DUP5 OR SWAP3 POP POP POP SWAP4 SWAP3 POP POP POP JUMP JUMPDEST PUSH1 0x0 DUP2 SWAP1 POP SWAP2 SWAP1 POP JUMP JUMPDEST PUSH1 0x0 DUP2 SWAP1 POP SWAP2 SWAP1 POP JUMP JUMPDEST PUSH1 0x0 PUSH3 0x3C2 PUSH3 0x3BC PUSH3 0x3B6 DUP5 PUSH3 0x38D JUMP JUMPDEST PUSH3 0x397 JUMP JUMPDEST PUSH3 0x38D JUMP JUMPDEST SWAP1 POP SWAP2 SWAP1 POP JUMP JUMPDEST PUSH1 0x0 DUP2 SWAP1 POP SWAP2 SWAP1 POP JUMP JUMPDEST PUSH3 0x3DE DUP4 PUSH3 0x3A1 JUMP JUMPDEST PUSH3 0x3F6 PUSH3 0x3ED DUP3 PUSH3 0x3C9 JUMP JUMPDEST DUP5 DUP5 SLOAD PUSH3 0x337 JUMP JUMPDEST DUP3 SSTORE POP POP POP POP JUMP JUMPDEST PUSH1 0x0 SWAP1 JUMP JUMPDEST PUSH3 0x40D PUSH3 0x3FE JUMP JUMPDEST PUSH3 0x41A DUP2 DUP5 DUP5 PUSH3 0x3D3 JUMP JUMPDEST POP POP POP JUMP JUMPDEST JUMPDEST DUP2 DUP2 LT ISZERO PUSH3 0x442 JUMPI PUSH3 0x436 PUSH1 0x0 DUP3 PUSH3 0x403 JUMP JUMPDEST PUSH1 0x1 DUP2 ADD SWAP1 POP PUSH3 0x420 JUMP JUMPDEST POP POP JUMP JUMPDEST PUSH1 0x1F DUP3 GT ISZERO PUSH3 0x491 JUMPI PUSH3 0x45B DUP2 PUSH3 0x305 JUMP JUMPDEST PUSH3 0x466 DUP5 PUSH3 0x31A JUMP JUMPDEST DUP2 ADD PUSH1 0x20 DUP6 LT ISZERO PUSH3 0x476 JUMPI DUP2 SWAP1 POP JUMPDEST PUSH3 0x48E PUSH3 0x485 DUP6 PUSH3 0x31A JUMP JUMPDEST DUP4 ADD DUP3 PUSH3 0x41F JUMP JUMPDEST POP POP JUMPDEST POP POP POP JUMP JUMPDEST PUSH1 0x0 DUP3 DUP3 SHR SWAP1 POP SWAP3 SWAP2 POP POP JUMP JUMPDEST PUSH1 0x0 PUSH3 0x4B6 PUSH1 0x0 NOT DUP5 PUSH1 0x8 MUL PUSH3 0x496 JUMP JUMPDEST NOT DUP1 DUP4 AND SWAP2 POP POP SWAP3 SWAP2 POP POP JUMP JUMPDEST PUSH1 0x0 PUSH3 0x4D1 DUP4 DUP4 PUSH3 0x4A3 JUMP JUMPDEST SWAP2 POP DUP3 PUSH1 0x2 MUL DUP3 OR SWAP1 POP SWAP3 SWAP2 POP POP JUMP JUMPDEST PUSH3 0x4EC DUP3 PUSH3 0x267 JUMP JUMPDEST PUSH8 0xFFFFFFFFFFFFFFFF DUP2 GT ISZERO PUSH3 0x508 JUMPI PUSH3 0x507 PUSH3 0x272 JUMP JUMPDEST JUMPDEST PUSH3 0x514 DUP3 SLOAD PUSH3 0x2D0 JUMP JUMPDEST PUSH3 0x521 DUP3 DUP3 DUP6 PUSH3 0x446 JUMP JUMPDEST PUSH1 0x0 PUSH1 0x20 SWAP1 POP PUSH1 0x1F DUP4 GT PUSH1 0x1 DUP2 EQ PUSH3 0x559 JUMPI PUSH1 0x0 DUP5 ISZERO PUSH3 0x544 JUMPI DUP3 DUP8 ADD MLOAD SWAP1 POP JUMPDEST PUSH3 0x550 DUP6 DUP3 PUSH3 0x4C3 JUMP JUMPDEST DUP7 SSTORE POP PUSH3 0x5C0 JUMP JUMPDEST PUSH1 0x1F NOT DUP5 AND PUSH3 0x569 DUP7 PUSH3 0x305 JUMP JUMPDEST PUSH1 0x0 JUMPDEST DUP3 DUP2 LT ISZERO PUSH3 0x593 JUMPI DUP5 DUP10 ADD MLOAD DUP3 SSTORE PUSH1 0x1 DUP3 ADD SWAP2 POP PUSH1 0x20 DUP6 ADD SWAP5 POP PUSH1 0x20 DUP2 ADD SWAP1 POP PUSH3 0x56C JUMP JUMPDEST DUP7 DUP4 LT ISZERO PUSH3 0x5B3 JUMPI DUP5 DUP10 ADD MLOAD PUSH3 0x5AF PUSH1 0x1F DUP10 AND DUP3 PUSH3 0x4A3 JUMP JUMPDEST DUP4 SSTORE POP JUMPDEST PUSH1 0x1 PUSH1 0x2 DUP9 MUL ADD DUP9 SSTORE POP POP POP JUMPDEST POP POP POP POP POP POP JUMP JUMPDEST PUSH2 0x4C48 DUP1 PUSH3 0x5D8 PUSH1 0x0 CODECOPY PUSH1 0x0 RETURN INVALID PUSH1 0x80 PUSH1 0x40 MSTORE PUSH1 0x4 CALLDATASIZE LT PUSH2 0x1D7 JUMPI PUSH1 0x0 CALLDATALOAD PUSH1 0xE0 SHR DUP1 PUSH4 0x6352211E GT PUSH2 0x102 JUMPI DUP1 PUSH4 0xB88D4FDE GT PUSH2 0x95 JUMPI DUP1 PUSH4 0xE985E9C5 GT PUSH2 0x64 JUMPI DUP1 PUSH4 0xE985E9C5 EQ PUSH2 0x69A JUMPI DUP1 PUSH4 0xF2FDE38B EQ PUSH2 0x6D7 JUMPI DUP1 PUSH4 0xF47C84C5 EQ PUSH2 0x700 JUMPI DUP1 PUSH4 0xF4A0A528 EQ PUSH2 0x72B JUMPI PUSH2 0x1D7 JUMP JUMPDEST DUP1 PUSH4 0xB88D4FDE EQ PUSH2 0x5E0 JUMPI DUP1 PUSH4 0xC87B56DD EQ PUSH2 0x609 JUMPI DUP1 PUSH4 0xCBCE4C97 EQ PUSH2 0x646 JUMPI DUP1 PUSH4 0xD40DC870 EQ PUSH2 0x66F JUMPI PUSH2 0x1D7 JUMP JUMPDEST DUP1 PUSH4 0x95D89B41 GT PUSH2 0xD1 JUMPI DUP1 PUSH4 0x95D89B41 EQ PUSH2 0x545 JUMPI DUP1 PUSH4 0xA0712D68 EQ PUSH2 0x570 JUMPI DUP1 PUSH4 0xA22CB465 EQ PUSH2 0x58C JUMPI DUP1 PUSH4 0xA7796D03 EQ PUSH2 0x5B5 JUMPI PUSH2 0x1D7 JUMP JUMPDEST DUP1 PUSH4 0x6352211E EQ PUSH2 0x489 JUMPI DUP1 PUSH4 0x70A08231 EQ PUSH2 0x4C6 JUMPI DUP1 PUSH4 0x715018A6 EQ PUSH2 0x503 JUMPI DUP1 PUSH4 0x8DA5CB5B EQ PUSH2 0x51A JUMPI PUSH2 0x1D7 JUMP JUMPDEST DUP1 PUSH4 0x18160DDD GT PUSH2 0x17A JUMPI DUP1 PUSH4 0x3CCFD60B GT PUSH2 0x149 JUMPI DUP1 PUSH4 0x3CCFD60B EQ PUSH2 0x3E3 JUMPI DUP1 PUSH4 0x42842E0E EQ PUSH2 0x3FA JUMPI DUP1 PUSH4 0x4F6CCCE7 EQ PUSH2 0x423 JUMPI DUP1 PUSH4 0x5CBFEDC9 EQ PUSH2 0x460 JUMPI PUSH2 0x1D7 JUMP JUMPDEST DUP1 PUSH4 0x18160DDD EQ PUSH2 0x329 JUMPI DUP1 PUSH4 0x23B872DD EQ PUSH2 0x354 JUMPI DUP1 PUSH4 0x28E56C5E EQ PUSH2 0x37D JUMPI DUP1 PUSH4 0x2F745C59 EQ PUSH2 0x3A6 JUMPI PUSH2 0x1D7 JUMP JUMPDEST DUP1 PUSH4 0x387DA42 GT PUSH2 0x1B6 JUMPI DUP1 PUSH4 0x387DA42 EQ PUSH2 0x26D JUMPI DUP1 PUSH4 0x6FDDE03 EQ PUSH2 0x298 JUMPI DUP1 PUSH4 0x81812FC EQ PUSH2 0x2C3 JUMPI DUP1 PUSH4 0x95EA7B3 EQ PUSH2 0x300 JUMPI PUSH2 0x1D7 JUMP JUMPDEST DUP1 PUSH3 0x75A317 EQ PUSH2 0x1DC JUMPI DUP1 PUSH4 0x12F1738 EQ PUSH2 0x205 JUMPI DUP1 PUSH4 0x1FFC9A7 EQ PUSH2 0x230 JUMPI JUMPDEST PUSH1 0x0 DUP1 REVERT JUMPDEST CALLVALUE DUP1 ISZERO PUSH2 0x1E8 JUMPI PUSH1 0x0 DUP1 REVERT JUMPDEST POP PUSH2 0x203 PUSH1 0x4 DUP1 CALLDATASIZE SUB DUP2 ADD SWAP1 PUSH2 0x1FE SWAP2 SWAP1 PUSH2 0x3107 JUMP JUMPDEST PUSH2 0x754 JUMP JUMPDEST STOP JUMPDEST CALLVALUE DUP1 ISZERO PUSH2 0x211 JUMPI PUSH1 0x0 DUP1 REVERT JUMPDEST POP PUSH2 0x21A PUSH2 0x7E5 JUMP JUMPDEST PUSH1 0x40 MLOAD PUSH2 0x227 SWAP2 SWAP1 PUSH2 0x31E2 JUMP JUMPDEST PUSH1 0x40 MLOAD DUP1 SWAP2 SUB SWAP1 RETURN JUMPDEST CALLVALUE DUP1 ISZERO PUSH2 0x23C JUMPI PUSH1 0x0 DUP1 REVERT JUMPDEST POP PUSH2 0x257 PUSH1 0x4 DUP1 CALLDATASIZE SUB DUP2 ADD SWAP1 PUSH2 0x252 SWAP2 SWAP1 PUSH2 0x325C JUMP JUMPDEST PUSH2 0x873 JUMP JUMPDEST PUSH1 0x40 MLOAD PUSH2 0x264 SWAP2 SWAP1 PUSH2 0x32A4 JUMP JUMPDEST PUSH1 0x40 MLOAD DUP1 SWAP2 SUB SWAP1 RETURN JUMPDEST CALLVALUE DUP1 ISZERO PUSH2 0x279 JUMPI PUSH1 0x0 DUP1 REVERT JUMPDEST POP PUSH2 0x282 PUSH2 0x885 JUMP JUMPDEST PUSH1 0x40 MLOAD PUSH2 0x28F SWAP2 SWAP1 PUSH2 0x32D8 JUMP JUMPDEST PUSH1 0x40 MLOAD DUP1 SWAP2 SUB SWAP1 RETURN JUMPDEST CALLVALUE DUP1 ISZERO PUSH2 0x2A4 JUMPI PUSH1 0x0 DUP1 REVERT JUMPDEST POP PUSH2 0x2AD PUSH2 0x88B JUMP JUMPDEST PUSH1 0x40 MLOAD PUSH2 0x2BA SWAP2 SWAP1 PUSH2 0x31E2 JUMP JUMPDEST PUSH1 0x40 MLOAD DUP1 SWAP2 SUB SWAP1 RETURN JUMPDEST CALLVALUE DUP1 ISZERO PUSH2 0x2CF JUMPI PUSH1 0x0 DUP1 REVERT JUMPDEST POP PUSH2 0x2EA PUSH1 0x4 DUP1 CALLDATASIZE SUB DUP2 ADD SWAP1 PUSH2 0x2E5 SWAP2 SWAP1 PUSH2 0x331F JUMP JUMPDEST PUSH2 0x91D JUMP JUMPDEST PUSH1 0x40 MLOAD PUSH2 0x2F7 SWAP2 SWAP1 PUSH2 0x335B JUMP JUMPDEST PUSH1 0x40 MLOAD DUP1 SWAP2 SUB SWAP1 RETURN JUMPDEST CALLVALUE DUP1 ISZERO PUSH2 0x30C JUMPI PUSH1 0x0 DUP1 REVERT JUMPDEST POP PUSH2 0x327 PUSH1 0x4 DUP1 CALLDATASIZE SUB DUP2 ADD SWAP1 PUSH2 0x322 SWAP2 SWAP1 PUSH2 0x3376 JUMP JUMPDEST PUSH2 0x963 JUMP JUMPDEST STOP JUMPDEST CALLVALUE DUP1 ISZERO PUSH2 0x335 JUMPI PUSH1 0x0 DUP1 REVERT JUMPDEST POP PUSH2 0x33E PUSH2 0xA7A JUMP JUMPDEST PUSH1 0x40 MLOAD PUSH2 0x34B SWAP2 SWAP1 PUSH2 0x32D8 JUMP JUMPDEST PUSH1 0x40 MLOAD DUP1 SWAP2 SUB SWAP1 RETURN JUMPDEST CALLVALUE DUP1 ISZERO PUSH2 0x360 JUMPI PUSH1 0x0 DUP1 REVERT JUMPDEST POP PUSH2 0x37B PUSH1 0x4 DUP1 CALLDATASIZE SUB DUP2 ADD SWAP1 PUSH2 0x376 SWAP2 SWAP1 PUSH2 0x33B6 JUMP JUMPDEST PUSH2 0xA87 JUMP JUMPDEST STOP JUMPDEST CALLVALUE DUP1 ISZERO PUSH2 0x389 JUMPI PUSH1 0x0 DUP1 REVERT JUMPDEST POP PUSH2 0x3A4 PUSH1 0x4 DUP1 CALLDATASIZE SUB DUP2 ADD SWAP1 PUSH2 0x39F SWAP2 SWAP1 PUSH2 0x3409 JUMP JUMPDEST PUSH2 0xAE7 JUMP JUMPDEST STOP JUMPDEST CALLVALUE DUP1 ISZERO PUSH2 0x3B2 JUMPI PUSH1 0x0 DUP1 REVERT JUMPDEST POP PUSH2 0x3CD PUSH1 0x4 DUP1 CALLDATASIZE SUB DUP2 ADD SWAP1 PUSH2 0x3C8 SWAP2 SWAP1 PUSH2 0x3376 JUMP JUMPDEST PUSH2 0xB02 JUMP JUMPDEST PUSH1 0x40 MLOAD PUSH2 0x3DA SWAP2 SWAP1 PUSH2 0x32D8 JUMP JUMPDEST PUSH1 0x40 MLOAD DUP1 SWAP2 SUB SWAP1 RETURN JUMPDEST CALLVALUE DUP1 ISZERO PUSH2 0x3EF JUMPI PUSH1 0x0 DUP1 REVERT JUMPDEST POP PUSH2 0x3F8 PUSH2 0xBA7 JUMP JUMPDEST STOP JUMPDEST CALLVALUE DUP1 ISZERO PUSH2 0x406 JUMPI PUSH1 0x0 DUP1 REVERT JUMPDEST POP PUSH2 0x421 PUSH1 0x4 DUP1 CALLDATASIZE SUB DUP2 ADD SWAP1 PUSH2 0x41C SWAP2 SWAP1 PUSH2 0x33B6 JUMP JUMPDEST PUSH2 0xCA7 JUMP JUMPDEST STOP JUMPDEST CALLVALUE DUP1 ISZERO PUSH2 0x42F JUMPI PUSH1 0x0 DUP1 REVERT JUMPDEST POP PUSH2 0x44A PUSH1 0x4 DUP1 CALLDATASIZE SUB DUP2 ADD SWAP1 PUSH2 0x445 SWAP2 SWAP1 PUSH2 0x331F JUMP JUMPDEST PUSH2 0xCC7 JUMP JUMPDEST PUSH1 0x40 MLOAD PUSH2 0x457 SWAP2 SWAP1 PUSH2 0x32D8 JUMP JUMPDEST PUSH1 0x40 MLOAD DUP1 SWAP2 SUB SWAP1 RETURN JUMPDEST CALLVALUE DUP1 ISZERO PUSH2 0x46C JUMPI PUSH1 0x0 DUP1 REVERT JUMPDEST POP PUSH2 0x487 PUSH1 0x4 DUP1 CALLDATASIZE SUB DUP2 ADD SWAP1 PUSH2 0x482 SWAP2 SWAP1 PUSH2 0x3409 JUMP JUMPDEST PUSH2 0xD38 JUMP JUMPDEST STOP JUMPDEST CALLVALUE DUP1 ISZERO PUSH2 0x495 JUMPI PUSH1 0x0 DUP1 REVERT JUMPDEST POP PUSH2 0x4B0 PUSH1 0x4 DUP1 CALLDATASIZE SUB DUP2 ADD SWAP1 PUSH2 0x4AB SWAP2 SWAP1 PUSH2 0x331F JUMP JUMPDEST PUSH2 0xD53 JUMP JUMPDEST PUSH1 0x40 MLOAD PUSH2 0x4BD SWAP2 SWAP1 PUSH2 0x335B JUMP JUMPDEST PUSH1 0x40 MLOAD DUP1 SWAP2 SUB SWAP1 RETURN JUMPDEST CALLVALUE DUP1 ISZERO PUSH2 0x4D2 JUMPI PUSH1 0x0 DUP1 REVERT JUMPDEST POP PUSH2 0x4ED PUSH1 0x4 DUP1 CALLDATASIZE SUB DUP2 ADD SWAP1 PUSH2 0x4E8 SWAP2 SWAP1 PUSH2 0x3452 JUMP JUMPDEST PUSH2 0xDD9 JUMP JUMPDEST PUSH1 0x40 MLOAD PUSH2 0x4FA SWAP2 SWAP1 PUSH2 0x32D8 JUMP JUMPDEST PUSH1 0x40 MLOAD DUP1 SWAP2 SUB SWAP1 RETURN JUMPDEST CALLVALUE DUP1 ISZERO PUSH2 0x50F JUMPI PUSH1 0x0 DUP1 REVERT JUMPDEST POP PUSH2 0x518 PUSH2 0xE90 JUMP JUMPDEST STOP JUMPDEST CALLVALUE DUP1 ISZERO PUSH2 0x526 JUMPI PUSH1 0x0 DUP1 REVERT JUMPDEST POP PUSH2 0x52F PUSH2 0xEA4 JUMP JUMPDEST PUSH1 0x40 MLOAD PUSH2 0x53C SWAP2 SWAP1 PUSH2 0x335B JUMP JUMPDEST PUSH1 0x40 MLOAD DUP1 SWAP2 SUB SWAP1 RETURN JUMPDEST CALLVALUE DUP1 ISZERO PUSH2 0x551 JUMPI PUSH1 0x0 DUP1 REVERT JUMPDEST POP PUSH2 0x55A PUSH2 0xECE JUMP JUMPDEST PUSH1 0x40 MLOAD PUSH2 0x567 SWAP2 SWAP1 PUSH2 0x31E2 JUMP JUMPDEST PUSH1 0x40 MLOAD DUP1 SWAP2 SUB SWAP1 RETURN JUMPDEST PUSH2 0x58A PUSH1 0x4 DUP1 CALLDATASIZE SUB DUP2 ADD SWAP1 PUSH2 0x585 SWAP2 SWAP1 PUSH2 0x331F JUMP JUMPDEST PUSH2 0xF60 JUMP JUMPDEST STOP JUMPDEST CALLVALUE DUP1 ISZERO PUSH2 0x598 JUMPI PUSH1 0x0 DUP1 REVERT JUMPDEST POP PUSH2 0x5B3 PUSH1 0x4 DUP1 CALLDATASIZE SUB DUP2 ADD SWAP1 PUSH2 0x5AE SWAP2 SWAP1 PUSH2 0x34AB JUMP JUMPDEST PUSH2 0x128B JUMP JUMPDEST STOP JUMPDEST CALLVALUE DUP1 ISZERO PUSH2 0x5C1 JUMPI PUSH1 0x0 DUP1 REVERT JUMPDEST POP PUSH2 0x5CA PUSH2 0x12A1 JUMP JUMPDEST PUSH1 0x40 MLOAD PUSH2 0x5D7 SWAP2 SWAP1 PUSH2 0x31E2 JUMP JUMPDEST PUSH1 0x40 MLOAD DUP1 SWAP2 SUB SWAP1 RETURN JUMPDEST CALLVALUE DUP1 ISZERO PUSH2 0x5EC JUMPI PUSH1 0x0 DUP1 REVERT JUMPDEST POP PUSH2 0x607 PUSH1 0x4 DUP1 CALLDATASIZE SUB DUP2 ADD SWAP1 PUSH2 0x602 SWAP2 SWAP1 PUSH2 0x358C JUMP JUMPDEST PUSH2 0x132F JUMP JUMPDEST STOP JUMPDEST CALLVALUE DUP1 ISZERO PUSH2 0x615 JUMPI PUSH1 0x0 DUP1 REVERT JUMPDEST POP PUSH2 0x630 PUSH1 0x4 DUP1 CALLDATASIZE SUB DUP2 ADD SWAP1 PUSH2 0x62B SWAP2 SWAP1 PUSH2 0x331F JUMP JUMPDEST PUSH2 0x1391 JUMP JUMPDEST PUSH1 0x40 MLOAD PUSH2 0x63D SWAP2 SWAP1 PUSH2 0x31E2 JUMP JUMPDEST PUSH1 0x40 MLOAD DUP1 SWAP2 SUB SWAP1 RETURN JUMPDEST CALLVALUE DUP1 ISZERO PUSH2 0x652 JUMPI PUSH1 0x0 DUP1 REVERT JUMPDEST POP PUSH2 0x66D PUSH1 0x4 DUP1 CALLDATASIZE SUB DUP2 ADD SWAP1 PUSH2 0x668 SWAP2 SWAP1 PUSH2 0x3376 JUMP JUMPDEST PUSH2 0x16C5 JUMP JUMPDEST STOP JUMPDEST CALLVALUE DUP1 ISZERO PUSH2 0x67B JUMPI PUSH1 0x0 DUP1 REVERT JUMPDEST POP PUSH2 0x684 PUSH2 0x188A JUMP JUMPDEST PUSH1 0x40 MLOAD PUSH2 0x691 SWAP2 SWAP1 PUSH2 0x32D8 JUMP JUMPDEST PUSH1 0x40 MLOAD DUP1 SWAP2 SUB SWAP1 RETURN JUMPDEST CALLVALUE DUP1 ISZERO PUSH2 0x6A6 JUMPI PUSH1 0x0 DUP1 REVERT JUMPDEST POP PUSH2 0x6C1 PUSH1 0x4 DUP1 CALLDATASIZE SUB DUP2 ADD SWAP1 PUSH2 0x6BC SWAP2 SWAP1 PUSH2 0x360F JUMP JUMPDEST PUSH2 0x188F JUMP JUMPDEST PUSH1 0x40 MLOAD PUSH2 0x6CE SWAP2 SWAP1 PUSH2 0x32A4 JUMP JUMPDEST PUSH1 0x40 MLOAD DUP1 SWAP2 SUB SWAP1 RETURN JUMPDEST CALLVALUE DUP1 ISZERO PUSH2 0x6E3 JUMPI PUSH1 0x0 DUP1 REVERT JUMPDEST POP PUSH2 0x6FE PUSH1 0x4 DUP1 CALLDATASIZE SUB DUP2 ADD SWAP1 PUSH2 0x6F9 SWAP2 SWAP1 PUSH2 0x3452 JUMP JUMPDEST PUSH2 0x1923 JUMP JUMPDEST STOP JUMPDEST CALLVALUE DUP1 ISZERO PUSH2 0x70C JUMPI PUSH1 0x0 DUP1 REVERT JUMPDEST POP PUSH2 0x715 PUSH2 0x19A6 JUMP JUMPDEST PUSH1 0x40 MLOAD PUSH2 0x722 SWAP2 SWAP1 PUSH2 0x32D8 JUMP JUMPDEST PUSH1 0x40 MLOAD DUP1 SWAP2 SUB SWAP1 RETURN JUMPDEST CALLVALUE DUP1 ISZERO PUSH2 0x737 JUMPI PUSH1 0x0 DUP1 REVERT JUMPDEST POP PUSH2 0x752 PUSH1 0x4 DUP1 CALLDATASIZE SUB DUP2 ADD SWAP1 PUSH2 0x74D SWAP2 SWAP1 PUSH2 0x331F JUMP JUMPDEST PUSH2 0x19AC JUMP JUMPDEST STOP JUMPDEST PUSH2 0x75C PUSH2 0x19BE JUMP JUMPDEST PUSH2 0x766 PUSH1 0x10 PUSH2 0x1A3C JUMP JUMPDEST PUSH1 0x0 PUSH2 0x772 PUSH1 0x10 PUSH2 0x1A52 JUMP JUMPDEST SWAP1 POP PUSH2 0x77E DUP4 DUP3 PUSH2 0x1A60 JUMP JUMPDEST PUSH2 0x788 DUP2 DUP4 PUSH2 0x1A7E JUMP JUMPDEST PUSH1 0x1 PUSH1 0xE PUSH1 0x0 DUP6 PUSH20 0xFFFFFFFFFFFFFFFFFFFFFFFFFFFFFFFFFFFFFFFF AND PUSH20 0xFFFFFFFFFFFFFFFFFFFFFFFFFFFFFFFFFFFFFFFF AND DUP2 MSTORE PUSH1 0x20 ADD SWAP1 DUP2 MSTORE PUSH1 0x20 ADD PUSH1 0x0 KECCAK256 PUSH1 0x0 PUSH2 0x100 EXP DUP2 SLOAD DUP2 PUSH1 0xFF MUL NOT AND SWAP1 DUP4 ISZERO ISZERO MUL OR SWAP1 SSTORE POP POP POP POP JUMP JUMPDEST PUSH1 0x12 DUP1 SLOAD PUSH2 0x7F2 SWAP1 PUSH2 0x367E JUMP JUMPDEST DUP1 PUSH1 0x1F ADD PUSH1 0x20 DUP1 SWAP2 DIV MUL PUSH1 0x20 ADD PUSH1 0x40 MLOAD SWAP1 DUP2 ADD PUSH1 0x40 MSTORE DUP1 SWAP3 SWAP2 SWAP1 DUP2 DUP2 MSTORE PUSH1 0x20 ADD DUP3 DUP1 SLOAD PUSH2 0x81E SWAP1 PUSH2 0x367E JUMP JUMPDEST DUP1 ISZERO PUSH2 0x86B JUMPI DUP1 PUSH1 0x1F LT PUSH2 0x840 JUMPI PUSH2 0x100 DUP1 DUP4 SLOAD DIV MUL DUP4 MSTORE SWAP2 PUSH1 0x20 ADD SWAP2 PUSH2 0x86B JUMP JUMPDEST DUP3 ADD SWAP2 SWAP1 PUSH1 0x0 MSTORE PUSH1 0x20 PUSH1 0x0 KECCAK256 SWAP1 JUMPDEST DUP2 SLOAD DUP2 MSTORE SWAP1 PUSH1 0x1 ADD SWAP1 PUSH1 0x20 ADD DUP1 DUP4 GT PUSH2 0x84E JUMPI DUP3 SWAP1 SUB PUSH1 0x1F AND DUP3 ADD SWAP2 JUMPDEST POP POP POP POP POP DUP2 JUMP JUMPDEST PUSH1 0x0 PUSH2 0x87E DUP3 PUSH2 0x1B22 JUMP JUMPDEST SWAP1 POP SWAP2 SWAP1 POP JUMP JUMPDEST PUSH1 0xF SLOAD DUP2 JUMP JUMPDEST PUSH1 0x60 PUSH1 0x1 DUP1 SLOAD PUSH2 0x89A SWAP1 PUSH2 0x367E JUMP JUMPDEST DUP1 PUSH1 0x1F ADD PUSH1 0x20 DUP1 SWAP2 DIV MUL PUSH1 0x20 ADD PUSH1 0x40 MLOAD SWAP1 DUP2 ADD PUSH1 0x40 MSTORE DUP1 SWAP3 SWAP2 SWAP1 DUP2 DUP2 MSTORE PUSH1 0x20 ADD DUP3 DUP1 SLOAD PUSH2 0x8C6 SWAP1 PUSH2 0x367E JUMP JUMPDEST DUP1 ISZERO PUSH2 0x913 JUMPI DUP1 PUSH1 0x1F LT PUSH2 0x8E8 JUMPI PUSH2 0x100 DUP1 DUP4 SLOAD DIV MUL DUP4 MSTORE SWAP2 PUSH1 0x20 ADD SWAP2 PUSH2 0x913 JUMP JUMPDEST DUP3 ADD SWAP2 SWAP1 PUSH1 0x0 MSTORE PUSH1 0x20 PUSH1 0x0 KECCAK256 SWAP1 JUMPDEST DUP2 SLOAD DUP2 MSTORE SWAP1 PUSH1 0x1 ADD SWAP1 PUSH1 0x20 ADD DUP1 DUP4 GT PUSH2 0x8F6 JUMPI DUP3 SWAP1 SUB PUSH1 0x1F AND DUP3 ADD SWAP2 JUMPDEST POP POP POP POP POP SWAP1 POP SWAP1 JUMP JUMPDEST PUSH1 0x0 PUSH2 0x928 DUP3 PUSH2 0x1B83 JUMP JUMPDEST PUSH1 0x5 PUSH1 0x0 DUP4 DUP2 MSTORE PUSH1 0x20 ADD SWAP1 DUP2 MSTORE PUSH1 0x20 ADD PUSH1 0x0 KECCAK256 PUSH1 0x0 SWAP1 SLOAD SWAP1 PUSH2 0x100 EXP SWAP1 DIV PUSH20 0xFFFFFFFFFFFFFFFFFFFFFFFFFFFFFFFFFFFFFFFF AND SWAP1 POP SWAP2 SWAP1 POP JUMP JUMPDEST PUSH1 0x0 PUSH2 0x96E DUP3 PUSH2 0xD53 JUMP JUMPDEST SWAP1 POP DUP1 PUSH20 0xFFFFFFFFFFFFFFFFFFFFFFFFFFFFFFFFFFFFFFFF AND DUP4 PUSH20 0xFFFFFFFFFFFFFFFFFFFFFFFFFFFFFFFFFFFFFFFF AND SUB PUSH2 0x9DE JUMPI PUSH1 0x40 MLOAD PUSH32 0x8C379A000000000000000000000000000000000000000000000000000000000 DUP2 MSTORE PUSH1 0x4 ADD PUSH2 0x9D5 SWAP1 PUSH2 0x3721 JUMP JUMPDEST PUSH1 0x40 MLOAD DUP1 SWAP2 SUB SWAP1 REVERT JUMPDEST DUP1 PUSH20 0xFFFFFFFFFFFFFFFFFFFFFFFFFFFFFFFFFFFFFFFF AND PUSH2 0x9FD PUSH2 0x1BCE JUMP JUMPDEST PUSH20 0xFFFFFFFFFFFFFFFFFFFFFFFFFFFFFFFFFFFFFFFF AND EQ DUP1 PUSH2 0xA2C JUMPI POP PUSH2 0xA2B DUP2 PUSH2 0xA26 PUSH2 0x1BCE JUMP JUMPDEST PUSH2 0x188F JUMP JUMPDEST JUMPDEST PUSH2 0xA6B JUMPI PUSH1 0x40 MLOAD PUSH32 0x8C379A000000000000000000000000000000000000000000000000000000000 DUP2 MSTORE PUSH1 0x4 ADD PUSH2 0xA62 SWAP1 PUSH2 0x37B3 JUMP JUMPDEST PUSH1 0x40 MLOAD DUP1 SWAP2 SUB SWAP1 REVERT JUMPDEST PUSH2 0xA75 DUP4 DUP4 PUSH2 0x1BD6 JUMP JUMPDEST POP POP POP JUMP JUMPDEST PUSH1 0x0 PUSH1 0x9 DUP1 SLOAD SWAP1 POP SWAP1 POP SWAP1 JUMP JUMPDEST PUSH2 0xA98 PUSH2 0xA92 PUSH2 0x1BCE JUMP JUMPDEST DUP3 PUSH2 0x1C8F JUMP JUMPDEST PUSH2 0xAD7 JUMPI PUSH1 0x40 MLOAD PUSH32 0x8C379A000000000000000000000000000000000000000000000000000000000 DUP2 MSTORE PUSH1 0x4 ADD PUSH2 0xACE SWAP1 PUSH2 0x3845 JUMP JUMPDEST PUSH1 0x40 MLOAD DUP1 SWAP2 SUB SWAP1 REVERT JUMPDEST PUSH2 0xAE2 DUP4 DUP4 DUP4 PUSH2 0x1D24 JUMP JUMPDEST POP POP POP JUMP JUMPDEST PUSH2 0xAEF PUSH2 0x19BE JUMP JUMPDEST DUP1 PUSH1 0x11 SWAP1 DUP2 PUSH2 0xAFE SWAP2 SWAP1 PUSH2 0x3A11 JUMP JUMPDEST POP POP JUMP JUMPDEST PUSH1 0x0 PUSH2 0xB0D DUP4 PUSH2 0xDD9 JUMP JUMPDEST DUP3 LT PUSH2 0xB4E JUMPI PUSH1 0x40 MLOAD PUSH32 0x8C379A000000000000000000000000000000000000000000000000000000000 DUP2 MSTORE PUSH1 0x4 ADD PUSH2 0xB45 SWAP1 PUSH2 0x3B55 JUMP JUMPDEST PUSH1 0x40 MLOAD DUP1 SWAP2 SUB SWAP1 REVERT JUMPDEST PUSH1 0x7 PUSH1 0x0 DUP5 PUSH20 0xFFFFFFFFFFFFFFFFFFFFFFFFFFFFFFFFFFFFFFFF AND PUSH20 0xFFFFFFFFFFFFFFFFFFFFFFFFFFFFFFFFFFFFFFFF AND DUP2 MSTORE PUSH1 0x20 ADD SWAP1 DUP2 MSTORE PUSH1 0x20 ADD PUSH1 0x0 KECCAK256 PUSH1 0x0 DUP4 DUP2 MSTORE PUSH1 0x20 ADD SWAP1 DUP2 MSTORE PUSH1 0x20 ADD PUSH1 0x0 KECCAK256 SLOAD SWAP1 POP SWAP3 SWAP2 POP POP JUMP JUMPDEST PUSH2 0xBAF PUSH2 0x19BE JUMP JUMPDEST PUSH1 0x0 SELFBALANCE SWAP1 POP PUSH1 0x0 DUP2 GT PUSH2 0xBF7 JUMPI PUSH1 0x40 MLOAD PUSH32 0x8C379A000000000000000000000000000000000000000000000000000000000 DUP2 MSTORE PUSH1 0x4 ADD PUSH2 0xBEE SWAP1 PUSH2 0x3BC1 JUMP JUMPDEST PUSH1 0x40 MLOAD DUP1 SWAP2 SUB SWAP1 REVERT JUMPDEST PUSH1 0x0 CALLER PUSH20 0xFFFFFFFFFFFFFFFFFFFFFFFFFFFFFFFFFFFFFFFF AND DUP3 PUSH1 0x40 MLOAD PUSH2 0xC1D SWAP1 PUSH2 0x3C12 JUMP JUMPDEST PUSH1 0x0 PUSH1 0x40 MLOAD DUP1 DUP4 SUB DUP2 DUP6 DUP8 GAS CALL SWAP3 POP POP POP RETURNDATASIZE DUP1 PUSH1 0x0 DUP2 EQ PUSH2 0xC5A JUMPI PUSH1 0x40 MLOAD SWAP2 POP PUSH1 0x1F NOT PUSH1 0x3F RETURNDATASIZE ADD AND DUP3 ADD PUSH1 0x40 MSTORE RETURNDATASIZE DUP3 MSTORE RETURNDATASIZE PUSH1 0x0 PUSH1 0x20 DUP5 ADD RETURNDATACOPY PUSH2 0xC5F JUMP JUMPDEST PUSH1 0x60 SWAP2 POP JUMPDEST POP POP SWAP1 POP DUP1 PUSH2 0xCA3 JUMPI PUSH1 0x40 MLOAD PUSH32 0x8C379A000000000000000000000000000000000000000000000000000000000 DUP2 MSTORE PUSH1 0x4 ADD PUSH2 0xC9A SWAP1 PUSH2 0x3C73 JUMP JUMPDEST PUSH1 0x40 MLOAD DUP1 SWAP2 SUB SWAP1 REVERT JUMPDEST POP POP JUMP JUMPDEST PUSH2 0xCC2 DUP4 DUP4 DUP4 PUSH1 0x40 MLOAD DUP1 PUSH1 0x20 ADD PUSH1 0x40 MSTORE DUP1 PUSH1 0x0 DUP2 MSTORE POP PUSH2 0x132F JUMP JUMPDEST POP POP POP JUMP JUMPDEST PUSH1 0x0 PUSH2 0xCD1 PUSH2 0xA7A JUMP JUMPDEST DUP3 LT PUSH2 0xD12 JUMPI PUSH1 0x40 MLOAD PUSH32 0x8C379A000000000000000000000000000000000000000000000000000000000 DUP2 MSTORE PUSH1 0x4 ADD PUSH2 0xD09 SWAP1 PUSH2 0x3D05 JUMP JUMPDEST PUSH1 0x40 MLOAD DUP1 SWAP2 SUB SWAP1 REVERT JUMPDEST PUSH1 0x9 DUP3 DUP2 SLOAD DUP2 LT PUSH2 0xD26 JUMPI PUSH2 0xD25 PUSH2 0x3D25 JUMP JUMPDEST JUMPDEST SWAP1 PUSH1 0x0 MSTORE PUSH1 0x20 PUSH1 0x0 KECCAK256 ADD SLOAD SWAP1 POP SWAP2 SWAP1 POP JUMP JUMPDEST PUSH2 0xD40 PUSH2 0x19BE JUMP JUMPDEST DUP1 PUSH1 0x12 SWAP1 DUP2 PUSH2 0xD4F SWAP2 SWAP1 PUSH2 0x3A11 JUMP JUMPDEST POP POP JUMP JUMPDEST PUSH1 0x0 DUP1 PUSH2 0xD5F DUP4 PUSH2 0x201D JUMP JUMPDEST SWAP1 POP PUSH1 0x0 PUSH20 0xFFFFFFFFFFFFFFFFFFFFFFFFFFFFFFFFFFFFFFFF AND DUP2 PUSH20 0xFFFFFFFFFFFFFFFFFFFFFFFFFFFFFFFFFFFFFFFF AND SUB PUSH2 0xDD0 JUMPI PUSH1 0x40 MLOAD PUSH32 0x8C379A000000000000000000000000000000000000000000000000000000000 DUP2 MSTORE PUSH1 0x4 ADD PUSH2 0xDC7 SWAP1 PUSH2 0x3DA0 JUMP JUMPDEST PUSH1 0x40 MLOAD DUP1 SWAP2 SUB SWAP1 REVERT JUMPDEST DUP1 SWAP2 POP POP SWAP2 SWAP1 POP JUMP JUMPDEST PUSH1 0x0 DUP1 PUSH20 0xFFFFFFFFFFFFFFFFFFFFFFFFFFFFFFFFFFFFFFFF AND DUP3 PUSH20 0xFFFFFFFFFFFFFFFFFFFFFFFFFFFFFFFFFFFFFFFF AND SUB PUSH2 0xE49 JUMPI PUSH1 0x40 MLOAD PUSH32 0x8C379A000000000000000000000000000000000000000000000000000000000 DUP2 MSTORE PUSH1 0x4 ADD PUSH2 0xE40 SWAP1 PUSH2 0x3E32 JUMP JUMPDEST PUSH1 0x40 MLOAD DUP1 SWAP2 SUB SWAP1 REVERT JUMPDEST PUSH1 0x4 PUSH1 0x0 DUP4 PUSH20 0xFFFFFFFFFFFFFFFFFFFFFFFFFFFFFFFFFFFFFFFF AND PUSH20 0xFFFFFFFFFFFFFFFFFFFFFFFFFFFFFFFFFFFFFFFF AND DUP2 MSTORE PUSH1 0x20 ADD SWAP1 DUP2 MSTORE PUSH1 0x20 ADD PUSH1 0x0 KECCAK256 SLOAD SWAP1 POP SWAP2 SWAP1 POP JUMP JUMPDEST PUSH2 0xE98 PUSH2 0x19BE JUMP JUMPDEST PUSH2 0xEA2 PUSH1 0x0 PUSH2 0x205A JUMP JUMPDEST JUMP JUMPDEST PUSH1 0x0 PUSH1 0xC PUSH1 0x0 SWAP1 SLOAD SWAP1 PUSH2 0x100 EXP SWAP1 DIV PUSH20 0xFFFFFFFFFFFFFFFFFFFFFFFFFFFFFFFFFFFFFFFF AND SWAP1 POP SWAP1 JUMP JUMPDEST PUSH1 0x60 PUSH1 0x2 DUP1 SLOAD PUSH2 0xEDD SWAP1 PUSH2 0x367E JUMP JUMPDEST DUP1 PUSH1 0x1F ADD PUSH1 0x20 DUP1 SWAP2 DIV MUL PUSH1 0x20 ADD PUSH1 0x40 MLOAD SWAP1 DUP2 ADD PUSH1 0x40 MSTORE DUP1 SWAP3 SWAP2 SWAP1 DUP2 DUP2 MSTORE PUSH1 0x20 ADD DUP3 DUP1 SLOAD PUSH2 0xF09 SWAP1 PUSH2 0x367E JUMP JUMPDEST DUP1 ISZERO PUSH2 0xF56 JUMPI DUP1 PUSH1 0x1F LT PUSH2 0xF2B JUMPI PUSH2 0x100 DUP1 DUP4 SLOAD DIV MUL DUP4 MSTORE SWAP2 PUSH1 0x20 ADD SWAP2 PUSH2 0xF56 JUMP JUMPDEST DUP3 ADD SWAP2 SWAP1 PUSH1 0x0 MSTORE PUSH1 0x20 PUSH1 0x0 KECCAK256 SWAP1 JUMPDEST DUP2 SLOAD DUP2 MSTORE SWAP1 PUSH1 0x1 ADD SWAP1 PUSH1 0x20 ADD DUP1 DUP4 GT PUSH2 0xF39 JUMPI DUP3 SWAP1 SUB PUSH1 0x1F AND DUP3 ADD SWAP2 JUMPDEST POP POP POP POP POP SWAP1 POP SWAP1 JUMP JUMPDEST PUSH2 0xF68 PUSH2 0x2120 JUMP JUMPDEST PUSH1 0x0 DUP2 GT PUSH2 0xFAB JUMPI PUSH1 0x40 MLOAD PUSH32 0x8C379A000000000000000000000000000000000000000000000000000000000 DUP2 MSTORE PUSH1 0x4 ADD PUSH2 0xFA2 SWAP1 PUSH2 0x3E9E JUMP JUMPDEST PUSH1 0x40 MLOAD DUP1 SWAP2 SUB SWAP1 REVERT JUMPDEST PUSH1 0x14 DUP2 GT ISZERO PUSH2 0xFEF JUMPI PUSH1 0x40 MLOAD PUSH32 0x8C379A000000000000000000000000000000000000000000000000000000000 DUP2 MSTORE PUSH1 0x4 ADD PUSH2 0xFE6 SWAP1 PUSH2 0x3F0A JUMP JUMPDEST PUSH1 0x40 MLOAD DUP1 SWAP2 SUB SWAP1 REVERT JUMPDEST DUP1 PUSH1 0xF SLOAD PUSH2 0xFFD SWAP2 SWAP1 PUSH2 0x3F59 JUMP JUMPDEST CALLVALUE LT ISZERO PUSH2 0x103F JUMPI PUSH1 0x40 MLOAD PUSH32 0x8C379A000000000000000000000000000000000000000000000000000000000 DUP2 MSTORE PUSH1 0x4 ADD PUSH2 0x1036 SWAP1 PUSH2 0x3FE7 JUMP JUMPDEST PUSH1 0x40 MLOAD DUP1 SWAP2 SUB SWAP1 REVERT JUMPDEST PUSH1 0x0 JUMPDEST DUP2 DUP2 LT ISZERO PUSH2 0x1152 JUMPI PUSH2 0x1054 PUSH1 0x10 PUSH2 0x1A3C JUMP JUMPDEST PUSH1 0x0 PUSH2 0x1060 PUSH1 0x10 PUSH2 0x1A52 JUMP JUMPDEST SWAP1 POP PUSH2 0x2710 DUP2 GT ISZERO PUSH2 0x10A7 JUMPI PUSH1 0x40 MLOAD PUSH32 0x8C379A000000000000000000000000000000000000000000000000000000000 DUP2 MSTORE PUSH1 0x4 ADD PUSH2 0x109E SWAP1 PUSH2 0x4053 JUMP JUMPDEST PUSH1 0x40 MLOAD DUP1 SWAP2 SUB SWAP1 REVERT JUMPDEST PUSH2 0x10B0 DUP2 PUSH2 0x216F JUMP JUMPDEST ISZERO PUSH2 0x10F0 JUMPI PUSH1 0x40 MLOAD PUSH32 0x8C379A000000000000000000000000000000000000000000000000000000000 DUP2 MSTORE PUSH1 0x4 ADD PUSH2 0x10E7 SWAP1 PUSH2 0x40BF JUMP JUMPDEST PUSH1 0x40 MLOAD DUP1 SWAP2 SUB SWAP1 REVERT JUMPDEST PUSH2 0x10FA CALLER DUP3 PUSH2 0x1A60 JUMP JUMPDEST DUP1 CALLER PUSH20 0xFFFFFFFFFFFFFFFFFFFFFFFFFFFFFFFFFFFFFFFF AND PUSH32 0x30385C845B448A36257A6A1716E6AD2E1BC2CBE333CDE1E69FE849AD6511ADFE PUSH1 0x40 MLOAD PUSH1 0x40 MLOAD DUP1 SWAP2 SUB SWAP1 LOG3 POP DUP1 DUP1 PUSH2 0x114A SWAP1 PUSH2 0x40DF JUMP JUMPDEST SWAP2 POP POP PUSH2 0x1042 JUMP JUMPDEST POP PUSH1 0x0 DUP2 PUSH1 0xF SLOAD PUSH2 0x1163 SWAP2 SWAP1 PUSH2 0x3F59 JUMP JUMPDEST CALLVALUE PUSH2 0x116E SWAP2 SWAP1 PUSH2 0x4127 JUMP JUMPDEST SWAP1 POP PUSH1 0x0 DUP2 GT ISZERO PUSH2 0x1227 JUMPI PUSH1 0x0 CALLER PUSH20 0xFFFFFFFFFFFFFFFFFFFFFFFFFFFFFFFFFFFFFFFF AND DUP3 PUSH1 0x40 MLOAD PUSH2 0x119F SWAP1 PUSH2 0x3C12 JUMP JUMPDEST PUSH1 0x0 PUSH1 0x40 MLOAD DUP1 DUP4 SUB DUP2 DUP6 DUP8 GAS CALL SWAP3 POP POP POP RETURNDATASIZE DUP1 PUSH1 0x0 DUP2 EQ PUSH2 0x11DC JUMPI PUSH1 0x40 MLOAD SWAP2 POP PUSH1 0x1F NOT PUSH1 0x3F RETURNDATASIZE ADD AND DUP3 ADD PUSH1 0x40 MSTORE RETURNDATASIZE DUP3 MSTORE RETURNDATASIZE PUSH1 0x0 PUSH1 0x20 DUP5 ADD RETURNDATACOPY PUSH2 0x11E1 JUMP JUMPDEST PUSH1 0x60 SWAP2 POP JUMPDEST POP POP SWAP1 POP DUP1 PUSH2 0x1225 JUMPI PUSH1 0x40 MLOAD PUSH32 0x8C379A000000000000000000000000000000000000000000000000000000000 DUP2 MSTORE PUSH1 0x4 ADD PUSH2 0x121C SWAP1 PUSH2 0x41A7 JUMP JUMPDEST PUSH1 0x40 MLOAD DUP1 SWAP2 SUB SWAP1 REVERT JUMPDEST POP JUMPDEST PUSH1 0x1 PUSH1 0xE PUSH1 0x0 CALLER PUSH20 0xFFFFFFFFFFFFFFFFFFFFFFFFFFFFFFFFFFFFFFFF AND PUSH20 0xFFFFFFFFFFFFFFFFFFFFFFFFFFFFFFFFFFFFFFFF AND DUP2 MSTORE PUSH1 0x20 ADD SWAP1 DUP2 MSTORE PUSH1 0x20 ADD PUSH1 0x0 KECCAK256 PUSH1 0x0 PUSH2 0x100 EXP DUP2 SLOAD DUP2 PUSH1 0xFF MUL NOT AND SWAP1 DUP4 ISZERO ISZERO MUL OR SWAP1 SSTORE POP POP PUSH2 0x1288 PUSH2 0x21B0 JUMP JUMPDEST POP JUMP JUMPDEST PUSH2 0x129D PUSH2 0x1296 PUSH2 0x1BCE JUMP JUMPDEST DUP4 DUP4 PUSH2 0x21BA JUMP JUMPDEST POP POP JUMP JUMPDEST PUSH1 0x11 DUP1 SLOAD PUSH2 0x12AE SWAP1 PUSH2 0x367E JUMP JUMPDEST DUP1 PUSH1 0x1F ADD PUSH1 0x20 DUP1 SWAP2 DIV MUL PUSH1 0x20 ADD PUSH1 0x40 MLOAD SWAP1 DUP2 ADD PUSH1 0x40 MSTORE DUP1 SWAP3 SWAP2 SWAP1 DUP2 DUP2 MSTORE PUSH1 0x20 ADD DUP3 DUP1 SLOAD PUSH2 0x12DA SWAP1 PUSH2 0x367E JUMP JUMPDEST DUP1 ISZERO PUSH2 0x1327 JUMPI DUP1 PUSH1 0x1F LT PUSH2 0x12FC JUMPI PUSH2 0x100 DUP1 DUP4 SLOAD DIV MUL DUP4 MSTORE SWAP2 PUSH1 0x20 ADD SWAP2 PUSH2 0x1327 JUMP JUMPDEST DUP3 ADD SWAP2 SWAP1 PUSH1 0x0 MSTORE PUSH1 0x20 PUSH1 0x0 KECCAK256 SWAP1 JUMPDEST DUP2 SLOAD DUP2 MSTORE SWAP1 PUSH1 0x1 ADD SWAP1 PUSH1 0x20 ADD DUP1 DUP4 GT PUSH2 0x130A JUMPI DUP3 SWAP1 SUB PUSH1 0x1F AND DUP3 ADD SWAP2 JUMPDEST POP POP POP POP POP DUP2 JUMP JUMPDEST PUSH2 0x1340 PUSH2 0x133A PUSH2 0x1BCE JUMP JUMPDEST DUP4 PUSH2 0x1C8F JUMP JUMPDEST PUSH2 0x137F JUMPI PUSH1 0x40 MLOAD PUSH32 0x8C379A000000000000000000000000000000000000000000000000000000000 DUP2 MSTORE PUSH1 0x4 ADD PUSH2 0x1376 SWAP1 PUSH2 0x3845 JUMP JUMPDEST PUSH1 0x40 MLOAD DUP1 SWAP2 SUB SWAP1 REVERT JUMPDEST PUSH2 0x138B DUP5 DUP5 DUP5 DUP5 PUSH2 0x2326 JUMP JUMPDEST POP POP POP POP JUMP JUMPDEST PUSH1 0x60 PUSH2 0x139C DUP3 PUSH2 0x216F JUMP JUMPDEST PUSH2 0x13DB JUMPI PUSH1 0x40 MLOAD PUSH32 0x8C379A000000000000000000000000000000000000000000000000000000000 DUP2 MSTORE PUSH1 0x4 ADD PUSH2 0x13D2 SWAP1 PUSH2 0x4213 JUMP JUMPDEST PUSH1 0x40 MLOAD DUP1 SWAP2 SUB SWAP1 REVERT JUMPDEST PUSH1 0x0 PUSH1 0xD PUSH1 0x0 SWAP1 SLOAD SWAP1 PUSH2 0x100 EXP SWAP1 DIV PUSH20 0xFFFFFFFFFFFFFFFFFFFFFFFFFFFFFFFFFFFFFFFF AND PUSH20 0xFFFFFFFFFFFFFFFFFFFFFFFFFFFFFFFFFFFFFFFF AND PUSH4 0x6DCEE4CA DUP5 PUSH1 0x40 MLOAD DUP3 PUSH4 0xFFFFFFFF AND PUSH1 0xE0 SHL DUP2 MSTORE PUSH1 0x4 ADD PUSH2 0x1438 SWAP2 SWAP1 PUSH2 0x32D8 JUMP JUMPDEST PUSH1 0x0 PUSH1 0x40 MLOAD DUP1 DUP4 SUB DUP2 DUP7 GAS STATICCALL ISZERO DUP1 ISZERO PUSH2 0x1455 JUMPI RETURNDATASIZE PUSH1 0x0 DUP1 RETURNDATACOPY RETURNDATASIZE PUSH1 0x0 REVERT JUMPDEST POP POP POP POP PUSH1 0x40 MLOAD RETURNDATASIZE PUSH1 0x0 DUP3 RETURNDATACOPY RETURNDATASIZE PUSH1 0x1F NOT PUSH1 0x1F DUP3 ADD AND DUP3 ADD DUP1 PUSH1 0x40 MSTORE POP DUP2 ADD SWAP1 PUSH2 0x147E SWAP2 SWAP1 PUSH2 0x42A3 JUMP JUMPDEST SWAP1 POP PUSH1 0x0 PUSH1 0xD PUSH1 0x0 SWAP1 SLOAD SWAP1 PUSH2 0x100 EXP SWAP1 DIV PUSH20 0xFFFFFFFFFFFFFFFFFFFFFFFFFFFFFFFFFFFFFFFF AND PUSH20 0xFFFFFFFFFFFFFFFFFFFFFFFFFFFFFFFFFFFFFFFF AND PUSH4 0x691A3CA0 DUP6 DUP5 PUSH1 0x40 MLOAD DUP4 PUSH4 0xFFFFFFFF AND PUSH1 0xE0 SHL DUP2 MSTORE PUSH1 0x4 ADD PUSH2 0x14DF SWAP3 SWAP2 SWAP1 PUSH2 0x42EC JUMP JUMPDEST PUSH1 0x0 PUSH1 0x40 MLOAD DUP1 DUP4 SUB DUP2 DUP7 GAS STATICCALL ISZERO DUP1 ISZERO PUSH2 0x14FC JUMPI RETURNDATASIZE PUSH1 0x0 DUP1 RETURNDATACOPY RETURNDATASIZE PUSH1 0x0 REVERT JUMPDEST POP POP POP POP PUSH1 0x40 MLOAD RETURNDATASIZE PUSH1 0x0 DUP3 RETURNDATACOPY RETURNDATASIZE PUSH1 0x1F NOT PUSH1 0x1F DUP3 ADD AND DUP3 ADD DUP1 PUSH1 0x40 MSTORE POP DUP2 ADD SWAP1 PUSH2 0x1525 SWAP2 SWAP1 PUSH2 0x42A3 JUMP JUMPDEST SWAP1 POP PUSH1 0x0 PUSH1 0x11 DUP1 SLOAD PUSH2 0x1536 SWAP1 PUSH2 0x367E JUMP JUMPDEST SWAP1 POP GT ISZERO PUSH2 0x15EE JUMPI PUSH1 0xD PUSH1 0x0 SWAP1 SLOAD SWAP1 PUSH2 0x100 EXP SWAP1 DIV PUSH20 0xFFFFFFFFFFFFFFFFFFFFFFFFFFFFFFFFFFFFFFFF AND PUSH20 0xFFFFFFFFFFFFFFFFFFFFFFFFFFFFFFFFFFFFFFFF AND PUSH4 0x7B5D473B DUP6 DUP5 PUSH1 0x11 PUSH1 0x12 PUSH1 0x40 MLOAD DUP6 PUSH4 0xFFFFFFFF AND PUSH1 0xE0 SHL DUP2 MSTORE PUSH1 0x4 ADD PUSH2 0x15A1 SWAP5 SWAP4 SWAP3 SWAP2 SWAP1 PUSH2 0x43A0 JUMP JUMPDEST PUSH1 0x0 PUSH1 0x40 MLOAD DUP1 DUP4 SUB DUP2 DUP7 GAS STATICCALL ISZERO DUP1 ISZERO PUSH2 0x15BE JUMPI RETURNDATASIZE PUSH1 0x0 DUP1 RETURNDATACOPY RETURNDATASIZE PUSH1 0x0 REVERT JUMPDEST POP POP POP POP PUSH1 0x40 MLOAD RETURNDATASIZE PUSH1 0x0 DUP3 RETURNDATACOPY RETURNDATASIZE PUSH1 0x1F NOT PUSH1 0x1F DUP3 ADD AND DUP3 ADD DUP1 PUSH1 0x40 MSTORE POP DUP2 ADD SWAP1 PUSH2 0x15E7 SWAP2 SWAP1 PUSH2 0x42A3 JUMP JUMPDEST SWAP1 POP PUSH2 0x1694 JUMP JUMPDEST PUSH1 0xD PUSH1 0x0 SWAP1 SLOAD SWAP1 PUSH2 0x100 EXP SWAP1 DIV PUSH20 0xFFFFFFFFFFFFFFFFFFFFFFFFFFFFFFFFFFFFFFFF AND PUSH20 0xFFFFFFFFFFFFFFFFFFFFFFFFFFFFFFFFFFFFFFFF AND PUSH4 0x691A3CA0 DUP6 DUP5 PUSH1 0x40 MLOAD DUP4 PUSH4 0xFFFFFFFF AND PUSH1 0xE0 SHL DUP2 MSTORE PUSH1 0x4 ADD PUSH2 0x164B SWAP3 SWAP2 SWAP1 PUSH2 0x42EC JUMP JUMPDEST PUSH1 0x0 PUSH1 0x40 MLOAD DUP1 DUP4 SUB DUP2 DUP7 GAS STATICCALL ISZERO DUP1 ISZERO PUSH2 0x1668 JUMPI RETURNDATASIZE PUSH1 0x0 DUP1 RETURNDATACOPY RETURNDATASIZE PUSH1 0x0 REVERT JUMPDEST POP POP POP POP PUSH1 0x40 MLOAD RETURNDATASIZE PUSH1 0x0 DUP3 RETURNDATACOPY RETURNDATASIZE PUSH1 0x1F NOT PUSH1 0x1F DUP3 ADD AND DUP3 ADD DUP1 PUSH1 0x40 MSTORE POP DUP2 ADD SWAP1 PUSH2 0x1691 SWAP2 SWAP1 PUSH2 0x42A3 JUMP JUMPDEST SWAP1 POP JUMPDEST PUSH2 0x169D DUP2 PUSH2 0x2382 JUMP JUMPDEST PUSH1 0x40 MLOAD PUSH1 0x20 ADD PUSH2 0x16AD SWAP2 SWAP1 PUSH2 0x4482 JUMP JUMPDEST PUSH1 0x40 MLOAD PUSH1 0x20 DUP2 DUP4 SUB SUB DUP2 MSTORE SWAP1 PUSH1 0x40 MSTORE SWAP3 POP POP POP SWAP2 SWAP1 POP JUMP JUMPDEST PUSH2 0x16CD PUSH2 0x19BE JUMP JUMPDEST PUSH1 0x0 DUP2 GT PUSH2 0x1710 JUMPI PUSH1 0x40 MLOAD PUSH32 0x8C379A000000000000000000000000000000000000000000000000000000000 DUP2 MSTORE PUSH1 0x4 ADD PUSH2 0x1707 SWAP1 PUSH2 0x3E9E JUMP JUMPDEST PUSH1 0x40 MLOAD DUP1 SWAP2 SUB SWAP1 REVERT JUMPDEST PUSH1 0x0 JUMPDEST DUP2 DUP2 LT ISZERO PUSH2 0x17DF JUMPI PUSH2 0x1725 PUSH1 0x10 PUSH2 0x1A3C JUMP JUMPDEST PUSH1 0x0 PUSH2 0x1731 PUSH1 0x10 PUSH2 0x1A52 JUMP JUMPDEST SWAP1 POP PUSH2 0x2710 DUP2 GT ISZERO PUSH2 0x1778 JUMPI PUSH1 0x40 MLOAD PUSH32 0x8C379A000000000000000000000000000000000000000000000000000000000 DUP2 MSTORE PUSH1 0x4 ADD PUSH2 0x176F SWAP1 PUSH2 0x4053 JUMP JUMPDEST PUSH1 0x40 MLOAD DUP1 SWAP2 SUB SWAP1 REVERT JUMPDEST PUSH2 0x1781 DUP2 PUSH2 0x216F JUMP JUMPDEST ISZERO PUSH2 0x17C1 JUMPI PUSH1 0x40 MLOAD PUSH32 0x8C379A000000000000000000000000000000000000000000000000000000000 DUP2 MSTORE PUSH1 0x4 ADD PUSH2 0x17B8 SWAP1 PUSH2 0x40BF JUMP JUMPDEST PUSH1 0x40 MLOAD DUP1 SWAP2 SUB SWAP1 REVERT JUMPDEST PUSH2 0x17CB DUP5 DUP3 PUSH2 0x1A60 JUMP JUMPDEST POP DUP1 DUP1 PUSH2 0x17D7 SWAP1 PUSH2 0x40DF JUMP JUMPDEST SWAP2 POP POP PUSH2 0x1713 JUMP JUMPDEST POP DUP2 PUSH20 0xFFFFFFFFFFFFFFFFFFFFFFFFFFFFFFFFFFFFFFFF AND PUSH32 0xF60843E7F75836E6A5AACF05EA1783D1A137A7C2980EEA169F8BF57C87FCA1FF DUP3 PUSH1 0x40 MLOAD PUSH2 0x1826 SWAP2 SWAP1 PUSH2 0x32D8 JUMP JUMPDEST PUSH1 0x40 MLOAD DUP1 SWAP2 SUB SWAP1 LOG2 PUSH1 0x1 PUSH1 0xE PUSH1 0x0 DUP5 PUSH20 0xFFFFFFFFFFFFFFFFFFFFFFFFFFFFFFFFFFFFFFFF AND PUSH20 0xFFFFFFFFFFFFFFFFFFFFFFFFFFFFFFFFFFFFFFFF AND DUP2 MSTORE PUSH1 0x20 ADD SWAP1 DUP2 MSTORE PUSH1 0x20 ADD PUSH1 0x0 KECCAK256 PUSH1 0x0 PUSH2 0x100 EXP DUP2 SLOAD DUP2 PUSH1 0xFF MUL NOT AND SWAP1 DUP4 ISZERO ISZERO MUL OR SWAP1 SSTORE POP POP POP JUMP JUMPDEST PUSH1 0x14 DUP2 JUMP JUMPDEST PUSH1 0x0 PUSH1 0x6 PUSH1 0x0 DUP5 PUSH20 0xFFFFFFFFFFFFFFFFFFFFFFFFFFFFFFFFFFFFFFFF AND PUSH20 0xFFFFFFFFFFFFFFFFFFFFFFFFFFFFFFFFFFFFFFFF AND DUP2 MSTORE PUSH1 0x20 ADD SWAP1 DUP2 MSTORE PUSH1 0x20 ADD PUSH1 0x0 KECCAK256 PUSH1 0x0 DUP4 PUSH20 0xFFFFFFFFFFFFFFFFFFFFFFFFFFFFFFFFFFFFFFFF AND PUSH20 0xFFFFFFFFFFFFFFFFFFFFFFFFFFFFFFFFFFFFFFFF AND DUP2 MSTORE PUSH1 0x20 ADD SWAP1 DUP2 MSTORE PUSH1 0x20 ADD PUSH1 0x0 KECCAK256 PUSH1 0x0 SWAP1 SLOAD SWAP1 PUSH2 0x100 EXP SWAP1 DIV PUSH1 0xFF AND SWAP1 POP SWAP3 SWAP2 POP POP JUMP JUMPDEST PUSH2 0x192B PUSH2 0x19BE JUMP JUMPDEST PUSH1 0x0 PUSH20 0xFFFFFFFFFFFFFFFFFFFFFFFFFFFFFFFFFFFFFFFF AND DUP2 PUSH20 0xFFFFFFFFFFFFFFFFFFFFFFFFFFFFFFFFFFFFFFFF AND SUB PUSH2 0x199A JUMPI PUSH1 0x40 MLOAD PUSH32 0x8C379A000000000000000000000000000000000000000000000000000000000 DUP2 MSTORE PUSH1 0x4 ADD PUSH2 0x1991 SWAP1 PUSH2 0x4516 JUMP JUMPDEST PUSH1 0x40 MLOAD DUP1 SWAP2 SUB SWAP1 REVERT JUMPDEST PUSH2 0x19A3 DUP2 PUSH2 0x205A JUMP JUMPDEST POP JUMP JUMPDEST PUSH2 0x2710 DUP2 JUMP JUMPDEST PUSH2 0x19B4 PUSH2 0x19BE JUMP JUMPDEST DUP1 PUSH1 0xF DUP2 SWAP1 SSTORE POP POP JUMP JUMPDEST PUSH2 0x19C6 PUSH2 0x1BCE JUMP JUMPDEST PUSH20 0xFFFFFFFFFFFFFFFFFFFFFFFFFFFFFFFFFFFFFFFF AND PUSH2 0x19E4 PUSH2 0xEA4 JUMP JUMPDEST PUSH20 0xFFFFFFFFFFFFFFFFFFFFFFFFFFFFFFFFFFFFFFFF AND EQ PUSH2 0x1A3A JUMPI PUSH1 0x40 MLOAD PUSH32 0x8C379A000000000000000000000000000000000000000000000000000000000 DUP2 MSTORE PUSH1 0x4 ADD PUSH2 0x1A31 SWAP1 PUSH2 0x4582 JUMP JUMPDEST PUSH1 0x40 MLOAD DUP1 SWAP2 SUB SWAP1 REVERT JUMPDEST JUMP JUMPDEST PUSH1 0x1 DUP2 PUSH1 0x0 ADD PUSH1 0x0 DUP3 DUP3 SLOAD ADD SWAP3 POP POP DUP2 SWAP1 SSTORE POP POP JUMP JUMPDEST PUSH1 0x0 DUP2 PUSH1 0x0 ADD SLOAD SWAP1 POP SWAP2 SWAP1 POP JUMP JUMPDEST PUSH2 0x1A7A DUP3 DUP3 PUSH1 0x40 MLOAD DUP1 PUSH1 0x20 ADD PUSH1 0x40 MSTORE DUP1 PUSH1 0x0 DUP2 MSTORE POP PUSH2 0x24E5 JUMP JUMPDEST POP POP JUMP JUMPDEST PUSH2 0x1A87 DUP3 PUSH2 0x216F JUMP JUMPDEST PUSH2 0x1AC6 JUMPI PUSH1 0x40 MLOAD PUSH32 0x8C379A000000000000000000000000000000000000000000000000000000000 DUP2 MSTORE PUSH1 0x4 ADD PUSH2 0x1ABD SWAP1 PUSH2 0x4614 JUMP JUMPDEST PUSH1 0x40 MLOAD DUP1 SWAP2 SUB SWAP1 REVERT JUMPDEST DUP1 PUSH1 0xB PUSH1 0x0 DUP5 DUP2 MSTORE PUSH1 0x20 ADD SWAP1 DUP2 MSTORE PUSH1 0x20 ADD PUSH1 0x0 KECCAK256 SWAP1 DUP2 PUSH2 0x1AE6 SWAP2 SWAP1 PUSH2 0x3A11 JUMP JUMPDEST POP PUSH32 0xF8E1A15ABA9398E019F0B49DF1A4FDE98EE17AE345CB5F6B5E2C27F5033E8CE7 DUP3 PUSH1 0x40 MLOAD PUSH2 0x1B16 SWAP2 SWAP1 PUSH2 0x32D8 JUMP JUMPDEST PUSH1 0x40 MLOAD DUP1 SWAP2 SUB SWAP1 LOG1 POP POP JUMP JUMPDEST PUSH1 0x0 PUSH4 0x49064906 PUSH1 0xE0 SHL PUSH28 0xFFFFFFFFFFFFFFFFFFFFFFFFFFFFFFFFFFFFFFFFFFFFFFFFFFFFFFFF NOT AND DUP3 PUSH28 0xFFFFFFFFFFFFFFFFFFFFFFFFFFFFFFFFFFFFFFFFFFFFFFFFFFFFFFFF NOT AND EQ DUP1 PUSH2 0x1B7C JUMPI POP PUSH2 0x1B7B DUP3 PUSH2 0x2540 JUMP JUMPDEST JUMPDEST SWAP1 POP SWAP2 SWAP1 POP JUMP JUMPDEST PUSH2 0x1B8C DUP2 PUSH2 0x216F JUMP JUMPDEST PUSH2 0x1BCB JUMPI PUSH1 0x40 MLOAD PUSH32 0x8C379A000000000000000000000000000000000000000000000000000000000 DUP2 MSTORE PUSH1 0x4 ADD PUSH2 0x1BC2 SWAP1 PUSH2 0x3DA0 JUMP JUMPDEST PUSH1 0x40 MLOAD DUP1 SWAP2 SUB SWAP1 REVERT JUMPDEST POP JUMP JUMPDEST PUSH1 0x0 CALLER SWAP1 POP SWAP1 JUMP JUMPDEST DUP2 PUSH1 0x5 PUSH1 0x0 DUP4 DUP2 MSTORE PUSH1 0x20 ADD SWAP1 DUP2 MSTORE PUSH1 0x20 ADD PUSH1 0x0 KECCAK256 PUSH1 0x0 PUSH2 0x100 EXP DUP2 SLOAD DUP2 PUSH20 0xFFFFFFFFFFFFFFFFFFFFFFFFFFFFFFFFFFFFFFFF MUL NOT AND SWAP1 DUP4 PUSH20 0xFFFFFFFFFFFFFFFFFFFFFFFFFFFFFFFFFFFFFFFF AND MUL OR SWAP1 SSTORE POP DUP1 DUP3 PUSH20 0xFFFFFFFFFFFFFFFFFFFFFFFFFFFFFFFFFFFFFFFF AND PUSH2 0x1C49 DUP4 PUSH2 0xD53 JUMP JUMPDEST PUSH20 0xFFFFFFFFFFFFFFFFFFFFFFFFFFFFFFFFFFFFFFFF AND PUSH32 0x8C5BE1E5EBEC7D5BD14F71427D1E84F3DD0314C0F7B2291E5B200AC8C7C3B925 PUSH1 0x40 MLOAD PUSH1 0x40 MLOAD DUP1 SWAP2 SUB SWAP1 LOG4 POP POP JUMP JUMPDEST PUSH1 0x0 DUP1 PUSH2 0x1C9B DUP4 PUSH2 0xD53 JUMP JUMPDEST SWAP1 POP DUP1 PUSH20 0xFFFFFFFFFFFFFFFFFFFFFFFFFFFFFFFFFFFFFFFF AND DUP5 PUSH20 0xFFFFFFFFFFFFFFFFFFFFFFFFFFFFFFFFFFFFFFFF AND EQ DUP1 PUSH2 0x1CDD JUMPI POP PUSH2 0x1CDC DUP2 DUP6 PUSH2 0x188F JUMP JUMPDEST JUMPDEST DUP1 PUSH2 0x1D1B JUMPI POP DUP4 PUSH20 0xFFFFFFFFFFFFFFFFFFFFFFFFFFFFFFFFFFFFFFFF AND PUSH2 0x1D03 DUP5 PUSH2 0x91D JUMP JUMPDEST PUSH20 0xFFFFFFFFFFFFFFFFFFFFFFFFFFFFFFFFFFFFFFFF AND EQ JUMPDEST SWAP2 POP POP SWAP3 SWAP2 POP POP JUMP JUMPDEST DUP3 PUSH20 0xFFFFFFFFFFFFFFFFFFFFFFFFFFFFFFFFFFFFFFFF AND PUSH2 0x1D44 DUP3 PUSH2 0xD53 JUMP JUMPDEST PUSH20 0xFFFFFFFFFFFFFFFFFFFFFFFFFFFFFFFFFFFFFFFF AND EQ PUSH2 0x1D9A JUMPI PUSH1 0x40 MLOAD PUSH32 0x8C379A000000000000000000000000000000000000000000000000000000000 DUP2 MSTORE PUSH1 0x4 ADD PUSH2 0x1D91 SWAP1 PUSH2 0x46A6 JUMP JUMPDEST PUSH1 0x40 MLOAD DUP1 SWAP2 SUB SWAP1 REVERT JUMPDEST PUSH1 0x0 PUSH20 0xFFFFFFFFFFFFFFFFFFFFFFFFFFFFFFFFFFFFFFFF AND DUP3 PUSH20 0xFFFFFFFFFFFFFFFFFFFFFFFFFFFFFFFFFFFFFFFF AND SUB PUSH2 0x1E09 JUMPI PUSH1 0x40 MLOAD PUSH32 0x8C379A000000000000000000000000000000000000000000000000000000000 DUP2 MSTORE PUSH1 0x4 ADD PUSH2 0x1E00 SWAP1 PUSH2 0x4738 JUMP JUMPDEST PUSH1 0x40 MLOAD DUP1 SWAP2 SUB SWAP1 REVERT JUMPDEST PUSH2 0x1E16 DUP4 DUP4 DUP4 PUSH1 0x1 PUSH2 0x25BA JUMP JUMPDEST DUP3 PUSH20 0xFFFFFFFFFFFFFFFFFFFFFFFFFFFFFFFFFFFFFFFF AND PUSH2 0x1E36 DUP3 PUSH2 0xD53 JUMP JUMPDEST PUSH20 0xFFFFFFFFFFFFFFFFFFFFFFFFFFFFFFFFFFFFFFFF AND EQ PUSH2 0x1E8C JUMPI PUSH1 0x40 MLOAD PUSH32 0x8C379A000000000000000000000000000000000000000000000000000000000 DUP2 MSTORE PUSH1 0x4 ADD PUSH2 0x1E83 SWAP1 PUSH2 0x46A6 JUMP JUMPDEST PUSH1 0x40 MLOAD DUP1 SWAP2 SUB SWAP1 REVERT JUMPDEST PUSH1 0x5 PUSH1 0x0 DUP3 DUP2 MSTORE PUSH1 0x20 ADD SWAP1 DUP2 MSTORE PUSH1 0x20 ADD PUSH1 0x0 KECCAK256 PUSH1 0x0 PUSH2 0x100 EXP DUP2 SLOAD SWAP1 PUSH20 0xFFFFFFFFFFFFFFFFFFFFFFFFFFFFFFFFFFFFFFFF MUL NOT AND SWAP1 SSTORE PUSH1 0x1 PUSH1 0x4 PUSH1 0x0 DUP6 PUSH20 0xFFFFFFFFFFFFFFFFFFFFFFFFFFFFFFFFFFFFFFFF AND PUSH20 0xFFFFFFFFFFFFFFFFFFFFFFFFFFFFFFFFFFFFFFFF AND DUP2 MSTORE PUSH1 0x20 ADD SWAP1 DUP2 MSTORE PUSH1 0x20 ADD PUSH1 0x0 KECCAK256 PUSH1 0x0 DUP3 DUP3 SLOAD SUB SWAP3 POP POP DUP2 SWAP1 SSTORE POP PUSH1 0x1 PUSH1 0x4 PUSH1 0x0 DUP5 PUSH20 0xFFFFFFFFFFFFFFFFFFFFFFFFFFFFFFFFFFFFFFFF AND PUSH20 0xFFFFFFFFFFFFFFFFFFFFFFFFFFFFFFFFFFFFFFFF AND DUP2 MSTORE PUSH1 0x20 ADD SWAP1 DUP2 MSTORE PUSH1 0x20 ADD PUSH1 0x0 KECCAK256 PUSH1 0x0 DUP3 DUP3 SLOAD ADD SWAP3 POP POP DUP2 SWAP1 SSTORE POP DUP2 PUSH1 0x3 PUSH1 0x0 DUP4 DUP2 MSTORE PUSH1 0x20 ADD SWAP1 DUP2 MSTORE PUSH1 0x20 ADD PUSH1 0x0 KECCAK256 PUSH1 0x0 PUSH2 0x100 EXP DUP2 SLOAD DUP2 PUSH20 0xFFFFFFFFFFFFFFFFFFFFFFFFFFFFFFFFFFFFFFFF MUL NOT AND SWAP1 DUP4 PUSH20 0xFFFFFFFFFFFFFFFFFFFFFFFFFFFFFFFFFFFFFFFF AND MUL OR SWAP1 SSTORE POP DUP1 DUP3 PUSH20 0xFFFFFFFFFFFFFFFFFFFFFFFFFFFFFFFFFFFFFFFF AND DUP5 PUSH20 0xFFFFFFFFFFFFFFFFFFFFFFFFFFFFFFFFFFFFFFFF AND PUSH32 0xDDF252AD1BE2C89B69C2B068FC378DAA952BA7F163C4A11628F55A4DF523B3EF PUSH1 0x40 MLOAD PUSH1 0x40 MLOAD DUP1 SWAP2 SUB SWAP1 LOG4 PUSH2 0x2018 DUP4 DUP4 DUP4 PUSH1 0x1 PUSH2 0x25CC JUMP JUMPDEST POP POP POP JUMP JUMPDEST PUSH1 0x0 PUSH1 0x3 PUSH1 0x0 DUP4 DUP2 MSTORE PUSH1 0x20 ADD SWAP1 DUP2 MSTORE PUSH1 0x20 ADD PUSH1 0x0 KECCAK256 PUSH1 0x0 SWAP1 SLOAD SWAP1 PUSH2 0x100 EXP SWAP1 DIV PUSH20 0xFFFFFFFFFFFFFFFFFFFFFFFFFFFFFFFFFFFFFFFF AND SWAP1 POP SWAP2 SWAP1 POP JUMP JUMPDEST PUSH1 0x0 PUSH1 0xC PUSH1 0x0 SWAP1 SLOAD SWAP1 PUSH2 0x100 EXP SWAP1 DIV PUSH20 0xFFFFFFFFFFFFFFFFFFFFFFFFFFFFFFFFFFFFFFFF AND SWAP1 POP DUP2 PUSH1 0xC PUSH1 0x0 PUSH2 0x100 EXP DUP2 SLOAD DUP2 PUSH20 0xFFFFFFFFFFFFFFFFFFFFFFFFFFFFFFFFFFFFFFFF MUL NOT AND SWAP1 DUP4 PUSH20 0xFFFFFFFFFFFFFFFFFFFFFFFFFFFFFFFFFFFFFFFF AND MUL OR SWAP1 SSTORE POP DUP2 PUSH20 0xFFFFFFFFFFFFFFFFFFFFFFFFFFFFFFFFFFFFFFFF AND DUP2 PUSH20 0xFFFFFFFFFFFFFFFFFFFFFFFFFFFFFFFFFFFFFFFF AND PUSH32 0x8BE0079C531659141344CD1FD0A4F28419497F9722A3DAAFE3B4186F6B6457E0 PUSH1 0x40 MLOAD PUSH1 0x40 MLOAD DUP1 SWAP2 SUB SWAP1 LOG3 POP POP JUMP JUMPDEST PUSH1 0x2 PUSH1 0x0 SLOAD SUB PUSH2 0x2165 JUMPI PUSH1 0x40 MLOAD PUSH32 0x8C379A000000000000000000000000000000000000000000000000000000000 DUP2 MSTORE PUSH1 0x4 ADD PUSH2 0x215C SWAP1 PUSH2 0x47A4 JUMP JUMPDEST PUSH1 0x40 MLOAD DUP1 SWAP2 SUB SWAP1 REVERT JUMPDEST PUSH1 0x2 PUSH1 0x0 DUP2 SWAP1 SSTORE POP JUMP JUMPDEST PUSH1 0x0 DUP1 PUSH20 0xFFFFFFFFFFFFFFFFFFFFFFFFFFFFFFFFFFFFFFFF AND PUSH2 0x2191 DUP4 PUSH2 0x201D JUMP JUMPDEST PUSH20 0xFFFFFFFFFFFFFFFFFFFFFFFFFFFFFFFFFFFFFFFF AND EQ ISZERO SWAP1 POP SWAP2 SWAP1 POP JUMP JUMPDEST PUSH1 0x1 PUSH1 0x0 DUP2 SWAP1 SSTORE POP JUMP JUMPDEST DUP2 PUSH20 0xFFFFFFFFFFFFFFFFFFFFFFFFFFFFFFFFFFFFFFFF AND DUP4 PUSH20 0xFFFFFFFFFFFFFFFFFFFFFFFFFFFFFFFFFFFFFFFF AND SUB PUSH2 0x2228 JUMPI PUSH1 0x40 MLOAD PUSH32 0x8C379A000000000000000000000000000000000000000000000000000000000 DUP2 MSTORE PUSH1 0x4 ADD PUSH2 0x221F SWAP1 PUSH2 0x4810 JUMP JUMPDEST PUSH1 0x40 MLOAD DUP1 SWAP2 SUB SWAP1 REVERT JUMPDEST DUP1 PUSH1 0x6 PUSH1 0x0 DUP6 PUSH20 0xFFFFFFFFFFFFFFFFFFFFFFFFFFFFFFFFFFFFFFFF AND PUSH20 0xFFFFFFFFFFFFFFFFFFFFFFFFFFFFFFFFFFFFFFFF AND DUP2 MSTORE PUSH1 0x20 ADD SWAP1 DUP2 MSTORE PUSH1 0x20 ADD PUSH1 0x0 KECCAK256 PUSH1 0x0 DUP5 PUSH20 0xFFFFFFFFFFFFFFFFFFFFFFFFFFFFFFFFFFFFFFFF AND PUSH20 0xFFFFFFFFFFFFFFFFFFFFFFFFFFFFFFFFFFFFFFFF AND DUP2 MSTORE PUSH1 0x20 ADD SWAP1 DUP2 MSTORE PUSH1 0x20 ADD PUSH1 0x0 KECCAK256 PUSH1 0x0 PUSH2 0x100 EXP DUP2 SLOAD DUP2 PUSH1 0xFF MUL NOT AND SWAP1 DUP4 ISZERO ISZERO MUL OR SWAP1 SSTORE POP DUP2 PUSH20 0xFFFFFFFFFFFFFFFFFFFFFFFFFFFFFFFFFFFFFFFF AND DUP4 PUSH20 0xFFFFFFFFFFFFFFFFFFFFFFFFFFFFFFFFFFFFFFFF AND PUSH32 0x17307EAB39AB6107E8899845AD3D59BD9653F200F220920489CA2B5937696C31 DUP4 PUSH1 0x40 MLOAD PUSH2 0x2319 SWAP2 SWAP1 PUSH2 0x32A4 JUMP JUMPDEST PUSH1 0x40 MLOAD DUP1 SWAP2 SUB SWAP1 LOG3 POP POP POP JUMP JUMPDEST PUSH2 0x2331 DUP5 DUP5 DUP5 PUSH2 0x1D24 JUMP JUMPDEST PUSH2 0x233D DUP5 DUP5 DUP5 DUP5 PUSH2 0x25D2 JUMP JUMPDEST PUSH2 0x237C JUMPI PUSH1 0x40 MLOAD PUSH32 0x8C379A000000000000000000000000000000000000000000000000000000000 DUP2 MSTORE PUSH1 0x4 ADD PUSH2 0x2373 SWAP1 PUSH2 0x48A2 JUMP JUMPDEST PUSH1 0x40 MLOAD DUP1 SWAP2 SUB SWAP1 REVERT JUMPDEST POP POP POP POP JUMP JUMPDEST PUSH1 0x60 PUSH1 0x0 DUP3 MLOAD SUB PUSH2 0x23A4 JUMPI PUSH1 0x40 MLOAD DUP1 PUSH1 0x20 ADD PUSH1 0x40 MSTORE DUP1 PUSH1 0x0 DUP2 MSTORE POP SWAP1 POP PUSH2 0x24E0 JUMP JUMPDEST PUSH1 0x0 PUSH1 0x40 MLOAD DUP1 PUSH1 0x60 ADD PUSH1 0x40 MSTORE DUP1 PUSH1 0x40 DUP2 MSTORE PUSH1 0x20 ADD PUSH2 0x4BD3 PUSH1 0x40 SWAP2 CODECOPY SWAP1 POP PUSH1 0x0 PUSH1 0x3 PUSH1 0x2 DUP6 MLOAD PUSH2 0x23D3 SWAP2 SWAP1 PUSH2 0x48C2 JUMP JUMPDEST PUSH2 0x23DD SWAP2 SWAP1 PUSH2 0x4925 JUMP JUMPDEST PUSH1 0x4 PUSH2 0x23E9 SWAP2 SWAP1 PUSH2 0x3F59 JUMP JUMPDEST PUSH8 0xFFFFFFFFFFFFFFFF DUP2 GT ISZERO PUSH2 0x2402 JUMPI PUSH2 0x2401 PUSH2 0x2FDC JUMP JUMPDEST JUMPDEST PUSH1 0x40 MLOAD SWAP1 DUP1 DUP3 MSTORE DUP1 PUSH1 0x1F ADD PUSH1 0x1F NOT AND PUSH1 0x20 ADD DUP3 ADD PUSH1 0x40 MSTORE DUP1 ISZERO PUSH2 0x2434 JUMPI DUP2 PUSH1 0x20 ADD PUSH1 0x1 DUP3 MUL DUP1 CALLDATASIZE DUP4 CALLDATACOPY DUP1 DUP3 ADD SWAP2 POP POP SWAP1 POP JUMPDEST POP SWAP1 POP PUSH1 0x1 DUP3 ADD PUSH1 0x20 DUP3 ADD DUP6 DUP7 MLOAD DUP8 ADD JUMPDEST DUP1 DUP3 LT ISZERO PUSH2 0x24A0 JUMPI PUSH1 0x3 DUP3 ADD SWAP2 POP DUP2 MLOAD PUSH1 0x3F DUP2 PUSH1 0x12 SHR AND DUP6 ADD MLOAD DUP5 MSTORE8 PUSH1 0x1 DUP5 ADD SWAP4 POP PUSH1 0x3F DUP2 PUSH1 0xC SHR AND DUP6 ADD MLOAD DUP5 MSTORE8 PUSH1 0x1 DUP5 ADD SWAP4 POP PUSH1 0x3F DUP2 PUSH1 0x6 SHR AND DUP6 ADD MLOAD DUP5 MSTORE8 PUSH1 0x1 DUP5 ADD SWAP4 POP PUSH1 0x3F DUP2 AND DUP6 ADD MLOAD DUP5 MSTORE8 PUSH1 0x1 DUP5 ADD SWAP4 POP POP PUSH2 0x2445 JUMP JUMPDEST POP POP PUSH1 0x3 DUP7 MLOAD MOD PUSH1 0x1 DUP2 EQ PUSH2 0x24BC JUMPI PUSH1 0x2 DUP2 EQ PUSH2 0x24CF JUMPI PUSH2 0x24D7 JUMP JUMPDEST PUSH1 0x3D PUSH1 0x1 DUP4 SUB MSTORE8 PUSH1 0x3D PUSH1 0x2 DUP4 SUB MSTORE8 PUSH2 0x24D7 JUMP JUMPDEST PUSH1 0x3D PUSH1 0x1 DUP4 SUB MSTORE8 JUMPDEST POP POP POP DUP1 SWAP3 POP POP POP JUMPDEST SWAP2 SWAP1 POP JUMP JUMPDEST PUSH2 0x24EF DUP4 DUP4 PUSH2 0x2759 JUMP JUMPDEST PUSH2 0x24FC PUSH1 0x0 DUP5 DUP5 DUP5 PUSH2 0x25D2 JUMP JUMPDEST PUSH2 0x253B JUMPI PUSH1 0x40 MLOAD PUSH32 0x8C379A000000000000000000000000000000000000000000000000000000000 DUP2 MSTORE PUSH1 0x4 ADD PUSH2 0x2532 SWAP1 PUSH2 0x48A2 JUMP JUMPDEST PUSH1 0x40 MLOAD DUP1 SWAP2 SUB SWAP1 REVERT JUMPDEST POP POP POP JUMP JUMPDEST PUSH1 0x0 PUSH32 0x780E9D6300000000000000000000000000000000000000000000000000000000 PUSH28 0xFFFFFFFFFFFFFFFFFFFFFFFFFFFFFFFFFFFFFFFFFFFFFFFFFFFFFFFF NOT AND DUP3 PUSH28 0xFFFFFFFFFFFFFFFFFFFFFFFFFFFFFFFFFFFFFFFFFFFFFFFFFFFFFFFF NOT AND EQ DUP1 PUSH2 0x25B3 JUMPI POP PUSH2 0x25B2 DUP3 PUSH2 0x2976 JUMP JUMPDEST JUMPDEST SWAP1 POP SWAP2 SWAP1 POP JUMP JUMPDEST PUSH2 0x25C6 DUP5 DUP5 DUP5 DUP5 PUSH2 0x2A58 JUMP JUMPDEST POP POP POP POP JUMP JUMPDEST POP POP POP POP JUMP JUMPDEST PUSH1 0x0 PUSH2 0x25F3 DUP5 PUSH20 0xFFFFFFFFFFFFFFFFFFFFFFFFFFFFFFFFFFFFFFFF AND PUSH2 0x2BB6 JUMP JUMPDEST ISZERO PUSH2 0x274C JUMPI DUP4 PUSH20 0xFFFFFFFFFFFFFFFFFFFFFFFFFFFFFFFFFFFFFFFF AND PUSH4 0x150B7A02 PUSH2 0x261C PUSH2 0x1BCE JUMP JUMPDEST DUP8 DUP7 DUP7 PUSH1 0x40 MLOAD DUP6 PUSH4 0xFFFFFFFF AND PUSH1 0xE0 SHL DUP2 MSTORE PUSH1 0x4 ADD PUSH2 0x263E SWAP5 SWAP4 SWAP3 SWAP2 SWAP1 PUSH2 0x49AB JUMP JUMPDEST PUSH1 0x20 PUSH1 0x40 MLOAD DUP1 DUP4 SUB DUP2 PUSH1 0x0 DUP8 GAS CALL SWAP3 POP POP POP DUP1 ISZERO PUSH2 0x267A JUMPI POP PUSH1 0x40 MLOAD RETURNDATASIZE PUSH1 0x1F NOT PUSH1 0x1F DUP3 ADD AND DUP3 ADD DUP1 PUSH1 0x40 MSTORE POP DUP2 ADD SWAP1 PUSH2 0x2677 SWAP2 SWAP1 PUSH2 0x4A0C JUMP JUMPDEST PUSH1 0x1 JUMPDEST PUSH2 0x26FC JUMPI RETURNDATASIZE DUP1 PUSH1 0x0 DUP2 EQ PUSH2 0x26AA JUMPI PUSH1 0x40 MLOAD SWAP2 POP PUSH1 0x1F NOT PUSH1 0x3F RETURNDATASIZE ADD AND DUP3 ADD PUSH1 0x40 MSTORE RETURNDATASIZE DUP3 MSTORE RETURNDATASIZE PUSH1 0x0 PUSH1 0x20 DUP5 ADD RETURNDATACOPY PUSH2 0x26AF JUMP JUMPDEST PUSH1 0x60 SWAP2 POP JUMPDEST POP PUSH1 0x0 DUP2 MLOAD SUB PUSH2 0x26F4 JUMPI PUSH1 0x40 MLOAD PUSH32 0x8C379A000000000000000000000000000000000000000000000000000000000 DUP2 MSTORE PUSH1 0x4 ADD PUSH2 0x26EB SWAP1 PUSH2 0x48A2 JUMP JUMPDEST PUSH1 0x40 MLOAD DUP1 SWAP2 SUB SWAP1 REVERT JUMPDEST DUP1 MLOAD DUP2 PUSH1 0x20 ADD REVERT JUMPDEST PUSH4 0x150B7A02 PUSH1 0xE0 SHL PUSH28 0xFFFFFFFFFFFFFFFFFFFFFFFFFFFFFFFFFFFFFFFFFFFFFFFFFFFFFFFF NOT AND DUP2 PUSH28 0xFFFFFFFFFFFFFFFFFFFFFFFFFFFFFFFFFFFFFFFFFFFFFFFFFFFFFFFF NOT AND EQ SWAP2 POP POP PUSH2 0x2751 JUMP JUMPDEST PUSH1 0x1 SWAP1 POP JUMPDEST SWAP5 SWAP4 POP POP POP POP JUMP JUMPDEST PUSH1 0x0 PUSH20 0xFFFFFFFFFFFFFFFFFFFFFFFFFFFFFFFFFFFFFFFF AND DUP3 PUSH20 0xFFFFFFFFFFFFFFFFFFFFFFFFFFFFFFFFFFFFFFFF AND SUB PUSH2 0x27C8 JUMPI PUSH1 0x40 MLOAD PUSH32 0x8C379A000000000000000000000000000000000000000000000000000000000 DUP2 MSTORE PUSH1 0x4 ADD PUSH2 0x27BF SWAP1 PUSH2 0x4A85 JUMP JUMPDEST PUSH1 0x40 MLOAD DUP1 SWAP2 SUB SWAP1 REVERT JUMPDEST PUSH2 0x27D1 DUP2 PUSH2 0x216F JUMP JUMPDEST ISZERO PUSH2 0x2811 JUMPI PUSH1 0x40 MLOAD PUSH32 0x8C379A000000000000000000000000000000000000000000000000000000000 DUP2 MSTORE PUSH1 0x4 ADD PUSH2 0x2808 SWAP1 PUSH2 0x4AF1 JUMP JUMPDEST PUSH1 0x40 MLOAD DUP1 SWAP2 SUB SWAP1 REVERT JUMPDEST PUSH2 0x281F PUSH1 0x0 DUP4 DUP4 PUSH1 0x1 PUSH2 0x25BA JUMP JUMPDEST PUSH2 0x2828 DUP2 PUSH2 0x216F JUMP JUMPDEST ISZERO PUSH2 0x2868 JUMPI PUSH1 0x40 MLOAD PUSH32 0x8C379A000000000000000000000000000000000000000000000000000000000 DUP2 MSTORE PUSH1 0x4 ADD PUSH2 0x285F SWAP1 PUSH2 0x4AF1 JUMP JUMPDEST PUSH1 0x40 MLOAD DUP1 SWAP2 SUB SWAP1 REVERT JUMPDEST PUSH1 0x1 PUSH1 0x4 PUSH1 0x0 DUP5 PUSH20 0xFFFFFFFFFFFFFFFFFFFFFFFFFFFFFFFFFFFFFFFF AND PUSH20 0xFFFFFFFFFFFFFFFFFFFFFFFFFFFFFFFFFFFFFFFF AND DUP2 MSTORE PUSH1 0x20 ADD SWAP1 DUP2 MSTORE PUSH1 0x20 ADD PUSH1 0x0 KECCAK256 PUSH1 0x0 DUP3 DUP3 SLOAD ADD SWAP3 POP POP DUP2 SWAP1 SSTORE POP DUP2 PUSH1 0x3 PUSH1 0x0 DUP4 DUP2 MSTORE PUSH1 0x20 ADD SWAP1 DUP2 MSTORE PUSH1 0x20 ADD PUSH1 0x0 KECCAK256 PUSH1 0x0 PUSH2 0x100 EXP DUP2 SLOAD DUP2 PUSH20 0xFFFFFFFFFFFFFFFFFFFFFFFFFFFFFFFFFFFFFFFF MUL NOT AND SWAP1 DUP4 PUSH20 0xFFFFFFFFFFFFFFFFFFFFFFFFFFFFFFFFFFFFFFFF AND MUL OR SWAP1 SSTORE POP DUP1 DUP3 PUSH20 0xFFFFFFFFFFFFFFFFFFFFFFFFFFFFFFFFFFFFFFFF AND PUSH1 0x0 PUSH20 0xFFFFFFFFFFFFFFFFFFFFFFFFFFFFFFFFFFFFFFFF AND PUSH32 0xDDF252AD1BE2C89B69C2B068FC378DAA952BA7F163C4A11628F55A4DF523B3EF PUSH1 0x40 MLOAD PUSH1 0x40 MLOAD DUP1 SWAP2 SUB SWAP1 LOG4 PUSH2 0x2972 PUSH1 0x0 DUP4 DUP4 PUSH1 0x1 PUSH2 0x25CC JUMP JUMPDEST POP POP JUMP JUMPDEST PUSH1 0x0 PUSH32 0x80AC58CD00000000000000000000000000000000000000000000000000000000 PUSH28 0xFFFFFFFFFFFFFFFFFFFFFFFFFFFFFFFFFFFFFFFFFFFFFFFFFFFFFFFF NOT AND DUP3 PUSH28 0xFFFFFFFFFFFFFFFFFFFFFFFFFFFFFFFFFFFFFFFFFFFFFFFFFFFFFFFF NOT AND EQ DUP1 PUSH2 0x2A41 JUMPI POP PUSH32 0x5B5E139F00000000000000000000000000000000000000000000000000000000 PUSH28 0xFFFFFFFFFFFFFFFFFFFFFFFFFFFFFFFFFFFFFFFFFFFFFFFFFFFFFFFF NOT AND DUP3 PUSH28 0xFFFFFFFFFFFFFFFFFFFFFFFFFFFFFFFFFFFFFFFFFFFFFFFFFFFFFFFF NOT AND EQ JUMPDEST DUP1 PUSH2 0x2A51 JUMPI POP PUSH2 0x2A50 DUP3 PUSH2 0x2BD9 JUMP JUMPDEST JUMPDEST SWAP1 POP SWAP2 SWAP1 POP JUMP JUMPDEST PUSH2 0x2A64 DUP5 DUP5 DUP5 DUP5 PUSH2 0x2C43 JUMP JUMPDEST PUSH1 0x1 DUP2 GT ISZERO PUSH2 0x2AA8 JUMPI PUSH1 0x40 MLOAD PUSH32 0x8C379A000000000000000000000000000000000000000000000000000000000 DUP2 MSTORE PUSH1 0x4 ADD PUSH2 0x2A9F SWAP1 PUSH2 0x4B83 JUMP JUMPDEST PUSH1 0x40 MLOAD DUP1 SWAP2 SUB SWAP1 REVERT JUMPDEST PUSH1 0x0 DUP3 SWAP1 POP PUSH1 0x0 PUSH20 0xFFFFFFFFFFFFFFFFFFFFFFFFFFFFFFFFFFFFFFFF AND DUP6 PUSH20 0xFFFFFFFFFFFFFFFFFFFFFFFFFFFFFFFFFFFFFFFF AND SUB PUSH2 0x2AEF JUMPI PUSH2 0x2AEA DUP2 PUSH2 0x2C49 JUMP JUMPDEST PUSH2 0x2B2E JUMP JUMPDEST DUP4 PUSH20 0xFFFFFFFFFFFFFFFFFFFFFFFFFFFFFFFFFFFFFFFF AND DUP6 PUSH20 0xFFFFFFFFFFFFFFFFFFFFFFFFFFFFFFFFFFFFFFFF AND EQ PUSH2 0x2B2D JUMPI PUSH2 0x2B2C DUP6 DUP3 PUSH2 0x2C92 JUMP JUMPDEST JUMPDEST JUMPDEST PUSH1 0x0 PUSH20 0xFFFFFFFFFFFFFFFFFFFFFFFFFFFFFFFFFFFFFFFF AND DUP5 PUSH20 0xFFFFFFFFFFFFFFFFFFFFFFFFFFFFFFFFFFFFFFFF AND SUB PUSH2 0x2B70 JUMPI PUSH2 0x2B6B DUP2 PUSH2 0x2DFF JUMP JUMPDEST PUSH2 0x2BAF JUMP JUMPDEST DUP5 PUSH20 0xFFFFFFFFFFFFFFFFFFFFFFFFFFFFFFFFFFFFFFFF AND DUP5 PUSH20 0xFFFFFFFFFFFFFFFFFFFFFFFFFFFFFFFFFFFFFFFF AND EQ PUSH2 0x2BAE JUMPI PUSH2 0x2BAD DUP5 DUP3 PUSH2 0x2ED0 JUMP JUMPDEST JUMPDEST JUMPDEST POP POP POP POP POP JUMP JUMPDEST PUSH1 0x0 DUP1 DUP3 PUSH20 0xFFFFFFFFFFFFFFFFFFFFFFFFFFFFFFFFFFFFFFFF AND EXTCODESIZE GT SWAP1 POP SWAP2 SWAP1 POP JUMP JUMPDEST PUSH1 0x0 PUSH32 0x1FFC9A700000000000000000000000000000000000000000000000000000000 PUSH28 0xFFFFFFFFFFFFFFFFFFFFFFFFFFFFFFFFFFFFFFFFFFFFFFFFFFFFFFFF NOT AND DUP3 PUSH28 0xFFFFFFFFFFFFFFFFFFFFFFFFFFFFFFFFFFFFFFFFFFFFFFFFFFFFFFFF NOT AND EQ SWAP1 POP SWAP2 SWAP1 POP JUMP JUMPDEST POP POP POP POP JUMP JUMPDEST PUSH1 0x9 DUP1 SLOAD SWAP1 POP PUSH1 0xA PUSH1 0x0 DUP4 DUP2 MSTORE PUSH1 0x20 ADD SWAP1 DUP2 MSTORE PUSH1 0x20 ADD PUSH1 0x0 KECCAK256 DUP2 SWAP1 SSTORE POP PUSH1 0x9 DUP2 SWAP1 DUP1 PUSH1 0x1 DUP2 SLOAD ADD DUP1 DUP3 SSTORE DUP1 SWAP2 POP POP PUSH1 0x1 SWAP1 SUB SWAP1 PUSH1 0x0 MSTORE PUSH1 0x20 PUSH1 0x0 KECCAK256 ADD PUSH1 0x0 SWAP1 SWAP2 SWAP1 SWAP2 SWAP1 SWAP2 POP SSTORE POP JUMP JUMPDEST PUSH1 0x0 PUSH1 0x1 PUSH2 0x2C9F DUP5 PUSH2 0xDD9 JUMP JUMPDEST PUSH2 0x2CA9 SWAP2 SWAP1 PUSH2 0x4127 JUMP JUMPDEST SWAP1 POP PUSH1 0x0 PUSH1 0x8 PUSH1 0x0 DUP5 DUP2 MSTORE PUSH1 0x20 ADD SWAP1 DUP2 MSTORE PUSH1 0x20 ADD PUSH1 0x0 KECCAK256 SLOAD SWAP1 POP DUP2 DUP2 EQ PUSH2 0x2D8E JUMPI PUSH1 0x0 PUSH1 0x7 PUSH1 0x0 DUP7 PUSH20 0xFFFFFFFFFFFFFFFFFFFFFFFFFFFFFFFFFFFFFFFF AND PUSH20 0xFFFFFFFFFFFFFFFFFFFFFFFFFFFFFFFFFFFFFFFF AND DUP2 MSTORE PUSH1 0x20 ADD SWAP1 DUP2 MSTORE PUSH1 0x20 ADD PUSH1 0x0 KECCAK256 PUSH1 0x0 DUP5 DUP2 MSTORE PUSH1 0x20 ADD SWAP1 DUP2 MSTORE PUSH1 0x20 ADD PUSH1 0x0 KECCAK256 SLOAD SWAP1 POP DUP1 PUSH1 0x7 PUSH1 0x0 DUP8 PUSH20 0xFFFFFFFFFFFFFFFFFFFFFFFFFFFFFFFFFFFFFFFF AND PUSH20 0xFFFFFFFFFFFFFFFFFFFFFFFFFFFFFFFFFFFFFFFF AND DUP2 MSTORE PUSH1 0x20 ADD SWAP1 DUP2 MSTORE PUSH1 0x20 ADD PUSH1 0x0 KECCAK256 PUSH1 0x0 DUP5 DUP2 MSTORE PUSH1 0x20 ADD SWAP1 DUP2 MSTORE PUSH1 0x20 ADD PUSH1 0x0 KECCAK256 DUP2 SWAP1 SSTORE POP DUP2 PUSH1 0x8 PUSH1 0x0 DUP4 DUP2 MSTORE PUSH1 0x20 ADD SWAP1 DUP2 MSTORE PUSH1 0x20 ADD PUSH1 0x0 KECCAK256 DUP2 SWAP1 SSTORE POP POP JUMPDEST PUSH1 0x8 PUSH1 0x0 DUP5 DUP2 MSTORE PUSH1 0x20 ADD SWAP1 DUP2 MSTORE PUSH1 0x20 ADD PUSH1 0x0 KECCAK256 PUSH1 0x0 SWAP1 SSTORE PUSH1 0x7 PUSH1 0x0 DUP6 PUSH20 0xFFFFFFFFFFFFFFFFFFFFFFFFFFFFFFFFFFFFFFFF AND PUSH20 0xFFFFFFFFFFFFFFFFFFFFFFFFFFFFFFFFFFFFFFFF AND DUP2 MSTORE PUSH1 0x20 ADD SWAP1 DUP2 MSTORE PUSH1 0x20 ADD PUSH1 0x0 KECCAK256 PUSH1 0x0 DUP4 DUP2 MSTORE PUSH1 0x20 ADD SWAP1 DUP2 MSTORE PUSH1 0x20 ADD PUSH1 0x0 KECCAK256 PUSH1 0x0 SWAP1 SSTORE POP POP POP POP JUMP JUMPDEST PUSH1 0x0 PUSH1 0x1 PUSH1 0x9 DUP1 SLOAD SWAP1 POP PUSH2 0x2E13 SWAP2 SWAP1 PUSH2 0x4127 JUMP JUMPDEST SWAP1 POP PUSH1 0x0 PUSH1 0xA PUSH1 0x0 DUP5 DUP2 MSTORE PUSH1 0x20 ADD SWAP1 DUP2 MSTORE PUSH1 0x20 ADD PUSH1 0x0 KECCAK256 SLOAD SWAP1 POP PUSH1 0x0 PUSH1 0x9 DUP4 DUP2 SLOAD DUP2 LT PUSH2 0x2E43 JUMPI PUSH2 0x2E42 PUSH2 0x3D25 JUMP JUMPDEST JUMPDEST SWAP1 PUSH1 0x0 MSTORE PUSH1 0x20 PUSH1 0x0 KECCAK256 ADD SLOAD SWAP1 POP DUP1 PUSH1 0x9 DUP4 DUP2 SLOAD DUP2 LT PUSH2 0x2E65 JUMPI PUSH2 0x2E64 PUSH2 0x3D25 JUMP JUMPDEST JUMPDEST SWAP1 PUSH1 0x0 MSTORE PUSH1 0x20 PUSH1 0x0 KECCAK256 ADD DUP2 SWAP1 SSTORE POP DUP2 PUSH1 0xA PUSH1 0x0 DUP4 DUP2 MSTORE PUSH1 0x20 ADD SWAP1 DUP2 MSTORE PUSH1 0x20 ADD PUSH1 0x0 KECCAK256 DUP2 SWAP1 SSTORE POP PUSH1 0xA PUSH1 0x0 DUP6 DUP2 MSTORE PUSH1 0x20 ADD SWAP1 DUP2 MSTORE PUSH1 0x20 ADD PUSH1 0x0 KECCAK256 PUSH1 0x0 SWAP1 SSTORE PUSH1 0x9 DUP1 SLOAD DUP1 PUSH2 0x2EB4 JUMPI PUSH2 0x2EB3 PUSH2 0x4BA3 JUMP JUMPDEST JUMPDEST PUSH1 0x1 SWAP1 SUB DUP2 DUP2 SWAP1 PUSH1 0x0 MSTORE PUSH1 0x20 PUSH1 0x0 KECCAK256 ADD PUSH1 0x0 SWAP1 SSTORE SWAP1 SSTORE POP POP POP POP JUMP JUMPDEST PUSH1 0x0 PUSH2 0x2EDB DUP4 PUSH2 0xDD9 JUMP JUMPDEST SWAP1 POP DUP2 PUSH1 0x7 PUSH1 0x0 DUP6 PUSH20 0xFFFFFFFFFFFFFFFFFFFFFFFFFFFFFFFFFFFFFFFF AND PUSH20 0xFFFFFFFFFFFFFFFFFFFFFFFFFFFFFFFFFFFFFFFF AND DUP2 MSTORE PUSH1 0x20 ADD SWAP1 DUP2 MSTORE PUSH1 0x20 ADD PUSH1 0x0 KECCAK256 PUSH1 0x0 DUP4 DUP2 MSTORE PUSH1 0x20 ADD SWAP1 DUP2 MSTORE PUSH1 0x20 ADD PUSH1 0x0 KECCAK256 DUP2 SWAP1 SSTORE POP DUP1 PUSH1 0x8 PUSH1 0x0 DUP5 DUP2 MSTORE PUSH1 0x20 ADD SWAP1 DUP2 MSTORE PUSH1 0x20 ADD PUSH1 0x0 KECCAK256 DUP2 SWAP1 SSTORE POP POP POP POP JUMP JUMPDEST PUSH1 0x0 PUSH1 0x40 MLOAD SWAP1 POP SWAP1 JUMP JUMPDEST PUSH1 0x0 DUP1 REVERT JUMPDEST PUSH1 0x0 DUP1 REVERT JUMPDEST PUSH1 0x0 PUSH20 0xFFFFFFFFFFFFFFFFFFFFFFFFFFFFFFFFFFFFFFFF DUP3 AND SWAP1 POP SWAP2 SWAP1 POP JUMP JUMPDEST PUSH1 0x0 PUSH2 0x2F8E DUP3 PUSH2 0x2F63 JUMP JUMPDEST SWAP1 POP SWAP2 SWAP1 POP JUMP JUMPDEST PUSH2 0x2F9E DUP2 PUSH2 0x2F83 JUMP JUMPDEST DUP2 EQ PUSH2 0x2FA9 JUMPI PUSH1 0x0 DUP1 REVERT JUMPDEST POP JUMP JUMPDEST PUSH1 0x0 DUP2 CALLDATALOAD SWAP1 POP PUSH2 0x2FBB DUP2 PUSH2 0x2F95 JUMP JUMPDEST SWAP3 SWAP2 POP POP JUMP JUMPDEST PUSH1 0x0 DUP1 REVERT JUMPDEST PUSH1 0x0 DUP1 REVERT JUMPDEST PUSH1 0x0 PUSH1 0x1F NOT PUSH1 0x1F DUP4 ADD AND SWAP1 POP SWAP2 SWAP1 POP JUMP JUMPDEST PUSH32 0x4E487B7100000000000000000000000000000000000000000000000000000000 PUSH1 0x0 MSTORE PUSH1 0x41 PUSH1 0x4 MSTORE PUSH1 0x24 PUSH1 0x0 REVERT JUMPDEST PUSH2 0x3014 DUP3 PUSH2 0x2FCB JUMP JUMPDEST DUP2 ADD DUP2 DUP2 LT PUSH8 0xFFFFFFFFFFFFFFFF DUP3 GT OR ISZERO PUSH2 0x3033 JUMPI PUSH2 0x3032 PUSH2 0x2FDC JUMP JUMPDEST JUMPDEST DUP1 PUSH1 0x40 MSTORE POP POP POP JUMP JUMPDEST PUSH1 0x0 PUSH2 0x3046 PUSH2 0x2F4F JUMP JUMPDEST SWAP1 POP PUSH2 0x3052 DUP3 DUP3 PUSH2 0x300B JUMP JUMPDEST SWAP2 SWAP1 POP JUMP JUMPDEST PUSH1 0x0 PUSH8 0xFFFFFFFFFFFFFFFF DUP3 GT ISZERO PUSH2 0x3072 JUMPI PUSH2 0x3071 PUSH2 0x2FDC JUMP JUMPDEST JUMPDEST PUSH2 0x307B DUP3 PUSH2 0x2FCB JUMP JUMPDEST SWAP1 POP PUSH1 0x20 DUP2 ADD SWAP1 POP SWAP2 SWAP1 POP JUMP JUMPDEST DUP3 DUP2 DUP4 CALLDATACOPY PUSH1 0x0 DUP4 DUP4 ADD MSTORE POP POP POP JUMP JUMPDEST PUSH1 0x0 PUSH2 0x30AA PUSH2 0x30A5 DUP5 PUSH2 0x3057 JUMP JUMPDEST PUSH2 0x303C JUMP JUMPDEST SWAP1 POP DUP3 DUP2 MSTORE PUSH1 0x20 DUP2 ADD DUP5 DUP5 DUP5 ADD GT ISZERO PUSH2 0x30C6 JUMPI PUSH2 0x30C5 PUSH2 0x2FC6 JUMP JUMPDEST JUMPDEST PUSH2 0x30D1 DUP5 DUP3 DUP6 PUSH2 0x3088 JUMP JUMPDEST POP SWAP4 SWAP3 POP POP POP JUMP JUMPDEST PUSH1 0x0 DUP3 PUSH1 0x1F DUP4 ADD SLT PUSH2 0x30EE JUMPI PUSH2 0x30ED PUSH2 0x2FC1 JUMP JUMPDEST JUMPDEST DUP2 CALLDATALOAD PUSH2 0x30FE DUP5 DUP3 PUSH1 0x20 DUP7 ADD PUSH2 0x3097 JUMP JUMPDEST SWAP2 POP POP SWAP3 SWAP2 POP POP JUMP JUMPDEST PUSH1 0x0 DUP1 PUSH1 0x40 DUP4 DUP6 SUB SLT ISZERO PUSH2 0x311E JUMPI PUSH2 0x311D PUSH2 0x2F59 JUMP JUMPDEST JUMPDEST PUSH1 0x0 PUSH2 0x312C DUP6 DUP3 DUP7 ADD PUSH2 0x2FAC JUMP JUMPDEST SWAP3 POP POP PUSH1 0x20 DUP4 ADD CALLDATALOAD PUSH8 0xFFFFFFFFFFFFFFFF DUP2 GT ISZERO PUSH2 0x314D JUMPI PUSH2 0x314C PUSH2 0x2F5E JUMP JUMPDEST JUMPDEST PUSH2 0x3159 DUP6 DUP3 DUP7 ADD PUSH2 0x30D9 JUMP JUMPDEST SWAP2 POP POP SWAP3 POP SWAP3 SWAP1 POP JUMP JUMPDEST PUSH1 0x0 DUP2 MLOAD SWAP1 POP SWAP2 SWAP1 POP JUMP JUMPDEST PUSH1 0x0 DUP3 DUP3 MSTORE PUSH1 0x20 DUP3 ADD SWAP1 POP SWAP3 SWAP2 POP POP JUMP JUMPDEST PUSH1 0x0 JUMPDEST DUP4 DUP2 LT ISZERO PUSH2 0x319D JUMPI DUP1 DUP3 ADD MLOAD DUP2 DUP5 ADD MSTORE PUSH1 0x20 DUP2 ADD SWAP1 POP PUSH2 0x3182 JUMP JUMPDEST PUSH1 0x0 DUP5 DUP5 ADD MSTORE POP POP POP POP JUMP JUMPDEST PUSH1 0x0 PUSH2 0x31B4 DUP3 PUSH2 0x3163 JUMP JUMPDEST PUSH2 0x31BE DUP2 DUP6 PUSH2 0x316E JUMP JUMPDEST SWAP4 POP PUSH2 0x31CE DUP2 DUP6 PUSH1 0x20 DUP7 ADD PUSH2 0x317F JUMP JUMPDEST PUSH2 0x31D7 DUP2 PUSH2 0x2FCB JUMP JUMPDEST DUP5 ADD SWAP2 POP POP SWAP3 SWAP2 POP POP JUMP JUMPDEST PUSH1 0x0 PUSH1 0x20 DUP3 ADD SWAP1 POP DUP2 DUP2 SUB PUSH1 0x0 DUP4 ADD MSTORE PUSH2 0x31FC DUP2 DUP5 PUSH2 0x31A9 JUMP JUMPDEST SWAP1 POP SWAP3 SWAP2 POP POP JUMP JUMPDEST PUSH1 0x0 PUSH32 0xFFFFFFFF00000000000000000000000000000000000000000000000000000000 DUP3 AND SWAP1 POP SWAP2 SWAP1 POP JUMP JUMPDEST PUSH2 0x3239 DUP2 PUSH2 0x3204 JUMP JUMPDEST DUP2 EQ PUSH2 0x3244 JUMPI PUSH1 0x0 DUP1 REVERT JUMPDEST POP JUMP JUMPDEST PUSH1 0x0 DUP2 CALLDATALOAD SWAP1 POP PUSH2 0x3256 DUP2 PUSH2 0x3230 JUMP JUMPDEST SWAP3 SWAP2 POP POP JUMP JUMPDEST PUSH1 0x0 PUSH1 0x20 DUP3 DUP5 SUB SLT ISZERO PUSH2 0x3272 JUMPI PUSH2 0x3271 PUSH2 0x2F59 JUMP JUMPDEST JUMPDEST PUSH1 0x0 PUSH2 0x3280 DUP5 DUP3 DUP6 ADD PUSH2 0x3247 JUMP JUMPDEST SWAP2 POP POP SWAP3 SWAP2 POP POP JUMP JUMPDEST PUSH1 0x0 DUP2 ISZERO ISZERO SWAP1 POP SWAP2 SWAP1 POP JUMP JUMPDEST PUSH2 0x329E DUP2 PUSH2 0x3289 JUMP JUMPDEST DUP3 MSTORE POP POP JUMP JUMPDEST PUSH1 0x0 PUSH1 0x20 DUP3 ADD SWAP1 POP PUSH2 0x32B9 PUSH1 0x0 DUP4 ADD DUP5 PUSH2 0x3295 JUMP JUMPDEST SWAP3 SWAP2 POP POP JUMP JUMPDEST PUSH1 0x0 DUP2 SWAP1 POP SWAP2 SWAP1 POP JUMP JUMPDEST PUSH2 0x32D2 DUP2 PUSH2 0x32BF JUMP JUMPDEST DUP3 MSTORE POP POP JUMP JUMPDEST PUSH1 0x0 PUSH1 0x20 DUP3 ADD SWAP1 POP PUSH2 0x32ED PUSH1 0x0 DUP4 ADD DUP5 PUSH2 0x32C9 JUMP JUMPDEST SWAP3 SWAP2 POP POP JUMP JUMPDEST PUSH2 0x32FC DUP2 PUSH2 0x32BF JUMP JUMPDEST DUP2 EQ PUSH2 0x3307 JUMPI PUSH1 0x0 DUP1 REVERT JUMPDEST POP JUMP JUMPDEST PUSH1 0x0 DUP2 CALLDATALOAD SWAP1 POP PUSH2 0x3319 DUP2 PUSH2 0x32F3 JUMP JUMPDEST SWAP3 SWAP2 POP POP JUMP JUMPDEST PUSH1 0x0 PUSH1 0x20 DUP3 DUP5 SUB SLT ISZERO PUSH2 0x3335 JUMPI PUSH2 0x3334 PUSH2 0x2F59 JUMP JUMPDEST JUMPDEST PUSH1 0x0 PUSH2 0x3343 DUP5 DUP3 DUP6 ADD PUSH2 0x330A JUMP JUMPDEST SWAP2 POP POP SWAP3 SWAP2 POP POP JUMP JUMPDEST PUSH2 0x3355 DUP2 PUSH2 0x2F83 JUMP JUMPDEST DUP3 MSTORE POP POP JUMP JUMPDEST PUSH1 0x0 PUSH1 0x20 DUP3 ADD SWAP1 POP PUSH2 0x3370 PUSH1 0x0 DUP4 ADD DUP5 PUSH2 0x334C JUMP JUMPDEST SWAP3 SWAP2 POP POP JUMP JUMPDEST PUSH1 0x0 DUP1 PUSH1 0x40 DUP4 DUP6 SUB SLT ISZERO PUSH2 0x338D JUMPI PUSH2 0x338C PUSH2 0x2F59 JUMP JUMPDEST JUMPDEST PUSH1 0x0 PUSH2 0x339B DUP6 DUP3 DUP7 ADD PUSH2 0x2FAC JUMP JUMPDEST SWAP3 POP POP PUSH1 0x20 PUSH2 0x33AC DUP6 DUP3 DUP7 ADD PUSH2 0x330A JUMP JUMPDEST SWAP2 POP POP SWAP3 POP SWAP3 SWAP1 POP JUMP JUMPDEST PUSH1 0x0 DUP1 PUSH1 0x0 PUSH1 0x60 DUP5 DUP7 SUB SLT ISZERO PUSH2 0x33CF JUMPI PUSH2 0x33CE PUSH2 0x2F59 JUMP JUMPDEST JUMPDEST PUSH1 0x0 PUSH2 0x33DD DUP7 DUP3 DUP8 ADD PUSH2 0x2FAC JUMP JUMPDEST SWAP4 POP POP PUSH1 0x20 PUSH2 0x33EE DUP7 DUP3 DUP8 ADD PUSH2 0x2FAC JUMP JUMPDEST SWAP3 POP POP PUSH1 0x40 PUSH2 0x33FF DUP7 DUP3 DUP8 ADD PUSH2 0x330A JUMP JUMPDEST SWAP2 POP POP SWAP3 POP SWAP3 POP SWAP3 JUMP JUMPDEST PUSH1 0x0 PUSH1 0x20 DUP3 DUP5 SUB SLT ISZERO PUSH2 0x341F JUMPI PUSH2 0x341E PUSH2 0x2F59 JUMP JUMPDEST JUMPDEST PUSH1 0x0 DUP3 ADD CALLDATALOAD PUSH8 0xFFFFFFFFFFFFFFFF DUP2 GT ISZERO PUSH2 0x343D JUMPI PUSH2 0x343C PUSH2 0x2F5E JUMP JUMPDEST JUMPDEST PUSH2 0x3449 DUP5 DUP3 DUP6 ADD PUSH2 0x30D9 JUMP JUMPDEST SWAP2 POP POP SWAP3 SWAP2 POP POP JUMP JUMPDEST PUSH1 0x0 PUSH1 0x20 DUP3 DUP5 SUB SLT ISZERO PUSH2 0x3468 JUMPI PUSH2 0x3467 PUSH2 0x2F59 JUMP JUMPDEST JUMPDEST PUSH1 0x0 PUSH2 0x3476 DUP5 DUP3 DUP6 ADD PUSH2 0x2FAC JUMP JUMPDEST SWAP2 POP POP SWAP3 SWAP2 POP POP JUMP JUMPDEST PUSH2 0x3488 DUP2 PUSH2 0x3289 JUMP JUMPDEST DUP2 EQ PUSH2 0x3493 JUMPI PUSH1 0x0 DUP1 REVERT JUMPDEST POP JUMP JUMPDEST PUSH1 0x0 DUP2 CALLDATALOAD SWAP1 POP PUSH2 0x34A5 DUP2 PUSH2 0x347F JUMP JUMPDEST SWAP3 SWAP2 POP POP JUMP JUMPDEST PUSH1 0x0 DUP1 PUSH1 0x40 DUP4 DUP6 SUB SLT ISZERO PUSH2 0x34C2 JUMPI PUSH2 0x34C1 PUSH2 0x2F59 JUMP JUMPDEST JUMPDEST PUSH1 0x0 PUSH2 0x34D0 DUP6 DUP3 DUP7 ADD PUSH2 0x2FAC JUMP JUMPDEST SWAP3 POP POP PUSH1 0x20 PUSH2 0x34E1 DUP6 DUP3 DUP7 ADD PUSH2 0x3496 JUMP JUMPDEST SWAP2 POP POP SWAP3 POP SWAP3 SWAP1 POP JUMP JUMPDEST PUSH1 0x0 PUSH8 0xFFFFFFFFFFFFFFFF DUP3 GT ISZERO PUSH2 0x3506 JUMPI PUSH2 0x3505 PUSH2 0x2FDC JUMP JUMPDEST JUMPDEST PUSH2 0x350F DUP3 PUSH2 0x2FCB JUMP JUMPDEST SWAP1 POP PUSH1 0x20 DUP2 ADD SWAP1 POP SWAP2 SWAP1 POP JUMP JUMPDEST PUSH1 0x0 PUSH2 0x352F PUSH2 0x352A DUP5 PUSH2 0x34EB JUMP JUMPDEST PUSH2 0x303C JUMP JUMPDEST SWAP1 POP DUP3 DUP2 MSTORE PUSH1 0x20 DUP2 ADD DUP5 DUP5 DUP5 ADD GT ISZERO PUSH2 0x354B JUMPI PUSH2 0x354A PUSH2 0x2FC6 JUMP JUMPDEST JUMPDEST PUSH2 0x3556 DUP5 DUP3 DUP6 PUSH2 0x3088 JUMP JUMPDEST POP SWAP4 SWAP3 POP POP POP JUMP JUMPDEST PUSH1 0x0 DUP3 PUSH1 0x1F DUP4 ADD SLT PUSH2 0x3573 JUMPI PUSH2 0x3572 PUSH2 0x2FC1 JUMP JUMPDEST JUMPDEST DUP2 CALLDATALOAD PUSH2 0x3583 DUP5 DUP3 PUSH1 0x20 DUP7 ADD PUSH2 0x351C JUMP JUMPDEST SWAP2 POP POP SWAP3 SWAP2 POP POP JUMP JUMPDEST PUSH1 0x0 DUP1 PUSH1 0x0 DUP1 PUSH1 0x80 DUP6 DUP8 SUB SLT ISZERO PUSH2 0x35A6 JUMPI PUSH2 0x35A5 PUSH2 0x2F59 JUMP JUMPDEST JUMPDEST PUSH1 0x0 PUSH2 0x35B4 DUP8 DUP3 DUP9 ADD PUSH2 0x2FAC JUMP JUMPDEST SWAP5 POP POP PUSH1 0x20 PUSH2 0x35C5 DUP8 DUP3 DUP9 ADD PUSH2 0x2FAC JUMP JUMPDEST SWAP4 POP POP PUSH1 0x40 PUSH2 0x35D6 DUP8 DUP3 DUP9 ADD PUSH2 0x330A JUMP JUMPDEST SWAP3 POP POP PUSH1 0x60 DUP6 ADD CALLDATALOAD PUSH8 0xFFFFFFFFFFFFFFFF DUP2 GT ISZERO PUSH2 0x35F7 JUMPI PUSH2 0x35F6 PUSH2 0x2F5E JUMP JUMPDEST JUMPDEST PUSH2 0x3603 DUP8 DUP3 DUP9 ADD PUSH2 0x355E JUMP JUMPDEST SWAP2 POP POP SWAP3 SWAP6 SWAP2 SWAP5 POP SWAP3 POP JUMP JUMPDEST PUSH1 0x0 DUP1 PUSH1 0x40 DUP4 DUP6 SUB SLT ISZERO PUSH2 0x3626 JUMPI PUSH2 0x3625 PUSH2 0x2F59 JUMP JUMPDEST JUMPDEST PUSH1 0x0 PUSH2 0x3634 DUP6 DUP3 DUP7 ADD PUSH2 0x2FAC JUMP JUMPDEST SWAP3 POP POP PUSH1 0x20 PUSH2 0x3645 DUP6 DUP3 DUP7 ADD PUSH2 0x2FAC JUMP JUMPDEST SWAP2 POP POP SWAP3 POP SWAP3 SWAP1 POP JUMP JUMPDEST PUSH32 0x4E487B7100000000000000000000000000000000000000000000000000000000 PUSH1 0x0 MSTORE PUSH1 0x22 PUSH1 0x4 MSTORE PUSH1 0x24 PUSH1 0x0 REVERT JUMPDEST PUSH1 0x0 PUSH1 0x2 DUP3 DIV SWAP1 POP PUSH1 0x1 DUP3 AND DUP1 PUSH2 0x3696 JUMPI PUSH1 0x7F DUP3 AND SWAP2 POP JUMPDEST PUSH1 0x20 DUP3 LT DUP2 SUB PUSH2 0x36A9 JUMPI PUSH2 0x36A8 PUSH2 0x364F JUMP JUMPDEST JUMPDEST POP SWAP2 SWAP1 POP JUMP JUMPDEST PUSH32 0x4552433732313A20617070726F76616C20746F2063757272656E74206F776E65 PUSH1 0x0 DUP3 ADD MSTORE PUSH32 0x7200000000000000000000000000000000000000000000000000000000000000 PUSH1 0x20 DUP3 ADD MSTORE POP JUMP JUMPDEST PUSH1 0x0 PUSH2 0x370B PUSH1 0x21 DUP4 PUSH2 0x316E JUMP JUMPDEST SWAP2 POP PUSH2 0x3716 DUP3 PUSH2 0x36AF JUMP JUMPDEST PUSH1 0x40 DUP3 ADD SWAP1 POP SWAP2 SWAP1 POP JUMP JUMPDEST PUSH1 0x0 PUSH1 0x20 DUP3 ADD SWAP1 POP DUP2 DUP2 SUB PUSH1 0x0 DUP4 ADD MSTORE PUSH2 0x373A DUP2 PUSH2 0x36FE JUMP JUMPDEST SWAP1 POP SWAP2 SWAP1 POP JUMP JUMPDEST PUSH32 0x4552433732313A20617070726F76652063616C6C6572206973206E6F7420746F PUSH1 0x0 DUP3 ADD MSTORE PUSH32 0x6B656E206F776E6572206F7220617070726F76656420666F7220616C6C000000 PUSH1 0x20 DUP3 ADD MSTORE POP JUMP JUMPDEST PUSH1 0x0 PUSH2 0x379D PUSH1 0x3D DUP4 PUSH2 0x316E JUMP JUMPDEST SWAP2 POP PUSH2 0x37A8 DUP3 PUSH2 0x3741 JUMP JUMPDEST PUSH1 0x40 DUP3 ADD SWAP1 POP SWAP2 SWAP1 POP JUMP JUMPDEST PUSH1 0x0 PUSH1 0x20 DUP3 ADD SWAP1 POP DUP2 DUP2 SUB PUSH1 0x0 DUP4 ADD MSTORE PUSH2 0x37CC DUP2 PUSH2 0x3790 JUMP JUMPDEST SWAP1 POP SWAP2 SWAP1 POP JUMP JUMPDEST PUSH32 0x4552433732313A2063616C6C6572206973206E6F7420746F6B656E206F776E65 PUSH1 0x0 DUP3 ADD MSTORE PUSH32 0x72206F7220617070726F76656400000000000000000000000000000000000000 PUSH1 0x20 DUP3 ADD MSTORE POP JUMP JUMPDEST PUSH1 0x0 PUSH2 0x382F PUSH1 0x2D DUP4 PUSH2 0x316E JUMP JUMPDEST SWAP2 POP PUSH2 0x383A DUP3 PUSH2 0x37D3 JUMP JUMPDEST PUSH1 0x40 DUP3 ADD SWAP1 POP SWAP2 SWAP1 POP JUMP JUMPDEST PUSH1 0x0 PUSH1 0x20 DUP3 ADD SWAP1 POP DUP2 DUP2 SUB PUSH1 0x0 DUP4 ADD MSTORE PUSH2 0x385E DUP2 PUSH2 0x3822 JUMP JUMPDEST SWAP1 POP SWAP2 SWAP1 POP JUMP JUMPDEST PUSH1 0x0 DUP2 SWAP1 POP DUP2 PUSH1 0x0 MSTORE PUSH1 0x20 PUSH1 0x0 KECCAK256 SWAP1 POP SWAP2 SWAP1 POP JUMP JUMPDEST PUSH1 0x0 PUSH1 0x20 PUSH1 0x1F DUP4 ADD DIV SWAP1 POP SWAP2 SWAP1 POP JUMP JUMPDEST PUSH1 0x0 DUP3 DUP3 SHL SWAP1 POP SWAP3 SWAP2 POP POP JUMP JUMPDEST PUSH1 0x0 PUSH1 0x8 DUP4 MUL PUSH2 0x38C7 PUSH32 0xFFFFFFFFFFFFFFFFFFFFFFFFFFFFFFFFFFFFFFFFFFFFFFFFFFFFFFFFFFFFFFFF DUP3 PUSH2 0x388A JUMP JUMPDEST PUSH2 0x38D1 DUP7 DUP4 PUSH2 0x388A JUMP JUMPDEST SWAP6 POP DUP1 NOT DUP5 AND SWAP4 POP DUP1 DUP7 AND DUP5 OR SWAP3 POP POP POP SWAP4 SWAP3 POP POP POP JUMP JUMPDEST PUSH1 0x0 DUP2 SWAP1 POP SWAP2 SWAP1 POP JUMP JUMPDEST PUSH1 0x0 PUSH2 0x390E PUSH2 0x3909 PUSH2 0x3904 DUP5 PUSH2 0x32BF JUMP JUMPDEST PUSH2 0x38E9 JUMP JUMPDEST PUSH2 0x32BF JUMP JUMPDEST SWAP1 POP SWAP2 SWAP1 POP JUMP JUMPDEST PUSH1 0x0 DUP2 SWAP1 POP SWAP2 SWAP1 POP JUMP JUMPDEST PUSH2 0x3928 DUP4 PUSH2 0x38F3 JUMP JUMPDEST PUSH2 0x393C PUSH2 0x3934 DUP3 PUSH2 0x3915 JUMP JUMPDEST DUP5 DUP5 SLOAD PUSH2 0x3897 JUMP JUMPDEST DUP3 SSTORE POP POP POP POP JUMP JUMPDEST PUSH1 0x0 SWAP1 JUMP JUMPDEST PUSH2 0x3951 PUSH2 0x3944 JUMP JUMPDEST PUSH2 0x395C DUP2 DUP5 DUP5 PUSH2 0x391F JUMP JUMPDEST POP POP POP JUMP JUMPDEST JUMPDEST DUP2 DUP2 LT ISZERO PUSH2 0x3980 JUMPI PUSH2 0x3975 PUSH1 0x0 DUP3 PUSH2 0x3949 JUMP JUMPDEST PUSH1 0x1 DUP2 ADD SWAP1 POP PUSH2 0x3962 JUMP JUMPDEST POP POP JUMP JUMPDEST PUSH1 0x1F DUP3 GT ISZERO PUSH2 0x39C5 JUMPI PUSH2 0x3996 DUP2 PUSH2 0x3865 JUMP JUMPDEST PUSH2 0x399F DUP5 PUSH2 0x387A JUMP JUMPDEST DUP2 ADD PUSH1 0x20 DUP6 LT ISZERO PUSH2 0x39AE JUMPI DUP2 SWAP1 POP JUMPDEST PUSH2 0x39C2 PUSH2 0x39BA DUP6 PUSH2 0x387A JUMP JUMPDEST DUP4 ADD DUP3 PUSH2 0x3961 JUMP JUMPDEST POP POP JUMPDEST POP POP POP JUMP JUMPDEST PUSH1 0x0 DUP3 DUP3 SHR SWAP1 POP SWAP3 SWAP2 POP POP JUMP JUMPDEST PUSH1 0x0 PUSH2 0x39E8 PUSH1 0x0 NOT DUP5 PUSH1 0x8 MUL PUSH2 0x39CA JUMP JUMPDEST NOT DUP1 DUP4 AND SWAP2 POP POP SWAP3 SWAP2 POP POP JUMP JUMPDEST PUSH1 0x0 PUSH2 0x3A01 DUP4 DUP4 PUSH2 0x39D7 JUMP JUMPDEST SWAP2 POP DUP3 PUSH1 0x2 MUL DUP3 OR SWAP1 POP SWAP3 SWAP2 POP POP JUMP JUMPDEST PUSH2 0x3A1A DUP3 PUSH2 0x3163 JUMP JUMPDEST PUSH8 0xFFFFFFFFFFFFFFFF DUP2 GT ISZERO PUSH2 0x3A33 JUMPI PUSH2 0x3A32 PUSH2 0x2FDC JUMP JUMPDEST JUMPDEST PUSH2 0x3A3D DUP3 SLOAD PUSH2 0x367E JUMP JUMPDEST PUSH2 0x3A48 DUP3 DUP3 DUP6 PUSH2 0x3984 JUMP JUMPDEST PUSH1 0x0 PUSH1 0x20 SWAP1 POP PUSH1 0x1F DUP4 GT PUSH1 0x1 DUP2 EQ PUSH2 0x3A7B JUMPI PUSH1 0x0 DUP5 ISZERO PUSH2 0x3A69 JUMPI DUP3 DUP8 ADD MLOAD SWAP1 POP JUMPDEST PUSH2 0x3A73 DUP6 DUP3 PUSH2 0x39F5 JUMP JUMPDEST DUP7 SSTORE POP PUSH2 0x3ADB JUMP JUMPDEST PUSH1 0x1F NOT DUP5 AND PUSH2 0x3A89 DUP7 PUSH2 0x3865 JUMP JUMPDEST PUSH1 0x0 JUMPDEST DUP3 DUP2 LT ISZERO PUSH2 0x3AB1 JUMPI DUP5 DUP10 ADD MLOAD DUP3 SSTORE PUSH1 0x1 DUP3 ADD SWAP2 POP PUSH1 0x20 DUP6 ADD SWAP5 POP PUSH1 0x20 DUP2 ADD SWAP1 POP PUSH2 0x3A8C JUMP JUMPDEST DUP7 DUP4 LT ISZERO PUSH2 0x3ACE JUMPI DUP5 DUP10 ADD MLOAD PUSH2 0x3ACA PUSH1 0x1F DUP10 AND DUP3 PUSH2 0x39D7 JUMP JUMPDEST DUP4 SSTORE POP JUMPDEST PUSH1 0x1 PUSH1 0x2 DUP9 MUL ADD DUP9 SSTORE POP POP POP JUMPDEST POP POP POP POP POP POP JUMP JUMPDEST PUSH32 0x455243373231456E756D657261626C653A206F776E657220696E646578206F75 PUSH1 0x0 DUP3 ADD MSTORE PUSH32 0x74206F6620626F756E6473000000000000000000000000000000000000000000 PUSH1 0x20 DUP3 ADD MSTORE POP JUMP JUMPDEST PUSH1 0x0 PUSH2 0x3B3F PUSH1 0x2B DUP4 PUSH2 0x316E JUMP JUMPDEST SWAP2 POP PUSH2 0x3B4A DUP3 PUSH2 0x3AE3 JUMP JUMPDEST PUSH1 0x40 DUP3 ADD SWAP1 POP SWAP2 SWAP1 POP JUMP JUMPDEST PUSH1 0x0 PUSH1 0x20 DUP3 ADD SWAP1 POP DUP2 DUP2 SUB PUSH1 0x0 DUP4 ADD MSTORE PUSH2 0x3B6E DUP2 PUSH2 0x3B32 JUMP JUMPDEST SWAP1 POP SWAP2 SWAP1 POP JUMP JUMPDEST PUSH32 0x4E6F2062616C616E636520746F20776974686472617700000000000000000000 PUSH1 0x0 DUP3 ADD MSTORE POP JUMP JUMPDEST PUSH1 0x0 PUSH2 0x3BAB PUSH1 0x16 DUP4 PUSH2 0x316E JUMP JUMPDEST SWAP2 POP PUSH2 0x3BB6 DUP3 PUSH2 0x3B75 JUMP JUMPDEST PUSH1 0x20 DUP3 ADD SWAP1 POP SWAP2 SWAP1 POP JUMP JUMPDEST PUSH1 0x0 PUSH1 0x20 DUP3 ADD SWAP1 POP DUP2 DUP2 SUB PUSH1 0x0 DUP4 ADD MSTORE PUSH2 0x3BDA DUP2 PUSH2 0x3B9E JUMP JUMPDEST SWAP1 POP SWAP2 SWAP1 POP JUMP JUMPDEST PUSH1 0x0 DUP2 SWAP1 POP SWAP3 SWAP2 POP POP JUMP JUMPDEST POP JUMP JUMPDEST PUSH1 0x0 PUSH2 0x3BFC PUSH1 0x0 DUP4 PUSH2 0x3BE1 JUMP JUMPDEST SWAP2 POP PUSH2 0x3C07 DUP3 PUSH2 0x3BEC JUMP JUMPDEST PUSH1 0x0 DUP3 ADD SWAP1 POP SWAP2 SWAP1 POP JUMP JUMPDEST PUSH1 0x0 PUSH2 0x3C1D DUP3 PUSH2 0x3BEF JUMP JUMPDEST SWAP2 POP DUP2 SWAP1 POP SWAP2 SWAP1 POP JUMP JUMPDEST PUSH32 0x5769746864726177206661696C65640000000000000000000000000000000000 PUSH1 0x0 DUP3 ADD MSTORE POP JUMP JUMPDEST PUSH1 0x0 PUSH2 0x3C5D PUSH1 0xF DUP4 PUSH2 0x316E JUMP JUMPDEST SWAP2 POP PUSH2 0x3C68 DUP3 PUSH2 0x3C27 JUMP JUMPDEST PUSH1 0x20 DUP3 ADD SWAP1 POP SWAP2 SWAP1 POP JUMP JUMPDEST PUSH1 0x0 PUSH1 0x20 DUP3 ADD SWAP1 POP DUP2 DUP2 SUB PUSH1 0x0 DUP4 ADD MSTORE PUSH2 0x3C8C DUP2 PUSH2 0x3C50 JUMP JUMPDEST SWAP1 POP SWAP2 SWAP1 POP JUMP JUMPDEST PUSH32 0x455243373231456E756D657261626C653A20676C6F62616C20696E646578206F PUSH1 0x0 DUP3 ADD MSTORE PUSH32 0x7574206F6620626F756E64730000000000000000000000000000000000000000 PUSH1 0x20 DUP3 ADD MSTORE POP JUMP JUMPDEST PUSH1 0x0 PUSH2 0x3CEF PUSH1 0x2C DUP4 PUSH2 0x316E JUMP JUMPDEST SWAP2 POP PUSH2 0x3CFA DUP3 PUSH2 0x3C93 JUMP JUMPDEST PUSH1 0x40 DUP3 ADD SWAP1 POP SWAP2 SWAP1 POP JUMP JUMPDEST PUSH1 0x0 PUSH1 0x20 DUP3 ADD SWAP1 POP DUP2 DUP2 SUB PUSH1 0x0 DUP4 ADD MSTORE PUSH2 0x3D1E DUP2 PUSH2 0x3CE2 JUMP JUMPDEST SWAP1 POP SWAP2 SWAP1 POP JUMP JUMPDEST PUSH32 0x4E487B7100000000000000000000000000000000000000000000000000000000 PUSH1 0x0 MSTORE PUSH1 0x32 PUSH1 0x4 MSTORE PUSH1 0x24 PUSH1 0x0 REVERT JUMPDEST PUSH32 0x4552433732313A20696E76616C696420746F6B656E2049440000000000000000 PUSH1 0x0 DUP3 ADD MSTORE POP JUMP JUMPDEST PUSH1 0x0 PUSH2 0x3D8A PUSH1 0x18 DUP4 PUSH2 0x316E JUMP JUMPDEST SWAP2 POP PUSH2 0x3D95 DUP3 PUSH2 0x3D54 JUMP JUMPDEST PUSH1 0x20 DUP3 ADD SWAP1 POP SWAP2 SWAP1 POP JUMP JUMPDEST PUSH1 0x0 PUSH1 0x20 DUP3 ADD SWAP1 POP DUP2 DUP2 SUB PUSH1 0x0 DUP4 ADD MSTORE PUSH2 0x3DB9 DUP2 PUSH2 0x3D7D JUMP JUMPDEST SWAP1 POP SWAP2 SWAP1 POP JUMP JUMPDEST PUSH32 0x4552433732313A2061646472657373207A65726F206973206E6F742061207661 PUSH1 0x0 DUP3 ADD MSTORE PUSH32 0x6C6964206F776E65720000000000000000000000000000000000000000000000 PUSH1 0x20 DUP3 ADD MSTORE POP JUMP JUMPDEST PUSH1 0x0 PUSH2 0x3E1C PUSH1 0x29 DUP4 PUSH2 0x316E JUMP JUMPDEST SWAP2 POP PUSH2 0x3E27 DUP3 PUSH2 0x3DC0 JUMP JUMPDEST PUSH1 0x40 DUP3 ADD SWAP1 POP SWAP2 SWAP1 POP JUMP JUMPDEST PUSH1 0x0 PUSH1 0x20 DUP3 ADD SWAP1 POP DUP2 DUP2 SUB PUSH1 0x0 DUP4 ADD MSTORE PUSH2 0x3E4B DUP2 PUSH2 0x3E0F JUMP JUMPDEST SWAP1 POP SWAP2 SWAP1 POP JUMP JUMPDEST PUSH32 0x416D6F756E74206D7573742062652067726561746572207468616E2030000000 PUSH1 0x0 DUP3 ADD MSTORE POP JUMP JUMPDEST PUSH1 0x0 PUSH2 0x3E88 PUSH1 0x1D DUP4 PUSH2 0x316E JUMP JUMPDEST SWAP2 POP PUSH2 0x3E93 DUP3 PUSH2 0x3E52 JUMP JUMPDEST PUSH1 0x20 DUP3 ADD SWAP1 POP SWAP2 SWAP1 POP JUMP JUMPDEST PUSH1 0x0 PUSH1 0x20 DUP3 ADD SWAP1 POP DUP2 DUP2 SUB PUSH1 0x0 DUP4 ADD MSTORE PUSH2 0x3EB7 DUP2 PUSH2 0x3E7B JUMP JUMPDEST SWAP1 POP SWAP2 SWAP1 POP JUMP JUMPDEST PUSH32 0x416D6F756E742065786365656473206D6178696D756D206C696D697400000000 PUSH1 0x0 DUP3 ADD MSTORE POP JUMP JUMPDEST PUSH1 0x0 PUSH2 0x3EF4 PUSH1 0x1C DUP4 PUSH2 0x316E JUMP JUMPDEST SWAP2 POP PUSH2 0x3EFF DUP3 PUSH2 0x3EBE JUMP JUMPDEST PUSH1 0x20 DUP3 ADD SWAP1 POP SWAP2 SWAP1 POP JUMP JUMPDEST PUSH1 0x0 PUSH1 0x20 DUP3 ADD SWAP1 POP DUP2 DUP2 SUB PUSH1 0x0 DUP4 ADD MSTORE PUSH2 0x3F23 DUP2 PUSH2 0x3EE7 JUMP JUMPDEST SWAP1 POP SWAP2 SWAP1 POP JUMP JUMPDEST PUSH32 0x4E487B7100000000000000000000000000000000000000000000000000000000 PUSH1 0x0 MSTORE PUSH1 0x11 PUSH1 0x4 MSTORE PUSH1 0x24 PUSH1 0x0 REVERT JUMPDEST PUSH1 0x0 PUSH2 0x3F64 DUP3 PUSH2 0x32BF JUMP JUMPDEST SWAP2 POP PUSH2 0x3F6F DUP4 PUSH2 0x32BF JUMP JUMPDEST SWAP3 POP DUP3 DUP3 MUL PUSH2 0x3F7D DUP2 PUSH2 0x32BF JUMP JUMPDEST SWAP2 POP DUP3 DUP3 DIV DUP5 EQ DUP4 ISZERO OR PUSH2 0x3F94 JUMPI PUSH2 0x3F93 PUSH2 0x3F2A JUMP JUMPDEST JUMPDEST POP SWAP3 SWAP2 POP POP JUMP JUMPDEST PUSH32 0x496E73756666696369656E74207061796D656E74000000000000000000000000 PUSH1 0x0 DUP3 ADD MSTORE POP JUMP JUMPDEST PUSH1 0x0 PUSH2 0x3FD1 PUSH1 0x14 DUP4 PUSH2 0x316E JUMP JUMPDEST SWAP2 POP PUSH2 0x3FDC DUP3 PUSH2 0x3F9B JUMP JUMPDEST PUSH1 0x20 DUP3 ADD SWAP1 POP SWAP2 SWAP1 POP JUMP JUMPDEST PUSH1 0x0 PUSH1 0x20 DUP3 ADD SWAP1 POP DUP2 DUP2 SUB PUSH1 0x0 DUP4 ADD MSTORE PUSH2 0x4000 DUP2 PUSH2 0x3FC4 JUMP JUMPDEST SWAP1 POP SWAP2 SWAP1 POP JUMP JUMPDEST PUSH32 0x546F6B656E2049442065786365656473206C696D697400000000000000000000 PUSH1 0x0 DUP3 ADD MSTORE POP JUMP JUMPDEST PUSH1 0x0 PUSH2 0x403D PUSH1 0x16 DUP4 PUSH2 0x316E JUMP JUMPDEST SWAP2 POP PUSH2 0x4048 DUP3 PUSH2 0x4007 JUMP JUMPDEST PUSH1 0x20 DUP3 ADD SWAP1 POP SWAP2 SWAP1 POP JUMP JUMPDEST PUSH1 0x0 PUSH1 0x20 DUP3 ADD SWAP1 POP DUP2 DUP2 SUB PUSH1 0x0 DUP4 ADD MSTORE PUSH2 0x406C DUP2 PUSH2 0x4030 JUMP JUMPDEST SWAP1 POP SWAP2 SWAP1 POP JUMP JUMPDEST PUSH32 0x546F6B656E20616C7265616479206D696E746564000000000000000000000000 PUSH1 0x0 DUP3 ADD MSTORE POP JUMP JUMPDEST PUSH1 0x0 PUSH2 0x40A9 PUSH1 0x14 DUP4 PUSH2 0x316E JUMP JUMPDEST SWAP2 POP PUSH2 0x40B4 DUP3 PUSH2 0x4073 JUMP JUMPDEST PUSH1 0x20 DUP3 ADD SWAP1 POP SWAP2 SWAP1 POP JUMP JUMPDEST PUSH1 0x0 PUSH1 0x20 DUP3 ADD SWAP1 POP DUP2 DUP2 SUB PUSH1 0x0 DUP4 ADD MSTORE PUSH2 0x40D8 DUP2 PUSH2 0x409C JUMP JUMPDEST SWAP1 POP SWAP2 SWAP1 POP JUMP JUMPDEST PUSH1 0x0 PUSH2 0x40EA DUP3 PUSH2 0x32BF JUMP JUMPDEST SWAP2 POP PUSH32 0xFFFFFFFFFFFFFFFFFFFFFFFFFFFFFFFFFFFFFFFFFFFFFFFFFFFFFFFFFFFFFFFF DUP3 SUB PUSH2 0x411C JUMPI PUSH2 0x411B PUSH2 0x3F2A JUMP JUMPDEST JUMPDEST PUSH1 0x1 DUP3 ADD SWAP1 POP SWAP2 SWAP1 POP JUMP JUMPDEST PUSH1 0x0 PUSH2 0x4132 DUP3 PUSH2 0x32BF JUMP JUMPDEST SWAP2 POP PUSH2 0x413D DUP4 PUSH2 0x32BF JUMP JUMPDEST SWAP3 POP DUP3 DUP3 SUB SWAP1 POP DUP2 DUP2 GT ISZERO PUSH2 0x4155 JUMPI PUSH2 0x4154 PUSH2 0x3F2A JUMP JUMPDEST JUMPDEST SWAP3 SWAP2 POP POP JUMP JUMPDEST PUSH32 0x526566756E64206661696C656400000000000000000000000000000000000000 PUSH1 0x0 DUP3 ADD MSTORE POP JUMP JUMPDEST PUSH1 0x0 PUSH2 0x4191 PUSH1 0xD DUP4 PUSH2 0x316E JUMP JUMPDEST SWAP2 POP PUSH2 0x419C DUP3 PUSH2 0x415B JUMP JUMPDEST PUSH1 0x20 DUP3 ADD SWAP1 POP SWAP2 SWAP1 POP JUMP JUMPDEST PUSH1 0x0 PUSH1 0x20 DUP3 ADD SWAP1 POP DUP2 DUP2 SUB PUSH1 0x0 DUP4 ADD MSTORE PUSH2 0x41C0 DUP2 PUSH2 0x4184 JUMP JUMPDEST SWAP1 POP SWAP2 SWAP1 POP JUMP JUMPDEST PUSH32 0x546F6B656E20646F6573206E6F74206578697374000000000000000000000000 PUSH1 0x0 DUP3 ADD MSTORE POP JUMP JUMPDEST PUSH1 0x0 PUSH2 0x41FD PUSH1 0x14 DUP4 PUSH2 0x316E JUMP JUMPDEST SWAP2 POP PUSH2 0x4208 DUP3 PUSH2 0x41C7 JUMP JUMPDEST PUSH1 0x20 DUP3 ADD SWAP1 POP SWAP2 SWAP1 POP JUMP JUMPDEST PUSH1 0x0 PUSH1 0x20 DUP3 ADD SWAP1 POP DUP2 DUP2 SUB PUSH1 0x0 DUP4 ADD MSTORE PUSH2 0x422C DUP2 PUSH2 0x41F0 JUMP JUMPDEST SWAP1 POP SWAP2 SWAP1 POP JUMP JUMPDEST PUSH1 0x0 PUSH2 0x4246 PUSH2 0x4241 DUP5 PUSH2 0x3057 JUMP JUMPDEST PUSH2 0x303C JUMP JUMPDEST SWAP1 POP DUP3 DUP2 MSTORE PUSH1 0x20 DUP2 ADD DUP5 DUP5 DUP5 ADD GT ISZERO PUSH2 0x4262 JUMPI PUSH2 0x4261 PUSH2 0x2FC6 JUMP JUMPDEST JUMPDEST PUSH2 0x426D DUP5 DUP3 DUP6 PUSH2 0x317F JUMP JUMPDEST POP SWAP4 SWAP3 POP POP POP JUMP JUMPDEST PUSH1 0x0 DUP3 PUSH1 0x1F DUP4 ADD SLT PUSH2 0x428A JUMPI PUSH2 0x4289 PUSH2 0x2FC1 JUMP JUMPDEST JUMPDEST DUP2 MLOAD PUSH2 0x429A DUP5 DUP3 PUSH1 0x20 DUP7 ADD PUSH2 0x4233 JUMP JUMPDEST SWAP2 POP POP SWAP3 SWAP2 POP POP JUMP JUMPDEST PUSH1 0x0 PUSH1 0x20 DUP3 DUP5 SUB SLT ISZERO PUSH2 0x42B9 JUMPI PUSH2 0x42B8 PUSH2 0x2F59 JUMP JUMPDEST JUMPDEST PUSH1 0x0 DUP3 ADD MLOAD PUSH8 0xFFFFFFFFFFFFFFFF DUP2 GT ISZERO PUSH2 0x42D7 JUMPI PUSH2 0x42D6 PUSH2 0x2F5E JUMP JUMPDEST JUMPDEST PUSH2 0x42E3 DUP5 DUP3 DUP6 ADD PUSH2 0x4275 JUMP JUMPDEST SWAP2 POP POP SWAP3 SWAP2 POP POP JUMP JUMPDEST PUSH1 0x0 PUSH1 0x40 DUP3 ADD SWAP1 POP PUSH2 0x4301 PUSH1 0x0 DUP4 ADD DUP6 PUSH2 0x32C9 JUMP JUMPDEST DUP2 DUP2 SUB PUSH1 0x20 DUP4 ADD MSTORE PUSH2 0x4313 DUP2 DUP5 PUSH2 0x31A9 JUMP JUMPDEST SWAP1 POP SWAP4 SWAP3 POP POP POP JUMP JUMPDEST PUSH1 0x0 DUP2 SLOAD PUSH2 0x4329 DUP2 PUSH2 0x367E JUMP JUMPDEST PUSH2 0x4333 DUP2 DUP7 PUSH2 0x316E JUMP JUMPDEST SWAP5 POP PUSH1 0x1 DUP3 AND PUSH1 0x0 DUP2 EQ PUSH2 0x434E JUMPI PUSH1 0x1 DUP2 EQ PUSH2 0x4364 JUMPI PUSH2 0x4397 JUMP JUMPDEST PUSH1 0xFF NOT DUP4 AND DUP7 MSTORE DUP2 ISZERO ISZERO PUSH1 0x20 MUL DUP7 ADD SWAP4 POP PUSH2 0x4397 JUMP JUMPDEST PUSH2 0x436D DUP6 PUSH2 0x3865 JUMP JUMPDEST PUSH1 0x0 JUMPDEST DUP4 DUP2 LT ISZERO PUSH2 0x438F JUMPI DUP2 SLOAD DUP2 DUP10 ADD MSTORE PUSH1 0x1 DUP3 ADD SWAP2 POP PUSH1 0x20 DUP2 ADD SWAP1 POP PUSH2 0x4370 JUMP JUMPDEST DUP1 DUP9 ADD SWAP6 POP POP POP JUMPDEST POP POP POP SWAP3 SWAP2 POP POP JUMP JUMPDEST PUSH1 0x0 PUSH1 0x80 DUP3 ADD SWAP1 POP PUSH2 0x43B5 PUSH1 0x0 DUP4 ADD DUP8 PUSH2 0x32C9 JUMP JUMPDEST DUP2 DUP2 SUB PUSH1 0x20 DUP4 ADD MSTORE PUSH2 0x43C7 DUP2 DUP7 PUSH2 0x31A9 JUMP JUMPDEST SWAP1 POP DUP2 DUP2 SUB PUSH1 0x40 DUP4 ADD MSTORE PUSH2 0x43DB DUP2 DUP6 PUSH2 0x431C JUMP JUMPDEST SWAP1 POP DUP2 DUP2 SUB PUSH1 0x60 DUP4 ADD MSTORE PUSH2 0x43EF DUP2 DUP5 PUSH2 0x431C JUMP JUMPDEST SWAP1 POP SWAP6 SWAP5 POP POP POP POP POP JUMP JUMPDEST PUSH1 0x0 DUP2 SWAP1 POP SWAP3 SWAP2 POP POP JUMP JUMPDEST PUSH32 0x646174613A6170706C69636174696F6E2F6A736F6E3B6261736536342C000000 PUSH1 0x0 DUP3 ADD MSTORE POP JUMP JUMPDEST PUSH1 0x0 PUSH2 0x443B PUSH1 0x1D DUP4 PUSH2 0x43FA JUMP JUMPDEST SWAP2 POP PUSH2 0x4446 DUP3 PUSH2 0x4405 JUMP JUMPDEST PUSH1 0x1D DUP3 ADD SWAP1 POP SWAP2 SWAP1 POP JUMP JUMPDEST PUSH1 0x0 PUSH2 0x445C DUP3 PUSH2 0x3163 JUMP JUMPDEST PUSH2 0x4466 DUP2 DUP6 PUSH2 0x43FA JUMP JUMPDEST SWAP4 POP PUSH2 0x4476 DUP2 DUP6 PUSH1 0x20 DUP7 ADD PUSH2 0x317F JUMP JUMPDEST DUP1 DUP5 ADD SWAP2 POP POP SWAP3 SWAP2 POP POP JUMP JUMPDEST PUSH1 0x0 PUSH2 0x448D DUP3 PUSH2 0x442E JUMP JUMPDEST SWAP2 POP PUSH2 0x4499 DUP3 DUP5 PUSH2 0x4451 JUMP JUMPDEST SWAP2 POP DUP2 SWAP1 POP SWAP3 SWAP2 POP POP JUMP JUMPDEST PUSH32 0x4F776E61626C653A206E6577206F776E657220697320746865207A65726F2061 PUSH1 0x0 DUP3 ADD MSTORE PUSH32 0x6464726573730000000000000000000000000000000000000000000000000000 PUSH1 0x20 DUP3 ADD MSTORE POP JUMP JUMPDEST PUSH1 0x0 PUSH2 0x4500 PUSH1 0x26 DUP4 PUSH2 0x316E JUMP JUMPDEST SWAP2 POP PUSH2 0x450B DUP3 PUSH2 0x44A4 JUMP JUMPDEST PUSH1 0x40 DUP3 ADD SWAP1 POP SWAP2 SWAP1 POP JUMP JUMPDEST PUSH1 0x0 PUSH1 0x20 DUP3 ADD SWAP1 POP DUP2 DUP2 SUB PUSH1 0x0 DUP4 ADD MSTORE PUSH2 0x452F DUP2 PUSH2 0x44F3 JUMP JUMPDEST SWAP1 POP SWAP2 SWAP1 POP JUMP JUMPDEST PUSH32 0x4F776E61626C653A2063616C6C6572206973206E6F7420746865206F776E6572 PUSH1 0x0 DUP3 ADD MSTORE POP JUMP JUMPDEST PUSH1 0x0 PUSH2 0x456C PUSH1 0x20 DUP4 PUSH2 0x316E JUMP JUMPDEST SWAP2 POP PUSH2 0x4577 DUP3 PUSH2 0x4536 JUMP JUMPDEST PUSH1 0x20 DUP3 ADD SWAP1 POP SWAP2 SWAP1 POP JUMP JUMPDEST PUSH1 0x0 PUSH1 0x20 DUP3 ADD SWAP1 POP DUP2 DUP2 SUB PUSH1 0x0 DUP4 ADD MSTORE PUSH2 0x459B DUP2 PUSH2 0x455F JUMP JUMPDEST SWAP1 POP SWAP2 SWAP1 POP JUMP JUMPDEST PUSH32 0x45524337323155524953746F726167653A2055524920736574206F66206E6F6E PUSH1 0x0 DUP3 ADD MSTORE PUSH32 0x6578697374656E7420746F6B656E000000000000000000000000000000000000 PUSH1 0x20 DUP3 ADD MSTORE POP JUMP JUMPDEST PUSH1 0x0 PUSH2 0x45FE PUSH1 0x2E DUP4 PUSH2 0x316E JUMP JUMPDEST SWAP2 POP PUSH2 0x4609 DUP3 PUSH2 0x45A2 JUMP JUMPDEST PUSH1 0x40 DUP3 ADD SWAP1 POP SWAP2 SWAP1 POP JUMP JUMPDEST PUSH1 0x0 PUSH1 0x20 DUP3 ADD SWAP1 POP DUP2 DUP2 SUB PUSH1 0x0 DUP4 ADD MSTORE PUSH2 0x462D DUP2 PUSH2 0x45F1 JUMP JUMPDEST SWAP1 POP SWAP2 SWAP1 POP JUMP JUMPDEST PUSH32 0x4552433732313A207472616E736665722066726F6D20696E636F727265637420 PUSH1 0x0 DUP3 ADD MSTORE PUSH32 0x6F776E6572000000000000000000000000000000000000000000000000000000 PUSH1 0x20 DUP3 ADD MSTORE POP JUMP JUMPDEST PUSH1 0x0 PUSH2 0x4690 PUSH1 0x25 DUP4 PUSH2 0x316E JUMP JUMPDEST SWAP2 POP PUSH2 0x469B DUP3 PUSH2 0x4634 JUMP JUMPDEST PUSH1 0x40 DUP3 ADD SWAP1 POP SWAP2 SWAP1 POP JUMP JUMPDEST PUSH1 0x0 PUSH1 0x20 DUP3 ADD SWAP1 POP DUP2 DUP2 SUB PUSH1 0x0 DUP4 ADD MSTORE PUSH2 0x46BF DUP2 PUSH2 0x4683 JUMP JUMPDEST SWAP1 POP SWAP2 SWAP1 POP JUMP JUMPDEST PUSH32 0x4552433732313A207472616E7366657220746F20746865207A65726F20616464 PUSH1 0x0 DUP3 ADD MSTORE PUSH32 0x7265737300000000000000000000000000000000000000000000000000000000 PUSH1 0x20 DUP3 ADD MSTORE POP JUMP JUMPDEST PUSH1 0x0 PUSH2 0x4722 PUSH1 0x24 DUP4 PUSH2 0x316E JUMP JUMPDEST SWAP2 POP PUSH2 0x472D DUP3 PUSH2 0x46C6 JUMP JUMPDEST PUSH1 0x40 DUP3 ADD SWAP1 POP SWAP2 SWAP1 POP JUMP JUMPDEST PUSH1 0x0 PUSH1 0x20 DUP3 ADD SWAP1 POP DUP2 DUP2 SUB PUSH1 0x0 DUP4 ADD MSTORE PUSH2 0x4751 DUP2 PUSH2 0x4715 JUMP JUMPDEST SWAP1 POP SWAP2 SWAP1 POP JUMP JUMPDEST PUSH32 0x5265656E7472616E637947756172643A207265656E7472616E742063616C6C00 PUSH1 0x0 DUP3 ADD MSTORE POP JUMP JUMPDEST PUSH1 0x0 PUSH2 0x478E PUSH1 0x1F DUP4 PUSH2 0x316E JUMP JUMPDEST SWAP2 POP PUSH2 0x4799 DUP3 PUSH2 0x4758 JUMP JUMPDEST PUSH1 0x20 DUP3 ADD SWAP1 POP SWAP2 SWAP1 POP JUMP JUMPDEST PUSH1 0x0 PUSH1 0x20 DUP3 ADD SWAP1 POP DUP2 DUP2 SUB PUSH1 0x0 DUP4 ADD MSTORE PUSH2 0x47BD DUP2 PUSH2 0x4781 JUMP JUMPDEST SWAP1 POP SWAP2 SWAP1 POP JUMP JUMPDEST PUSH32 0x4552433732313A20617070726F766520746F2063616C6C657200000000000000 PUSH1 0x0 DUP3 ADD MSTORE POP JUMP JUMPDEST PUSH1 0x0 PUSH2 0x47FA PUSH1 0x19 DUP4 PUSH2 0x316E JUMP JUMPDEST SWAP2 POP PUSH2 0x4805 DUP3 PUSH2 0x47C4 JUMP JUMPDEST PUSH1 0x20 DUP3 ADD SWAP1 POP SWAP2 SWAP1 POP JUMP JUMPDEST PUSH1 0x0 PUSH1 0x20 DUP3 ADD SWAP1 POP DUP2 DUP2 SUB PUSH1 0x0 DUP4 ADD MSTORE PUSH2 0x4829 DUP2 PUSH2 0x47ED JUMP JUMPDEST SWAP1 POP SWAP2 SWAP1 POP JUMP JUMPDEST PUSH32 0x4552433732313A207472616E7366657220746F206E6F6E204552433732315265 PUSH1 0x0 DUP3 ADD MSTORE PUSH32 0x63656976657220696D706C656D656E7465720000000000000000000000000000 PUSH1 0x20 DUP3 ADD MSTORE POP JUMP JUMPDEST PUSH1 0x0 PUSH2 0x488C PUSH1 0x32 DUP4 PUSH2 0x316E JUMP JUMPDEST SWAP2 POP PUSH2 0x4897 DUP3 PUSH2 0x4830 JUMP JUMPDEST PUSH1 0x40 DUP3 ADD SWAP1 POP SWAP2 SWAP1 POP JUMP JUMPDEST PUSH1 0x0 PUSH1 0x20 DUP3 ADD SWAP1 POP DUP2 DUP2 SUB PUSH1 0x0 DUP4 ADD MSTORE PUSH2 0x48BB DUP2 PUSH2 0x487F JUMP JUMPDEST SWAP1 POP SWAP2 SWAP1 POP JUMP JUMPDEST PUSH1 0x0 PUSH2 0x48CD DUP3 PUSH2 0x32BF JUMP JUMPDEST SWAP2 POP PUSH2 0x48D8 DUP4 PUSH2 0x32BF JUMP JUMPDEST SWAP3 POP DUP3 DUP3 ADD SWAP1 POP DUP1 DUP3 GT ISZERO PUSH2 0x48F0 JUMPI PUSH2 0x48EF PUSH2 0x3F2A JUMP JUMPDEST JUMPDEST SWAP3 SWAP2 POP POP JUMP JUMPDEST PUSH32 0x4E487B7100000000000000000000000000000000000000000000000000000000 PUSH1 0x0 MSTORE PUSH1 0x12 PUSH1 0x4 MSTORE PUSH1 0x24 PUSH1 0x0 REVERT JUMPDEST PUSH1 0x0 PUSH2 0x4930 DUP3 PUSH2 0x32BF JUMP JUMPDEST SWAP2 POP PUSH2 0x493B DUP4 PUSH2 0x32BF JUMP JUMPDEST SWAP3 POP DUP3 PUSH2 0x494B JUMPI PUSH2 0x494A PUSH2 0x48F6 JUMP JUMPDEST JUMPDEST DUP3 DUP3 DIV SWAP1 POP SWAP3 SWAP2 POP POP JUMP JUMPDEST PUSH1 0x0 DUP2 MLOAD SWAP1 POP SWAP2 SWAP1 POP JUMP JUMPDEST PUSH1 0x0 DUP3 DUP3 MSTORE PUSH1 0x20 DUP3 ADD SWAP1 POP SWAP3 SWAP2 POP POP JUMP JUMPDEST PUSH1 0x0 PUSH2 0x497D DUP3 PUSH2 0x4956 JUMP JUMPDEST PUSH2 0x4987 DUP2 DUP6 PUSH2 0x4961 JUMP JUMPDEST SWAP4 POP PUSH2 0x4997 DUP2 DUP6 PUSH1 0x20 DUP7 ADD PUSH2 0x317F JUMP JUMPDEST PUSH2 0x49A0 DUP2 PUSH2 0x2FCB JUMP JUMPDEST DUP5 ADD SWAP2 POP POP SWAP3 SWAP2 POP POP JUMP JUMPDEST PUSH1 0x0 PUSH1 0x80 DUP3 ADD SWAP1 POP PUSH2 0x49C0 PUSH1 0x0 DUP4 ADD DUP8 PUSH2 0x334C JUMP JUMPDEST PUSH2 0x49CD PUSH1 0x20 DUP4 ADD DUP7 PUSH2 0x334C JUMP JUMPDEST PUSH2 0x49DA PUSH1 0x40 DUP4 ADD DUP6 PUSH2 0x32C9 JUMP JUMPDEST DUP2 DUP2 SUB PUSH1 0x60 DUP4 ADD MSTORE PUSH2 0x49EC DUP2 DUP5 PUSH2 0x4972 JUMP JUMPDEST SWAP1 POP SWAP6 SWAP5 POP POP POP POP POP JUMP JUMPDEST PUSH1 0x0 DUP2 MLOAD SWAP1 POP PUSH2 0x4A06 DUP2 PUSH2 0x3230 JUMP JUMPDEST SWAP3 SWAP2 POP POP JUMP JUMPDEST PUSH1 0x0 PUSH1 0x20 DUP3 DUP5 SUB SLT ISZERO PUSH2 0x4A22 JUMPI PUSH2 0x4A21 PUSH2 0x2F59 JUMP JUMPDEST JUMPDEST PUSH1 0x0 PUSH2 0x4A30 DUP5 DUP3 DUP6 ADD PUSH2 0x49F7 JUMP JUMPDEST SWAP2 POP POP SWAP3 SWAP2 POP POP JUMP JUMPDEST PUSH32 0x4552433732313A206D696E7420746F20746865207A65726F2061646472657373 PUSH1 0x0 DUP3 ADD MSTORE POP JUMP JUMPDEST PUSH1 0x0 PUSH2 0x4A6F PUSH1 0x20 DUP4 PUSH2 0x316E JUMP JUMPDEST SWAP2 POP PUSH2 0x4A7A DUP3 PUSH2 0x4A39 JUMP JUMPDEST PUSH1 0x20 DUP3 ADD SWAP1 POP SWAP2 SWAP1 POP JUMP JUMPDEST PUSH1 0x0 PUSH1 0x20 DUP3 ADD SWAP1 POP DUP2 DUP2 SUB PUSH1 0x0 DUP4 ADD MSTORE PUSH2 0x4A9E DUP2 PUSH2 0x4A62 JUMP JUMPDEST SWAP1 POP SWAP2 SWAP1 POP JUMP JUMPDEST PUSH32 0x4552433732313A20746F6B656E20616C7265616479206D696E74656400000000 PUSH1 0x0 DUP3 ADD MSTORE POP JUMP JUMPDEST PUSH1 0x0 PUSH2 0x4ADB PUSH1 0x1C DUP4 PUSH2 0x316E JUMP JUMPDEST SWAP2 POP PUSH2 0x4AE6 DUP3 PUSH2 0x4AA5 JUMP JUMPDEST PUSH1 0x20 DUP3 ADD SWAP1 POP SWAP2 SWAP1 POP JUMP JUMPDEST PUSH1 0x0 PUSH1 0x20 DUP3 ADD SWAP1 POP DUP2 DUP2 SUB PUSH1 0x0 DUP4 ADD MSTORE PUSH2 0x4B0A DUP2 PUSH2 0x4ACE JUMP JUMPDEST SWAP1 POP SWAP2 SWAP1 POP JUMP JUMPDEST PUSH32 0x455243373231456E756D657261626C653A20636F6E7365637574697665207472 PUSH1 0x0 DUP3 ADD MSTORE PUSH32 0x616E7366657273206E6F7420737570706F727465640000000000000000000000 PUSH1 0x20 DUP3 ADD MSTORE POP JUMP JUMPDEST PUSH1 0x0 PUSH2 0x4B6D PUSH1 0x35 DUP4 PUSH2 0x316E JUMP JUMPDEST SWAP2 POP PUSH2 0x4B78 DUP3 PUSH2 0x4B11 JUMP JUMPDEST PUSH1 0x40 DUP3 ADD SWAP1 POP SWAP2 SWAP1 POP JUMP JUMPDEST PUSH1 0x0 PUSH1 0x20 DUP3 ADD SWAP1 POP DUP2 DUP2 SUB PUSH1 0x0 DUP4 ADD MSTORE PUSH2 0x4B9C DUP2 PUSH2 0x4B60 JUMP JUMPDEST SWAP1 POP SWAP2 SWAP1 POP JUMP JUMPDEST PUSH32 0x4E487B7100000000000000000000000000000000000000000000000000000000 PUSH1 0x0 MSTORE PUSH1 0x31 PUSH1 0x4 MSTORE PUSH1 0x24 PUSH1 0x0 REVERT INVALID COINBASE TIMESTAMP NUMBER PREVRANDAO GASLIMIT CHAINID SELFBALANCE BASEFEE 0x49 0x4A 0x4B 0x4C 0x4D 0x4E 0x4F POP MLOAD MSTORE MSTORE8 SLOAD SSTORE JUMP JUMPI PC MSIZE GAS PUSH2 0x6263 PUSH5 0x6566676869 PUSH11 0x6B6C6D6E6F707172737475 PUSH23 0x7778797A303132333435363738392B2FA2646970667358 0x22 SLT KECCAK256 PUSH4 0x1DB7BC90 0x26 0xAB PUSH5 0x4E73B1E250 PUSH10 0xCC2076296395E7711003 0xA5 0x2A PUSH32 0x953873B6B964736F6C63430008120033608060405234801561001057600080FD JUMPDEST POP PUSH2 0x3135 DUP1 PUSH2 0x20 PUSH1 0x0 CODECOPY PUSH1 0x0 RETURN INVALID PUSH1 0x80 PUSH1 0x40 MSTORE CALLVALUE DUP1 ISZERO PUSH2 0x10 JUMPI PUSH1 0x0 DUP1 REVERT JUMPDEST POP PUSH1 0x4 CALLDATASIZE LT PUSH2 0x41 JUMPI PUSH1 0x0 CALLDATALOAD PUSH1 0xE0 SHR DUP1 PUSH4 0x691A3CA0 EQ PUSH2 0x46 JUMPI DUP1 PUSH4 0x6DCEE4CA EQ PUSH2 0x76 JUMPI DUP1 PUSH4 0x7B5D473B EQ PUSH2 0xA6 JUMPI JUMPDEST PUSH1 0x0 DUP1 REVERT JUMPDEST PUSH2 0x60 PUSH1 0x4 DUP1 CALLDATASIZE SUB DUP2 ADD SWAP1 PUSH2 0x5B SWAP2 SWAP1 PUSH2 0x7A9 JUMP JUMPDEST PUSH2 0xD6 JUMP JUMPDEST PUSH1 0x40 MLOAD PUSH2 0x6D SWAP2 SWAP1 PUSH2 0x884 JUMP JUMPDEST PUSH1 0x40 MLOAD DUP1 SWAP2 SUB SWAP1 RETURN JUMPDEST PUSH2 0x90 PUSH1 0x4 DUP1 CALLDATASIZE SUB DUP2 ADD SWAP1 PUSH2 0x8B SWAP2 SWAP1 PUSH2 0x8A6 JUMP JUMPDEST PUSH2 0x12C JUMP JUMPDEST PUSH1 0x40 MLOAD PUSH2 0x9D SWAP2 SWAP1 PUSH2 0x884 JUMP JUMPDEST PUSH1 0x40 MLOAD DUP1 SWAP2 SUB SWAP1 RETURN JUMPDEST PUSH2 0xC0 PUSH1 0x4 DUP1 CALLDATASIZE SUB DUP2 ADD SWAP1 PUSH2 0xBB SWAP2 SWAP1 PUSH2 0x8D3 JUMP JUMPDEST PUSH2 0x1FD JUMP JUMPDEST PUSH1 0x40 MLOAD PUSH2 0xCD SWAP2 SWAP1 PUSH2 0x884 JUMP JUMPDEST PUSH1 0x40 MLOAD DUP1 SWAP2 SUB SWAP1 RETURN JUMPDEST PUSH1 0x60 PUSH1 0x0 DUP3 SWAP1 POP PUSH1 0x0 PUSH2 0xE8 DUP3 PUSH2 0x295 JUMP JUMPDEST SWAP1 POP PUSH1 0x0 PUSH2 0xF5 DUP7 PUSH2 0x3F8 JUMP JUMPDEST SWAP1 POP PUSH1 0x0 DUP3 DUP3 DUP4 PUSH1 0x40 MLOAD PUSH1 0x20 ADD PUSH2 0x10E SWAP4 SWAP3 SWAP2 SWAP1 PUSH2 0xF22 JUMP JUMPDEST PUSH1 0x40 MLOAD PUSH1 0x20 DUP2 DUP4 SUB SUB DUP2 MSTORE SWAP1 PUSH1 0x40 MSTORE SWAP1 POP DUP1 SWAP5 POP POP POP POP POP SWAP3 SWAP2 POP POP JUMP JUMPDEST PUSH1 0x60 PUSH1 0x0 PUSH2 0x136 PUSH2 0x3E5 DUP5 PUSH2 0x141 SWAP2 SWAP1 PUSH2 0x1006 JUMP JUMPDEST PUSH2 0x14B SWAP2 SWAP1 PUSH2 0x1077 JUMP JUMPDEST SWAP1 POP PUSH1 0x0 PUSH2 0x136 PUSH1 0x2D DUP4 PUSH2 0x15F SWAP2 SWAP1 PUSH2 0x10A8 JUMP JUMPDEST PUSH2 0x169 SWAP2 SWAP1 PUSH2 0x1077 JUMP JUMPDEST SWAP1 POP PUSH1 0x0 PUSH1 0x50 SWAP1 POP PUSH1 0x0 PUSH1 0x3C SWAP1 POP PUSH1 0x0 PUSH1 0x5A SWAP1 POP PUSH1 0x0 PUSH2 0x188 DUP7 PUSH2 0x3F8 JUMP JUMPDEST PUSH2 0x191 DUP6 PUSH2 0x3F8 JUMP JUMPDEST PUSH2 0x19A DUP6 PUSH2 0x3F8 JUMP JUMPDEST PUSH2 0x1A3 DUP9 PUSH2 0x3F8 JUMP JUMPDEST PUSH2 0x1AC DUP9 PUSH2 0x3F8 JUMP JUMPDEST PUSH2 0x1B5 DUP8 PUSH2 0x3F8 JUMP JUMPDEST PUSH2 0x1BE DUP15 PUSH2 0x3F8 JUMP JUMPDEST PUSH2 0x1C7 DUP16 PUSH2 0x3F8 JUMP JUMPDEST PUSH1 0x40 MLOAD PUSH1 0x20 ADD PUSH2 0x1DE SWAP9 SWAP8 SWAP7 SWAP6 SWAP5 SWAP4 SWAP3 SWAP2 SWAP1 PUSH2 0x2B3F JUMP JUMPDEST PUSH1 0x40 MLOAD PUSH1 0x20 DUP2 DUP4 SUB SUB DUP2 MSTORE SWAP1 PUSH1 0x40 MSTORE SWAP1 POP DUP1 SWAP7 POP POP POP POP POP POP POP SWAP2 SWAP1 POP JUMP JUMPDEST PUSH1 0x60 PUSH1 0x0 DUP5 SWAP1 POP PUSH1 0x0 PUSH2 0x20F DUP3 PUSH2 0x295 JUMP JUMPDEST SWAP1 POP PUSH1 0x0 PUSH2 0x21C DUP9 PUSH2 0x3F8 JUMP JUMPDEST SWAP1 POP PUSH1 0x60 PUSH1 0x0 DUP7 MLOAD GT ISZERO PUSH2 0x255 JUMPI DUP7 DUP3 DUP8 PUSH1 0x40 MLOAD PUSH1 0x20 ADD PUSH2 0x23F SWAP4 SWAP3 SWAP2 SWAP1 PUSH2 0x2DF6 JUMP JUMPDEST PUSH1 0x40 MLOAD PUSH1 0x20 DUP2 DUP4 SUB SUB DUP2 MSTORE SWAP1 PUSH1 0x40 MSTORE SWAP1 POP PUSH2 0x259 JUMP JUMPDEST DUP7 SWAP1 POP JUMPDEST PUSH1 0x0 DUP4 DUP3 DUP5 DUP6 DUP6 PUSH1 0x40 MLOAD PUSH1 0x20 ADD PUSH2 0x274 SWAP6 SWAP5 SWAP4 SWAP3 SWAP2 SWAP1 PUSH2 0x2F93 JUMP JUMPDEST PUSH1 0x40 MLOAD PUSH1 0x20 DUP2 DUP4 SUB SUB DUP2 MSTORE SWAP1 PUSH1 0x40 MSTORE SWAP1 POP DUP1 SWAP6 POP POP POP POP POP POP SWAP5 SWAP4 POP POP POP POP JUMP JUMPDEST PUSH1 0x60 PUSH1 0x0 DUP3 MLOAD SUB PUSH2 0x2B7 JUMPI PUSH1 0x40 MLOAD DUP1 PUSH1 0x20 ADD PUSH1 0x40 MSTORE DUP1 PUSH1 0x0 DUP2 MSTORE POP SWAP1 POP PUSH2 0x3F3 JUMP JUMPDEST PUSH1 0x0 PUSH1 0x40 MLOAD DUP1 PUSH1 0x60 ADD PUSH1 0x40 MSTORE DUP1 PUSH1 0x40 DUP2 MSTORE PUSH1 0x20 ADD PUSH2 0x30C0 PUSH1 0x40 SWAP2 CODECOPY SWAP1 POP PUSH1 0x0 PUSH1 0x3 PUSH1 0x2 DUP6 MLOAD PUSH2 0x2E6 SWAP2 SWAP1 PUSH2 0x10A8 JUMP JUMPDEST PUSH2 0x2F0 SWAP2 SWAP1 PUSH2 0x308E JUMP JUMPDEST PUSH1 0x4 PUSH2 0x2FC SWAP2 SWAP1 PUSH2 0x1006 JUMP JUMPDEST PUSH8 0xFFFFFFFFFFFFFFFF DUP2 GT ISZERO PUSH2 0x315 JUMPI PUSH2 0x314 PUSH2 0x67E JUMP JUMPDEST JUMPDEST PUSH1 0x40 MLOAD SWAP1 DUP1 DUP3 MSTORE DUP1 PUSH1 0x1F ADD PUSH1 0x1F NOT AND PUSH1 0x20 ADD DUP3 ADD PUSH1 0x40 MSTORE DUP1 ISZERO PUSH2 0x347 JUMPI DUP2 PUSH1 0x20 ADD PUSH1 0x1 DUP3 MUL DUP1 CALLDATASIZE DUP4 CALLDATACOPY DUP1 DUP3 ADD SWAP2 POP POP SWAP1 POP JUMPDEST POP SWAP1 POP PUSH1 0x1 DUP3 ADD PUSH1 0x20 DUP3 ADD DUP6 DUP7 MLOAD DUP8 ADD JUMPDEST DUP1 DUP3 LT ISZERO PUSH2 0x3B3 JUMPI PUSH1 0x3 DUP3 ADD SWAP2 POP DUP2 MLOAD PUSH1 0x3F DUP2 PUSH1 0x12 SHR AND DUP6 ADD MLOAD DUP5 MSTORE8 PUSH1 0x1 DUP5 ADD SWAP4 POP PUSH1 0x3F DUP2 PUSH1 0xC SHR AND DUP6 ADD MLOAD DUP5 MSTORE8 PUSH1 0x1 DUP5 ADD SWAP4 POP PUSH1 0x3F DUP2 PUSH1 0x6 SHR AND DUP6 ADD MLOAD DUP5 MSTORE8 PUSH1 0x1 DUP5 ADD SWAP4 POP PUSH1 0x3F DUP2 AND DUP6 ADD MLOAD DUP5 MSTORE8 PUSH1 0x1 DUP5 ADD SWAP4 POP POP PUSH2 0x358 JUMP JUMPDEST POP POP PUSH1 0x3 DUP7 MLOAD MOD PUSH1 0x1 DUP2 EQ PUSH2 0x3CF JUMPI PUSH1 0x2 DUP2 EQ PUSH2 0x3E2 JUMPI PUSH2 0x3EA JUMP JUMPDEST PUSH1 0x3D PUSH1 0x1 DUP4 SUB MSTORE8 PUSH1 0x3D PUSH1 0x2 DUP4 SUB MSTORE8 PUSH2 0x3EA JUMP JUMPDEST PUSH1 0x3D PUSH1 0x1 DUP4 SUB MSTORE8 JUMPDEST POP POP POP DUP1 SWAP3 POP POP POP JUMPDEST SWAP2 SWAP1 POP JUMP JUMPDEST PUSH1 0x60 PUSH1 0x0 PUSH1 0x1 PUSH2 0x407 DUP5 PUSH2 0x4C6 JUMP JUMPDEST ADD SWAP1 POP PUSH1 0x0 DUP2 PUSH8 0xFFFFFFFFFFFFFFFF DUP2 GT ISZERO PUSH2 0x426 JUMPI PUSH2 0x425 PUSH2 0x67E JUMP JUMPDEST JUMPDEST PUSH1 0x40 MLOAD SWAP1 DUP1 DUP3 MSTORE DUP1 PUSH1 0x1F ADD PUSH1 0x1F NOT AND PUSH1 0x20 ADD DUP3 ADD PUSH1 0x40 MSTORE DUP1 ISZERO PUSH2 0x458 JUMPI DUP2 PUSH1 0x20 ADD PUSH1 0x1 DUP3 MUL DUP1 CALLDATASIZE DUP4 CALLDATACOPY DUP1 DUP3 ADD SWAP2 POP POP SWAP1 POP JUMPDEST POP SWAP1 POP PUSH1 0x0 DUP3 PUSH1 0x20 ADD DUP3 ADD SWAP1 POP JUMPDEST PUSH1 0x1 ISZERO PUSH2 0x4BB JUMPI DUP1 DUP1 PUSH1 0x1 SWAP1 SUB SWAP2 POP POP PUSH32 0x3031323334353637383961626364656600000000000000000000000000000000 PUSH1 0xA DUP7 MOD BYTE DUP2 MSTORE8 PUSH1 0xA DUP6 DUP2 PUSH2 0x4AF JUMPI PUSH2 0x4AE PUSH2 0x1048 JUMP JUMPDEST JUMPDEST DIV SWAP5 POP PUSH1 0x0 DUP6 SUB PUSH2 0x466 JUMPI JUMPDEST DUP2 SWAP4 POP POP POP POP SWAP2 SWAP1 POP JUMP JUMPDEST PUSH1 0x0 DUP1 PUSH1 0x0 SWAP1 POP PUSH27 0x184F03E93FF9F4DAA797ED6E38ED64BF6A1F010000000000000000 DUP4 LT PUSH2 0x524 JUMPI PUSH27 0x184F03E93FF9F4DAA797ED6E38ED64BF6A1F010000000000000000 DUP4 DUP2 PUSH2 0x51A JUMPI PUSH2 0x519 PUSH2 0x1048 JUMP JUMPDEST JUMPDEST DIV SWAP3 POP PUSH1 0x40 DUP2 ADD SWAP1 POP JUMPDEST PUSH14 0x4EE2D6D415B85ACEF8100000000 DUP4 LT PUSH2 0x561 JUMPI PUSH14 0x4EE2D6D415B85ACEF8100000000 DUP4 DUP2 PUSH2 0x557 JUMPI PUSH2 0x556 PUSH2 0x1048 JUMP JUMPDEST JUMPDEST DIV SWAP3 POP PUSH1 0x20 DUP2 ADD SWAP1 POP JUMPDEST PUSH7 0x2386F26FC10000 DUP4 LT PUSH2 0x590 JUMPI PUSH7 0x2386F26FC10000 DUP4 DUP2 PUSH2 0x586 JUMPI PUSH2 0x585 PUSH2 0x1048 JUMP JUMPDEST JUMPDEST DIV SWAP3 POP PUSH1 0x10 DUP2 ADD SWAP1 POP JUMPDEST PUSH4 0x5F5E100 DUP4 LT PUSH2 0x5B9 JUMPI PUSH4 0x5F5E100 DUP4 DUP2 PUSH2 0x5AF JUMPI PUSH2 0x5AE PUSH2 0x1048 JUMP JUMPDEST JUMPDEST DIV SWAP3 POP PUSH1 0x8 DUP2 ADD SWAP1 POP JUMPDEST PUSH2 0x2710 DUP4 LT PUSH2 0x5DE JUMPI PUSH2 0x2710 DUP4 DUP2 PUSH2 0x5D4 JUMPI PUSH2 0x5D3 PUSH2 0x1048 JUMP JUMPDEST JUMPDEST DIV SWAP3 POP PUSH1 0x4 DUP2 ADD SWAP1 POP JUMPDEST PUSH1 0x64 DUP4 LT PUSH2 0x601 JUMPI PUSH1 0x64 DUP4 DUP2 PUSH2 0x5F7 JUMPI PUSH2 0x5F6 PUSH2 0x1048 JUMP JUMPDEST JUMPDEST DIV SWAP3 POP PUSH1 0x2 DUP2 ADD SWAP1 POP JUMPDEST PUSH1 0xA DUP4 LT PUSH2 0x610 JUMPI PUSH1 0x1 DUP2 ADD SWAP1 POP JUMPDEST DUP1 SWAP2 POP POP SWAP2 SWAP1 POP JUMP JUMPDEST PUSH1 0x0 PUSH1 0x40 MLOAD SWAP1 POP SWAP1 JUMP JUMPDEST PUSH1 0x0 DUP1 REVERT JUMPDEST PUSH1 0x0 DUP1 REVERT JUMPDEST PUSH1 0x0 DUP2 SWAP1 POP SWAP2 SWAP1 POP JUMP JUMPDEST PUSH2 0x640 DUP2 PUSH2 0x62D JUMP JUMPDEST DUP2 EQ PUSH2 0x64B JUMPI PUSH1 0x0 DUP1 REVERT JUMPDEST POP JUMP JUMPDEST PUSH1 0x0 DUP2 CALLDATALOAD SWAP1 POP PUSH2 0x65D DUP2 PUSH2 0x637 JUMP JUMPDEST SWAP3 SWAP2 POP POP JUMP JUMPDEST PUSH1 0x0 DUP1 REVERT JUMPDEST PUSH1 0x0 DUP1 REVERT JUMPDEST PUSH1 0x0 PUSH1 0x1F NOT PUSH1 0x1F DUP4 ADD AND SWAP1 POP SWAP2 SWAP1 POP JUMP JUMPDEST PUSH32 0x4E487B7100000000000000000000000000000000000000000000000000000000 PUSH1 0x0 MSTORE PUSH1 0x41 PUSH1 0x4 MSTORE PUSH1 0x24 PUSH1 0x0 REVERT JUMPDEST PUSH2 0x6B6 DUP3 PUSH2 0x66D JUMP JUMPDEST DUP2 ADD DUP2 DUP2 LT PUSH8 0xFFFFFFFFFFFFFFFF DUP3 GT OR ISZERO PUSH2 0x6D5 JUMPI PUSH2 0x6D4 PUSH2 0x67E JUMP JUMPDEST JUMPDEST DUP1 PUSH1 0x40 MSTORE POP POP POP JUMP JUMPDEST PUSH1 0x0 PUSH2 0x6E8 PUSH2 0x619 JUMP JUMPDEST SWAP1 POP PUSH2 0x6F4 DUP3 DUP3 PUSH2 0x6AD JUMP JUMPDEST SWAP2 SWAP1 POP JUMP JUMPDEST PUSH1 0x0 PUSH8 0xFFFFFFFFFFFFFFFF DUP3 GT ISZERO PUSH2 0x714 JUMPI PUSH2 0x713 PUSH2 0x67E JUMP JUMPDEST JUMPDEST PUSH2 0x71D DUP3 PUSH2 0x66D JUMP JUMPDEST SWAP1 POP PUSH1 0x20 DUP2 ADD SWAP1 POP SWAP2 SWAP1 POP JUMP JUMPDEST DUP3 DUP2 DUP4 CALLDATACOPY PUSH1 0x0 DUP4 DUP4 ADD MSTORE POP POP POP JUMP JUMPDEST PUSH1 0x0 PUSH2 0x74C PUSH2 0x747 DUP5 PUSH2 0x6F9 JUMP JUMPDEST PUSH2 0x6DE JUMP JUMPDEST SWAP1 POP DUP3 DUP2 MSTORE PUSH1 0x20 DUP2 ADD DUP5 DUP5 DUP5 ADD GT ISZERO PUSH2 0x768 JUMPI PUSH2 0x767 PUSH2 0x668 JUMP JUMPDEST JUMPDEST PUSH2 0x773 DUP5 DUP3 DUP6 PUSH2 0x72A JUMP JUMPDEST POP SWAP4 SWAP3 POP POP POP JUMP JUMPDEST PUSH1 0x0 DUP3 PUSH1 0x1F DUP4 ADD SLT PUSH2 0x790 JUMPI PUSH2 0x78F PUSH2 0x663 JUMP JUMPDEST JUMPDEST DUP2 CALLDATALOAD PUSH2 0x7A0 DUP5 DUP3 PUSH1 0x20 DUP7 ADD PUSH2 0x739 JUMP JUMPDEST SWAP2 POP POP SWAP3 SWAP2 POP POP JUMP JUMPDEST PUSH1 0x0 DUP1 PUSH1 0x40 DUP4 DUP6 SUB SLT ISZERO PUSH2 0x7C0 JUMPI PUSH2 0x7BF PUSH2 0x623 JUMP JUMPDEST JUMPDEST PUSH1 0x0 PUSH2 0x7CE DUP6 DUP3 DUP7 ADD PUSH2 0x64E JUMP JUMPDEST SWAP3 POP POP PUSH1 0x20 DUP4 ADD CALLDATALOAD PUSH8 0xFFFFFFFFFFFFFFFF DUP2 GT ISZERO PUSH2 0x7EF JUMPI PUSH2 0x7EE PUSH2 0x628 JUMP JUMPDEST JUMPDEST PUSH2 0x7FB DUP6 DUP3 DUP7 ADD PUSH2 0x77B JUMP JUMPDEST SWAP2 POP POP SWAP3 POP SWAP3 SWAP1 POP JUMP JUMPDEST PUSH1 0x0 DUP2 MLOAD SWAP1 POP SWAP2 SWAP1 POP JUMP JUMPDEST PUSH1 0x0 DUP3 DUP3 MSTORE PUSH1 0x20 DUP3 ADD SWAP1 POP SWAP3 SWAP2 POP POP JUMP JUMPDEST PUSH1 0x0 JUMPDEST DUP4 DUP2 LT ISZERO PUSH2 0x83F JUMPI DUP1 DUP3 ADD MLOAD DUP2 DUP5 ADD MSTORE PUSH1 0x20 DUP2 ADD SWAP1 POP PUSH2 0x824 JUMP JUMPDEST PUSH1 0x0 DUP5 DUP5 ADD MSTORE POP POP POP POP JUMP JUMPDEST PUSH1 0x0 PUSH2 0x856 DUP3 PUSH2 0x805 JUMP JUMPDEST PUSH2 0x860 DUP2 DUP6 PUSH2 0x810 JUMP JUMPDEST SWAP4 POP PUSH2 0x870 DUP2 DUP6 PUSH1 0x20 DUP7 ADD PUSH2 0x821 JUMP JUMPDEST PUSH2 0x879 DUP2 PUSH2 0x66D JUMP JUMPDEST DUP5 ADD SWAP2 POP POP SWAP3 SWAP2 POP POP JUMP JUMPDEST PUSH1 0x0 PUSH1 0x20 DUP3 ADD SWAP1 POP DUP2 DUP2 SUB PUSH1 0x0 DUP4 ADD MSTORE PUSH2 0x89E DUP2 DUP5 PUSH2 0x84B JUMP JUMPDEST SWAP1 POP SWAP3 SWAP2 POP POP JUMP JUMPDEST PUSH1 0x0 PUSH1 0x20 DUP3 DUP5 SUB SLT ISZERO PUSH2 0x8BC JUMPI PUSH2 0x8BB PUSH2 0x623 JUMP JUMPDEST JUMPDEST PUSH1 0x0 PUSH2 0x8CA DUP5 DUP3 DUP6 ADD PUSH2 0x64E JUMP JUMPDEST SWAP2 POP POP SWAP3 SWAP2 POP POP JUMP JUMPDEST PUSH1 0x0 DUP1 PUSH1 0x0 DUP1 PUSH1 0x80 DUP6 DUP8 SUB SLT ISZERO PUSH2 0x8ED JUMPI PUSH2 0x8EC PUSH2 0x623 JUMP JUMPDEST JUMPDEST PUSH1 0x0 PUSH2 0x8FB DUP8 DUP3 DUP9 ADD PUSH2 0x64E JUMP JUMPDEST SWAP5 POP POP PUSH1 0x20 DUP6 ADD CALLDATALOAD PUSH8 0xFFFFFFFFFFFFFFFF DUP2 GT ISZERO PUSH2 0x91C JUMPI PUSH2 0x91B PUSH2 0x628 JUMP JUMPDEST JUMPDEST PUSH2 0x928 DUP8 DUP3 DUP9 ADD PUSH2 0x77B JUMP JUMPDEST SWAP4 POP POP PUSH1 0x40 DUP6 ADD CALLDATALOAD PUSH8 0xFFFFFFFFFFFFFFFF DUP2 GT ISZERO PUSH2 0x949 JUMPI PUSH2 0x948 PUSH2 0x628 JUMP JUMPDEST JUMPDEST PUSH2 0x955 DUP8 DUP3 DUP9 ADD PUSH2 0x77B JUMP JUMPDEST SWAP3 POP POP PUSH1 0x60 DUP6 ADD CALLDATALOAD PUSH8 0xFFFFFFFFFFFFFFFF DUP2 GT ISZERO PUSH2 0x976 JUMPI PUSH2 0x975 PUSH2 0x628 JUMP JUMPDEST JUMPDEST PUSH2 0x982 DUP8 DUP3 DUP9 ADD PUSH2 0x77B JUMP JUMPDEST SWAP2 POP POP SWAP3 SWAP6 SWAP2 SWAP5 POP SWAP3 POP JUMP JUMPDEST PUSH1 0x0 DUP2 SWAP1 POP SWAP3 SWAP2 POP POP JUMP JUMPDEST PUSH32 0x7B226E616D65223A22446F6D656C616E64222C00000000000000000000000000 PUSH1 0x0 DUP3 ADD MSTORE POP JUMP JUMPDEST PUSH1 0x0 PUSH2 0x9CF PUSH1 0x13 DUP4 PUSH2 0x98E JUMP JUMPDEST SWAP2 POP PUSH2 0x9DA DUP3 PUSH2 0x999 JUMP JUMPDEST PUSH1 0x13 DUP3 ADD SWAP1 POP SWAP2 SWAP1 POP JUMP JUMPDEST PUSH32 0x22696D616765223A22646174613A696D6167652F7376672B786D6C3B62617365 PUSH1 0x0 DUP3 ADD MSTORE PUSH32 0x36342C0000000000000000000000000000000000000000000000000000000000 PUSH1 0x20 DUP3 ADD MSTORE POP JUMP JUMPDEST PUSH1 0x0 PUSH2 0xA41 PUSH1 0x23 DUP4 PUSH2 0x98E JUMP JUMPDEST SWAP2 POP PUSH2 0xA4C DUP3 PUSH2 0x9E5 JUMP JUMPDEST PUSH1 0x23 DUP3 ADD SWAP1 POP SWAP2 SWAP1 POP JUMP JUMPDEST PUSH1 0x0 PUSH2 0xA62 DUP3 PUSH2 0x805 JUMP JUMPDEST PUSH2 0xA6C DUP2 DUP6 PUSH2 0x98E JUMP JUMPDEST SWAP4 POP PUSH2 0xA7C DUP2 DUP6 PUSH1 0x20 DUP7 ADD PUSH2 0x821 JUMP JUMPDEST DUP1 DUP5 ADD SWAP2 POP POP SWAP3 SWAP2 POP POP JUMP JUMPDEST PUSH32 0x222C000000000000000000000000000000000000000000000000000000000000 PUSH1 0x0 DUP3 ADD MSTORE POP JUMP JUMPDEST PUSH1 0x0 PUSH2 0xABE PUSH1 0x2 DUP4 PUSH2 0x98E JUMP JUMPDEST SWAP2 POP PUSH2 0xAC9 DUP3 PUSH2 0xA88 JUMP JUMPDEST PUSH1 0x2 DUP3 ADD SWAP1 POP SWAP2 SWAP1 POP JUMP JUMPDEST PUSH32 0x2261747472696275746573223A5B000000000000000000000000000000000000 PUSH1 0x0 DUP3 ADD MSTORE POP JUMP JUMPDEST PUSH1 0x0 PUSH2 0xB0A PUSH1 0xE DUP4 PUSH2 0x98E JUMP JUMPDEST SWAP2 POP PUSH2 0xB15 DUP3 PUSH2 0xAD4 JUMP JUMPDEST PUSH1 0xE DUP3 ADD SWAP1 POP SWAP2 SWAP1 POP JUMP JUMPDEST PUSH32 0x7B2274726169745F74797065223A22444323222C2276616C7565223A22000000 PUSH1 0x0 DUP3 ADD MSTORE POP JUMP JUMPDEST PUSH1 0x0 PUSH2 0xB56 PUSH1 0x1D DUP4 PUSH2 0x98E JUMP JUMPDEST SWAP2 POP PUSH2 0xB61 DUP3 PUSH2 0xB20 JUMP JUMPDEST PUSH1 0x1D DUP3 ADD SWAP1 POP SWAP2 SWAP1 POP JUMP JUMPDEST PUSH32 0x227D2C0000000000000000000000000000000000000000000000000000000000 PUSH1 0x0 DUP3 ADD MSTORE POP JUMP JUMPDEST PUSH1 0x0 PUSH2 0xBA2 PUSH1 0x3 DUP4 PUSH2 0x98E JUMP JUMPDEST SWAP2 POP PUSH2 0xBAD DUP3 PUSH2 0xB6C JUMP JUMPDEST PUSH1 0x3 DUP3 ADD SWAP1 POP SWAP2 SWAP1 POP JUMP JUMPDEST PUSH32 0x7B2274726169745F74797065223A22554E495423222C2276616C7565223A2230 PUSH1 0x0 DUP3 ADD MSTORE PUSH32 0x227D2C0000000000000000000000000000000000000000000000000000000000 PUSH1 0x20 DUP3 ADD MSTORE POP JUMP JUMPDEST PUSH1 0x0 PUSH2 0xC14 PUSH1 0x23 DUP4 PUSH2 0x98E JUMP JUMPDEST SWAP2 POP PUSH2 0xC1F DUP3 PUSH2 0xBB8 JUMP JUMPDEST PUSH1 0x23 DUP3 ADD SWAP1 POP SWAP2 SWAP1 POP JUMP JUMPDEST PUSH32 0x7B2274726169745F74797065223A224A554D502D50415448222C2276616C7565 PUSH1 0x0 DUP3 ADD MSTORE PUSH32 0x223A224F627365727661626C6520556E697665727365202E2E2E205069736365 PUSH1 0x20 DUP3 ADD MSTORE PUSH32 0x732C204365747573205375706572636C757374657220436F6D706C6578202E2E PUSH1 0x40 DUP3 ADD MSTORE PUSH32 0x2E204C616E69616B6561205375706572636C7573746572202E2E2E2056697267 PUSH1 0x60 DUP3 ADD MSTORE PUSH32 0x6F205375706572636C7573746572202E2E2E204C6F63616C2047726F7570206F PUSH1 0x80 DUP3 ADD MSTORE PUSH32 0x662047616C6178696573202E2E2E204D696C6B7920576179202E2E2E20536F6C PUSH1 0xA0 DUP3 ADD MSTORE PUSH32 0x61722053797374656D202E2E2E204561727468227D2C00000000000000000000 PUSH1 0xC0 DUP3 ADD MSTORE POP JUMP JUMPDEST PUSH1 0x0 PUSH2 0xD44 PUSH1 0xD6 DUP4 PUSH2 0x98E JUMP JUMPDEST SWAP2 POP PUSH2 0xD4F DUP3 PUSH2 0xC2A JUMP JUMPDEST PUSH1 0xD6 DUP3 ADD SWAP1 POP SWAP2 SWAP1 POP JUMP JUMPDEST PUSH32 0x7B2274726169745F74797065223A22564F4C222C2276616C7565223A22395839 PUSH1 0x0 DUP3 ADD MSTORE PUSH32 0x5839227D2C000000000000000000000000000000000000000000000000000000 PUSH1 0x20 DUP3 ADD MSTORE POP JUMP JUMPDEST PUSH1 0x0 PUSH2 0xDB6 PUSH1 0x25 DUP4 PUSH2 0x98E JUMP JUMPDEST SWAP2 POP PUSH2 0xDC1 DUP3 PUSH2 0xD5A JUMP JUMPDEST PUSH1 0x25 DUP3 ADD SWAP1 POP SWAP2 SWAP1 POP JUMP JUMPDEST PUSH32 0x7B2274726169745F74797065223A22535243222C2276616C7565223A22687474 PUSH1 0x0 DUP3 ADD MSTORE PUSH32 0x70733A2F2F697066732E696F2F697066732F62616679626569616568796B7961 PUSH1 0x20 DUP3 ADD MSTORE PUSH32 0x6C337163776836736B6872707664756C7765346A367A68647A776975786C337A PUSH1 0x40 DUP3 ADD MSTORE PUSH32 0x7776357667656A6B6761616E792F000000000000000000000000000000000000 PUSH1 0x60 DUP3 ADD MSTORE POP JUMP JUMPDEST PUSH1 0x0 PUSH2 0xE74 PUSH1 0x6E DUP4 PUSH2 0x98E JUMP JUMPDEST SWAP2 POP PUSH2 0xE7F DUP3 PUSH2 0xDCC JUMP JUMPDEST PUSH1 0x6E DUP3 ADD SWAP1 POP SWAP2 SWAP1 POP JUMP JUMPDEST PUSH32 0x2E6A736F6E227D00000000000000000000000000000000000000000000000000 PUSH1 0x0 DUP3 ADD MSTORE POP JUMP JUMPDEST PUSH1 0x0 PUSH2 0xEC0 PUSH1 0x7 DUP4 PUSH2 0x98E JUMP JUMPDEST SWAP2 POP PUSH2 0xECB DUP3 PUSH2 0xE8A JUMP JUMPDEST PUSH1 0x7 DUP3 ADD SWAP1 POP SWAP2 SWAP1 POP JUMP JUMPDEST PUSH32 0x5D7D000000000000000000000000000000000000000000000000000000000000 PUSH1 0x0 DUP3 ADD MSTORE POP JUMP JUMPDEST PUSH1 0x0 PUSH2 0xF0C PUSH1 0x2 DUP4 PUSH2 0x98E JUMP JUMPDEST SWAP2 POP PUSH2 0xF17 DUP3 PUSH2 0xED6 JUMP JUMPDEST PUSH1 0x2 DUP3 ADD SWAP1 POP SWAP2 SWAP1 POP JUMP JUMPDEST PUSH1 0x0 PUSH2 0xF2D DUP3 PUSH2 0x9C2 JUMP JUMPDEST SWAP2 POP PUSH2 0xF38 DUP3 PUSH2 0xA34 JUMP JUMPDEST SWAP2 POP PUSH2 0xF44 DUP3 DUP7 PUSH2 0xA57 JUMP JUMPDEST SWAP2 POP PUSH2 0xF4F DUP3 PUSH2 0xAB1 JUMP JUMPDEST SWAP2 POP PUSH2 0xF5A DUP3 PUSH2 0xAFD JUMP JUMPDEST SWAP2 POP PUSH2 0xF65 DUP3 PUSH2 0xB49 JUMP JUMPDEST SWAP2 POP PUSH2 0xF71 DUP3 DUP6 PUSH2 0xA57 JUMP JUMPDEST SWAP2 POP PUSH2 0xF7C DUP3 PUSH2 0xB95 JUMP JUMPDEST SWAP2 POP PUSH2 0xF87 DUP3 PUSH2 0xC07 JUMP JUMPDEST SWAP2 POP PUSH2 0xF92 DUP3 PUSH2 0xD37 JUMP JUMPDEST SWAP2 POP PUSH2 0xF9D DUP3 PUSH2 0xDA9 JUMP JUMPDEST SWAP2 POP PUSH2 0xFA8 DUP3 PUSH2 0xE67 JUMP JUMPDEST SWAP2 POP PUSH2 0xFB4 DUP3 DUP5 PUSH2 0xA57 JUMP JUMPDEST SWAP2 POP PUSH2 0xFBF DUP3 PUSH2 0xEB3 JUMP JUMPDEST SWAP2 POP PUSH2 0xFCA DUP3 PUSH2 0xEFF JUMP JUMPDEST SWAP2 POP DUP2 SWAP1 POP SWAP5 SWAP4 POP POP POP POP JUMP JUMPDEST PUSH32 0x4E487B7100000000000000000000000000000000000000000000000000000000 PUSH1 0x0 MSTORE PUSH1 0x11 PUSH1 0x4 MSTORE PUSH1 0x24 PUSH1 0x0 REVERT JUMPDEST PUSH1 0x0 PUSH2 0x1011 DUP3 PUSH2 0x62D JUMP JUMPDEST SWAP2 POP PUSH2 0x101C DUP4 PUSH2 0x62D JUMP JUMPDEST SWAP3 POP DUP3 DUP3 MUL PUSH2 0x102A DUP2 PUSH2 0x62D JUMP JUMPDEST SWAP2 POP DUP3 DUP3 DIV DUP5 EQ DUP4 ISZERO OR PUSH2 0x1041 JUMPI PUSH2 0x1040 PUSH2 0xFD7 JUMP JUMPDEST JUMPDEST POP SWAP3 SWAP2 POP POP JUMP JUMPDEST PUSH32 0x4E487B7100000000000000000000000000000000000000000000000000000000 PUSH1 0x0 MSTORE PUSH1 0x12 PUSH1 0x4 MSTORE PUSH1 0x24 PUSH1 0x0 REVERT JUMPDEST PUSH1 0x0 PUSH2 0x1082 DUP3 PUSH2 0x62D JUMP JUMPDEST SWAP2 POP PUSH2 0x108D DUP4 PUSH2 0x62D JUMP JUMPDEST SWAP3 POP DUP3 PUSH2 0x109D JUMPI PUSH2 0x109C PUSH2 0x1048 JUMP JUMPDEST JUMPDEST DUP3 DUP3 MOD SWAP1 POP SWAP3 SWAP2 POP POP JUMP JUMPDEST PUSH1 0x0 PUSH2 0x10B3 DUP3 PUSH2 0x62D JUMP JUMPDEST SWAP2 POP PUSH2 0x10BE DUP4 PUSH2 0x62D JUMP JUMPDEST SWAP3 POP DUP3 DUP3 ADD SWAP1 POP DUP1 DUP3 GT ISZERO PUSH2 0x10D6 JUMPI PUSH2 0x10D5 PUSH2 0xFD7 JUMP JUMPDEST JUMPDEST SWAP3 SWAP2 POP POP JUMP JUMPDEST PUSH32 0x3C73766720786D6C6E733D22687474703A2F2F7777772E77332E6F72672F3230 PUSH1 0x0 DUP3 ADD MSTORE PUSH32 0x30302F737667222076696577426F783D223020302033303020343830223E0000 PUSH1 0x20 DUP3 ADD MSTORE POP JUMP JUMPDEST PUSH1 0x0 PUSH2 0x1138 PUSH1 0x3E DUP4 PUSH2 0x98E JUMP JUMPDEST SWAP2 POP PUSH2 0x1143 DUP3 PUSH2 0x10DC JUMP JUMPDEST PUSH1 0x3E DUP3 ADD SWAP1 POP SWAP2 SWAP1 POP JUMP JUMPDEST PUSH32 0x3C7374796C653E00000000000000000000000000000000000000000000000000 PUSH1 0x0 DUP3 ADD MSTORE POP JUMP JUMPDEST PUSH1 0x0 PUSH2 0x1184 PUSH1 0x7 DUP4 PUSH2 0x98E JUMP JUMPDEST SWAP2 POP PUSH2 0x118F DUP3 PUSH2 0x114E JUMP JUMPDEST PUSH1 0x7 DUP3 ADD SWAP1 POP SWAP2 SWAP1 POP JUMP JUMPDEST PUSH32 0x2E746F6B656E73207B20666F6E743A20626F6C6420323470782073616E732D73 PUSH1 0x0 DUP3 ADD MSTORE PUSH32 0x657269663B207D00000000000000000000000000000000000000000000000000 PUSH1 0x20 DUP3 ADD MSTORE POP JUMP JUMPDEST PUSH1 0x0 PUSH2 0x11F6 PUSH1 0x27 DUP4 PUSH2 0x98E JUMP JUMPDEST SWAP2 POP PUSH2 0x1201 DUP3 PUSH2 0x119A JUMP JUMPDEST PUSH1 0x27 DUP3 ADD SWAP1 POP SWAP2 SWAP1 POP JUMP JUMPDEST PUSH32 0x2E666565207B20666F6E743A206E6F726D616C20313270782073616E732D7365 PUSH1 0x0 DUP3 ADD MSTORE PUSH32 0x7269663B207D0000000000000000000000000000000000000000000000000000 PUSH1 0x20 DUP3 ADD MSTORE POP JUMP JUMPDEST PUSH1 0x0 PUSH2 0x1268 PUSH1 0x26 DUP4 PUSH2 0x98E JUMP JUMPDEST SWAP2 POP PUSH2 0x1273 DUP3 PUSH2 0x120C JUMP JUMPDEST PUSH1 0x26 DUP3 ADD SWAP1 POP SWAP2 SWAP1 POP JUMP JUMPDEST PUSH32 0x2E7469636B207B20666F6E743A206E6F726D616C203870782073616E732D7365 PUSH1 0x0 DUP3 ADD MSTORE PUSH32 0x7269663B207D0000000000000000000000000000000000000000000000000000 PUSH1 0x20 DUP3 ADD MSTORE POP JUMP JUMPDEST PUSH1 0x0 PUSH2 0x12DA PUSH1 0x26 DUP4 PUSH2 0x98E JUMP JUMPDEST SWAP2 POP PUSH2 0x12E5 DUP3 PUSH2 0x127E JUMP JUMPDEST PUSH1 0x26 DUP3 ADD SWAP1 POP SWAP2 SWAP1 POP JUMP JUMPDEST PUSH32 0x3C2F7374796C653E000000000000000000000000000000000000000000000000 PUSH1 0x0 DUP3 ADD MSTORE POP JUMP JUMPDEST PUSH1 0x0 PUSH2 0x1326 PUSH1 0x8 DUP4 PUSH2 0x98E JUMP JUMPDEST SWAP2 POP PUSH2 0x1331 DUP3 PUSH2 0x12F0 JUMP JUMPDEST PUSH1 0x8 DUP3 ADD SWAP1 POP SWAP2 SWAP1 POP JUMP JUMPDEST PUSH32 0x3C646566733E0000000000000000000000000000000000000000000000000000 PUSH1 0x0 DUP3 ADD MSTORE POP JUMP JUMPDEST PUSH1 0x0 PUSH2 0x1372 PUSH1 0x6 DUP4 PUSH2 0x98E JUMP JUMPDEST SWAP2 POP PUSH2 0x137D DUP3 PUSH2 0x133C JUMP JUMPDEST PUSH1 0x6 DUP3 ADD SWAP1 POP SWAP2 SWAP1 POP JUMP JUMPDEST PUSH32 0x3C6C696E6561724772616469656E742069643D2267726164222078313D223022 PUSH1 0x0 DUP3 ADD MSTORE PUSH32 0x2079313D2230222078323D2231222079323D2231223E00000000000000000000 PUSH1 0x20 DUP3 ADD MSTORE POP JUMP JUMPDEST PUSH1 0x0 PUSH2 0x13E4 PUSH1 0x36 DUP4 PUSH2 0x98E JUMP JUMPDEST SWAP2 POP PUSH2 0x13EF DUP3 PUSH2 0x1388 JUMP JUMPDEST PUSH1 0x36 DUP3 ADD SWAP1 POP SWAP2 SWAP1 POP JUMP JUMPDEST PUSH32 0x3C73746F70206F66667365743D223025222073746F702D636F6C6F723D226873 PUSH1 0x0 DUP3 ADD MSTORE PUSH32 0x6C28000000000000000000000000000000000000000000000000000000000000 PUSH1 0x20 DUP3 ADD MSTORE POP JUMP JUMPDEST PUSH1 0x0 PUSH2 0x1456 PUSH1 0x22 DUP4 PUSH2 0x98E JUMP JUMPDEST SWAP2 POP PUSH2 0x1461 DUP3 PUSH2 0x13FA JUMP JUMPDEST PUSH1 0x22 DUP3 ADD SWAP1 POP SWAP2 SWAP1 POP JUMP JUMPDEST PUSH32 0x2C20000000000000000000000000000000000000000000000000000000000000 PUSH1 0x0 DUP3 ADD MSTORE POP JUMP JUMPDEST PUSH1 0x0 PUSH2 0x14A2 PUSH1 0x2 DUP4 PUSH2 0x98E JUMP JUMPDEST SWAP2 POP PUSH2 0x14AD DUP3 PUSH2 0x146C JUMP JUMPDEST PUSH1 0x2 DUP3 ADD SWAP1 POP SWAP2 SWAP1 POP JUMP JUMPDEST PUSH32 0x252C200000000000000000000000000000000000000000000000000000000000 PUSH1 0x0 DUP3 ADD MSTORE POP JUMP JUMPDEST PUSH1 0x0 PUSH2 0x14EE PUSH1 0x3 DUP4 PUSH2 0x98E JUMP JUMPDEST SWAP2 POP PUSH2 0x14F9 DUP3 PUSH2 0x14B8 JUMP JUMPDEST PUSH1 0x3 DUP3 ADD SWAP1 POP SWAP2 SWAP1 POP JUMP JUMPDEST PUSH32 0x2529222F3E000000000000000000000000000000000000000000000000000000 PUSH1 0x0 DUP3 ADD MSTORE POP JUMP JUMPDEST PUSH1 0x0 PUSH2 0x153A PUSH1 0x5 DUP4 PUSH2 0x98E JUMP JUMPDEST SWAP2 POP PUSH2 0x1545 DUP3 PUSH2 0x1504 JUMP JUMPDEST PUSH1 0x5 DUP3 ADD SWAP1 POP SWAP2 SWAP1 POP JUMP JUMPDEST PUSH32 0x3C73746F70206F66667365743D2231303025222073746F702D636F6C6F723D22 PUSH1 0x0 DUP3 ADD MSTORE PUSH32 0x68736C2800000000000000000000000000000000000000000000000000000000 PUSH1 0x20 DUP3 ADD MSTORE POP JUMP JUMPDEST PUSH1 0x0 PUSH2 0x15AC PUSH1 0x24 DUP4 PUSH2 0x98E JUMP JUMPDEST SWAP2 POP PUSH2 0x15B7 DUP3 PUSH2 0x1550 JUMP JUMPDEST PUSH1 0x24 DUP3 ADD SWAP1 POP SWAP2 SWAP1 POP JUMP JUMPDEST PUSH32 0x3C2F6C696E6561724772616469656E743E000000000000000000000000000000 PUSH1 0x0 DUP3 ADD MSTORE POP JUMP JUMPDEST PUSH1 0x0 PUSH2 0x15F8 PUSH1 0x11 DUP4 PUSH2 0x98E JUMP JUMPDEST SWAP2 POP PUSH2 0x1603 DUP3 PUSH2 0x15C2 JUMP JUMPDEST PUSH1 0x11 DUP3 ADD SWAP1 POP SWAP2 SWAP1 POP JUMP JUMPDEST PUSH32 0x3C2F646566733E00000000000000000000000000000000000000000000000000 PUSH1 0x0 DUP3 ADD MSTORE POP JUMP JUMPDEST PUSH1 0x0 PUSH2 0x1644 PUSH1 0x7 DUP4 PUSH2 0x98E JUMP JUMPDEST SWAP2 POP PUSH2 0x164F DUP3 PUSH2 0x160E JUMP JUMPDEST PUSH1 0x7 DUP3 ADD SWAP1 POP SWAP2 SWAP1 POP JUMP JUMPDEST PUSH32 0x3C726563742077696474683D2233303022206865696768743D22343830222066 PUSH1 0x0 DUP3 ADD MSTORE PUSH32 0x696C6C3D2275726C2823677261642922202F3E00000000000000000000000000 PUSH1 0x20 DUP3 ADD MSTORE POP JUMP JUMPDEST PUSH1 0x0 PUSH2 0x16B6 PUSH1 0x33 DUP4 PUSH2 0x98E JUMP JUMPDEST SWAP2 POP PUSH2 0x16C1 DUP3 PUSH2 0x165A JUMP JUMPDEST PUSH1 0x33 DUP3 ADD SWAP1 POP SWAP2 SWAP1 POP JUMP JUMPDEST PUSH32 0x3C7265637420783D2233302220793D223330222077696474683D223234302220 PUSH1 0x0 DUP3 ADD MSTORE PUSH32 0x6865696768743D22343230222072783D223135222072793D223135222066696C PUSH1 0x20 DUP3 ADD MSTORE PUSH32 0x6C3D2268736C28302C30252C30252922207374726F6B653D2223303030222069 PUSH1 0x40 DUP3 ADD MSTORE PUSH32 0x643D226D617022202F3E00000000000000000000000000000000000000000000 PUSH1 0x60 DUP3 ADD MSTORE POP JUMP JUMPDEST PUSH1 0x0 PUSH2 0x1774 PUSH1 0x6A DUP4 PUSH2 0x98E JUMP JUMPDEST SWAP2 POP PUSH2 0x177F DUP3 PUSH2 0x16CC JUMP JUMPDEST PUSH1 0x6A DUP3 ADD SWAP1 POP SWAP2 SWAP1 POP JUMP JUMPDEST PUSH32 0x3C7465787420783D2233392220793D2239302220636C6173733D22746F6B656E PUSH1 0x0 DUP3 ADD MSTORE PUSH32 0x73222066696C6C3D2223666666222069643D226E616D65223E20444F4D454C41 PUSH1 0x20 DUP3 ADD MSTORE PUSH32 0x4E44203C2F746578743E00000000000000000000000000000000000000000000 PUSH1 0x40 DUP3 ADD MSTORE POP JUMP JUMPDEST PUSH1 0x0 PUSH2 0x180C PUSH1 0x4A DUP4 PUSH2 0x98E JUMP JUMPDEST SWAP2 POP PUSH2 0x1817 DUP3 PUSH2 0x178A JUMP JUMPDEST PUSH1 0x4A DUP3 ADD SWAP1 POP SWAP2 SWAP1 POP JUMP JUMPDEST PUSH32 0x3C7465787420783D2233392220793D22313130222064793D2231352220636C61 PUSH1 0x0 DUP3 ADD MSTORE PUSH32 0x73733D22746F6B656E73222066696C6C3D2223666666222069643D2244432322 PUSH1 0x20 DUP3 ADD MSTORE PUSH32 0x3E44432023000000000000000000000000000000000000000000000000000000 PUSH1 0x40 DUP3 ADD MSTORE POP JUMP JUMPDEST PUSH1 0x0 PUSH2 0x18A4 PUSH1 0x45 DUP4 PUSH2 0x98E JUMP JUMPDEST SWAP2 POP PUSH2 0x18AF DUP3 PUSH2 0x1822 JUMP JUMPDEST PUSH1 0x45 DUP3 ADD SWAP1 POP SWAP2 SWAP1 POP JUMP JUMPDEST PUSH32 0x3C2F746578743E00000000000000000000000000000000000000000000000000 PUSH1 0x0 DUP3 ADD MSTORE POP JUMP JUMPDEST PUSH1 0x0 PUSH2 0x18F0 PUSH1 0x7 DUP4 PUSH2 0x98E JUMP JUMPDEST SWAP2 POP PUSH2 0x18FB DUP3 PUSH2 0x18BA JUMP JUMPDEST PUSH1 0x7 DUP3 ADD SWAP1 POP SWAP2 SWAP1 POP JUMP JUMPDEST PUSH32 0x3C7465787420783D2233392220793D22313330222064793D2231352220636C61 PUSH1 0x0 DUP3 ADD MSTORE PUSH32 0x73733D22666565222066696C6C3D2223666666222069643D22554E495423223E PUSH1 0x20 DUP3 ADD MSTORE PUSH32 0x554E4954202330203C2F746578743E0000000000000000000000000000000000 PUSH1 0x40 DUP3 ADD MSTORE POP JUMP JUMPDEST PUSH1 0x0 PUSH2 0x1988 PUSH1 0x4F DUP4 PUSH2 0x98E JUMP JUMPDEST SWAP2 POP PUSH2 0x1993 DUP3 PUSH2 0x1906 JUMP JUMPDEST PUSH1 0x4F DUP3 ADD SWAP1 POP SWAP2 SWAP1 POP JUMP JUMPDEST PUSH32 0x3C7465787420783D2233392220793D223138352220636C6173733D227469636B PUSH1 0x0 DUP3 ADD MSTORE PUSH32 0x222066696C6C3D2223666666222069643D224A554D502D50415448223E000000 PUSH1 0x20 DUP3 ADD MSTORE POP JUMP JUMPDEST PUSH1 0x0 PUSH2 0x19FA PUSH1 0x3D DUP4 PUSH2 0x98E JUMP JUMPDEST SWAP2 POP PUSH2 0x1A05 DUP3 PUSH2 0x199E JUMP JUMPDEST PUSH1 0x3D DUP3 ADD SWAP1 POP SWAP2 SWAP1 POP JUMP JUMPDEST PUSH32 0x3C747370616E20783D223339222064793D22312E32656D223E43757276652D50 PUSH1 0x0 DUP3 ADD MSTORE PUSH32 0x617468203A204F627365727661626C6520556E697665727365202D20203C2F74 PUSH1 0x20 DUP3 ADD MSTORE PUSH32 0x7370616E3E000000000000000000000000000000000000000000000000000000 PUSH1 0x40 DUP3 ADD MSTORE POP JUMP JUMPDEST PUSH1 0x0 PUSH2 0x1A92 PUSH1 0x45 DUP4 PUSH2 0x98E JUMP JUMPDEST SWAP2 POP PUSH2 0x1A9D DUP3 PUSH2 0x1A10 JUMP JUMPDEST PUSH1 0x45 DUP3 ADD SWAP1 POP SWAP2 SWAP1 POP JUMP JUMPDEST PUSH32 0x3C747370616E20783D223339222064793D22312E32656D223E5069736365732C PUSH1 0x0 DUP3 ADD MSTORE PUSH32 0x204365747573205375706572636C757374657220436F6D706C6578202D203C2F PUSH1 0x20 DUP3 ADD MSTORE PUSH32 0x747370616E3E0000000000000000000000000000000000000000000000000000 PUSH1 0x40 DUP3 ADD MSTORE POP JUMP JUMPDEST PUSH1 0x0 PUSH2 0x1B2A PUSH1 0x46 DUP4 PUSH2 0x98E JUMP JUMPDEST SWAP2 POP PUSH2 0x1B35 DUP3 PUSH2 0x1AA8 JUMP JUMPDEST PUSH1 0x46 DUP3 ADD SWAP1 POP SWAP2 SWAP1 POP JUMP JUMPDEST PUSH32 0x3C747370616E20783D223339222064793D22312E32656D223E4C616E69616B65 PUSH1 0x0 DUP3 ADD MSTORE PUSH32 0x61205375706572636C7573746572202D20566972676F205375706572636C7573 PUSH1 0x20 DUP3 ADD MSTORE PUSH32 0x746572202D203C2F747370616E3E000000000000000000000000000000000000 PUSH1 0x40 DUP3 ADD MSTORE POP JUMP JUMPDEST PUSH1 0x0 PUSH2 0x1BC2 PUSH1 0x4E DUP4 PUSH2 0x98E JUMP JUMPDEST SWAP2 POP PUSH2 0x1BCD DUP3 PUSH2 0x1B40 JUMP JUMPDEST PUSH1 0x4E DUP3 ADD SWAP1 POP SWAP2 SWAP1 POP JUMP JUMPDEST PUSH32 0x3C747370616E20783D223339222064793D22312E32656D223E4C6F63616C2047 PUSH1 0x0 DUP3 ADD MSTORE PUSH32 0x726F7570206F662047616C6178696573202D204D696C6B7920576179202D203C PUSH1 0x20 DUP3 ADD MSTORE PUSH32 0x2F747370616E3E00000000000000000000000000000000000000000000000000 PUSH1 0x40 DUP3 ADD MSTORE POP JUMP JUMPDEST PUSH1 0x0 PUSH2 0x1C5A PUSH1 0x47 DUP4 PUSH2 0x98E JUMP JUMPDEST SWAP2 POP PUSH2 0x1C65 DUP3 PUSH2 0x1BD8 JUMP JUMPDEST PUSH1 0x47 DUP3 ADD SWAP1 POP SWAP2 SWAP1 POP JUMP JUMPDEST PUSH32 0x3C747370616E20783D223339222064793D22312E32656D223E536F6C61722053 PUSH1 0x0 DUP3 ADD MSTORE PUSH32 0x797374656D20202D204561727468203C2F747370616E3E000000000000000000 PUSH1 0x20 DUP3 ADD MSTORE POP JUMP JUMPDEST PUSH1 0x0 PUSH2 0x1CCC PUSH1 0x37 DUP4 PUSH2 0x98E JUMP JUMPDEST SWAP2 POP PUSH2 0x1CD7 DUP3 PUSH2 0x1C70 JUMP JUMPDEST PUSH1 0x37 DUP3 ADD SWAP1 POP SWAP2 SWAP1 POP JUMP JUMPDEST PUSH32 0x3C7465787420783D2233392220793D22323530222064793D2233302220636C61 PUSH1 0x0 DUP3 ADD MSTORE PUSH32 0x73733D227469636B222066696C6C3D2223666666222069643D22564F4C223E56 PUSH1 0x20 DUP3 ADD MSTORE PUSH32 0x6F6C756D65203A20392A392A393C2F746578743E000000000000000000000000 PUSH1 0x40 DUP3 ADD MSTORE POP JUMP JUMPDEST PUSH1 0x0 PUSH2 0x1D64 PUSH1 0x54 DUP4 PUSH2 0x98E JUMP JUMPDEST SWAP2 POP PUSH2 0x1D6F DUP3 PUSH2 0x1CE2 JUMP JUMPDEST PUSH1 0x54 DUP3 ADD SWAP1 POP SWAP2 SWAP1 POP JUMP JUMPDEST PUSH32 0x3C7465787420783D2233392220793D22323830222064793D2233302220636C61 PUSH1 0x0 DUP3 ADD MSTORE PUSH32 0x73733D227469636B222066696C6C3D2223666666222069643D22555341474522 PUSH1 0x20 DUP3 ADD MSTORE PUSH32 0x3E5573616765203A20636F70696C6F742063617073756C653C2F746578743E00 PUSH1 0x40 DUP3 ADD MSTORE POP JUMP JUMPDEST PUSH1 0x0 PUSH2 0x1DFC PUSH1 0x5F DUP4 PUSH2 0x98E JUMP JUMPDEST SWAP2 POP PUSH2 0x1E07 DUP3 PUSH2 0x1D7A JUMP JUMPDEST PUSH1 0x5F DUP3 ADD SWAP1 POP SWAP2 SWAP1 POP JUMP JUMPDEST PUSH32 0x3C7465787420783D223234302220793D223630222064793D22312E32656D2220 PUSH1 0x0 DUP3 ADD MSTORE PUSH32 0x636C6173733D227469636B222066696C6C3D2223666666222069643D22535243 PUSH1 0x20 DUP3 ADD MSTORE PUSH32 0x222077726974696E672D6D6F64653D2274622D726C2220676C7970682D6F7269 PUSH1 0x40 DUP3 ADD MSTORE PUSH32 0x656E746174696F6E2D766572746963616C3D2230223E00000000000000000000 PUSH1 0x60 DUP3 ADD MSTORE POP JUMP JUMPDEST PUSH1 0x0 PUSH2 0x1EBA PUSH1 0x76 DUP4 PUSH2 0x98E JUMP JUMPDEST SWAP2 POP PUSH2 0x1EC5 DUP3 PUSH2 0x1E12 JUMP JUMPDEST PUSH1 0x76 DUP3 ADD SWAP1 POP SWAP2 SWAP1 POP JUMP JUMPDEST PUSH32 0x535243203A2068747470733A2F2F697066732E696F2F697066732F6261667962 PUSH1 0x0 DUP3 ADD MSTORE PUSH32 0x6569616568796B79616C337163776836736B6872707664756C7765346A367A68 PUSH1 0x20 DUP3 ADD MSTORE PUSH32 0x647A776975786C337A7776357667656A6B6761616E792F000000000000000000 PUSH1 0x40 DUP3 ADD MSTORE POP JUMP JUMPDEST PUSH1 0x0 PUSH2 0x1F52 PUSH1 0x57 DUP4 PUSH2 0x98E JUMP JUMPDEST SWAP2 POP PUSH2 0x1F5D DUP3 PUSH2 0x1ED0 JUMP JUMPDEST PUSH1 0x57 DUP3 ADD SWAP1 POP SWAP2 SWAP1 POP JUMP JUMPDEST PUSH32 0x2E6A736F6E000000000000000000000000000000000000000000000000000000 PUSH1 0x0 DUP3 ADD MSTORE POP JUMP JUMPDEST PUSH1 0x0 PUSH2 0x1F9E PUSH1 0x5 DUP4 PUSH2 0x98E JUMP JUMPDEST SWAP2 POP PUSH2 0x1FA9 DUP3 PUSH2 0x1F68 JUMP JUMPDEST PUSH1 0x5 DUP3 ADD SWAP1 POP SWAP2 SWAP1 POP JUMP JUMPDEST PUSH32 0x3C67207472616E73666F726D3D227472616E736C6174652833392C3433352920 PUSH1 0x0 DUP3 ADD MSTORE PUSH32 0x7363616C6528302E30362C2D302E303629222066696C6C3D2272676261283235 PUSH1 0x20 DUP3 ADD MSTORE PUSH32 0x352C203235352C203235352C20302E352922207374726F6B653D226E6F6E6522 PUSH1 0x40 DUP3 ADD MSTORE PUSH32 0x2069643D22746F7022203E3C7061746820643D224D343930203132343520632D PUSH1 0x60 DUP3 ADD MSTORE PUSH32 0x313731202D3437202D333332202D313738202D343034202D333237202D383820 PUSH1 0x80 DUP3 ADD MSTORE PUSH32 0x2D313833202D3837202D3337322033202D353533203337202D37342031323120 PUSH1 0xA0 DUP3 ADD MSTORE PUSH32 0x2D31383520313431202D31383520352030203130203135203132203333203320 PUSH1 0xC0 DUP3 ADD MSTORE PUSH32 0x3239203920333420353820353320373920333120313030203337203130302032 PUSH1 0xE0 DUP3 ADD MSTORE PUSH32 0x362030202D35202D3233202D3139202D3532202D3331206C2D3532202D323220 PUSH2 0x100 DUP3 ADD MSTORE PUSH32 0x3239202D313720633137202D3130203933202D353120313730202D3932206C31 PUSH2 0x120 DUP3 ADD MSTORE PUSH32 0x3430202D37332039302034372063343920323520313236203636203136392039 PUSH2 0x140 DUP3 ADD MSTORE PUSH32 0x30206C3830203434202D353220323220632D3239203132202D3532203236202D PUSH2 0x160 DUP3 ADD MSTORE PUSH32 0x353220333120302038203735202D313220313330202D3335206C3333202D3133 PUSH2 0x180 DUP3 ADD MSTORE PUSH32 0x202D313934202D31303420632D323036202D313131202D323139202D31323720 PUSH2 0x1A0 DUP3 ADD MSTORE PUSH32 0x2D3733202D393420313132203235203232342038352033303420313634203332 PUSH2 0x1C0 DUP3 ADD MSTORE PUSH32 0x31203331382031393720383637202D3233302031303138202D3934203333202D PUSH2 0x1E0 DUP3 ADD MSTORE PUSH32 0x323633203432202D3335302031387A206D2D36202D31343220633134202D3536 PUSH2 0x200 DUP3 ADD MSTORE PUSH32 0x203233202D313039203139202D313139202D34202D3132202D33202D31352035 PUSH2 0x220 DUP3 ADD MSTORE PUSH32 0x202D313020382035203130202D332037202D3236202D34202D3234202D33202D PUSH2 0x240 DUP3 ADD MSTORE PUSH32 0x32372033202D313420382031392039203139203134202D322035202D31362030 PUSH2 0x260 DUP3 ADD MSTORE PUSH32 0x202D3233202D3231202D3331202D3231202D38202D3232202D3130202D36202D PUSH2 0x280 DUP3 ADD MSTORE PUSH32 0x3130203131203020333820352035392031332034302031342034362032322037 PUSH2 0x2A0 DUP3 ADD MSTORE PUSH32 0x312031303620362032322035203233202D362039202D3230202D3234202D3935 PUSH2 0x2C0 DUP3 ADD MSTORE PUSH32 0x202D3334202D313033202D3134202D3420313220372032312034312033362032 PUSH2 0x2E0 DUP3 ADD MSTORE PUSH32 0x3520313120353520323120363620323320313620322032362031382034302036 PUSH2 0x300 DUP3 ADD MSTORE PUSH32 0x302031312033322032332035342032372034392038202D39203435202D313831 PUSH2 0x320 DUP3 ADD MSTORE PUSH32 0x203535202D3235332033202D32352038202D3534203131202D36362034202D31 PUSH2 0x340 DUP3 ADD MSTORE PUSH32 0x34202D31202D3234202D3138202D3332202D3439202D32332035202D31312037 PUSH2 0x360 DUP3 ADD MSTORE PUSH32 0x392031392039332033372031313820353620313031203736202D38203130202D PUSH2 0x380 DUP3 ADD MSTORE PUSH32 0x3330203133202D3737203131206C2D3635202D33202D313820343820632D3130 PUSH2 0x3A0 DUP3 ADD MSTORE PUSH32 0x203236202D3136203437202D313520343720322030203633202D323420313337 PUSH2 0x3C0 DUP3 ADD MSTORE PUSH32 0x202D3534206C313334202D3534202D3634202D323920632D3336202D3137202D PUSH2 0x3E0 DUP3 ADD MSTORE PUSH32 0x313231202D3536202D313839202D3838202D3639202D3332202D313330202D35 PUSH2 0x400 DUP3 ADD MSTORE PUSH32 0x38202D313335202D3538202D382030202D3130202D3836202D38202D32373420 PUSH2 0x420 DUP3 ADD MSTORE PUSH32 0x6C33202D323733202D31383820393620632D313033203533202D313934203130 PUSH2 0x440 DUP3 ADD MSTORE PUSH32 0x31202D32303120313037202D392037202D3133203331202D3132203731203420 PUSH2 0x460 DUP3 ADD MSTORE PUSH32 0x313037203020313633202D313020313431202D35202D3132202D39202D313420 PUSH2 0x480 DUP3 ADD MSTORE PUSH32 0x2D39202D36202D312038202D3133203330202D3238203439202D313520323020 PUSH2 0x4A0 DUP3 ADD MSTORE PUSH32 0x2D3233203337202D313720333920333520313220333720323020323020363820 PUSH2 0x4C0 DUP3 ADD MSTORE PUSH32 0x2D38203236202D3234203534202D3333203631202D3136203132202D31312031 PUSH2 0x4E0 DUP3 ADD MSTORE PUSH32 0x33203335203134206C35342030202D3420333620632D33203432203920353420 PUSH2 0x500 DUP3 ADD MSTORE PUSH32 0x3832203830203436203137203437203138203730203838203331203936203631 PUSH2 0x520 DUP3 ADD MSTORE PUSH32 0x20313738203635203137342032202D32203135202D3439203239202D3130357A PUSH2 0x540 DUP3 ADD MSTORE PUSH32 0x206D353238202D34343120633332202D3131203732202D3331203930202D3434 PUSH2 0x560 DUP3 ADD MSTORE PUSH32 0x203330202D3231203331202D3233203132202D3236202D3132202D32202D3530 PUSH2 0x580 DUP3 ADD MSTORE PUSH32 0x202D3238202D3835202D3539202D3730202D3631202D313239202D3932202D31 PUSH2 0x5A0 DUP3 ADD MSTORE PUSH32 0x3733202D3933202D32372030202D32382031202D313420323220382031322032 PUSH2 0x5C0 DUP3 ADD MSTORE PUSH32 0x3720323520343320333020313520342034312032302035382033352031372031 PUSH2 0x5E0 DUP3 ADD MSTORE PUSH32 0x35203237203233203234203136202D35202D38202D31202D3820313720302031 PUSH2 0x600 DUP3 ADD MSTORE PUSH32 0x352037203230203134203133203139202D362033203520382032342031312031 PUSH2 0x620 DUP3 ADD MSTORE PUSH32 0x39203220362034202D33312035202D35342031202D3734202D34202D31323020 PUSH2 0x640 DUP3 ADD MSTORE PUSH32 0x2D3238202D3738202D3432202D3930202D3430202D3930203134203020353320 PUSH2 0x660 DUP3 ADD MSTORE PUSH32 0x3134203936203338203131342032332031382031323020313020313934202D31 PUSH2 0x680 DUP3 ADD MSTORE PUSH32 0x367A206D2D3837202D31333220632D3130202D3131202D3233202D3230202D32 PUSH2 0x6A0 DUP3 ADD MSTORE PUSH32 0x39202D3230202D36203020302039203134203230203332203235203338203235 PUSH2 0x6C0 DUP3 ADD MSTORE PUSH32 0x20313520307A222F3E3C7061746820643D224D3332302038373020633139202D PUSH2 0x6E0 DUP3 ADD MSTORE PUSH32 0x3131203430202D3139203435202D313920362030202D362038202D3235203139 PUSH2 0x700 DUP3 ADD MSTORE PUSH32 0x202D3139203131202D3339203139202D3435203139202D3520302036202D3820 PUSH2 0x720 DUP3 ADD MSTORE PUSH32 0x3235202D31397A222F3E3C7061746820643D224D343530203831302063313920 PUSH2 0x740 DUP3 ADD MSTORE PUSH32 0x2D3131203430202D3139203435202D313920362030202D362038202D32352031 PUSH2 0x760 DUP3 ADD MSTORE PUSH32 0x39202D3139203131202D3339203139202D3435203139202D3520302036202D38 PUSH2 0x780 DUP3 ADD MSTORE PUSH32 0x203235202D31397A222F3E3C7061746820643D224D3239302037353920632D31 PUSH2 0x7A0 DUP3 ADD MSTORE PUSH32 0x32202D38202D3130202D392038202D34203731203230203931202D3132332032 PUSH2 0x7C0 DUP3 ADD MSTORE PUSH32 0x34202D313736202D3231202D3136202D3233202D3230202D38202D3138203538 PUSH2 0x7E0 DUP3 ADD MSTORE PUSH32 0x2031312038322031333520333520313835202D3235203236202D333620323920 PUSH2 0x800 DUP3 ADD MSTORE PUSH32 0x2D35392031337A222F3E3C7061746820643D224D353730203735352063313420 PUSH2 0x820 DUP3 ADD MSTORE PUSH32 0x2D38203330202D3134203335202D313420362030202D312036202D3135203134 PUSH2 0x840 DUP3 ADD MSTORE PUSH32 0x202D31342038202D3239203134202D3335203134202D3520302031202D362031 PUSH2 0x860 DUP3 ADD MSTORE PUSH32 0x35202D31347A222F3E3C7061746820643D224D3532352036363020632D313720 PUSH2 0x880 DUP3 ADD MSTORE PUSH32 0x2D37202D3134202D39203132202D39203638202D32203835202D313231203237 PUSH2 0x8A0 DUP3 ADD MSTORE PUSH32 0x202D313833202D3235202D3236202D3236202D3239202D37202D313920363620 PUSH2 0x8C0 DUP3 ADD MSTORE PUSH32 0x333420373120313637203820323036202D31322038202D3238203130202D3430 PUSH2 0x8E0 DUP3 ADD MSTORE PUSH32 0x20357A222F3E3C2F673E00000000000000000000000000000000000000000000 PUSH2 0x900 DUP3 ADD MSTORE POP JUMP JUMPDEST PUSH1 0x0 PUSH2 0x2ADC PUSH2 0x90A DUP4 PUSH2 0x98E JUMP JUMPDEST SWAP2 POP PUSH2 0x2AE7 DUP3 PUSH2 0x1FB4 JUMP JUMPDEST PUSH2 0x90A DUP3 ADD SWAP1 POP SWAP2 SWAP1 POP JUMP JUMPDEST PUSH32 0x3C2F7376673E0000000000000000000000000000000000000000000000000000 PUSH1 0x0 DUP3 ADD MSTORE POP JUMP JUMPDEST PUSH1 0x0 PUSH2 0x2B29 PUSH1 0x6 DUP4 PUSH2 0x98E JUMP JUMPDEST SWAP2 POP PUSH2 0x2B34 DUP3 PUSH2 0x2AF3 JUMP JUMPDEST PUSH1 0x6 DUP3 ADD SWAP1 POP SWAP2 SWAP1 POP JUMP JUMPDEST PUSH1 0x0 PUSH2 0x2B4A DUP3 PUSH2 0x112B JUMP JUMPDEST SWAP2 POP PUSH2 0x2B55 DUP3 PUSH2 0x1177 JUMP JUMPDEST SWAP2 POP PUSH2 0x2B60 DUP3 PUSH2 0x11E9 JUMP JUMPDEST SWAP2 POP PUSH2 0x2B6B DUP3 PUSH2 0x125B JUMP JUMPDEST SWAP2 POP PUSH2 0x2B76 DUP3 PUSH2 0x12CD JUMP JUMPDEST SWAP2 POP PUSH2 0x2B81 DUP3 PUSH2 0x1319 JUMP JUMPDEST SWAP2 POP PUSH2 0x2B8C DUP3 PUSH2 0x1365 JUMP JUMPDEST SWAP2 POP PUSH2 0x2B97 DUP3 PUSH2 0x13D7 JUMP JUMPDEST SWAP2 POP PUSH2 0x2BA2 DUP3 PUSH2 0x1449 JUMP JUMPDEST SWAP2 POP PUSH2 0x2BAE DUP3 DUP12 PUSH2 0xA57 JUMP JUMPDEST SWAP2 POP PUSH2 0x2BB9 DUP3 PUSH2 0x1495 JUMP JUMPDEST SWAP2 POP PUSH2 0x2BC5 DUP3 DUP11 PUSH2 0xA57 JUMP JUMPDEST SWAP2 POP PUSH2 0x2BD0 DUP3 PUSH2 0x14E1 JUMP JUMPDEST SWAP2 POP PUSH2 0x2BDC DUP3 DUP10 PUSH2 0xA57 JUMP JUMPDEST SWAP2 POP PUSH2 0x2BE7 DUP3 PUSH2 0x152D JUMP JUMPDEST SWAP2 POP PUSH2 0x2BF2 DUP3 PUSH2 0x159F JUMP JUMPDEST SWAP2 POP PUSH2 0x2BFE DUP3 DUP9 PUSH2 0xA57 JUMP JUMPDEST SWAP2 POP PUSH2 0x2C09 DUP3 PUSH2 0x1495 JUMP JUMPDEST SWAP2 POP PUSH2 0x2C15 DUP3 DUP8 PUSH2 0xA57 JUMP JUMPDEST SWAP2 POP PUSH2 0x2C20 DUP3 PUSH2 0x14E1 JUMP JUMPDEST SWAP2 POP PUSH2 0x2C2C DUP3 DUP7 PUSH2 0xA57 JUMP JUMPDEST SWAP2 POP PUSH2 0x2C37 DUP3 PUSH2 0x152D JUMP JUMPDEST SWAP2 POP PUSH2 0x2C42 DUP3 PUSH2 0x15EB JUMP JUMPDEST SWAP2 POP PUSH2 0x2C4D DUP3 PUSH2 0x1637 JUMP JUMPDEST SWAP2 POP PUSH2 0x2C58 DUP3 PUSH2 0x16A9 JUMP JUMPDEST SWAP2 POP PUSH2 0x2C63 DUP3 PUSH2 0x1767 JUMP JUMPDEST SWAP2 POP PUSH2 0x2C6E DUP3 PUSH2 0x17FF JUMP JUMPDEST SWAP2 POP PUSH2 0x2C79 DUP3 PUSH2 0x1897 JUMP JUMPDEST SWAP2 POP PUSH2 0x2C85 DUP3 DUP6 PUSH2 0xA57 JUMP JUMPDEST SWAP2 POP PUSH2 0x2C90 DUP3 PUSH2 0x18E3 JUMP JUMPDEST SWAP2 POP PUSH2 0x2C9B DUP3 PUSH2 0x197B JUMP JUMPDEST SWAP2 POP PUSH2 0x2CA6 DUP3 PUSH2 0x19ED JUMP JUMPDEST SWAP2 POP PUSH2 0x2CB1 DUP3 PUSH2 0x1A85 JUMP JUMPDEST SWAP2 POP PUSH2 0x2CBC DUP3 PUSH2 0x1B1D JUMP JUMPDEST SWAP2 POP PUSH2 0x2CC7 DUP3 PUSH2 0x1BB5 JUMP JUMPDEST SWAP2 POP PUSH2 0x2CD2 DUP3 PUSH2 0x1C4D JUMP JUMPDEST SWAP2 POP PUSH2 0x2CDD DUP3 PUSH2 0x1CBF JUMP JUMPDEST SWAP2 POP PUSH2 0x2CE8 DUP3 PUSH2 0x18E3 JUMP JUMPDEST SWAP2 POP PUSH2 0x2CF3 DUP3 PUSH2 0x1D57 JUMP JUMPDEST SWAP2 POP PUSH2 0x2CFE DUP3 PUSH2 0x1DEF JUMP JUMPDEST SWAP2 POP PUSH2 0x2D09 DUP3 PUSH2 0x1EAD JUMP JUMPDEST SWAP2 POP PUSH2 0x2D14 DUP3 PUSH2 0x1F45 JUMP JUMPDEST SWAP2 POP PUSH2 0x2D20 DUP3 DUP5 PUSH2 0xA57 JUMP JUMPDEST SWAP2 POP PUSH2 0x2D2B DUP3 PUSH2 0x1F91 JUMP JUMPDEST SWAP2 POP PUSH2 0x2D36 DUP3 PUSH2 0x18E3 JUMP JUMPDEST SWAP2 POP PUSH2 0x2D41 DUP3 PUSH2 0x2ACE JUMP JUMPDEST SWAP2 POP PUSH2 0x2D4C DUP3 PUSH2 0x2B1C JUMP JUMPDEST SWAP2 POP DUP2 SWAP1 POP SWAP10 SWAP9 POP POP POP POP POP POP POP POP POP JUMP JUMPDEST PUSH32 0x2F00000000000000000000000000000000000000000000000000000000000000 PUSH1 0x0 DUP3 ADD MSTORE POP JUMP JUMPDEST PUSH1 0x0 PUSH2 0x2D94 PUSH1 0x1 DUP4 PUSH2 0x98E JUMP JUMPDEST SWAP2 POP PUSH2 0x2D9F DUP3 PUSH2 0x2D5E JUMP JUMPDEST PUSH1 0x1 DUP3 ADD SWAP1 POP SWAP2 SWAP1 POP JUMP JUMPDEST PUSH32 0x2E00000000000000000000000000000000000000000000000000000000000000 PUSH1 0x0 DUP3 ADD MSTORE POP JUMP JUMPDEST PUSH1 0x0 PUSH2 0x2DE0 PUSH1 0x1 DUP4 PUSH2 0x98E JUMP JUMPDEST SWAP2 POP PUSH2 0x2DEB DUP3 PUSH2 0x2DAA JUMP JUMPDEST PUSH1 0x1 DUP3 ADD SWAP1 POP SWAP2 SWAP1 POP JUMP JUMPDEST PUSH1 0x0 PUSH2 0x2E02 DUP3 DUP7 PUSH2 0xA57 JUMP JUMPDEST SWAP2 POP PUSH2 0x2E0D DUP3 PUSH2 0x2D87 JUMP JUMPDEST SWAP2 POP PUSH2 0x2E19 DUP3 DUP6 PUSH2 0xA57 JUMP JUMPDEST SWAP2 POP PUSH2 0x2E24 DUP3 PUSH2 0x2DD3 JUMP JUMPDEST SWAP2 POP PUSH2 0x2E30 DUP3 DUP5 PUSH2 0xA57 JUMP JUMPDEST SWAP2 POP DUP2 SWAP1 POP SWAP5 SWAP4 POP POP POP POP JUMP JUMPDEST PUSH32 0x22616E696D6174696F6E5F75726C223A22000000000000000000000000000000 PUSH1 0x0 DUP3 ADD MSTORE POP JUMP JUMPDEST PUSH1 0x0 PUSH2 0x2E73 PUSH1 0x11 DUP4 PUSH2 0x98E JUMP JUMPDEST SWAP2 POP PUSH2 0x2E7E DUP3 PUSH2 0x2E3D JUMP JUMPDEST PUSH1 0x11 DUP3 ADD SWAP1 POP SWAP2 SWAP1 POP JUMP JUMPDEST PUSH32 0x2E6A736F6E227D2C000000000000000000000000000000000000000000000000 PUSH1 0x0 DUP3 ADD MSTORE POP JUMP JUMPDEST PUSH1 0x0 PUSH2 0x2EBF PUSH1 0x8 DUP4 PUSH2 0x98E JUMP JUMPDEST SWAP2 POP PUSH2 0x2ECA DUP3 PUSH2 0x2E89 JUMP JUMPDEST PUSH1 0x8 DUP3 ADD SWAP1 POP SWAP2 SWAP1 POP JUMP JUMPDEST PUSH32 0x7B2274726169745F74797065223A22416E696D6174696F6E222C2276616C7565 PUSH1 0x0 DUP3 ADD MSTORE PUSH32 0x223A220000000000000000000000000000000000000000000000000000000000 PUSH1 0x20 DUP3 ADD MSTORE POP JUMP JUMPDEST PUSH1 0x0 PUSH2 0x2F31 PUSH1 0x23 DUP4 PUSH2 0x98E JUMP JUMPDEST SWAP2 POP PUSH2 0x2F3C DUP3 PUSH2 0x2ED5 JUMP JUMPDEST PUSH1 0x23 DUP3 ADD SWAP1 POP SWAP2 SWAP1 POP JUMP JUMPDEST PUSH32 0x227D000000000000000000000000000000000000000000000000000000000000 PUSH1 0x0 DUP3 ADD MSTORE POP JUMP JUMPDEST PUSH1 0x0 PUSH2 0x2F7D PUSH1 0x2 DUP4 PUSH2 0x98E JUMP JUMPDEST SWAP2 POP PUSH2 0x2F88 DUP3 PUSH2 0x2F47 JUMP JUMPDEST PUSH1 0x2 DUP3 ADD SWAP1 POP SWAP2 SWAP1 POP JUMP JUMPDEST PUSH1 0x0 PUSH2 0x2F9E DUP3 PUSH2 0x9C2 JUMP JUMPDEST SWAP2 POP PUSH2 0x2FA9 DUP3 PUSH2 0xA34 JUMP JUMPDEST SWAP2 POP PUSH2 0x2FB5 DUP3 DUP9 PUSH2 0xA57 JUMP JUMPDEST SWAP2 POP PUSH2 0x2FC0 DUP3 PUSH2 0xAB1 JUMP JUMPDEST SWAP2 POP PUSH2 0x2FCB DUP3 PUSH2 0x2E66 JUMP JUMPDEST SWAP2 POP PUSH2 0x2FD7 DUP3 DUP8 PUSH2 0xA57 JUMP JUMPDEST SWAP2 POP PUSH2 0x2FE2 DUP3 PUSH2 0xAB1 JUMP JUMPDEST SWAP2 POP PUSH2 0x2FED DUP3 PUSH2 0xAFD JUMP JUMPDEST SWAP2 POP PUSH2 0x2FF8 DUP3 PUSH2 0xB49 JUMP JUMPDEST SWAP2 POP PUSH2 0x3004 DUP3 DUP7 PUSH2 0xA57 JUMP JUMPDEST SWAP2 POP PUSH2 0x300F DUP3 PUSH2 0xB95 JUMP JUMPDEST SWAP2 POP PUSH2 0x301A DUP3 PUSH2 0xC07 JUMP JUMPDEST SWAP2 POP PUSH2 0x3025 DUP3 PUSH2 0xD37 JUMP JUMPDEST SWAP2 POP PUSH2 0x3030 DUP3 PUSH2 0xDA9 JUMP JUMPDEST SWAP2 POP PUSH2 0x303B DUP3 PUSH2 0xE67 JUMP JUMPDEST SWAP2 POP PUSH2 0x3047 DUP3 DUP6 PUSH2 0xA57 JUMP JUMPDEST SWAP2 POP PUSH2 0x3052 DUP3 PUSH2 0x2EB2 JUMP JUMPDEST SWAP2 POP PUSH2 0x305D DUP3 PUSH2 0x2F24 JUMP JUMPDEST SWAP2 POP PUSH2 0x3069 DUP3 DUP5 PUSH2 0xA57 JUMP JUMPDEST SWAP2 POP PUSH2 0x3074 DUP3 PUSH2 0x2F70 JUMP JUMPDEST SWAP2 POP PUSH2 0x307F DUP3 PUSH2 0xEFF JUMP JUMPDEST SWAP2 POP DUP2 SWAP1 POP SWAP7 SWAP6 POP POP POP POP POP POP JUMP JUMPDEST PUSH1 0x0 PUSH2 0x3099 DUP3 PUSH2 0x62D JUMP JUMPDEST SWAP2 POP PUSH2 0x30A4 DUP4 PUSH2 0x62D JUMP JUMPDEST SWAP3 POP DUP3 PUSH2 0x30B4 JUMPI PUSH2 0x30B3 PUSH2 0x1048 JUMP JUMPDEST JUMPDEST DUP3 DUP3 DIV SWAP1 POP SWAP3 SWAP2 POP POP JUMP INVALID COINBASE TIMESTAMP NUMBER PREVRANDAO GASLIMIT CHAINID SELFBALANCE BASEFEE 0x49 0x4A 0x4B 0x4C 0x4D 0x4E 0x4F POP MLOAD MSTORE MSTORE8 SLOAD SSTORE JUMP JUMPI PC MSIZE GAS PUSH2 0x6263 PUSH5 0x6566676869 PUSH11 0x6B6C6D6E6F707172737475 PUSH23 0x7778797A303132333435363738392B2FA2646970667358 0x22 SLT KECCAK256 0xEF PUSH21 0xA2F5019785817A5C09098A5D5553285B86537D0231 REVERT POP 0xBA 0xBF PUSH3 0x250E8D SHR PUSH5 0x736F6C6343 STOP ADDMOD SLT STOP CALLER "},"methodIdentifiers":{"MAX_AMOUNT()":"d40dc870","MAX_TOKENS()":"f47c84c5","_mintPrice()":"0387da42","animation_ext()":"012f1738","animation_url()":"a7796d03","approve(address,uint256)":"095ea7b3","balanceOf(address)":"70a08231","getApproved(uint256)":"081812fc","gift(address,uint256)":"cbce4c97","isApprovedForAll(address,address)":"e985e9c5","mint(uint256)":"a0712d68","mintTo(address,string)":"0075a317","name()":"06fdde03","owner()":"8da5cb5b","ownerOf(uint256)":"6352211e","renounceOwnership()":"715018a6","safeTransferFrom(address,address,uint256)":"42842e0e","safeTransferFrom(address,address,uint256,bytes)":"b88d4fde","setAnimationExt(string)":"5cbfedc9","setAnimationUrl(string)":"28e56c5e","setApprovalForAll(address,bool)":"a22cb465","setMintPrice(uint256)":"f4a0a528","supportsInterface(bytes4)":"01ffc9a7","symbol()":"95d89b41","tokenByIndex(uint256)":"4f6ccce7","tokenOfOwnerByIndex(address,uint256)":"2f745c59","tokenURI(uint256)":"c87b56dd","totalSupply()":"18160ddd","transferFrom(address,address,uint256)":"23b872dd","transferOwnership(address)":"f2fde38b","withdraw()":"3ccfd60b"}}}}}