{
  "_format": "hh-sol-artifact-1",
  "contractName": "GenTool",
  "sourceName": "contracts/genTool.sol",
  "abi": [
    {
      "inputs": [
        {
          "internalType": "uint256",
          "name": "tokenId",
          "type": "uint256"
        },
        {
          "internalType": "string",
          "name": "svg",
          "type": "string"
        }
      ],
      "name": "generateMetadata",
      "outputs": [
        {
          "internalType": "string",
          "name": "",
          "type": "string"
        }
      ],
      "stateMutability": "pure",
      "type": "function"
    },
    {
      "inputs": [
        {
          "internalType": "uint256",
          "name": "tokenId",
          "type": "uint256"
        },
        {
          "internalType": "string",
          "name": "svg",
          "type": "string"
        },
        {
          "internalType": "string",
          "name": "animationUrl",
          "type": "string"
        },
        {
          "internalType": "string",
          "name": "animationExt",
          "type": "string"
        }
      ],
      "name": "generateMetadata",
      "outputs": [
        {
          "internalType": "string",
          "name": "",
          "type": "string"
        }
      ],
      "stateMutability": "pure",
      "type": "function"
    },
    {
      "inputs": [
        {
          "internalType": "uint256",
          "name": "tokenId",
          "type": "uint256"
        }
      ],
      "name": "generateSVG",
      "outputs": [
        {
          "internalType": "string",
          "name": "",
          "type": "string"
        }
      ],
      "stateMutability": "pure",
      "type": "function"
    }
  ],
  "bytecode": "0x608060405234801561001057600080fd5b50613135806100206000396000f3fe608060405234801561001057600080fd5b50600436106100415760003560e01c8063691a3ca0146100465780636dcee4ca146100765780637b5d473b146100a6575b600080fd5b610060600480360381019061005b91906107a9565b6100d6565b60405161006d9190610884565b60405180910390f35b610090600480360381019061008b91906108a6565b61012c565b60405161009d9190610884565b60405180910390f35b6100c060048036038101906100bb91906108d3565b6101fd565b6040516100cd9190610884565b60405180910390f35b6060600082905060006100e882610295565b905060006100f5866103f8565b9050600082828360405160200161010e93929190610f22565b60405160208183030381529060405290508094505050505092915050565b606060006101366103e5846101419190611006565b61014b9190611077565b90506000610136602d8361015f91906110a8565b6101699190611077565b90506000605090506000603c90506000605a90506000610188866103f8565b610191856103f8565b61019a856103f8565b6101a3886103f8565b6101ac886103f8565b6101b5876103f8565b6101be8e6103f8565b6101c78f6103f8565b6040516020016101de989796959493929190612b3f565b6040516020818303038152906040529050809650505050505050919050565b60606000849050600061020f82610295565b9050600061021c886103f8565b905060606000865111156102555786828760405160200161023f93929190612df6565b6040516020818303038152906040529050610259565b8690505b60008382848585604051602001610274959493929190612f93565b60405160208183030381529060405290508095505050505050949350505050565b606060008251036102b7576040518060200160405280600081525090506103f3565b60006040518060600160405280604081526020016130c060409139905060006003600285516102e691906110a8565b6102f0919061308e565b60046102fc9190611006565b67ffffffffffffffff8111156103155761031461067e565b5b6040519080825280601f01601f1916602001820160405280156103475781602001600182028036833780820191505090505b509050600182016020820185865187015b808210156103b3576003820191508151603f8160121c168501518453600184019350603f81600c1c168501518453600184019350603f8160061c168501518453600184019350603f8116850151845360018401935050610358565b50506003865106600181146103cf57600281146103e2576103ea565b603d6001830353603d60028303536103ea565b603d60018303535b50505080925050505b919050565b606060006001610407846104c6565b01905060008167ffffffffffffffff8111156104265761042561067e565b5b6040519080825280601f01601f1916602001820160405280156104585781602001600182028036833780820191505090505b509050600082602001820190505b6001156104bb578080600190039150507f3031323334353637383961626364656600000000000000000000000000000000600a86061a8153600a85816104af576104ae611048565b5b04945060008503610466575b819350505050919050565b600080600090507a184f03e93ff9f4daa797ed6e38ed64bf6a1f0100000000000000008310610524577a184f03e93ff9f4daa797ed6e38ed64bf6a1f010000000000000000838161051a57610519611048565b5b0492506040810190505b6d04ee2d6d415b85acef81000000008310610561576d04ee2d6d415b85acef8100000000838161055757610556611048565b5b0492506020810190505b662386f26fc10000831061059057662386f26fc10000838161058657610585611048565b5b0492506010810190505b6305f5e10083106105b9576305f5e10083816105af576105ae611048565b5b0492506008810190505b61271083106105de5761271083816105d4576105d3611048565b5b0492506004810190505b6064831061060157606483816105f7576105f6611048565b5b0492506002810190505b600a8310610610576001810190505b80915050919050565b6000604051905090565b600080fd5b600080fd5b6000819050919050565b6106408161062d565b811461064b57600080fd5b50565b60008135905061065d81610637565b92915050565b600080fd5b600080fd5b6000601f19601f8301169050919050565b7f4e487b7100000000000000000000000000000000000000000000000000000000600052604160045260246000fd5b6106b68261066d565b810181811067ffffffffffffffff821117156106d5576106d461067e565b5b80604052505050565b60006106e8610619565b90506106f482826106ad565b919050565b600067ffffffffffffffff8211156107145761071361067e565b5b61071d8261066d565b9050602081019050919050565b82818337600083830152505050565b600061074c610747846106f9565b6106de565b90508281526020810184848401111561076857610767610668565b5b61077384828561072a565b509392505050565b600082601f8301126107905761078f610663565b5b81356107a0848260208601610739565b91505092915050565b600080604083850312156107c0576107bf610623565b5b60006107ce8582860161064e565b925050602083013567ffffffffffffffff8111156107ef576107ee610628565b5b6107fb8582860161077b565b9150509250929050565b600081519050919050565b600082825260208201905092915050565b60005b8381101561083f578082015181840152602081019050610824565b60008484015250505050565b600061085682610805565b6108608185610810565b9350610870818560208601610821565b6108798161066d565b840191505092915050565b6000602082019050818103600083015261089e818461084b565b905092915050565b6000602082840312156108bc576108bb610623565b5b60006108ca8482850161064e565b91505092915050565b600080600080608085870312156108ed576108ec610623565b5b60006108fb8782880161064e565b945050602085013567ffffffffffffffff81111561091c5761091b610628565b5b6109288782880161077b565b935050604085013567ffffffffffffffff81111561094957610948610628565b5b6109558782880161077b565b925050606085013567ffffffffffffffff81111561097657610975610628565b5b6109828782880161077b565b91505092959194509250565b600081905092915050565b7f7b226e616d65223a22446f6d656c616e64222c00000000000000000000000000600082015250565b60006109cf60138361098e565b91506109da82610999565b601382019050919050565b7f22696d616765223a22646174613a696d6167652f7376672b786d6c3b6261736560008201527f36342c0000000000000000000000000000000000000000000000000000000000602082015250565b6000610a4160238361098e565b9150610a4c826109e5565b602382019050919050565b6000610a6282610805565b610a6c818561098e565b9350610a7c818560208601610821565b80840191505092915050565b7f222c000000000000000000000000000000000000000000000000000000000000600082015250565b6000610abe60028361098e565b9150610ac982610a88565b600282019050919050565b7f2261747472696275746573223a5b000000000000000000000000000000000000600082015250565b6000610b0a600e8361098e565b9150610b1582610ad4565b600e82019050919050565b7f7b2274726169745f74797065223a22444323222c2276616c7565223a22000000600082015250565b6000610b56601d8361098e565b9150610b6182610b20565b601d82019050919050565b7f227d2c0000000000000000000000000000000000000000000000000000000000600082015250565b6000610ba260038361098e565b9150610bad82610b6c565b600382019050919050565b7f7b2274726169745f74797065223a22554e495423222c2276616c7565223a223060008201527f227d2c0000000000000000000000000000000000000000000000000000000000602082015250565b6000610c1460238361098e565b9150610c1f82610bb8565b602382019050919050565b7f7b2274726169745f74797065223a224a554d502d50415448222c2276616c756560008201527f223a224f627365727661626c6520556e697665727365202e2e2e20506973636560208201527f732c204365747573205375706572636c757374657220436f6d706c6578202e2e60408201527f2e204c616e69616b6561205375706572636c7573746572202e2e2e205669726760608201527f6f205375706572636c7573746572202e2e2e204c6f63616c2047726f7570206f60808201527f662047616c6178696573202e2e2e204d696c6b7920576179202e2e2e20536f6c60a08201527f61722053797374656d202e2e2e204561727468227d2c0000000000000000000060c082015250565b6000610d4460d68361098e565b9150610d4f82610c2a565b60d682019050919050565b7f7b2274726169745f74797065223a22564f4c222c2276616c7565223a2239583960008201527f5839227d2c000000000000000000000000000000000000000000000000000000602082015250565b6000610db660258361098e565b9150610dc182610d5a565b602582019050919050565b7f7b2274726169745f74797065223a22535243222c2276616c7565223a2268747460008201527f70733a2f2f697066732e696f2f697066732f62616679626569616568796b796160208201527f6c337163776836736b6872707664756c7765346a367a68647a776975786c337a60408201527f7776357667656a6b6761616e792f000000000000000000000000000000000000606082015250565b6000610e74606e8361098e565b9150610e7f82610dcc565b606e82019050919050565b7f2e6a736f6e227d00000000000000000000000000000000000000000000000000600082015250565b6000610ec060078361098e565b9150610ecb82610e8a565b600782019050919050565b7f5d7d000000000000000000000000000000000000000000000000000000000000600082015250565b6000610f0c60028361098e565b9150610f1782610ed6565b600282019050919050565b6000610f2d826109c2565b9150610f3882610a34565b9150610f448286610a57565b9150610f4f82610ab1565b9150610f5a82610afd565b9150610f6582610b49565b9150610f718285610a57565b9150610f7c82610b95565b9150610f8782610c07565b9150610f9282610d37565b9150610f9d82610da9565b9150610fa882610e67565b9150610fb48284610a57565b9150610fbf82610eb3565b9150610fca82610eff565b9150819050949350505050565b7f4e487b7100000000000000000000000000000000000000000000000000000000600052601160045260246000fd5b60006110118261062d565b915061101c8361062d565b925082820261102a8161062d565b9150828204841483151761104157611040610fd7565b5b5092915050565b7f4e487b7100000000000000000000000000000000000000000000000000000000600052601260045260246000fd5b60006110828261062d565b915061108d8361062d565b92508261109d5761109c611048565b5b828206905092915050565b60006110b38261062d565b91506110be8361062d565b92508282019050808211156110d6576110d5610fd7565b5b92915050565b7f3c73766720786d6c6e733d22687474703a2f2f7777772e77332e6f72672f323060008201527f30302f737667222076696577426f783d223020302033303020343830223e0000602082015250565b6000611138603e8361098e565b9150611143826110dc565b603e82019050919050565b7f3c7374796c653e00000000000000000000000000000000000000000000000000600082015250565b600061118460078361098e565b915061118f8261114e565b600782019050919050565b7f2e746f6b656e73207b20666f6e743a20626f6c6420323470782073616e732d7360008201527f657269663b207d00000000000000000000000000000000000000000000000000602082015250565b60006111f660278361098e565b91506112018261119a565b602782019050919050565b7f2e666565207b20666f6e743a206e6f726d616c20313270782073616e732d736560008201527f7269663b207d0000000000000000000000000000000000000000000000000000602082015250565b600061126860268361098e565b91506112738261120c565b602682019050919050565b7f2e7469636b207b20666f6e743a206e6f726d616c203870782073616e732d736560008201527f7269663b207d0000000000000000000000000000000000000000000000000000602082015250565b60006112da60268361098e565b91506112e58261127e565b602682019050919050565b7f3c2f7374796c653e000000000000000000000000000000000000000000000000600082015250565b600061132660088361098e565b9150611331826112f0565b600882019050919050565b7f3c646566733e0000000000000000000000000000000000000000000000000000600082015250565b600061137260068361098e565b915061137d8261133c565b600682019050919050565b7f3c6c696e6561724772616469656e742069643d2267726164222078313d22302260008201527f2079313d2230222078323d2231222079323d2231223e00000000000000000000602082015250565b60006113e460368361098e565b91506113ef82611388565b603682019050919050565b7f3c73746f70206f66667365743d223025222073746f702d636f6c6f723d22687360008201527f6c28000000000000000000000000000000000000000000000000000000000000602082015250565b600061145660228361098e565b9150611461826113fa565b602282019050919050565b7f2c20000000000000000000000000000000000000000000000000000000000000600082015250565b60006114a260028361098e565b91506114ad8261146c565b600282019050919050565b7f252c200000000000000000000000000000000000000000000000000000000000600082015250565b60006114ee60038361098e565b91506114f9826114b8565b600382019050919050565b7f2529222f3e000000000000000000000000000000000000000000000000000000600082015250565b600061153a60058361098e565b915061154582611504565b600582019050919050565b7f3c73746f70206f66667365743d2231303025222073746f702d636f6c6f723d2260008201527f68736c2800000000000000000000000000000000000000000000000000000000602082015250565b60006115ac60248361098e565b91506115b782611550565b602482019050919050565b7f3c2f6c696e6561724772616469656e743e000000000000000000000000000000600082015250565b60006115f860118361098e565b9150611603826115c2565b601182019050919050565b7f3c2f646566733e00000000000000000000000000000000000000000000000000600082015250565b600061164460078361098e565b915061164f8261160e565b600782019050919050565b7f3c726563742077696474683d2233303022206865696768743d2234383022206660008201527f696c6c3d2275726c2823677261642922202f3e00000000000000000000000000602082015250565b60006116b660338361098e565b91506116c18261165a565b603382019050919050565b7f3c7265637420783d2233302220793d223330222077696474683d22323430222060008201527f6865696768743d22343230222072783d223135222072793d223135222066696c60208201527f6c3d2268736c28302c30252c30252922207374726f6b653d222330303022206960408201527f643d226d617022202f3e00000000000000000000000000000000000000000000606082015250565b6000611774606a8361098e565b915061177f826116cc565b606a82019050919050565b7f3c7465787420783d2233392220793d2239302220636c6173733d22746f6b656e60008201527f73222066696c6c3d2223666666222069643d226e616d65223e20444f4d454c4160208201527f4e44203c2f746578743e00000000000000000000000000000000000000000000604082015250565b600061180c604a8361098e565b91506118178261178a565b604a82019050919050565b7f3c7465787420783d2233392220793d22313130222064793d2231352220636c6160008201527f73733d22746f6b656e73222066696c6c3d2223666666222069643d224443232260208201527f3e44432023000000000000000000000000000000000000000000000000000000604082015250565b60006118a460458361098e565b91506118af82611822565b604582019050919050565b7f3c2f746578743e00000000000000000000000000000000000000000000000000600082015250565b60006118f060078361098e565b91506118fb826118ba565b600782019050919050565b7f3c7465787420783d2233392220793d22313330222064793d2231352220636c6160008201527f73733d22666565222066696c6c3d2223666666222069643d22554e495423223e60208201527f554e4954202330203c2f746578743e0000000000000000000000000000000000604082015250565b6000611988604f8361098e565b915061199382611906565b604f82019050919050565b7f3c7465787420783d2233392220793d223138352220636c6173733d227469636b60008201527f222066696c6c3d2223666666222069643d224a554d502d50415448223e000000602082015250565b60006119fa603d8361098e565b9150611a058261199e565b603d82019050919050565b7f3c747370616e20783d223339222064793d22312e32656d223e43757276652d5060008201527f617468203a204f627365727661626c6520556e697665727365202d20203c2f7460208201527f7370616e3e000000000000000000000000000000000000000000000000000000604082015250565b6000611a9260458361098e565b9150611a9d82611a10565b604582019050919050565b7f3c747370616e20783d223339222064793d22312e32656d223e5069736365732c60008201527f204365747573205375706572636c757374657220436f6d706c6578202d203c2f60208201527f747370616e3e0000000000000000000000000000000000000000000000000000604082015250565b6000611b2a60468361098e565b9150611b3582611aa8565b604682019050919050565b7f3c747370616e20783d223339222064793d22312e32656d223e4c616e69616b6560008201527f61205375706572636c7573746572202d20566972676f205375706572636c757360208201527f746572202d203c2f747370616e3e000000000000000000000000000000000000604082015250565b6000611bc2604e8361098e565b9150611bcd82611b40565b604e82019050919050565b7f3c747370616e20783d223339222064793d22312e32656d223e4c6f63616c204760008201527f726f7570206f662047616c6178696573202d204d696c6b7920576179202d203c60208201527f2f747370616e3e00000000000000000000000000000000000000000000000000604082015250565b6000611c5a60478361098e565b9150611c6582611bd8565b604782019050919050565b7f3c747370616e20783d223339222064793d22312e32656d223e536f6c6172205360008201527f797374656d20202d204561727468203c2f747370616e3e000000000000000000602082015250565b6000611ccc60378361098e565b9150611cd782611c70565b603782019050919050565b7f3c7465787420783d2233392220793d22323530222064793d2233302220636c6160008201527f73733d227469636b222066696c6c3d2223666666222069643d22564f4c223e5660208201527f6f6c756d65203a20392a392a393c2f746578743e000000000000000000000000604082015250565b6000611d6460548361098e565b9150611d6f82611ce2565b605482019050919050565b7f3c7465787420783d2233392220793d22323830222064793d2233302220636c6160008201527f73733d227469636b222066696c6c3d2223666666222069643d2255534147452260208201527f3e5573616765203a20636f70696c6f742063617073756c653c2f746578743e00604082015250565b6000611dfc605f8361098e565b9150611e0782611d7a565b605f82019050919050565b7f3c7465787420783d223234302220793d223630222064793d22312e32656d222060008201527f636c6173733d227469636b222066696c6c3d2223666666222069643d2253524360208201527f222077726974696e672d6d6f64653d2274622d726c2220676c7970682d6f726960408201527f656e746174696f6e2d766572746963616c3d2230223e00000000000000000000606082015250565b6000611eba60768361098e565b9150611ec582611e12565b607682019050919050565b7f535243203a2068747470733a2f2f697066732e696f2f697066732f626166796260008201527f6569616568796b79616c337163776836736b6872707664756c7765346a367a6860208201527f647a776975786c337a7776357667656a6b6761616e792f000000000000000000604082015250565b6000611f5260578361098e565b9150611f5d82611ed0565b605782019050919050565b7f2e6a736f6e000000000000000000000000000000000000000000000000000000600082015250565b6000611f9e60058361098e565b9150611fa982611f68565b600582019050919050565b7f3c67207472616e73666f726d3d227472616e736c6174652833392c343335292060008201527f7363616c6528302e30362c2d302e303629222066696c6c3d227267626128323560208201527f352c203235352c203235352c20302e352922207374726f6b653d226e6f6e652260408201527f2069643d22746f7022203e3c7061746820643d224d343930203132343520632d60608201527f313731202d3437202d333332202d313738202d343034202d333237202d38382060808201527f2d313833202d3837202d3337322033202d353533203337202d3734203132312060a08201527f2d31383520313431202d3138352035203020313020313520313220333320332060c08201527f323920392033342035382035332037392033312031303020333720313030203260e08201527f362030202d35202d3233202d3139202d3532202d3331206c2d3532202d3232206101008201527f3239202d313720633137202d3130203933202d353120313730202d3932206c316101208201527f3430202d373320393020343720633439203235203132362036362031363920396101408201527f30206c3830203434202d353220323220632d3239203132202d3532203236202d6101608201527f353220333120302038203735202d313220313330202d3335206c3333202d31336101808201527f202d313934202d31303420632d323036202d313131202d323139202d313237206101a08201527f2d3733202d3934203131322032352032323420383520333034203136342033326101c08201527f31203331382031393720383637202d3233302031303138202d3934203333202d6101e08201527f323633203432202d3335302031387a206d2d36202d31343220633134202d35366102008201527f203233202d313039203139202d313139202d34202d3132202d33202d313520356102208201527f202d313020382035203130202d332037202d3236202d34202d3234202d33202d6102408201527f32372033202d313420382031392039203139203134202d322035202d313620306102608201527f202d3233202d3231202d3331202d3231202d38202d3232202d3130202d36202d6102808201527f31302031312030203338203520353920313320343020313420343620323220376102a08201527f312031303620362032322035203233202d362039202d3230202d3234202d39356102c08201527f202d3334202d313033202d3134202d34203132203720323120343120333620326102e08201527f35203131203535203231203636203233203136203220323620313820343020366103008201527f302031312033322032332035342032372034392038202d39203435202d3138316103208201527f203535202d3235332033202d32352038202d3534203131202d36362034202d316103408201527f34202d31202d3234202d3138202d3332202d3439202d32332035202d313120376103608201527f392031392039332033372031313820353620313031203736202d38203130202d6103808201527f3330203133202d3737203131206c2d3635202d33202d313820343820632d31306103a08201527f203236202d3136203437202d313520343720322030203633202d3234203133376103c08201527f202d3534206c313334202d3534202d3634202d323920632d3336202d3137202d6103e08201527f313231202d3536202d313839202d3838202d3639202d3332202d313330202d356104008201527f38202d313335202d3538202d382030202d3130202d3836202d38202d323734206104208201527f6c33202d323733202d31383820393620632d313033203533202d3139342031306104408201527f31202d32303120313037202d392037202d3133203331202d31322037312034206104608201527f313037203020313633202d313020313431202d35202d3132202d39202d3134206104808201527f2d39202d36202d312038202d3133203330202d3238203439202d3135203230206104a08201527f2d3233203337202d3137203339203335203132203337203230203230203638206104c08201527f2d38203236202d3234203534202d3333203631202d3136203132202d313120316104e08201527f33203335203134206c35342030202d3420333620632d332034322039203534206105008201527f38322038302034362031372034372031382037302038382033312039362036316105208201527f20313738203635203137342032202d32203135202d3439203239202d3130357a6105408201527f206d353238202d34343120633332202d3131203732202d3331203930202d34346105608201527f203330202d3231203331202d3233203132202d3236202d3132202d32202d35306105808201527f202d3238202d3835202d3539202d3730202d3631202d313239202d3932202d316105a08201527f3733202d3933202d32372030202d32382031202d3134203232203820313220326105c08201527f37203235203433203330203135203420343120323020353820333520313720316105e08201527f35203237203233203234203136202d35202d38202d31202d38203137203020316106008201527f352037203230203134203133203139202d3620332035203820323420313120316106208201527f39203220362034202d33312035202d35342031202d3734202d34202d313230206106408201527f2d3238202d3738202d3432202d3930202d3430202d39302031342030203533206106608201527f3134203936203338203131342032332031382031323020313020313934202d316106808201527f367a206d2d3837202d31333220632d3130202d3131202d3233202d3230202d326106a08201527f39202d3230202d362030203020392031342032302033322032352033382032356106c08201527f20313520307a222f3e3c7061746820643d224d3332302038373020633139202d6106e08201527f3131203430202d3139203435202d313920362030202d362038202d32352031396107008201527f202d3139203131202d3339203139202d3435203139202d3520302036202d38206107208201527f3235202d31397a222f3e3c7061746820643d224d3435302038313020633139206107408201527f2d3131203430202d3139203435202d313920362030202d362038202d323520316107608201527f39202d3139203131202d3339203139202d3435203139202d3520302036202d386107808201527f203235202d31397a222f3e3c7061746820643d224d3239302037353920632d316107a08201527f32202d38202d3130202d392038202d34203731203230203931202d31323320326107c08201527f34202d313736202d3231202d3136202d3233202d3230202d38202d31382035386107e08201527f2031312038322031333520333520313835202d3235203236202d3336203239206108008201527f2d35392031337a222f3e3c7061746820643d224d3537302037353520633134206108208201527f2d38203330202d3134203335202d313420362030202d312036202d31352031346108408201527f202d31342038202d3239203134202d3335203134202d3520302031202d3620316108608201527f35202d31347a222f3e3c7061746820643d224d3532352036363020632d3137206108808201527f2d37202d3134202d39203132202d39203638202d32203835202d3132312032376108a08201527f202d313833202d3235202d3236202d3236202d3239202d37202d3139203636206108c08201527f333420373120313637203820323036202d31322038202d3238203130202d34306108e08201527f20357a222f3e3c2f673e0000000000000000000000000000000000000000000061090082015250565b6000612adc61090a8361098e565b9150612ae782611fb4565b61090a82019050919050565b7f3c2f7376673e0000000000000000000000000000000000000000000000000000600082015250565b6000612b2960068361098e565b9150612b3482612af3565b600682019050919050565b6000612b4a8261112b565b9150612b5582611177565b9150612b60826111e9565b9150612b6b8261125b565b9150612b76826112cd565b9150612b8182611319565b9150612b8c82611365565b9150612b97826113d7565b9150612ba282611449565b9150612bae828b610a57565b9150612bb982611495565b9150612bc5828a610a57565b9150612bd0826114e1565b9150612bdc8289610a57565b9150612be78261152d565b9150612bf28261159f565b9150612bfe8288610a57565b9150612c0982611495565b9150612c158287610a57565b9150612c20826114e1565b9150612c2c8286610a57565b9150612c378261152d565b9150612c42826115eb565b9150612c4d82611637565b9150612c58826116a9565b9150612c6382611767565b9150612c6e826117ff565b9150612c7982611897565b9150612c858285610a57565b9150612c90826118e3565b9150612c9b8261197b565b9150612ca6826119ed565b9150612cb182611a85565b9150612cbc82611b1d565b9150612cc782611bb5565b9150612cd282611c4d565b9150612cdd82611cbf565b9150612ce8826118e3565b9150612cf382611d57565b9150612cfe82611def565b9150612d0982611ead565b9150612d1482611f45565b9150612d208284610a57565b9150612d2b82611f91565b9150612d36826118e3565b9150612d4182612ace565b9150612d4c82612b1c565b91508190509998505050505050505050565b7f2f00000000000000000000000000000000000000000000000000000000000000600082015250565b6000612d9460018361098e565b9150612d9f82612d5e565b600182019050919050565b7f2e00000000000000000000000000000000000000000000000000000000000000600082015250565b6000612de060018361098e565b9150612deb82612daa565b600182019050919050565b6000612e028286610a57565b9150612e0d82612d87565b9150612e198285610a57565b9150612e2482612dd3565b9150612e308284610a57565b9150819050949350505050565b7f22616e696d6174696f6e5f75726c223a22000000000000000000000000000000600082015250565b6000612e7360118361098e565b9150612e7e82612e3d565b601182019050919050565b7f2e6a736f6e227d2c000000000000000000000000000000000000000000000000600082015250565b6000612ebf60088361098e565b9150612eca82612e89565b600882019050919050565b7f7b2274726169745f74797065223a22416e696d6174696f6e222c2276616c756560008201527f223a220000000000000000000000000000000000000000000000000000000000602082015250565b6000612f3160238361098e565b9150612f3c82612ed5565b602382019050919050565b7f227d000000000000000000000000000000000000000000000000000000000000600082015250565b6000612f7d60028361098e565b9150612f8882612f47565b600282019050919050565b6000612f9e826109c2565b9150612fa982610a34565b9150612fb58288610a57565b9150612fc082610ab1565b9150612fcb82612e66565b9150612fd78287610a57565b9150612fe282610ab1565b9150612fed82610afd565b9150612ff882610b49565b91506130048286610a57565b915061300f82610b95565b915061301a82610c07565b915061302582610d37565b915061303082610da9565b915061303b82610e67565b91506130478285610a57565b915061305282612eb2565b915061305d82612f24565b91506130698284610a57565b915061307482612f70565b915061307f82610eff565b91508190509695505050505050565b60006130998261062d565b91506130a48361062d565b9250826130b4576130b3611048565b5b82820490509291505056fe4142434445464748494a4b4c4d4e4f505152535455565758595a6162636465666768696a6b6c6d6e6f707172737475767778797a303132333435363738392b2fa2646970667358221220ef74a2f5019785817a5c09098a5d5553285b86537d0231fd50babf62250e8d1c64736f6c63430008120033",
  "linkReferences": {},
  "deployedLinkReferences": {}
}